No.     Time           Source                Destination           Protocol Length Info
      1 0.000000000    host                  36.0                  USB      64     GET DESCRIPTOR Request DEVICE

Frame 1: 64 bytes on wire (512 bits), 64 bytes captured (512 bits) on interface 0
    Interface id: 0
    Encapsulation type: USB packets with Linux header and padding (115)
    Arrival Time: Dec 10, 2016 01:27:09.835145000 CET
    [Time shift for this packet: 0.000000000 seconds]
    Epoch Time: 1481329629.835145000 seconds
    [Time delta from previous captured frame: 0.000000000 seconds]
    [Time delta from previous displayed frame: 0.000000000 seconds]
    [Time since reference or first frame: 0.000000000 seconds]
    Frame Number: 1
    Frame Length: 64 bytes (512 bits)
    Capture Length: 64 bytes (512 bits)
    [Frame is marked: False]
    [Frame is ignored: False]
    [Protocols in frame: usb]
USB URB
    URB id: 0x00000000f29ad900
    URB type: URB_SUBMIT ('S')
    URB transfer type: URB_CONTROL (0x02)
    Endpoint: 0x80, Direction: IN
        1... .... = Direction: IN (1)
        .000 0000 = Endpoint value: 0
    Device: 36
    URB bus id: 4
    Device setup request: relevant (0)
    Data: not present ('<')
    URB sec: 1481329629
    URB usec: 835145
    URB status: Operation now in progress (-EINPROGRESS) (-115)
    URB length [bytes]: 40
    Data length [bytes]: 0
    [Response in: 2]
URB setup
    bmRequestType: 0x80
        1... .... = Direction: Device-to-host
        .00. .... = Type: Standard (0x00)
        ...0 0000 = Recipient: Device (0x00)
    bRequest: GET DESCRIPTOR (6)
    Descriptor Index: 0x00
    bDescriptorType: DEVICE (1)
    Language Id: no language specified (0x0000)
    wLength: 40

0000  00 d9 9a f2 00 00 00 00 53 02 80 24 04 00 00 3c   ........S..$...<
0010  dd 4b 4b 58 00 00 00 00 49 be 0c 00 8d ff ff ff   .KKX....I.......
0020  28 00 00 00 00 00 00 00 80 06 00 01 00 00 28 00   (.............(.
0030  00 00 00 00 00 00 00 00 00 02 00 00 00 00 00 00   ................
No.     Time           Source                Destination           Protocol Length Info
      2 0.001121000    36.0                  host                  USB      82     GET DESCRIPTOR Response DEVICE

Frame 2: 82 bytes on wire (656 bits), 82 bytes captured (656 bits) on interface 0
    Interface id: 0
    Encapsulation type: USB packets with Linux header and padding (115)
    Arrival Time: Dec 10, 2016 01:27:09.836266000 CET
    [Time shift for this packet: 0.000000000 seconds]
    Epoch Time: 1481329629.836266000 seconds
    [Time delta from previous captured frame: 0.001121000 seconds]
    [Time delta from previous displayed frame: 0.001121000 seconds]
    [Time since reference or first frame: 0.001121000 seconds]
    Frame Number: 2
    Frame Length: 82 bytes (656 bits)
    Capture Length: 82 bytes (656 bits)
    [Frame is marked: False]
    [Frame is ignored: False]
    [Protocols in frame: usb]
USB URB
    URB id: 0x00000000f29ad900
    URB type: URB_COMPLETE ('C')
    URB transfer type: URB_CONTROL (0x02)
    Endpoint: 0x80, Direction: IN
        1... .... = Direction: IN (1)
        .000 0000 = Endpoint value: 0
    Device: 36
    URB bus id: 4
    Device setup request: not relevant ('-')
    Data: present (0)
    URB sec: 1481329629
    URB usec: 836266
    URB status: Success (0)
    URB length [bytes]: 18
    Data length [bytes]: 18
    [Request in: 1]
    [Time from request: 0.001121000 seconds]
    [bInterfaceClass: Unknown (0xffff)]
DEVICE DESCRIPTOR
    bLength: 18
    bDescriptorType: DEVICE (1)
    bcdUSB: 0x0110
    bDeviceClass: Vendor Specific (0xff)
    bDeviceSubClass: 255
    bDeviceProtocol: 255
    bMaxPacketSize0: 8
    idVendor: Cybiko Inc. (0x0b66)
    idProduct: Xtreme (0x0041)
    bcdDevice: 0x0001
    iManufacturer: 4
    iProduct: 28
    iSerialNumber: 0
    bNumConfigurations: 1

0000  00 d9 9a f2 00 00 00 00 43 02 80 24 04 00 2d 00   ........C..$..-.
0010  dd 4b 4b 58 00 00 00 00 aa c2 0c 00 00 00 00 00   .KKX............
0020  12 00 00 00 12 00 00 00 00 00 00 00 00 00 00 00   ................
0030  00 00 00 00 00 00 00 00 00 02 00 00 00 00 00 00   ................
0040  12 01 10 01 ff ff ff 08 66 0b 41 00 01 00 04 1c   ........f.A.....
0050  00 01                                             ..
No.     Time           Source                Destination           Protocol Length Info
      5 16.398580000   host                  36.0                  USB      64     GET DESCRIPTOR Request DEVICE

Frame 5: 64 bytes on wire (512 bits), 64 bytes captured (512 bits) on interface 0
    Interface id: 0
    Encapsulation type: USB packets with Linux header and padding (115)
    Arrival Time: Dec 10, 2016 01:27:26.233725000 CET
    [Time shift for this packet: 0.000000000 seconds]
    Epoch Time: 1481329646.233725000 seconds
    [Time delta from previous captured frame: 16.391897000 seconds]
    [Time delta from previous displayed frame: 16.397459000 seconds]
    [Time since reference or first frame: 16.398580000 seconds]
    Frame Number: 5
    Frame Length: 64 bytes (512 bits)
    Capture Length: 64 bytes (512 bits)
    [Frame is marked: False]
    [Frame is ignored: False]
    [Protocols in frame: usb]
USB URB
    URB id: 0x00000000d10e89c0
    URB type: URB_SUBMIT ('S')
    URB transfer type: URB_CONTROL (0x02)
    Endpoint: 0x80, Direction: IN
        1... .... = Direction: IN (1)
        .000 0000 = Endpoint value: 0
    Device: 36
    URB bus id: 4
    Device setup request: relevant (0)
    Data: not present ('<')
    URB sec: 1481329646
    URB usec: 233725
    URB status: Operation now in progress (-EINPROGRESS) (-115)
    URB length [bytes]: 18
    Data length [bytes]: 0
    [Response in: 6]
URB setup
    bmRequestType: 0x80
        1... .... = Direction: Device-to-host
        .00. .... = Type: Standard (0x00)
        ...0 0000 = Recipient: Device (0x00)
    bRequest: GET DESCRIPTOR (6)
    Descriptor Index: 0x00
    bDescriptorType: DEVICE (1)
    Language Id: no language specified (0x0000)
    wLength: 18

0000  c0 89 0e d1 00 00 00 00 53 02 80 24 04 00 00 3c   ........S..$...<
0010  ee 4b 4b 58 00 00 00 00 fd 90 03 00 8d ff ff ff   .KKX............
0020  12 00 00 00 00 00 00 00 80 06 00 01 00 00 12 00   ................
0030  00 00 00 00 00 00 00 00 00 02 00 00 00 00 00 00   ................
No.     Time           Source                Destination           Protocol Length Info
      6 16.400112000   36.0                  host                  USB      82     GET DESCRIPTOR Response DEVICE

Frame 6: 82 bytes on wire (656 bits), 82 bytes captured (656 bits) on interface 0
    Interface id: 0
    Encapsulation type: USB packets with Linux header and padding (115)
    Arrival Time: Dec 10, 2016 01:27:26.235257000 CET
    [Time shift for this packet: 0.000000000 seconds]
    Epoch Time: 1481329646.235257000 seconds
    [Time delta from previous captured frame: 0.001532000 seconds]
    [Time delta from previous displayed frame: 0.001532000 seconds]
    [Time since reference or first frame: 16.400112000 seconds]
    Frame Number: 6
    Frame Length: 82 bytes (656 bits)
    Capture Length: 82 bytes (656 bits)
    [Frame is marked: False]
    [Frame is ignored: False]
    [Protocols in frame: usb]
USB URB
    URB id: 0x00000000d10e89c0
    URB type: URB_COMPLETE ('C')
    URB transfer type: URB_CONTROL (0x02)
    Endpoint: 0x80, Direction: IN
        1... .... = Direction: IN (1)
        .000 0000 = Endpoint value: 0
    Device: 36
    URB bus id: 4
    Device setup request: not relevant ('-')
    Data: present (0)
    URB sec: 1481329646
    URB usec: 235257
    URB status: Success (0)
    URB length [bytes]: 18
    Data length [bytes]: 18
    [Request in: 5]
    [Time from request: 0.001532000 seconds]
    [bInterfaceClass: Unknown (0xffff)]
DEVICE DESCRIPTOR
    bLength: 18
    bDescriptorType: DEVICE (1)
    bcdUSB: 0x0110
    bDeviceClass: Vendor Specific (0xff)
    bDeviceSubClass: 255
    bDeviceProtocol: 255
    bMaxPacketSize0: 8
    idVendor: Cybiko Inc. (0x0b66)
    idProduct: Xtreme (0x0041)
    bcdDevice: 0x0001
    iManufacturer: 4
    iProduct: 28
    iSerialNumber: 0
    bNumConfigurations: 1

0000  c0 89 0e d1 00 00 00 00 43 02 80 24 04 00 2d 00   ........C..$..-.
0010  ee 4b 4b 58 00 00 00 00 f9 96 03 00 00 00 00 00   .KKX............
0020  12 00 00 00 12 00 00 00 00 00 00 00 00 00 00 00   ................
0030  00 00 00 00 00 00 00 00 00 02 00 00 00 00 00 00   ................
0040  12 01 10 01 ff ff ff 08 66 0b 41 00 01 00 04 1c   ........f.A.....
0050  00 01                                             ..
No.     Time           Source                Destination           Protocol Length Info
      7 16.400147000   host                  36.0                  USB      64     GET DESCRIPTOR Request CONFIGURATION

Frame 7: 64 bytes on wire (512 bits), 64 bytes captured (512 bits) on interface 0
    Interface id: 0
    Encapsulation type: USB packets with Linux header and padding (115)
    Arrival Time: Dec 10, 2016 01:27:26.235292000 CET
    [Time shift for this packet: 0.000000000 seconds]
    Epoch Time: 1481329646.235292000 seconds
    [Time delta from previous captured frame: 0.000035000 seconds]
    [Time delta from previous displayed frame: 0.000035000 seconds]
    [Time since reference or first frame: 16.400147000 seconds]
    Frame Number: 7
    Frame Length: 64 bytes (512 bits)
    Capture Length: 64 bytes (512 bits)
    [Frame is marked: False]
    [Frame is ignored: False]
    [Protocols in frame: usb]
USB URB
    URB id: 0x00000000d10e89c0
    URB type: URB_SUBMIT ('S')
    URB transfer type: URB_CONTROL (0x02)
    Endpoint: 0x80, Direction: IN
        1... .... = Direction: IN (1)
        .000 0000 = Endpoint value: 0
    Device: 36
    URB bus id: 4
    Device setup request: relevant (0)
    Data: not present ('<')
    URB sec: 1481329646
    URB usec: 235292
    URB status: Operation now in progress (-EINPROGRESS) (-115)
    URB length [bytes]: 9
    Data length [bytes]: 0
    [Response in: 8]
URB setup
    bmRequestType: 0x80
        1... .... = Direction: Device-to-host
        .00. .... = Type: Standard (0x00)
        ...0 0000 = Recipient: Device (0x00)
    bRequest: GET DESCRIPTOR (6)
    Descriptor Index: 0x00
    bDescriptorType: CONFIGURATION (2)
    Language Id: no language specified (0x0000)
    wLength: 9

0000  c0 89 0e d1 00 00 00 00 53 02 80 24 04 00 00 3c   ........S..$...<
0010  ee 4b 4b 58 00 00 00 00 1c 97 03 00 8d ff ff ff   .KKX............
0020  09 00 00 00 00 00 00 00 80 06 00 02 00 00 09 00   ................
0030  00 00 00 00 00 00 00 00 00 02 00 00 00 00 00 00   ................
No.     Time           Source                Destination           Protocol Length Info
      8 16.402116000   36.0                  host                  USB      73     GET DESCRIPTOR Response CONFIGURATION

Frame 8: 73 bytes on wire (584 bits), 73 bytes captured (584 bits) on interface 0
    Interface id: 0
    Encapsulation type: USB packets with Linux header and padding (115)
    Arrival Time: Dec 10, 2016 01:27:26.237261000 CET
    [Time shift for this packet: 0.000000000 seconds]
    Epoch Time: 1481329646.237261000 seconds
    [Time delta from previous captured frame: 0.001969000 seconds]
    [Time delta from previous displayed frame: 0.001969000 seconds]
    [Time since reference or first frame: 16.402116000 seconds]
    Frame Number: 8
    Frame Length: 73 bytes (584 bits)
    Capture Length: 73 bytes (584 bits)
    [Frame is marked: False]
    [Frame is ignored: False]
    [Protocols in frame: usb]
USB URB
    URB id: 0x00000000d10e89c0
    URB type: URB_COMPLETE ('C')
    URB transfer type: URB_CONTROL (0x02)
    Endpoint: 0x80, Direction: IN
        1... .... = Direction: IN (1)
        .000 0000 = Endpoint value: 0
    Device: 36
    URB bus id: 4
    Device setup request: not relevant ('-')
    Data: present (0)
    URB sec: 1481329646
    URB usec: 237261
    URB status: Success (0)
    URB length [bytes]: 9
    Data length [bytes]: 9
    [Request in: 7]
    [Time from request: 0.001969000 seconds]
    [bInterfaceClass: Unknown (0xffff)]
CONFIGURATION DESCRIPTOR
    bLength: 9
    bDescriptorType: CONFIGURATION (2)
    wTotalLength: 46
    bNumInterfaces: 1
    bConfigurationValue: 1
    iConfiguration: 56
    Configuration bmAttributes: 0x80  NOT SELF-POWERED  NO REMOTE-WAKEUP
        1... .... = Must be 1: Must be 1 for USB 1.1 and higher
        .0.. .... = Self-Powered: This device is powered from the USB bus
        ..0. .... = Remote Wakeup: This device does NOT support remote wakeup
    bMaxPower: 150  (300mA)

0000  c0 89 0e d1 00 00 00 00 43 02 80 24 04 00 2d 00   ........C..$..-.
0010  ee 4b 4b 58 00 00 00 00 cd 9e 03 00 00 00 00 00   .KKX............
0020  09 00 00 00 09 00 00 00 00 00 00 00 00 00 00 00   ................
0030  00 00 00 00 00 00 00 00 00 02 00 00 00 00 00 00   ................
0040  09 02 2e 00 01 01 38 80 96                        ......8..
No.     Time           Source                Destination           Protocol Length Info
      9 16.402151000   host                  36.0                  USB      64     GET DESCRIPTOR Request CONFIGURATION

Frame 9: 64 bytes on wire (512 bits), 64 bytes captured (512 bits) on interface 0
    Interface id: 0
    Encapsulation type: USB packets with Linux header and padding (115)
    Arrival Time: Dec 10, 2016 01:27:26.237296000 CET
    [Time shift for this packet: 0.000000000 seconds]
    Epoch Time: 1481329646.237296000 seconds
    [Time delta from previous captured frame: 0.000035000 seconds]
    [Time delta from previous displayed frame: 0.000035000 seconds]
    [Time since reference or first frame: 16.402151000 seconds]
    Frame Number: 9
    Frame Length: 64 bytes (512 bits)
    Capture Length: 64 bytes (512 bits)
    [Frame is marked: False]
    [Frame is ignored: False]
    [Protocols in frame: usb]
USB URB
    URB id: 0x00000000d10e89c0
    URB type: URB_SUBMIT ('S')
    URB transfer type: URB_CONTROL (0x02)
    Endpoint: 0x80, Direction: IN
        1... .... = Direction: IN (1)
        .000 0000 = Endpoint value: 0
    Device: 36
    URB bus id: 4
    Device setup request: relevant (0)
    Data: not present ('<')
    URB sec: 1481329646
    URB usec: 237296
    URB status: Operation now in progress (-EINPROGRESS) (-115)
    URB length [bytes]: 46
    Data length [bytes]: 0
    [Response in: 10]
URB setup
    bmRequestType: 0x80
        1... .... = Direction: Device-to-host
        .00. .... = Type: Standard (0x00)
        ...0 0000 = Recipient: Device (0x00)
    bRequest: GET DESCRIPTOR (6)
    Descriptor Index: 0x00
    bDescriptorType: CONFIGURATION (2)
    Language Id: no language specified (0x0000)
    wLength: 46

0000  c0 89 0e d1 00 00 00 00 53 02 80 24 04 00 00 3c   ........S..$...<
0010  ee 4b 4b 58 00 00 00 00 f0 9e 03 00 8d ff ff ff   .KKX............
0020  2e 00 00 00 00 00 00 00 80 06 00 02 00 00 2e 00   ................
0030  00 00 00 00 00 00 00 00 00 02 00 00 00 00 00 00   ................
No.     Time           Source                Destination           Protocol Length Info
     10 16.405114000   36.0                  host                  USB      110    GET DESCRIPTOR Response CONFIGURATION

Frame 10: 110 bytes on wire (880 bits), 110 bytes captured (880 bits) on interface 0
    Interface id: 0
    Encapsulation type: USB packets with Linux header and padding (115)
    Arrival Time: Dec 10, 2016 01:27:26.240259000 CET
    [Time shift for this packet: 0.000000000 seconds]
    Epoch Time: 1481329646.240259000 seconds
    [Time delta from previous captured frame: 0.002963000 seconds]
    [Time delta from previous displayed frame: 0.002963000 seconds]
    [Time since reference or first frame: 16.405114000 seconds]
    Frame Number: 10
    Frame Length: 110 bytes (880 bits)
    Capture Length: 110 bytes (880 bits)
    [Frame is marked: False]
    [Frame is ignored: False]
    [Protocols in frame: usb]
USB URB
    URB id: 0x00000000d10e89c0
    URB type: URB_COMPLETE ('C')
    URB transfer type: URB_CONTROL (0x02)
    Endpoint: 0x80, Direction: IN
        1... .... = Direction: IN (1)
        .000 0000 = Endpoint value: 0
    Device: 36
    URB bus id: 4
    Device setup request: not relevant ('-')
    Data: present (0)
    URB sec: 1481329646
    URB usec: 240259
    URB status: Success (0)
    URB length [bytes]: 46
    Data length [bytes]: 46
    [Request in: 9]
    [Time from request: 0.002963000 seconds]
    [bInterfaceClass: Unknown (0xffff)]
CONFIGURATION DESCRIPTOR
    bLength: 9
    bDescriptorType: CONFIGURATION (2)
    wTotalLength: 46
    bNumInterfaces: 1
    bConfigurationValue: 1
    iConfiguration: 56
    Configuration bmAttributes: 0x80  NOT SELF-POWERED  NO REMOTE-WAKEUP
        1... .... = Must be 1: Must be 1 for USB 1.1 and higher
        .0.. .... = Self-Powered: This device is powered from the USB bus
        ..0. .... = Remote Wakeup: This device does NOT support remote wakeup
    bMaxPower: 150  (300mA)
INTERFACE DESCRIPTOR (0.0): class Vendor Specific
    bLength: 9
    bDescriptorType: INTERFACE (4)
    bInterfaceNumber: 0
    bAlternateSetting: 0
    bNumEndpoints: 4
    bInterfaceClass: Vendor Specific (0xff)
    bInterfaceSubClass: 0xff
    bInterfaceProtocol: 0xff
    iInterface: 0
ENDPOINT DESCRIPTOR
    bLength: 7
    bDescriptorType: ENDPOINT (5)
    bEndpointAddress: 0x81  IN  Endpoint:1
        1... .... = Direction: IN Endpoint
        .... 0001 = Endpoint Number: 0x01
    bmAttributes: 0x02
        .... ..10 = Transfertype: Bulk-Transfer (0x02)
        .... 00.. = Synchronisationtype: No Sync (0x00)
        ..00 .... = Behaviourtype: Data-Endpoint (0x00)
    wMaxPacketSize: 64
        .... ..00 0100 0000 = Maximum Packet Size: 64
    bInterval: 0
ENDPOINT DESCRIPTOR
    bLength: 7
    bDescriptorType: ENDPOINT (5)
    bEndpointAddress: 0x02  OUT  Endpoint:2
        0... .... = Direction: OUT Endpoint
        .... 0010 = Endpoint Number: 0x02
    bmAttributes: 0x02
        .... ..10 = Transfertype: Bulk-Transfer (0x02)
        .... 00.. = Synchronisationtype: No Sync (0x00)
        ..00 .... = Behaviourtype: Data-Endpoint (0x00)
    wMaxPacketSize: 64
        .... ..00 0100 0000 = Maximum Packet Size: 64
    bInterval: 0
ENDPOINT DESCRIPTOR
    bLength: 7
    bDescriptorType: ENDPOINT (5)
    bEndpointAddress: 0x83  IN  Endpoint:3
        1... .... = Direction: IN Endpoint
        .... 0011 = Endpoint Number: 0x03
    bmAttributes: 0x02
        .... ..10 = Transfertype: Bulk-Transfer (0x02)
        .... 00.. = Synchronisationtype: No Sync (0x00)
        ..00 .... = Behaviourtype: Data-Endpoint (0x00)
    wMaxPacketSize: 64
        .... ..00 0100 0000 = Maximum Packet Size: 64
    bInterval: 0
ENDPOINT DESCRIPTOR
    bLength: 7
    bDescriptorType: ENDPOINT (5)
    bEndpointAddress: 0x04  OUT  Endpoint:4
        0... .... = Direction: OUT Endpoint
        .... 0100 = Endpoint Number: 0x04
    bmAttributes: 0x02
        .... ..10 = Transfertype: Bulk-Transfer (0x02)
        .... 00.. = Synchronisationtype: No Sync (0x00)
        ..00 .... = Behaviourtype: Data-Endpoint (0x00)
    wMaxPacketSize: 64
        .... ..00 0100 0000 = Maximum Packet Size: 64
    bInterval: 0

0000  c0 89 0e d1 00 00 00 00 43 02 80 24 04 00 2d 00   ........C..$..-.
0010  ee 4b 4b 58 00 00 00 00 83 aa 03 00 00 00 00 00   .KKX............
0020  2e 00 00 00 2e 00 00 00 00 00 00 00 00 00 00 00   ................
0030  00 00 00 00 00 00 00 00 00 02 00 00 00 00 00 00   ................
0040  09 02 2e 00 01 01 38 80 96 09 04 00 00 04 ff ff   ......8.........
0050  ff 00 07 05 81 02 40 00 00 07 05 02 02 40 00 00   ......@......@..
0060  07 05 83 02 40 00 00 07 05 04 02 40 00 00         ....@......@..
No.     Time           Source                Destination           Protocol Length Info
     11 16.554379000   host                  36.0                  USB      64     GET DESCRIPTOR Request DEVICE

Frame 11: 64 bytes on wire (512 bits), 64 bytes captured (512 bits) on interface 0
    Interface id: 0
    Encapsulation type: USB packets with Linux header and padding (115)
    Arrival Time: Dec 10, 2016 01:27:26.389524000 CET
    [Time shift for this packet: 0.000000000 seconds]
    Epoch Time: 1481329646.389524000 seconds
    [Time delta from previous captured frame: 0.149265000 seconds]
    [Time delta from previous displayed frame: 0.149265000 seconds]
    [Time since reference or first frame: 16.554379000 seconds]
    Frame Number: 11
    Frame Length: 64 bytes (512 bits)
    Capture Length: 64 bytes (512 bits)
    [Frame is marked: False]
    [Frame is ignored: False]
    [Protocols in frame: usb]
USB URB
    URB id: 0x00000000d17976c0
    URB type: URB_SUBMIT ('S')
    URB transfer type: URB_CONTROL (0x02)
    Endpoint: 0x80, Direction: IN
        1... .... = Direction: IN (1)
        .000 0000 = Endpoint value: 0
    Device: 36
    URB bus id: 4
    Device setup request: relevant (0)
    Data: not present ('<')
    URB sec: 1481329646
    URB usec: 389524
    URB status: Operation now in progress (-EINPROGRESS) (-115)
    URB length [bytes]: 64
    Data length [bytes]: 0
    [Response in: 12]
URB setup
    bmRequestType: 0x80
        1... .... = Direction: Device-to-host
        .00. .... = Type: Standard (0x00)
        ...0 0000 = Recipient: Device (0x00)
    bRequest: GET DESCRIPTOR (6)
    Descriptor Index: 0x00
    bDescriptorType: DEVICE (1)
    Language Id: no language specified (0x0000)
    wLength: 64

0000  c0 76 79 d1 00 00 00 00 53 02 80 24 04 00 00 3c   .vy.....S..$...<
0010  ee 4b 4b 58 00 00 00 00 94 f1 05 00 8d ff ff ff   .KKX............
0020  40 00 00 00 00 00 00 00 80 06 00 01 00 00 40 00   @.............@.
0030  00 00 00 00 00 00 00 00 00 02 00 00 00 00 00 00   ................
No.     Time           Source                Destination           Protocol Length Info
     12 16.555100000   36.0                  host                  USB      82     GET DESCRIPTOR Response DEVICE

Frame 12: 82 bytes on wire (656 bits), 82 bytes captured (656 bits) on interface 0
    Interface id: 0
    Encapsulation type: USB packets with Linux header and padding (115)
    Arrival Time: Dec 10, 2016 01:27:26.390245000 CET
    [Time shift for this packet: 0.000000000 seconds]
    Epoch Time: 1481329646.390245000 seconds
    [Time delta from previous captured frame: 0.000721000 seconds]
    [Time delta from previous displayed frame: 0.000721000 seconds]
    [Time since reference or first frame: 16.555100000 seconds]
    Frame Number: 12
    Frame Length: 82 bytes (656 bits)
    Capture Length: 82 bytes (656 bits)
    [Frame is marked: False]
    [Frame is ignored: False]
    [Protocols in frame: usb]
USB URB
    URB id: 0x00000000d17976c0
    URB type: URB_COMPLETE ('C')
    URB transfer type: URB_CONTROL (0x02)
    Endpoint: 0x80, Direction: IN
        1... .... = Direction: IN (1)
        .000 0000 = Endpoint value: 0
    Device: 36
    URB bus id: 4
    Device setup request: not relevant ('-')
    Data: present (0)
    URB sec: 1481329646
    URB usec: 390245
    URB status: Success (0)
    URB length [bytes]: 18
    Data length [bytes]: 18
    [Request in: 11]
    [Time from request: 0.000721000 seconds]
    [bInterfaceClass: Unknown (0xffff)]
DEVICE DESCRIPTOR
    bLength: 18
    bDescriptorType: DEVICE (1)
    bcdUSB: 0x0110
    bDeviceClass: Vendor Specific (0xff)
    bDeviceSubClass: 255
    bDeviceProtocol: 255
    bMaxPacketSize0: 8
    idVendor: Cybiko Inc. (0x0b66)
    idProduct: Xtreme (0x0041)
    bcdDevice: 0x0001
    iManufacturer: 4
    iProduct: 28
    iSerialNumber: 0
    bNumConfigurations: 1

0000  c0 76 79 d1 00 00 00 00 43 02 80 24 04 00 2d 00   .vy.....C..$..-.
0010  ee 4b 4b 58 00 00 00 00 65 f4 05 00 00 00 00 00   .KKX....e.......
0020  12 00 00 00 12 00 00 00 00 00 00 00 00 00 00 00   ................
0030  00 00 00 00 00 00 00 00 00 02 00 00 00 00 00 00   ................
0040  12 01 10 01 ff ff ff 08 66 0b 41 00 01 00 04 1c   ........f.A.....
0050  00 01                                             ..
No.     Time           Source                Destination           Protocol Length Info
     13 16.604521000   host                  36.0                  USB      64     GET DESCRIPTOR Request DEVICE

Frame 13: 64 bytes on wire (512 bits), 64 bytes captured (512 bits) on interface 0
    Interface id: 0
    Encapsulation type: USB packets with Linux header and padding (115)
    Arrival Time: Dec 10, 2016 01:27:26.439666000 CET
    [Time shift for this packet: 0.000000000 seconds]
    Epoch Time: 1481329646.439666000 seconds
    [Time delta from previous captured frame: 0.049421000 seconds]
    [Time delta from previous displayed frame: 0.049421000 seconds]
    [Time since reference or first frame: 16.604521000 seconds]
    Frame Number: 13
    Frame Length: 64 bytes (512 bits)
    Capture Length: 64 bytes (512 bits)
    [Frame is marked: False]
    [Frame is ignored: False]
    [Protocols in frame: usb]
USB URB
    URB id: 0x00000000f5053a80
    URB type: URB_SUBMIT ('S')
    URB transfer type: URB_CONTROL (0x02)
    Endpoint: 0x80, Direction: IN
        1... .... = Direction: IN (1)
        .000 0000 = Endpoint value: 0
    Device: 36
    URB bus id: 4
    Device setup request: relevant (0)
    Data: not present ('<')
    URB sec: 1481329646
    URB usec: 439666
    URB status: Operation now in progress (-EINPROGRESS) (-115)
    URB length [bytes]: 18
    Data length [bytes]: 0
    [Response in: 14]
URB setup
    bmRequestType: 0x80
        1... .... = Direction: Device-to-host
        .00. .... = Type: Standard (0x00)
        ...0 0000 = Recipient: Device (0x00)
    bRequest: GET DESCRIPTOR (6)
    Descriptor Index: 0x00
    bDescriptorType: DEVICE (1)
    Language Id: no language specified (0x0000)
    wLength: 18

0000  80 3a 05 f5 00 00 00 00 53 02 80 24 04 00 00 3c   .:......S..$...<
0010  ee 4b 4b 58 00 00 00 00 72 b5 06 00 8d ff ff ff   .KKX....r.......
0020  12 00 00 00 00 00 00 00 80 06 00 01 00 00 12 00   ................
0030  00 00 00 00 00 00 00 00 00 02 00 00 00 00 00 00   ................
No.     Time           Source                Destination           Protocol Length Info
     14 16.606126000   36.0                  host                  USB      82     GET DESCRIPTOR Response DEVICE

Frame 14: 82 bytes on wire (656 bits), 82 bytes captured (656 bits) on interface 0
    Interface id: 0
    Encapsulation type: USB packets with Linux header and padding (115)
    Arrival Time: Dec 10, 2016 01:27:26.441271000 CET
    [Time shift for this packet: 0.000000000 seconds]
    Epoch Time: 1481329646.441271000 seconds
    [Time delta from previous captured frame: 0.001605000 seconds]
    [Time delta from previous displayed frame: 0.001605000 seconds]
    [Time since reference or first frame: 16.606126000 seconds]
    Frame Number: 14
    Frame Length: 82 bytes (656 bits)
    Capture Length: 82 bytes (656 bits)
    [Frame is marked: False]
    [Frame is ignored: False]
    [Protocols in frame: usb]
USB URB
    URB id: 0x00000000f5053a80
    URB type: URB_COMPLETE ('C')
    URB transfer type: URB_CONTROL (0x02)
    Endpoint: 0x80, Direction: IN
        1... .... = Direction: IN (1)
        .000 0000 = Endpoint value: 0
    Device: 36
    URB bus id: 4
    Device setup request: not relevant ('-')
    Data: present (0)
    URB sec: 1481329646
    URB usec: 441271
    URB status: Success (0)
    URB length [bytes]: 18
    Data length [bytes]: 18
    [Request in: 13]
    [Time from request: 0.001605000 seconds]
    [bInterfaceClass: Unknown (0xffff)]
DEVICE DESCRIPTOR
    bLength: 18
    bDescriptorType: DEVICE (1)
    bcdUSB: 0x0110
    bDeviceClass: Vendor Specific (0xff)
    bDeviceSubClass: 255
    bDeviceProtocol: 255
    bMaxPacketSize0: 8
    idVendor: Cybiko Inc. (0x0b66)
    idProduct: Xtreme (0x0041)
    bcdDevice: 0x0001
    iManufacturer: 4
    iProduct: 28
    iSerialNumber: 0
    bNumConfigurations: 1

0000  80 3a 05 f5 00 00 00 00 43 02 80 24 04 00 2d 00   .:......C..$..-.
0010  ee 4b 4b 58 00 00 00 00 b7 bb 06 00 00 00 00 00   .KKX............
0020  12 00 00 00 12 00 00 00 00 00 00 00 00 00 00 00   ................
0030  00 00 00 00 00 00 00 00 00 02 00 00 00 00 00 00   ................
0040  12 01 10 01 ff ff ff 08 66 0b 41 00 01 00 04 1c   ........f.A.....
0050  00 01                                             ..
No.     Time           Source                Destination           Protocol Length Info
     15 16.608806000   host                  36.0                  USB      64     GET DESCRIPTOR Request CONFIGURATION

Frame 15: 64 bytes on wire (512 bits), 64 bytes captured (512 bits) on interface 0
    Interface id: 0
    Encapsulation type: USB packets with Linux header and padding (115)
    Arrival Time: Dec 10, 2016 01:27:26.443951000 CET
    [Time shift for this packet: 0.000000000 seconds]
    Epoch Time: 1481329646.443951000 seconds
    [Time delta from previous captured frame: 0.002680000 seconds]
    [Time delta from previous displayed frame: 0.002680000 seconds]
    [Time since reference or first frame: 16.608806000 seconds]
    Frame Number: 15
    Frame Length: 64 bytes (512 bits)
    Capture Length: 64 bytes (512 bits)
    [Frame is marked: False]
    [Frame is ignored: False]
    [Protocols in frame: usb]
USB URB
    URB id: 0x00000000d10e8f00
    URB type: URB_SUBMIT ('S')
    URB transfer type: URB_CONTROL (0x02)
    Endpoint: 0x80, Direction: IN
        1... .... = Direction: IN (1)
        .000 0000 = Endpoint value: 0
    Device: 36
    URB bus id: 4
    Device setup request: relevant (0)
    Data: not present ('<')
    URB sec: 1481329646
    URB usec: 443951
    URB status: Operation now in progress (-EINPROGRESS) (-115)
    URB length [bytes]: 9
    Data length [bytes]: 0
    [Response in: 16]
URB setup
    bmRequestType: 0x80
        1... .... = Direction: Device-to-host
        .00. .... = Type: Standard (0x00)
        ...0 0000 = Recipient: Device (0x00)
    bRequest: GET DESCRIPTOR (6)
    Descriptor Index: 0x00
    bDescriptorType: CONFIGURATION (2)
    Language Id: no language specified (0x0000)
    wLength: 9

0000  00 8f 0e d1 00 00 00 00 53 02 80 24 04 00 00 3c   ........S..$...<
0010  ee 4b 4b 58 00 00 00 00 2f c6 06 00 8d ff ff ff   .KKX..../.......
0020  09 00 00 00 00 00 00 00 80 06 00 02 00 00 09 00   ................
0030  00 00 00 00 00 00 00 00 00 02 00 00 00 00 00 00   ................
No.     Time           Source                Destination           Protocol Length Info
     16 16.610115000   36.0                  host                  USB      73     GET DESCRIPTOR Response CONFIGURATION

Frame 16: 73 bytes on wire (584 bits), 73 bytes captured (584 bits) on interface 0
    Interface id: 0
    Encapsulation type: USB packets with Linux header and padding (115)
    Arrival Time: Dec 10, 2016 01:27:26.445260000 CET
    [Time shift for this packet: 0.000000000 seconds]
    Epoch Time: 1481329646.445260000 seconds
    [Time delta from previous captured frame: 0.001309000 seconds]
    [Time delta from previous displayed frame: 0.001309000 seconds]
    [Time since reference or first frame: 16.610115000 seconds]
    Frame Number: 16
    Frame Length: 73 bytes (584 bits)
    Capture Length: 73 bytes (584 bits)
    [Frame is marked: False]
    [Frame is ignored: False]
    [Protocols in frame: usb]
USB URB
    URB id: 0x00000000d10e8f00
    URB type: URB_COMPLETE ('C')
    URB transfer type: URB_CONTROL (0x02)
    Endpoint: 0x80, Direction: IN
        1... .... = Direction: IN (1)
        .000 0000 = Endpoint value: 0
    Device: 36
    URB bus id: 4
    Device setup request: not relevant ('-')
    Data: present (0)
    URB sec: 1481329646
    URB usec: 445260
    URB status: Success (0)
    URB length [bytes]: 9
    Data length [bytes]: 9
    [Request in: 15]
    [Time from request: 0.001309000 seconds]
    [bInterfaceClass: Unknown (0xffff)]
CONFIGURATION DESCRIPTOR
    bLength: 9
    bDescriptorType: CONFIGURATION (2)
    wTotalLength: 46
    bNumInterfaces: 1
    bConfigurationValue: 1
    iConfiguration: 56
    Configuration bmAttributes: 0x80  NOT SELF-POWERED  NO REMOTE-WAKEUP
        1... .... = Must be 1: Must be 1 for USB 1.1 and higher
        .0.. .... = Self-Powered: This device is powered from the USB bus
        ..0. .... = Remote Wakeup: This device does NOT support remote wakeup
    bMaxPower: 150  (300mA)

0000  00 8f 0e d1 00 00 00 00 43 02 80 24 04 00 2d 00   ........C..$..-.
0010  ee 4b 4b 58 00 00 00 00 4c cb 06 00 00 00 00 00   .KKX....L.......
0020  09 00 00 00 09 00 00 00 00 00 00 00 00 00 00 00   ................
0030  00 00 00 00 00 00 00 00 00 02 00 00 00 00 00 00   ................
0040  09 02 2e 00 01 01 38 80 96                        ......8..
No.     Time           Source                Destination           Protocol Length Info
     17 16.613085000   host                  36.0                  USB      64     GET DESCRIPTOR Request CONFIGURATION

Frame 17: 64 bytes on wire (512 bits), 64 bytes captured (512 bits) on interface 0
    Interface id: 0
    Encapsulation type: USB packets with Linux header and padding (115)
    Arrival Time: Dec 10, 2016 01:27:26.448230000 CET
    [Time shift for this packet: 0.000000000 seconds]
    Epoch Time: 1481329646.448230000 seconds
    [Time delta from previous captured frame: 0.002970000 seconds]
    [Time delta from previous displayed frame: 0.002970000 seconds]
    [Time since reference or first frame: 16.613085000 seconds]
    Frame Number: 17
    Frame Length: 64 bytes (512 bits)
    Capture Length: 64 bytes (512 bits)
    [Frame is marked: False]
    [Frame is ignored: False]
    [Protocols in frame: usb]
USB URB
    URB id: 0x00000000c0fa19c0
    URB type: URB_SUBMIT ('S')
    URB transfer type: URB_CONTROL (0x02)
    Endpoint: 0x80, Direction: IN
        1... .... = Direction: IN (1)
        .000 0000 = Endpoint value: 0
    Device: 36
    URB bus id: 4
    Device setup request: relevant (0)
    Data: not present ('<')
    URB sec: 1481329646
    URB usec: 448230
    URB status: Operation now in progress (-EINPROGRESS) (-115)
    URB length [bytes]: 255
    Data length [bytes]: 0
    [Response in: 18]
URB setup
    bmRequestType: 0x80
        1... .... = Direction: Device-to-host
        .00. .... = Type: Standard (0x00)
        ...0 0000 = Recipient: Device (0x00)
    bRequest: GET DESCRIPTOR (6)
    Descriptor Index: 0x00
    bDescriptorType: CONFIGURATION (2)
    Language Id: no language specified (0x0000)
    wLength: 255

0000  c0 19 fa c0 00 00 00 00 53 02 80 24 04 00 00 3c   ........S..$...<
0010  ee 4b 4b 58 00 00 00 00 e6 d6 06 00 8d ff ff ff   .KKX............
0020  ff 00 00 00 00 00 00 00 80 06 00 02 00 00 ff 00   ................
0030  00 00 00 00 00 00 00 00 00 02 00 00 00 00 00 00   ................
No.     Time           Source                Destination           Protocol Length Info
     18 16.615114000   36.0                  host                  USB      110    GET DESCRIPTOR Response CONFIGURATION

Frame 18: 110 bytes on wire (880 bits), 110 bytes captured (880 bits) on interface 0
    Interface id: 0
    Encapsulation type: USB packets with Linux header and padding (115)
    Arrival Time: Dec 10, 2016 01:27:26.450259000 CET
    [Time shift for this packet: 0.000000000 seconds]
    Epoch Time: 1481329646.450259000 seconds
    [Time delta from previous captured frame: 0.002029000 seconds]
    [Time delta from previous displayed frame: 0.002029000 seconds]
    [Time since reference or first frame: 16.615114000 seconds]
    Frame Number: 18
    Frame Length: 110 bytes (880 bits)
    Capture Length: 110 bytes (880 bits)
    [Frame is marked: False]
    [Frame is ignored: False]
    [Protocols in frame: usb]
USB URB
    URB id: 0x00000000c0fa19c0
    URB type: URB_COMPLETE ('C')
    URB transfer type: URB_CONTROL (0x02)
    Endpoint: 0x80, Direction: IN
        1... .... = Direction: IN (1)
        .000 0000 = Endpoint value: 0
    Device: 36
    URB bus id: 4
    Device setup request: not relevant ('-')
    Data: present (0)
    URB sec: 1481329646
    URB usec: 450259
    URB status: Success (0)
    URB length [bytes]: 46
    Data length [bytes]: 46
    [Request in: 17]
    [Time from request: 0.002029000 seconds]
    [bInterfaceClass: Unknown (0xffff)]
CONFIGURATION DESCRIPTOR
    bLength: 9
    bDescriptorType: CONFIGURATION (2)
    wTotalLength: 46
    bNumInterfaces: 1
    bConfigurationValue: 1
    iConfiguration: 56
    Configuration bmAttributes: 0x80  NOT SELF-POWERED  NO REMOTE-WAKEUP
        1... .... = Must be 1: Must be 1 for USB 1.1 and higher
        .0.. .... = Self-Powered: This device is powered from the USB bus
        ..0. .... = Remote Wakeup: This device does NOT support remote wakeup
    bMaxPower: 150  (300mA)
INTERFACE DESCRIPTOR (0.0): class Vendor Specific
    bLength: 9
    bDescriptorType: INTERFACE (4)
    bInterfaceNumber: 0
    bAlternateSetting: 0
    bNumEndpoints: 4
    bInterfaceClass: Vendor Specific (0xff)
    bInterfaceSubClass: 0xff
    bInterfaceProtocol: 0xff
    iInterface: 0
ENDPOINT DESCRIPTOR
    bLength: 7
    bDescriptorType: ENDPOINT (5)
    bEndpointAddress: 0x81  IN  Endpoint:1
        1... .... = Direction: IN Endpoint
        .... 0001 = Endpoint Number: 0x01
    bmAttributes: 0x02
        .... ..10 = Transfertype: Bulk-Transfer (0x02)
        .... 00.. = Synchronisationtype: No Sync (0x00)
        ..00 .... = Behaviourtype: Data-Endpoint (0x00)
    wMaxPacketSize: 64
        .... ..00 0100 0000 = Maximum Packet Size: 64
    bInterval: 0
ENDPOINT DESCRIPTOR
    bLength: 7
    bDescriptorType: ENDPOINT (5)
    bEndpointAddress: 0x02  OUT  Endpoint:2
        0... .... = Direction: OUT Endpoint
        .... 0010 = Endpoint Number: 0x02
    bmAttributes: 0x02
        .... ..10 = Transfertype: Bulk-Transfer (0x02)
        .... 00.. = Synchronisationtype: No Sync (0x00)
        ..00 .... = Behaviourtype: Data-Endpoint (0x00)
    wMaxPacketSize: 64
        .... ..00 0100 0000 = Maximum Packet Size: 64
    bInterval: 0
ENDPOINT DESCRIPTOR
    bLength: 7
    bDescriptorType: ENDPOINT (5)
    bEndpointAddress: 0x83  IN  Endpoint:3
        1... .... = Direction: IN Endpoint
        .... 0011 = Endpoint Number: 0x03
    bmAttributes: 0x02
        .... ..10 = Transfertype: Bulk-Transfer (0x02)
        .... 00.. = Synchronisationtype: No Sync (0x00)
        ..00 .... = Behaviourtype: Data-Endpoint (0x00)
    wMaxPacketSize: 64
        .... ..00 0100 0000 = Maximum Packet Size: 64
    bInterval: 0
ENDPOINT DESCRIPTOR
    bLength: 7
    bDescriptorType: ENDPOINT (5)
    bEndpointAddress: 0x04  OUT  Endpoint:4
        0... .... = Direction: OUT Endpoint
        .... 0100 = Endpoint Number: 0x04
    bmAttributes: 0x02
        .... ..10 = Transfertype: Bulk-Transfer (0x02)
        .... 00.. = Synchronisationtype: No Sync (0x00)
        ..00 .... = Behaviourtype: Data-Endpoint (0x00)
    wMaxPacketSize: 64
        .... ..00 0100 0000 = Maximum Packet Size: 64
    bInterval: 0

0000  c0 19 fa c0 00 00 00 00 43 02 80 24 04 00 2d 00   ........C..$..-.
0010  ee 4b 4b 58 00 00 00 00 d3 de 06 00 00 00 00 00   .KKX............
0020  2e 00 00 00 2e 00 00 00 00 00 00 00 00 00 00 00   ................
0030  00 00 00 00 00 00 00 00 00 02 00 00 00 00 00 00   ................
0040  09 02 2e 00 01 01 38 80 96 09 04 00 00 04 ff ff   ......8.........
0050  ff 00 07 05 81 02 40 00 00 07 05 02 02 40 00 00   ......@......@..
0060  07 05 83 02 40 00 00 07 05 04 02 40 00 00         ....@......@..
No.     Time           Source                Destination           Protocol Length Info
     19 16.618567000   host                  36.0                  USB      64     GET DESCRIPTOR Request STRING

Frame 19: 64 bytes on wire (512 bits), 64 bytes captured (512 bits) on interface 0
    Interface id: 0
    Encapsulation type: USB packets with Linux header and padding (115)
    Arrival Time: Dec 10, 2016 01:27:26.453712000 CET
    [Time shift for this packet: 0.000000000 seconds]
    Epoch Time: 1481329646.453712000 seconds
    [Time delta from previous captured frame: 0.003453000 seconds]
    [Time delta from previous displayed frame: 0.003453000 seconds]
    [Time since reference or first frame: 16.618567000 seconds]
    Frame Number: 19
    Frame Length: 64 bytes (512 bits)
    Capture Length: 64 bytes (512 bits)
    [Frame is marked: False]
    [Frame is ignored: False]
    [Protocols in frame: usb]
USB URB
    URB id: 0x00000000c0fa1b40
    URB type: URB_SUBMIT ('S')
    URB transfer type: URB_CONTROL (0x02)
    Endpoint: 0x80, Direction: IN
        1... .... = Direction: IN (1)
        .000 0000 = Endpoint value: 0
    Device: 36
    URB bus id: 4
    Device setup request: relevant (0)
    Data: not present ('<')
    URB sec: 1481329646
    URB usec: 453712
    URB status: Operation now in progress (-EINPROGRESS) (-115)
    URB length [bytes]: 255
    Data length [bytes]: 0
    [Response in: 20]
URB setup
    bmRequestType: 0x80
        1... .... = Direction: Device-to-host
        .00. .... = Type: Standard (0x00)
        ...0 0000 = Recipient: Device (0x00)
    bRequest: GET DESCRIPTOR (6)
    Descriptor Index: 0x00
    bDescriptorType: STRING (3)
    Language Id: no language specified (0x0000)
    wLength: 255

0000  40 1b fa c0 00 00 00 00 53 02 80 24 04 00 00 3c   @.......S..$...<
0010  ee 4b 4b 58 00 00 00 00 50 ec 06 00 8d ff ff ff   .KKX....P.......
0020  ff 00 00 00 00 00 00 00 80 06 00 03 00 00 ff 00   ................
0030  00 00 00 00 00 00 00 00 00 02 00 00 00 00 00 00   ................
No.     Time           Source                Destination           Protocol Length Info
     20 16.619101000   36.0                  host                  USB      68     GET DESCRIPTOR Response STRING

Frame 20: 68 bytes on wire (544 bits), 68 bytes captured (544 bits) on interface 0
    Interface id: 0
    Encapsulation type: USB packets with Linux header and padding (115)
    Arrival Time: Dec 10, 2016 01:27:26.454246000 CET
    [Time shift for this packet: 0.000000000 seconds]
    Epoch Time: 1481329646.454246000 seconds
    [Time delta from previous captured frame: 0.000534000 seconds]
    [Time delta from previous displayed frame: 0.000534000 seconds]
    [Time since reference or first frame: 16.619101000 seconds]
    Frame Number: 20
    Frame Length: 68 bytes (544 bits)
    Capture Length: 68 bytes (544 bits)
    [Frame is marked: False]
    [Frame is ignored: False]
    [Protocols in frame: usb]
USB URB
    URB id: 0x00000000c0fa1b40
    URB type: URB_COMPLETE ('C')
    URB transfer type: URB_CONTROL (0x02)
    Endpoint: 0x80, Direction: IN
        1... .... = Direction: IN (1)
        .000 0000 = Endpoint value: 0
    Device: 36
    URB bus id: 4
    Device setup request: not relevant ('-')
    Data: present (0)
    URB sec: 1481329646
    URB usec: 454246
    URB status: Success (0)
    URB length [bytes]: 4
    Data length [bytes]: 4
    [Request in: 19]
    [Time from request: 0.000534000 seconds]
    [bInterfaceClass: Unknown (0xffff)]
STRING DESCRIPTOR
    bLength: 4
    bDescriptorType: STRING (3)
    wLANGID: English (United States) (0x0409)

0000  40 1b fa c0 00 00 00 00 43 02 80 24 04 00 2d 00   @.......C..$..-.
0010  ee 4b 4b 58 00 00 00 00 66 ee 06 00 00 00 00 00   .KKX....f.......
0020  04 00 00 00 04 00 00 00 00 00 00 00 00 00 00 00   ................
0030  00 00 00 00 00 00 00 00 00 02 00 00 00 00 00 00   ................
0040  04 03 09 04                                       ....
No.     Time           Source                Destination           Protocol Length Info
     21 16.621803000   host                  36.0                  USB      64     GET DESCRIPTOR Request STRING

Frame 21: 64 bytes on wire (512 bits), 64 bytes captured (512 bits) on interface 0
    Interface id: 0
    Encapsulation type: USB packets with Linux header and padding (115)
    Arrival Time: Dec 10, 2016 01:27:26.456948000 CET
    [Time shift for this packet: 0.000000000 seconds]
    Epoch Time: 1481329646.456948000 seconds
    [Time delta from previous captured frame: 0.002702000 seconds]
    [Time delta from previous displayed frame: 0.002702000 seconds]
    [Time since reference or first frame: 16.621803000 seconds]
    Frame Number: 21
    Frame Length: 64 bytes (512 bits)
    Capture Length: 64 bytes (512 bits)
    [Frame is marked: False]
    [Frame is ignored: False]
    [Protocols in frame: usb]
USB URB
    URB id: 0x00000000dbcdfc00
    URB type: URB_SUBMIT ('S')
    URB transfer type: URB_CONTROL (0x02)
    Endpoint: 0x80, Direction: IN
        1... .... = Direction: IN (1)
        .000 0000 = Endpoint value: 0
    Device: 36
    URB bus id: 4
    Device setup request: relevant (0)
    Data: not present ('<')
    URB sec: 1481329646
    URB usec: 456948
    URB status: Operation now in progress (-EINPROGRESS) (-115)
    URB length [bytes]: 255
    Data length [bytes]: 0
    [Response in: 22]
URB setup
    bmRequestType: 0x80
        1... .... = Direction: Device-to-host
        .00. .... = Type: Standard (0x00)
        ...0 0000 = Recipient: Device (0x00)
    bRequest: GET DESCRIPTOR (6)
    Descriptor Index: 0x1c
    bDescriptorType: STRING (3)
    Language Id: English (United States) (0x0409)
    wLength: 255

0000  00 fc cd db 00 00 00 00 53 02 80 24 04 00 00 3c   ........S..$...<
0010  ee 4b 4b 58 00 00 00 00 f4 f8 06 00 8d ff ff ff   .KKX............
0020  ff 00 00 00 00 00 00 00 80 06 1c 03 09 04 ff 00   ................
0030  00 00 00 00 00 00 00 00 00 02 00 00 00 00 00 00   ................
No.     Time           Source                Destination           Protocol Length Info
     22 16.623116000   36.0                  host                  USB      92     GET DESCRIPTOR Response STRING

Frame 22: 92 bytes on wire (736 bits), 92 bytes captured (736 bits) on interface 0
    Interface id: 0
    Encapsulation type: USB packets with Linux header and padding (115)
    Arrival Time: Dec 10, 2016 01:27:26.458261000 CET
    [Time shift for this packet: 0.000000000 seconds]
    Epoch Time: 1481329646.458261000 seconds
    [Time delta from previous captured frame: 0.001313000 seconds]
    [Time delta from previous displayed frame: 0.001313000 seconds]
    [Time since reference or first frame: 16.623116000 seconds]
    Frame Number: 22
    Frame Length: 92 bytes (736 bits)
    Capture Length: 92 bytes (736 bits)
    [Frame is marked: False]
    [Frame is ignored: False]
    [Protocols in frame: usb]
USB URB
    URB id: 0x00000000dbcdfc00
    URB type: URB_COMPLETE ('C')
    URB transfer type: URB_CONTROL (0x02)
    Endpoint: 0x80, Direction: IN
        1... .... = Direction: IN (1)
        .000 0000 = Endpoint value: 0
    Device: 36
    URB bus id: 4
    Device setup request: not relevant ('-')
    Data: present (0)
    URB sec: 1481329646
    URB usec: 458261
    URB status: Success (0)
    URB length [bytes]: 28
    Data length [bytes]: 28
    [Request in: 21]
    [Time from request: 0.001313000 seconds]
    [bInterfaceClass: Unknown (0xffff)]
STRING DESCRIPTOR
    bLength: 28
    bDescriptorType: STRING (3)
    bString: Cybiko Xtreme

0000  00 fc cd db 00 00 00 00 43 02 80 24 04 00 2d 00   ........C..$..-.
0010  ee 4b 4b 58 00 00 00 00 15 fe 06 00 00 00 00 00   .KKX............
0020  1c 00 00 00 1c 00 00 00 00 00 00 00 00 00 00 00   ................
0030  00 00 00 00 00 00 00 00 00 02 00 00 00 00 00 00   ................
0040  1c 03 43 00 79 00 62 00 69 00 6b 00 6f 00 20 00   ..C.y.b.i.k.o. .
0050  58 00 74 00 72 00 65 00 6d 00 65 00               X.t.r.e.m.e.
No.     Time           Source                Destination           Protocol Length Info
     23 16.626025000   host                  36.0                  USB      64     GET DESCRIPTOR Request STRING

Frame 23: 64 bytes on wire (512 bits), 64 bytes captured (512 bits) on interface 0
    Interface id: 0
    Encapsulation type: USB packets with Linux header and padding (115)
    Arrival Time: Dec 10, 2016 01:27:26.461170000 CET
    [Time shift for this packet: 0.000000000 seconds]
    Epoch Time: 1481329646.461170000 seconds
    [Time delta from previous captured frame: 0.002909000 seconds]
    [Time delta from previous displayed frame: 0.002909000 seconds]
    [Time since reference or first frame: 16.626025000 seconds]
    Frame Number: 23
    Frame Length: 64 bytes (512 bits)
    Capture Length: 64 bytes (512 bits)
    [Frame is marked: False]
    [Frame is ignored: False]
    [Protocols in frame: usb]
USB URB
    URB id: 0x00000000c0fa1b40
    URB type: URB_SUBMIT ('S')
    URB transfer type: URB_CONTROL (0x02)
    Endpoint: 0x80, Direction: IN
        1... .... = Direction: IN (1)
        .000 0000 = Endpoint value: 0
    Device: 36
    URB bus id: 4
    Device setup request: relevant (0)
    Data: not present ('<')
    URB sec: 1481329646
    URB usec: 461170
    URB status: Operation now in progress (-EINPROGRESS) (-115)
    URB length [bytes]: 255
    Data length [bytes]: 0
    [Response in: 24]
URB setup
    bmRequestType: 0x80
        1... .... = Direction: Device-to-host
        .00. .... = Type: Standard (0x00)
        ...0 0000 = Recipient: Device (0x00)
    bRequest: GET DESCRIPTOR (6)
    Descriptor Index: 0x00
    bDescriptorType: STRING (3)
    Language Id: no language specified (0x0000)
    wLength: 255

0000  40 1b fa c0 00 00 00 00 53 02 80 24 04 00 00 3c   @.......S..$...<
0010  ee 4b 4b 58 00 00 00 00 72 09 07 00 8d ff ff ff   .KKX....r.......
0020  ff 00 00 00 00 00 00 00 80 06 00 03 00 00 ff 00   ................
0030  00 00 00 00 00 00 00 00 00 02 00 00 00 00 00 00   ................
No.     Time           Source                Destination           Protocol Length Info
     24 16.627098000   36.0                  host                  USB      68     GET DESCRIPTOR Response STRING

Frame 24: 68 bytes on wire (544 bits), 68 bytes captured (544 bits) on interface 0
    Interface id: 0
    Encapsulation type: USB packets with Linux header and padding (115)
    Arrival Time: Dec 10, 2016 01:27:26.462243000 CET
    [Time shift for this packet: 0.000000000 seconds]
    Epoch Time: 1481329646.462243000 seconds
    [Time delta from previous captured frame: 0.001073000 seconds]
    [Time delta from previous displayed frame: 0.001073000 seconds]
    [Time since reference or first frame: 16.627098000 seconds]
    Frame Number: 24
    Frame Length: 68 bytes (544 bits)
    Capture Length: 68 bytes (544 bits)
    [Frame is marked: False]
    [Frame is ignored: False]
    [Protocols in frame: usb]
USB URB
    URB id: 0x00000000c0fa1b40
    URB type: URB_COMPLETE ('C')
    URB transfer type: URB_CONTROL (0x02)
    Endpoint: 0x80, Direction: IN
        1... .... = Direction: IN (1)
        .000 0000 = Endpoint value: 0
    Device: 36
    URB bus id: 4
    Device setup request: not relevant ('-')
    Data: present (0)
    URB sec: 1481329646
    URB usec: 462243
    URB status: Success (0)
    URB length [bytes]: 4
    Data length [bytes]: 4
    [Request in: 23]
    [Time from request: 0.001073000 seconds]
    [bInterfaceClass: Unknown (0xffff)]
STRING DESCRIPTOR
    bLength: 4
    bDescriptorType: STRING (3)
    wLANGID: English (United States) (0x0409)

0000  40 1b fa c0 00 00 00 00 43 02 80 24 04 00 2d 00   @.......C..$..-.
0010  ee 4b 4b 58 00 00 00 00 a3 0d 07 00 00 00 00 00   .KKX............
0020  04 00 00 00 04 00 00 00 00 00 00 00 00 00 00 00   ................
0030  00 00 00 00 00 00 00 00 00 02 00 00 00 00 00 00   ................
0040  04 03 09 04                                       ....
No.     Time           Source                Destination           Protocol Length Info
     25 16.630427000   host                  36.0                  USB      64     GET DESCRIPTOR Request STRING

Frame 25: 64 bytes on wire (512 bits), 64 bytes captured (512 bits) on interface 0
    Interface id: 0
    Encapsulation type: USB packets with Linux header and padding (115)
    Arrival Time: Dec 10, 2016 01:27:26.465572000 CET
    [Time shift for this packet: 0.000000000 seconds]
    Epoch Time: 1481329646.465572000 seconds
    [Time delta from previous captured frame: 0.003329000 seconds]
    [Time delta from previous displayed frame: 0.003329000 seconds]
    [Time since reference or first frame: 16.630427000 seconds]
    Frame Number: 25
    Frame Length: 64 bytes (512 bits)
    Capture Length: 64 bytes (512 bits)
    [Frame is marked: False]
    [Frame is ignored: False]
    [Protocols in frame: usb]
USB URB
    URB id: 0x00000000ee9e6840
    URB type: URB_SUBMIT ('S')
    URB transfer type: URB_CONTROL (0x02)
    Endpoint: 0x80, Direction: IN
        1... .... = Direction: IN (1)
        .000 0000 = Endpoint value: 0
    Device: 36
    URB bus id: 4
    Device setup request: relevant (0)
    Data: not present ('<')
    URB sec: 1481329646
    URB usec: 465572
    URB status: Operation now in progress (-EINPROGRESS) (-115)
    URB length [bytes]: 255
    Data length [bytes]: 0
    [Response in: 26]
URB setup
    bmRequestType: 0x80
        1... .... = Direction: Device-to-host
        .00. .... = Type: Standard (0x00)
        ...0 0000 = Recipient: Device (0x00)
    bRequest: GET DESCRIPTOR (6)
    Descriptor Index: 0x1c
    bDescriptorType: STRING (3)
    Language Id: English (United States) (0x0409)
    wLength: 255

0000  40 68 9e ee 00 00 00 00 53 02 80 24 04 00 00 3c   @h......S..$...<
0010  ee 4b 4b 58 00 00 00 00 a4 1a 07 00 8d ff ff ff   .KKX............
0020  ff 00 00 00 00 00 00 00 80 06 1c 03 09 04 ff 00   ................
0030  00 00 00 00 00 00 00 00 00 02 00 00 00 00 00 00   ................
No.     Time           Source                Destination           Protocol Length Info
     26 16.632111000   36.0                  host                  USB      92     GET DESCRIPTOR Response STRING

Frame 26: 92 bytes on wire (736 bits), 92 bytes captured (736 bits) on interface 0
    Interface id: 0
    Encapsulation type: USB packets with Linux header and padding (115)
    Arrival Time: Dec 10, 2016 01:27:26.467256000 CET
    [Time shift for this packet: 0.000000000 seconds]
    Epoch Time: 1481329646.467256000 seconds
    [Time delta from previous captured frame: 0.001684000 seconds]
    [Time delta from previous displayed frame: 0.001684000 seconds]
    [Time since reference or first frame: 16.632111000 seconds]
    Frame Number: 26
    Frame Length: 92 bytes (736 bits)
    Capture Length: 92 bytes (736 bits)
    [Frame is marked: False]
    [Frame is ignored: False]
    [Protocols in frame: usb]
USB URB
    URB id: 0x00000000ee9e6840
    URB type: URB_COMPLETE ('C')
    URB transfer type: URB_CONTROL (0x02)
    Endpoint: 0x80, Direction: IN
        1... .... = Direction: IN (1)
        .000 0000 = Endpoint value: 0
    Device: 36
    URB bus id: 4
    Device setup request: not relevant ('-')
    Data: present (0)
    URB sec: 1481329646
    URB usec: 467256
    URB status: Success (0)
    URB length [bytes]: 28
    Data length [bytes]: 28
    [Request in: 25]
    [Time from request: 0.001684000 seconds]
    [bInterfaceClass: Unknown (0xffff)]
STRING DESCRIPTOR
    bLength: 28
    bDescriptorType: STRING (3)
    bString: Cybiko Xtreme

0000  40 68 9e ee 00 00 00 00 43 02 80 24 04 00 2d 00   @h......C..$..-.
0010  ee 4b 4b 58 00 00 00 00 38 21 07 00 00 00 00 00   .KKX....8!......
0020  1c 00 00 00 1c 00 00 00 00 00 00 00 00 00 00 00   ................
0030  00 00 00 00 00 00 00 00 00 02 00 00 00 00 00 00   ................
0040  1c 03 43 00 79 00 62 00 69 00 6b 00 6f 00 20 00   ..C.y.b.i.k.o. .
0050  58 00 74 00 72 00 65 00 6d 00 65 00               X.t.r.e.m.e.
No.     Time           Source                Destination           Protocol Length Info
     27 16.636954000   host                  36.0                  USB      64     GET DESCRIPTOR Request DEVICE

Frame 27: 64 bytes on wire (512 bits), 64 bytes captured (512 bits) on interface 0
    Interface id: 0
    Encapsulation type: USB packets with Linux header and padding (115)
    Arrival Time: Dec 10, 2016 01:27:26.472099000 CET
    [Time shift for this packet: 0.000000000 seconds]
    Epoch Time: 1481329646.472099000 seconds
    [Time delta from previous captured frame: 0.004843000 seconds]
    [Time delta from previous displayed frame: 0.004843000 seconds]
    [Time since reference or first frame: 16.636954000 seconds]
    Frame Number: 27
    Frame Length: 64 bytes (512 bits)
    Capture Length: 64 bytes (512 bits)
    [Frame is marked: False]
    [Frame is ignored: False]
    [Protocols in frame: usb]
USB URB
    URB id: 0x00000000ee9e66c0
    URB type: URB_SUBMIT ('S')
    URB transfer type: URB_CONTROL (0x02)
    Endpoint: 0x80, Direction: IN
        1... .... = Direction: IN (1)
        .000 0000 = Endpoint value: 0
    Device: 36
    URB bus id: 4
    Device setup request: relevant (0)
    Data: not present ('<')
    URB sec: 1481329646
    URB usec: 472099
    URB status: Operation now in progress (-EINPROGRESS) (-115)
    URB length [bytes]: 18
    Data length [bytes]: 0
    [Response in: 28]
URB setup
    bmRequestType: 0x80
        1... .... = Direction: Device-to-host
        .00. .... = Type: Standard (0x00)
        ...0 0000 = Recipient: Device (0x00)
    bRequest: GET DESCRIPTOR (6)
    Descriptor Index: 0x00
    bDescriptorType: DEVICE (1)
    Language Id: no language specified (0x0000)
    wLength: 18

0000  c0 66 9e ee 00 00 00 00 53 02 80 24 04 00 00 3c   .f......S..$...<
0010  ee 4b 4b 58 00 00 00 00 23 34 07 00 8d ff ff ff   .KKX....#4......
0020  12 00 00 00 00 00 00 00 80 06 00 01 00 00 12 00   ................
0030  00 00 00 00 00 00 00 00 00 02 00 00 00 00 00 00   ................
No.     Time           Source                Destination           Protocol Length Info
     28 16.638102000   36.0                  host                  USB      82     GET DESCRIPTOR Response DEVICE

Frame 28: 82 bytes on wire (656 bits), 82 bytes captured (656 bits) on interface 0
    Interface id: 0
    Encapsulation type: USB packets with Linux header and padding (115)
    Arrival Time: Dec 10, 2016 01:27:26.473247000 CET
    [Time shift for this packet: 0.000000000 seconds]
    Epoch Time: 1481329646.473247000 seconds
    [Time delta from previous captured frame: 0.001148000 seconds]
    [Time delta from previous displayed frame: 0.001148000 seconds]
    [Time since reference or first frame: 16.638102000 seconds]
    Frame Number: 28
    Frame Length: 82 bytes (656 bits)
    Capture Length: 82 bytes (656 bits)
    [Frame is marked: False]
    [Frame is ignored: False]
    [Protocols in frame: usb]
USB URB
    URB id: 0x00000000ee9e66c0
    URB type: URB_COMPLETE ('C')
    URB transfer type: URB_CONTROL (0x02)
    Endpoint: 0x80, Direction: IN
        1... .... = Direction: IN (1)
        .000 0000 = Endpoint value: 0
    Device: 36
    URB bus id: 4
    Device setup request: not relevant ('-')
    Data: present (0)
    URB sec: 1481329646
    URB usec: 473247
    URB status: Success (0)
    URB length [bytes]: 18
    Data length [bytes]: 18
    [Request in: 27]
    [Time from request: 0.001148000 seconds]
    [bInterfaceClass: Unknown (0xffff)]
DEVICE DESCRIPTOR
    bLength: 18
    bDescriptorType: DEVICE (1)
    bcdUSB: 0x0110
    bDeviceClass: Vendor Specific (0xff)
    bDeviceSubClass: 255
    bDeviceProtocol: 255
    bMaxPacketSize0: 8
    idVendor: Cybiko Inc. (0x0b66)
    idProduct: Xtreme (0x0041)
    bcdDevice: 0x0001
    iManufacturer: 4
    iProduct: 28
    iSerialNumber: 0
    bNumConfigurations: 1

0000  c0 66 9e ee 00 00 00 00 43 02 80 24 04 00 2d 00   .f......C..$..-.
0010  ee 4b 4b 58 00 00 00 00 9f 38 07 00 00 00 00 00   .KKX.....8......
0020  12 00 00 00 12 00 00 00 00 00 00 00 00 00 00 00   ................
0030  00 00 00 00 00 00 00 00 00 02 00 00 00 00 00 00   ................
0040  12 01 10 01 ff ff ff 08 66 0b 41 00 01 00 04 1c   ........f.A.....
0050  00 01                                             ..
No.     Time           Source                Destination           Protocol Length Info
     29 16.641263000   host                  36.0                  USB      64     GET DESCRIPTOR Request CONFIGURATION

Frame 29: 64 bytes on wire (512 bits), 64 bytes captured (512 bits) on interface 0
    Interface id: 0
    Encapsulation type: USB packets with Linux header and padding (115)
    Arrival Time: Dec 10, 2016 01:27:26.476408000 CET
    [Time shift for this packet: 0.000000000 seconds]
    Epoch Time: 1481329646.476408000 seconds
    [Time delta from previous captured frame: 0.003161000 seconds]
    [Time delta from previous displayed frame: 0.003161000 seconds]
    [Time since reference or first frame: 16.641263000 seconds]
    Frame Number: 29
    Frame Length: 64 bytes (512 bits)
    Capture Length: 64 bytes (512 bits)
    [Frame is marked: False]
    [Frame is ignored: False]
    [Protocols in frame: usb]
USB URB
    URB id: 0x00000000c0fa19c0
    URB type: URB_SUBMIT ('S')
    URB transfer type: URB_CONTROL (0x02)
    Endpoint: 0x80, Direction: IN
        1... .... = Direction: IN (1)
        .000 0000 = Endpoint value: 0
    Device: 36
    URB bus id: 4
    Device setup request: relevant (0)
    Data: not present ('<')
    URB sec: 1481329646
    URB usec: 476408
    URB status: Operation now in progress (-EINPROGRESS) (-115)
    URB length [bytes]: 14
    Data length [bytes]: 0
    [Response in: 30]
URB setup
    bmRequestType: 0x80
        1... .... = Direction: Device-to-host
        .00. .... = Type: Standard (0x00)
        ...0 0000 = Recipient: Device (0x00)
    bRequest: GET DESCRIPTOR (6)
    Descriptor Index: 0x00
    bDescriptorType: CONFIGURATION (2)
    Language Id: no language specified (0x0000)
    wLength: 14

0000  c0 19 fa c0 00 00 00 00 53 02 80 24 04 00 00 3c   ........S..$...<
0010  ee 4b 4b 58 00 00 00 00 f8 44 07 00 8d ff ff ff   .KKX.....D......
0020  0e 00 00 00 00 00 00 00 80 06 00 02 00 00 0e 00   ................
0030  00 00 00 00 00 00 00 00 00 02 00 00 00 00 00 00   ................
No.     Time           Source                Destination           Protocol Length Info
     30 16.642096000   36.0                  host                  USB      78     GET DESCRIPTOR Response CONFIGURATION

Frame 30: 78 bytes on wire (624 bits), 78 bytes captured (624 bits) on interface 0
    Interface id: 0
    Encapsulation type: USB packets with Linux header and padding (115)
    Arrival Time: Dec 10, 2016 01:27:26.477241000 CET
    [Time shift for this packet: 0.000000000 seconds]
    Epoch Time: 1481329646.477241000 seconds
    [Time delta from previous captured frame: 0.000833000 seconds]
    [Time delta from previous displayed frame: 0.000833000 seconds]
    [Time since reference or first frame: 16.642096000 seconds]
    Frame Number: 30
    Frame Length: 78 bytes (624 bits)
    Capture Length: 78 bytes (624 bits)
    [Frame is marked: False]
    [Frame is ignored: False]
    [Protocols in frame: usb]
USB URB
    URB id: 0x00000000c0fa19c0
    URB type: URB_COMPLETE ('C')
    URB transfer type: URB_CONTROL (0x02)
    Endpoint: 0x80, Direction: IN
        1... .... = Direction: IN (1)
        .000 0000 = Endpoint value: 0
    Device: 36
    URB bus id: 4
    Device setup request: not relevant ('-')
    Data: present (0)
    URB sec: 1481329646
    URB usec: 477241
    URB status: Success (0)
    URB length [bytes]: 14
    Data length [bytes]: 14
    [Request in: 29]
    [Time from request: 0.000833000 seconds]
    [bInterfaceClass: Unknown (0xffff)]
CONFIGURATION DESCRIPTOR
    bLength: 9
    bDescriptorType: CONFIGURATION (2)
    wTotalLength: 46
    bNumInterfaces: 1
    bConfigurationValue: 1
    iConfiguration: 56
    Configuration bmAttributes: 0x80  NOT SELF-POWERED  NO REMOTE-WAKEUP
        1... .... = Must be 1: Must be 1 for USB 1.1 and higher
        .0.. .... = Self-Powered: This device is powered from the USB bus
        ..0. .... = Remote Wakeup: This device does NOT support remote wakeup
    bMaxPower: 150  (300mA)
Leftover Capture Data: 0904000004

0000  c0 19 fa c0 00 00 00 00 43 02 80 24 04 00 2d 00   ........C..$..-.
0010  ee 4b 4b 58 00 00 00 00 39 48 07 00 00 00 00 00   .KKX....9H......
0020  0e 00 00 00 0e 00 00 00 00 00 00 00 00 00 00 00   ................
0030  00 00 00 00 00 00 00 00 00 02 00 00 00 00 00 00   ................
0040  09 02 2e 00 01 01 38 80 96 09 04 00 00 04         ......8.......
No.     Time           Source                Destination           Protocol Length Info
     31 16.644586000   host                  36.0                  USB      64     GET DESCRIPTOR Request CONFIGURATION

Frame 31: 64 bytes on wire (512 bits), 64 bytes captured (512 bits) on interface 0
    Interface id: 0
    Encapsulation type: USB packets with Linux header and padding (115)
    Arrival Time: Dec 10, 2016 01:27:26.479731000 CET
    [Time shift for this packet: 0.000000000 seconds]
    Epoch Time: 1481329646.479731000 seconds
    [Time delta from previous captured frame: 0.002490000 seconds]
    [Time delta from previous displayed frame: 0.002490000 seconds]
    [Time since reference or first frame: 16.644586000 seconds]
    Frame Number: 31
    Frame Length: 64 bytes (512 bits)
    Capture Length: 64 bytes (512 bits)
    [Frame is marked: False]
    [Frame is ignored: False]
    [Protocols in frame: usb]
USB URB
    URB id: 0x00000000c0fa16c0
    URB type: URB_SUBMIT ('S')
    URB transfer type: URB_CONTROL (0x02)
    Endpoint: 0x80, Direction: IN
        1... .... = Direction: IN (1)
        .000 0000 = Endpoint value: 0
    Device: 36
    URB bus id: 4
    Device setup request: relevant (0)
    Data: not present ('<')
    URB sec: 1481329646
    URB usec: 479731
    URB status: Operation now in progress (-EINPROGRESS) (-115)
    URB length [bytes]: 46
    Data length [bytes]: 0
    [Response in: 32]
URB setup
    bmRequestType: 0x80
        1... .... = Direction: Device-to-host
        .00. .... = Type: Standard (0x00)
        ...0 0000 = Recipient: Device (0x00)
    bRequest: GET DESCRIPTOR (6)
    Descriptor Index: 0x00
    bDescriptorType: CONFIGURATION (2)
    Language Id: no language specified (0x0000)
    wLength: 46

0000  c0 16 fa c0 00 00 00 00 53 02 80 24 04 00 00 3c   ........S..$...<
0010  ee 4b 4b 58 00 00 00 00 f3 51 07 00 8d ff ff ff   .KKX.....Q......
0020  2e 00 00 00 00 00 00 00 80 06 00 02 00 00 2e 00   ................
0030  00 00 00 00 00 00 00 00 00 02 00 00 00 00 00 00   ................
No.     Time           Source                Destination           Protocol Length Info
     32 16.646107000   36.0                  host                  USB      110    GET DESCRIPTOR Response CONFIGURATION

Frame 32: 110 bytes on wire (880 bits), 110 bytes captured (880 bits) on interface 0
    Interface id: 0
    Encapsulation type: USB packets with Linux header and padding (115)
    Arrival Time: Dec 10, 2016 01:27:26.481252000 CET
    [Time shift for this packet: 0.000000000 seconds]
    Epoch Time: 1481329646.481252000 seconds
    [Time delta from previous captured frame: 0.001521000 seconds]
    [Time delta from previous displayed frame: 0.001521000 seconds]
    [Time since reference or first frame: 16.646107000 seconds]
    Frame Number: 32
    Frame Length: 110 bytes (880 bits)
    Capture Length: 110 bytes (880 bits)
    [Frame is marked: False]
    [Frame is ignored: False]
    [Protocols in frame: usb]
USB URB
    URB id: 0x00000000c0fa16c0
    URB type: URB_COMPLETE ('C')
    URB transfer type: URB_CONTROL (0x02)
    Endpoint: 0x80, Direction: IN
        1... .... = Direction: IN (1)
        .000 0000 = Endpoint value: 0
    Device: 36
    URB bus id: 4
    Device setup request: not relevant ('-')
    Data: present (0)
    URB sec: 1481329646
    URB usec: 481252
    URB status: Success (0)
    URB length [bytes]: 46
    Data length [bytes]: 46
    [Request in: 31]
    [Time from request: 0.001521000 seconds]
    [bInterfaceClass: Unknown (0xffff)]
CONFIGURATION DESCRIPTOR
    bLength: 9
    bDescriptorType: CONFIGURATION (2)
    wTotalLength: 46
    bNumInterfaces: 1
    bConfigurationValue: 1
    iConfiguration: 56
    Configuration bmAttributes: 0x80  NOT SELF-POWERED  NO REMOTE-WAKEUP
        1... .... = Must be 1: Must be 1 for USB 1.1 and higher
        .0.. .... = Self-Powered: This device is powered from the USB bus
        ..0. .... = Remote Wakeup: This device does NOT support remote wakeup
    bMaxPower: 150  (300mA)
INTERFACE DESCRIPTOR (0.0): class Vendor Specific
    bLength: 9
    bDescriptorType: INTERFACE (4)
    bInterfaceNumber: 0
    bAlternateSetting: 0
    bNumEndpoints: 4
    bInterfaceClass: Vendor Specific (0xff)
    bInterfaceSubClass: 0xff
    bInterfaceProtocol: 0xff
    iInterface: 0
ENDPOINT DESCRIPTOR
    bLength: 7
    bDescriptorType: ENDPOINT (5)
    bEndpointAddress: 0x81  IN  Endpoint:1
        1... .... = Direction: IN Endpoint
        .... 0001 = Endpoint Number: 0x01
    bmAttributes: 0x02
        .... ..10 = Transfertype: Bulk-Transfer (0x02)
        .... 00.. = Synchronisationtype: No Sync (0x00)
        ..00 .... = Behaviourtype: Data-Endpoint (0x00)
    wMaxPacketSize: 64
        .... ..00 0100 0000 = Maximum Packet Size: 64
    bInterval: 0
ENDPOINT DESCRIPTOR
    bLength: 7
    bDescriptorType: ENDPOINT (5)
    bEndpointAddress: 0x02  OUT  Endpoint:2
        0... .... = Direction: OUT Endpoint
        .... 0010 = Endpoint Number: 0x02
    bmAttributes: 0x02
        .... ..10 = Transfertype: Bulk-Transfer (0x02)
        .... 00.. = Synchronisationtype: No Sync (0x00)
        ..00 .... = Behaviourtype: Data-Endpoint (0x00)
    wMaxPacketSize: 64
        .... ..00 0100 0000 = Maximum Packet Size: 64
    bInterval: 0
ENDPOINT DESCRIPTOR
    bLength: 7
    bDescriptorType: ENDPOINT (5)
    bEndpointAddress: 0x83  IN  Endpoint:3
        1... .... = Direction: IN Endpoint
        .... 0011 = Endpoint Number: 0x03
    bmAttributes: 0x02
        .... ..10 = Transfertype: Bulk-Transfer (0x02)
        .... 00.. = Synchronisationtype: No Sync (0x00)
        ..00 .... = Behaviourtype: Data-Endpoint (0x00)
    wMaxPacketSize: 64
        .... ..00 0100 0000 = Maximum Packet Size: 64
    bInterval: 0
ENDPOINT DESCRIPTOR
    bLength: 7
    bDescriptorType: ENDPOINT (5)
    bEndpointAddress: 0x04  OUT  Endpoint:4
        0... .... = Direction: OUT Endpoint
        .... 0100 = Endpoint Number: 0x04
    bmAttributes: 0x02
        .... ..10 = Transfertype: Bulk-Transfer (0x02)
        .... 00.. = Synchronisationtype: No Sync (0x00)
        ..00 .... = Behaviourtype: Data-Endpoint (0x00)
    wMaxPacketSize: 64
        .... ..00 0100 0000 = Maximum Packet Size: 64
    bInterval: 0

0000  c0 16 fa c0 00 00 00 00 43 02 80 24 04 00 2d 00   ........C..$..-.
0010  ee 4b 4b 58 00 00 00 00 e4 57 07 00 00 00 00 00   .KKX.....W......
0020  2e 00 00 00 2e 00 00 00 00 00 00 00 00 00 00 00   ................
0030  00 00 00 00 00 00 00 00 00 02 00 00 00 00 00 00   ................
0040  09 02 2e 00 01 01 38 80 96 09 04 00 00 04 ff ff   ......8.........
0050  ff 00 07 05 81 02 40 00 00 07 05 02 02 40 00 00   ......@......@..
0060  07 05 83 02 40 00 00 07 05 04 02 40 00 00         ....@......@..
No.     Time           Source                Destination           Protocol Length Info
     33 16.648816000   host                  36.0                  USB      64     GET DESCRIPTOR Request STRING

Frame 33: 64 bytes on wire (512 bits), 64 bytes captured (512 bits) on interface 0
    Interface id: 0
    Encapsulation type: USB packets with Linux header and padding (115)
    Arrival Time: Dec 10, 2016 01:27:26.483961000 CET
    [Time shift for this packet: 0.000000000 seconds]
    Epoch Time: 1481329646.483961000 seconds
    [Time delta from previous captured frame: 0.002709000 seconds]
    [Time delta from previous displayed frame: 0.002709000 seconds]
    [Time since reference or first frame: 16.648816000 seconds]
    Frame Number: 33
    Frame Length: 64 bytes (512 bits)
    Capture Length: 64 bytes (512 bits)
    [Frame is marked: False]
    [Frame is ignored: False]
    [Protocols in frame: usb]
USB URB
    URB id: 0x00000000c0fa19c0
    URB type: URB_SUBMIT ('S')
    URB transfer type: URB_CONTROL (0x02)
    Endpoint: 0x80, Direction: IN
        1... .... = Direction: IN (1)
        .000 0000 = Endpoint value: 0
    Device: 36
    URB bus id: 4
    Device setup request: relevant (0)
    Data: not present ('<')
    URB sec: 1481329646
    URB usec: 483961
    URB status: Operation now in progress (-EINPROGRESS) (-115)
    URB length [bytes]: 46
    Data length [bytes]: 0
    [Response in: 34]
URB setup
    bmRequestType: 0x80
        1... .... = Direction: Device-to-host
        .00. .... = Type: Standard (0x00)
        ...0 0000 = Recipient: Device (0x00)
    bRequest: GET DESCRIPTOR (6)
    Descriptor Index: 0x38
    bDescriptorType: STRING (3)
    Language Id: no language specified (0x0000)
    wLength: 46

0000  c0 19 fa c0 00 00 00 00 53 02 80 24 04 00 00 3c   ........S..$...<
0010  ee 4b 4b 58 00 00 00 00 79 62 07 00 8d ff ff ff   .KKX....yb......
0020  2e 00 00 00 00 00 00 00 80 06 38 03 00 00 2e 00   ..........8.....
0030  00 00 00 00 00 00 00 00 00 02 00 00 00 00 00 00   ................
No.     Time           Source                Destination           Protocol Length Info
     34 16.650116000   36.0                  host                  USB      110    GET DESCRIPTOR Response STRING

Frame 34: 110 bytes on wire (880 bits), 110 bytes captured (880 bits) on interface 0
    Interface id: 0
    Encapsulation type: USB packets with Linux header and padding (115)
    Arrival Time: Dec 10, 2016 01:27:26.485261000 CET
    [Time shift for this packet: 0.000000000 seconds]
    Epoch Time: 1481329646.485261000 seconds
    [Time delta from previous captured frame: 0.001300000 seconds]
    [Time delta from previous displayed frame: 0.001300000 seconds]
    [Time since reference or first frame: 16.650116000 seconds]
    Frame Number: 34
    Frame Length: 110 bytes (880 bits)
    Capture Length: 110 bytes (880 bits)
    [Frame is marked: False]
    [Frame is ignored: False]
    [Protocols in frame: usb]
USB URB
    URB id: 0x00000000c0fa19c0
    URB type: URB_COMPLETE ('C')
    URB transfer type: URB_CONTROL (0x02)
    Endpoint: 0x80, Direction: IN
        1... .... = Direction: IN (1)
        .000 0000 = Endpoint value: 0
    Device: 36
    URB bus id: 4
    Device setup request: not relevant ('-')
    Data: present (0)
    URB sec: 1481329646
    URB usec: 485261
    URB status: Success (0)
    URB length [bytes]: 46
    Data length [bytes]: 46
    [Request in: 33]
    [Time from request: 0.001300000 seconds]
    [bInterfaceClass: Unknown (0xffff)]
STRING DESCRIPTOR
    bLength: 46
    bDescriptorType: STRING (3)
    bString: C000006EAD008 @XTAXETA

0000  c0 19 fa c0 00 00 00 00 43 02 80 24 04 00 2d 00   ........C..$..-.
0010  ee 4b 4b 58 00 00 00 00 8d 67 07 00 00 00 00 00   .KKX.....g......
0020  2e 00 00 00 2e 00 00 00 00 00 00 00 00 00 00 00   ................
0030  00 00 00 00 00 00 00 00 00 02 00 00 00 00 00 00   ................
0040  2e 03 43 00 30 00 30 00 30 00 30 00 30 00 36 00   ..C.0.0.0.0.0.6.
0050  45 00 41 00 44 00 30 00 30 00 38 00 20 00 40 00   E.A.D.0.0.8. .@.
0060  58 00 54 00 41 00 58 00 45 00 54 00 41 00         X.T.A.X.E.T.A.
No.     Time           Source                Destination           Protocol Length Info
     35 16.722654000   host                  36.2                  USB      79     URB_BULK out

Frame 35: 79 bytes on wire (632 bits), 79 bytes captured (632 bits) on interface 0
    Interface id: 0
    Encapsulation type: USB packets with Linux header and padding (115)
    Arrival Time: Dec 10, 2016 01:27:26.557799000 CET
    [Time shift for this packet: 0.000000000 seconds]
    Epoch Time: 1481329646.557799000 seconds
    [Time delta from previous captured frame: 0.072538000 seconds]
    [Time delta from previous displayed frame: 0.072538000 seconds]
    [Time since reference or first frame: 16.722654000 seconds]
    Frame Number: 35
    Frame Length: 79 bytes (632 bits)
    Capture Length: 79 bytes (632 bits)
    [Frame is marked: False]
    [Frame is ignored: False]
    [Protocols in frame: usb]
USB URB
    URB id: 0x00000000c0fa1b40
    URB type: URB_SUBMIT ('S')
    URB transfer type: URB_BULK (0x03)
    Endpoint: 0x02, Direction: OUT
        0... .... = Direction: OUT (0)
        .000 0010 = Endpoint value: 2
    Device: 36
    URB bus id: 4
    Device setup request: not relevant ('-')
    Data: present (0)
    URB sec: 1481329646
    URB usec: 557799
    URB status: Operation now in progress (-EINPROGRESS) (-115)
    URB length [bytes]: 15
    Data length [bytes]: 15
    [bInterfaceClass: Vendor Specific (0xff)]
Leftover Capture Data: 4d4d120200000404000000a7ee3509

0000  40 1b fa c0 00 00 00 00 53 03 02 24 04 00 2d 00   @.......S..$..-.
0010  ee 4b 4b 58 00 00 00 00 e7 82 08 00 8d ff ff ff   .KKX............
0020  0f 00 00 00 0f 00 00 00 00 00 00 00 00 00 00 00   ................
0030  00 00 00 00 00 00 00 00 00 00 00 00 00 00 00 00   ................
0040  4d 4d 12 02 00 00 04 04 00 00 00 a7 ee 35 09      MM...........5.
No.     Time           Source                Destination           Protocol Length Info
     36 16.722773000   host                  36.1                  USB      64     URB_BULK in

Frame 36: 64 bytes on wire (512 bits), 64 bytes captured (512 bits) on interface 0
    Interface id: 0
    Encapsulation type: USB packets with Linux header and padding (115)
    Arrival Time: Dec 10, 2016 01:27:26.557918000 CET
    [Time shift for this packet: 0.000000000 seconds]
    Epoch Time: 1481329646.557918000 seconds
    [Time delta from previous captured frame: 0.000119000 seconds]
    [Time delta from previous displayed frame: 0.000119000 seconds]
    [Time since reference or first frame: 16.722773000 seconds]
    Frame Number: 36
    Frame Length: 64 bytes (512 bits)
    Capture Length: 64 bytes (512 bits)
    [Frame is marked: False]
    [Frame is ignored: False]
    [Protocols in frame: usb]
USB URB
    URB id: 0x00000000c0fa1180
    URB type: URB_SUBMIT ('S')
    URB transfer type: URB_BULK (0x03)
    Endpoint: 0x81, Direction: IN
        1... .... = Direction: IN (1)
        .000 0001 = Endpoint value: 1
    Device: 36
    URB bus id: 4
    Device setup request: not relevant ('-')
    Data: not present ('<')
    URB sec: 1481329646
    URB usec: 557918
    URB status: Operation now in progress (-EINPROGRESS) (-115)
    URB length [bytes]: 1000
    Data length [bytes]: 0
    [Response in: 37]
    [bInterfaceClass: Vendor Specific (0xff)]

0000  80 11 fa c0 00 00 00 00 53 03 81 24 04 00 2d 3c   ........S..$..-<
0010  ee 4b 4b 58 00 00 00 00 5e 83 08 00 8d ff ff ff   .KKX....^.......
0020  e8 03 00 00 00 00 00 00 00 00 00 00 00 00 00 00   ................
0030  00 00 00 00 00 00 00 00 00 02 00 00 00 00 00 00   ................
No.     Time           Source                Destination           Protocol Length Info
     37 16.723113000   36.2                  host                  USB      64     URB_BULK out

Frame 37: 64 bytes on wire (512 bits), 64 bytes captured (512 bits) on interface 0
    Interface id: 0
    Encapsulation type: USB packets with Linux header and padding (115)
    Arrival Time: Dec 10, 2016 01:27:26.558258000 CET
    [Time shift for this packet: 0.000000000 seconds]
    Epoch Time: 1481329646.558258000 seconds
    [Time delta from previous captured frame: 0.000340000 seconds]
    [Time delta from previous displayed frame: 0.000340000 seconds]
    [Time since reference or first frame: 16.723113000 seconds]
    Frame Number: 37
    Frame Length: 64 bytes (512 bits)
    Capture Length: 64 bytes (512 bits)
    [Frame is marked: False]
    [Frame is ignored: False]
    [Protocols in frame: usb]
USB URB
    URB id: 0x00000000c0fa1b40
    URB type: URB_COMPLETE ('C')
    URB transfer type: URB_BULK (0x03)
    Endpoint: 0x02, Direction: OUT
        0... .... = Direction: OUT (0)
        .000 0010 = Endpoint value: 2
    Device: 36
    URB bus id: 4
    Device setup request: not relevant ('-')
    Data: not present ('>')
    URB sec: 1481329646
    URB usec: 558258
    URB status: Success (0)
    URB length [bytes]: 15
    Data length [bytes]: 0
    [Request in: 36]
    [Time from request: 0.000340000 seconds]
    [bInterfaceClass: Vendor Specific (0xff)]

0000  40 1b fa c0 00 00 00 00 43 03 02 24 04 00 2d 3e   @.......C..$..->
0010  ee 4b 4b 58 00 00 00 00 b2 84 08 00 00 00 00 00   .KKX............
0020  0f 00 00 00 00 00 00 00 00 00 00 00 00 00 00 00   ................
0030  00 00 00 00 00 00 00 00 00 00 00 00 00 00 00 00   ................
No.     Time           Source                Destination           Protocol Length Info
     38 16.800630000   host                  36.2                  USB      79     URB_BULK out

Frame 38: 79 bytes on wire (632 bits), 79 bytes captured (632 bits) on interface 0
    Interface id: 0
    Encapsulation type: USB packets with Linux header and padding (115)
    Arrival Time: Dec 10, 2016 01:27:26.635775000 CET
    [Time shift for this packet: 0.000000000 seconds]
    Epoch Time: 1481329646.635775000 seconds
    [Time delta from previous captured frame: 0.077517000 seconds]
    [Time delta from previous displayed frame: 0.077517000 seconds]
    [Time since reference or first frame: 16.800630000 seconds]
    Frame Number: 38
    Frame Length: 79 bytes (632 bits)
    Capture Length: 79 bytes (632 bits)
    [Frame is marked: False]
    [Frame is ignored: False]
    [Protocols in frame: usb]
USB URB
    URB id: 0x00000000c0fa1240
    URB type: URB_SUBMIT ('S')
    URB transfer type: URB_BULK (0x03)
    Endpoint: 0x02, Direction: OUT
        0... .... = Direction: OUT (0)
        .000 0010 = Endpoint value: 2
    Device: 36
    URB bus id: 4
    Device setup request: not relevant ('-')
    Data: present (0)
    URB sec: 1481329646
    URB usec: 635775
    URB status: Operation now in progress (-EINPROGRESS) (-115)
    URB length [bytes]: 15
    Data length [bytes]: 15
    [Response in: 39]
    [bInterfaceClass: Vendor Specific (0xff)]
Leftover Capture Data: 4d4d120100000404000000296132ea

0000  40 12 fa c0 00 00 00 00 53 03 02 24 04 00 2d 00   @.......S..$..-.
0010  ee 4b 4b 58 00 00 00 00 7f b3 09 00 8d ff ff ff   .KKX............
0020  0f 00 00 00 0f 00 00 00 00 00 00 00 00 00 00 00   ................
0030  00 00 00 00 00 00 00 00 00 00 00 00 00 00 00 00   ................
0040  4d 4d 12 01 00 00 04 04 00 00 00 29 61 32 ea      MM.........)a2.
No.     Time           Source                Destination           Protocol Length Info
     39 16.801117000   36.2                  host                  USB      64     URB_BULK out

Frame 39: 64 bytes on wire (512 bits), 64 bytes captured (512 bits) on interface 0
    Interface id: 0
    Encapsulation type: USB packets with Linux header and padding (115)
    Arrival Time: Dec 10, 2016 01:27:26.636262000 CET
    [Time shift for this packet: 0.000000000 seconds]
    Epoch Time: 1481329646.636262000 seconds
    [Time delta from previous captured frame: 0.000487000 seconds]
    [Time delta from previous displayed frame: 0.000487000 seconds]
    [Time since reference or first frame: 16.801117000 seconds]
    Frame Number: 39
    Frame Length: 64 bytes (512 bits)
    Capture Length: 64 bytes (512 bits)
    [Frame is marked: False]
    [Frame is ignored: False]
    [Protocols in frame: usb]
USB URB
    URB id: 0x00000000c0fa1240
    URB type: URB_COMPLETE ('C')
    URB transfer type: URB_BULK (0x03)
    Endpoint: 0x02, Direction: OUT
        0... .... = Direction: OUT (0)
        .000 0010 = Endpoint value: 2
    Device: 36
    URB bus id: 4
    Device setup request: not relevant ('-')
    Data: not present ('>')
    URB sec: 1481329646
    URB usec: 636262
    URB status: Success (0)
    URB length [bytes]: 15
    Data length [bytes]: 0
    [Request in: 38]
    [Time from request: 0.000487000 seconds]
    [bInterfaceClass: Vendor Specific (0xff)]

0000  40 12 fa c0 00 00 00 00 43 03 02 24 04 00 2d 3e   @.......C..$..->
0010  ee 4b 4b 58 00 00 00 00 66 b5 09 00 00 00 00 00   .KKX....f.......
0020  0f 00 00 00 00 00 00 00 00 00 00 00 00 00 00 00   ................
0030  00 00 00 00 00 00 00 00 00 00 00 00 00 00 00 00   ................
No.     Time           Source                Destination           Protocol Length Info
     40 16.811145000   host                  36.2                  USB      79     URB_BULK out

Frame 40: 79 bytes on wire (632 bits), 79 bytes captured (632 bits) on interface 0
    Interface id: 0
    Encapsulation type: USB packets with Linux header and padding (115)
    Arrival Time: Dec 10, 2016 01:27:26.646290000 CET
    [Time shift for this packet: 0.000000000 seconds]
    Epoch Time: 1481329646.646290000 seconds
    [Time delta from previous captured frame: 0.010028000 seconds]
    [Time delta from previous displayed frame: 0.010028000 seconds]
    [Time since reference or first frame: 16.811145000 seconds]
    Frame Number: 40
    Frame Length: 79 bytes (632 bits)
    Capture Length: 79 bytes (632 bits)
    [Frame is marked: False]
    [Frame is ignored: False]
    [Protocols in frame: usb]
USB URB
    URB id: 0x00000000c0fa1240
    URB type: URB_SUBMIT ('S')
    URB transfer type: URB_BULK (0x03)
    Endpoint: 0x02, Direction: OUT
        0... .... = Direction: OUT (0)
        .000 0010 = Endpoint value: 2
    Device: 36
    URB bus id: 4
    Device setup request: not relevant ('-')
    Data: present (0)
    URB sec: 1481329646
    URB usec: 646290
    URB status: Operation now in progress (-EINPROGRESS) (-115)
    URB length [bytes]: 15
    Data length [bytes]: 15
    [Response in: 41]
    [bInterfaceClass: Vendor Specific (0xff)]
Leftover Capture Data: 4d4d12020000040200000082856ad5

0000  40 12 fa c0 00 00 00 00 53 03 02 24 04 00 2d 00   @.......S..$..-.
0010  ee 4b 4b 58 00 00 00 00 92 dc 09 00 8d ff ff ff   .KKX............
0020  0f 00 00 00 0f 00 00 00 00 00 00 00 00 00 00 00   ................
0030  00 00 00 00 00 00 00 00 00 00 00 00 00 00 00 00   ................
0040  4d 4d 12 02 00 00 04 02 00 00 00 82 85 6a d5      MM...........j.
No.     Time           Source                Destination           Protocol Length Info
     41 16.812097000   36.2                  host                  USB      64     URB_BULK out

Frame 41: 64 bytes on wire (512 bits), 64 bytes captured (512 bits) on interface 0
    Interface id: 0
    Encapsulation type: USB packets with Linux header and padding (115)
    Arrival Time: Dec 10, 2016 01:27:26.647242000 CET
    [Time shift for this packet: 0.000000000 seconds]
    Epoch Time: 1481329646.647242000 seconds
    [Time delta from previous captured frame: 0.000952000 seconds]
    [Time delta from previous displayed frame: 0.000952000 seconds]
    [Time since reference or first frame: 16.812097000 seconds]
    Frame Number: 41
    Frame Length: 64 bytes (512 bits)
    Capture Length: 64 bytes (512 bits)
    [Frame is marked: False]
    [Frame is ignored: False]
    [Protocols in frame: usb]
USB URB
    URB id: 0x00000000c0fa1240
    URB type: URB_COMPLETE ('C')
    URB transfer type: URB_BULK (0x03)
    Endpoint: 0x02, Direction: OUT
        0... .... = Direction: OUT (0)
        .000 0010 = Endpoint value: 2
    Device: 36
    URB bus id: 4
    Device setup request: not relevant ('-')
    Data: not present ('>')
    URB sec: 1481329646
    URB usec: 647242
    URB status: Success (0)
    URB length [bytes]: 15
    Data length [bytes]: 0
    [Request in: 40]
    [Time from request: 0.000952000 seconds]
    [bInterfaceClass: Vendor Specific (0xff)]

0000  40 12 fa c0 00 00 00 00 43 03 02 24 04 00 2d 3e   @.......C..$..->
0010  ee 4b 4b 58 00 00 00 00 4a e0 09 00 00 00 00 00   .KKX....J.......
0020  0f 00 00 00 00 00 00 00 00 00 00 00 00 00 00 00   ................
0030  00 00 00 00 00 00 00 00 00 00 00 00 00 00 00 00   ................
No.     Time           Source                Destination           Protocol Length Info
     42 16.898177000   host                  36.2                  USB      79     URB_BULK out

Frame 42: 79 bytes on wire (632 bits), 79 bytes captured (632 bits) on interface 0
    Interface id: 0
    Encapsulation type: USB packets with Linux header and padding (115)
    Arrival Time: Dec 10, 2016 01:27:26.733322000 CET
    [Time shift for this packet: 0.000000000 seconds]
    Epoch Time: 1481329646.733322000 seconds
    [Time delta from previous captured frame: 0.086080000 seconds]
    [Time delta from previous displayed frame: 0.086080000 seconds]
    [Time since reference or first frame: 16.898177000 seconds]
    Frame Number: 42
    Frame Length: 79 bytes (632 bits)
    Capture Length: 79 bytes (632 bits)
    [Frame is marked: False]
    [Frame is ignored: False]
    [Protocols in frame: usb]
USB URB
    URB id: 0x00000000ee9e6780
    URB type: URB_SUBMIT ('S')
    URB transfer type: URB_BULK (0x03)
    Endpoint: 0x02, Direction: OUT
        0... .... = Direction: OUT (0)
        .000 0010 = Endpoint value: 2
    Device: 36
    URB bus id: 4
    Device setup request: not relevant ('-')
    Data: present (0)
    URB sec: 1481329646
    URB usec: 733322
    URB status: Operation now in progress (-EINPROGRESS) (-115)
    URB length [bytes]: 15
    Data length [bytes]: 15
    [Response in: 43]
    [bInterfaceClass: Vendor Specific (0xff)]
Leftover Capture Data: 4d4d12020000040200000082856ad5

0000  80 67 9e ee 00 00 00 00 53 03 02 24 04 00 2d 00   .g......S..$..-.
0010  ee 4b 4b 58 00 00 00 00 8a 30 0b 00 8d ff ff ff   .KKX.....0......
0020  0f 00 00 00 0f 00 00 00 00 00 00 00 00 00 00 00   ................
0030  00 00 00 00 00 00 00 00 00 00 00 00 00 00 00 00   ................
0040  4d 4d 12 02 00 00 04 02 00 00 00 82 85 6a d5      MM...........j.
No.     Time           Source                Destination           Protocol Length Info
     43 16.899108000   36.2                  host                  USB      64     URB_BULK out

Frame 43: 64 bytes on wire (512 bits), 64 bytes captured (512 bits) on interface 0
    Interface id: 0
    Encapsulation type: USB packets with Linux header and padding (115)
    Arrival Time: Dec 10, 2016 01:27:26.734253000 CET
    [Time shift for this packet: 0.000000000 seconds]
    Epoch Time: 1481329646.734253000 seconds
    [Time delta from previous captured frame: 0.000931000 seconds]
    [Time delta from previous displayed frame: 0.000931000 seconds]
    [Time since reference or first frame: 16.899108000 seconds]
    Frame Number: 43
    Frame Length: 64 bytes (512 bits)
    Capture Length: 64 bytes (512 bits)
    [Frame is marked: False]
    [Frame is ignored: False]
    [Protocols in frame: usb]
USB URB
    URB id: 0x00000000ee9e6780
    URB type: URB_COMPLETE ('C')
    URB transfer type: URB_BULK (0x03)
    Endpoint: 0x02, Direction: OUT
        0... .... = Direction: OUT (0)
        .000 0010 = Endpoint value: 2
    Device: 36
    URB bus id: 4
    Device setup request: not relevant ('-')
    Data: not present ('>')
    URB sec: 1481329646
    URB usec: 734253
    URB status: Success (0)
    URB length [bytes]: 15
    Data length [bytes]: 0
    [Request in: 42]
    [Time from request: 0.000931000 seconds]
    [bInterfaceClass: Vendor Specific (0xff)]

0000  80 67 9e ee 00 00 00 00 43 03 02 24 04 00 2d 3e   .g......C..$..->
0010  ee 4b 4b 58 00 00 00 00 2d 34 0b 00 00 00 00 00   .KKX....-4......
0020  0f 00 00 00 00 00 00 00 00 00 00 00 00 00 00 00   ................
0030  00 00 00 00 00 00 00 00 00 00 00 00 00 00 00 00   ................
No.     Time           Source                Destination           Protocol Length Info
     44 17.013303000   host                  36.2                  USB      79     URB_BULK out

Frame 44: 79 bytes on wire (632 bits), 79 bytes captured (632 bits) on interface 0
    Interface id: 0
    Encapsulation type: USB packets with Linux header and padding (115)
    Arrival Time: Dec 10, 2016 01:27:26.848448000 CET
    [Time shift for this packet: 0.000000000 seconds]
    Epoch Time: 1481329646.848448000 seconds
    [Time delta from previous captured frame: 0.114195000 seconds]
    [Time delta from previous displayed frame: 0.114195000 seconds]
    [Time since reference or first frame: 17.013303000 seconds]
    Frame Number: 44
    Frame Length: 79 bytes (632 bits)
    Capture Length: 79 bytes (632 bits)
    [Frame is marked: False]
    [Frame is ignored: False]
    [Protocols in frame: usb]
USB URB
    URB id: 0x00000000ee9e6b40
    URB type: URB_SUBMIT ('S')
    URB transfer type: URB_BULK (0x03)
    Endpoint: 0x02, Direction: OUT
        0... .... = Direction: OUT (0)
        .000 0010 = Endpoint value: 2
    Device: 36
    URB bus id: 4
    Device setup request: not relevant ('-')
    Data: present (0)
    URB sec: 1481329646
    URB usec: 848448
    URB status: Operation now in progress (-EINPROGRESS) (-115)
    URB length [bytes]: 15
    Data length [bytes]: 15
    [Response in: 45]
    [bInterfaceClass: Vendor Specific (0xff)]
Leftover Capture Data: 4d4d12020000040200000082856ad5

0000  40 6b 9e ee 00 00 00 00 53 03 02 24 04 00 2d 00   @k......S..$..-.
0010  ee 4b 4b 58 00 00 00 00 40 f2 0c 00 8d ff ff ff   .KKX....@.......
0020  0f 00 00 00 0f 00 00 00 00 00 00 00 00 00 00 00   ................
0030  00 00 00 00 00 00 00 00 00 00 00 00 00 00 00 00   ................
0040  4d 4d 12 02 00 00 04 02 00 00 00 82 85 6a d5      MM...........j.
No.     Time           Source                Destination           Protocol Length Info
     45 17.014120000   36.2                  host                  USB      64     URB_BULK out

Frame 45: 64 bytes on wire (512 bits), 64 bytes captured (512 bits) on interface 0
    Interface id: 0
    Encapsulation type: USB packets with Linux header and padding (115)
    Arrival Time: Dec 10, 2016 01:27:26.849265000 CET
    [Time shift for this packet: 0.000000000 seconds]
    Epoch Time: 1481329646.849265000 seconds
    [Time delta from previous captured frame: 0.000817000 seconds]
    [Time delta from previous displayed frame: 0.000817000 seconds]
    [Time since reference or first frame: 17.014120000 seconds]
    Frame Number: 45
    Frame Length: 64 bytes (512 bits)
    Capture Length: 64 bytes (512 bits)
    [Frame is marked: False]
    [Frame is ignored: False]
    [Protocols in frame: usb]
USB URB
    URB id: 0x00000000ee9e6b40
    URB type: URB_COMPLETE ('C')
    URB transfer type: URB_BULK (0x03)
    Endpoint: 0x02, Direction: OUT
        0... .... = Direction: OUT (0)
        .000 0010 = Endpoint value: 2
    Device: 36
    URB bus id: 4
    Device setup request: not relevant ('-')
    Data: not present ('>')
    URB sec: 1481329646
    URB usec: 849265
    URB status: Success (0)
    URB length [bytes]: 15
    Data length [bytes]: 0
    [Request in: 44]
    [Time from request: 0.000817000 seconds]
    [bInterfaceClass: Vendor Specific (0xff)]

0000  40 6b 9e ee 00 00 00 00 43 03 02 24 04 00 2d 3e   @k......C..$..->
0010  ee 4b 4b 58 00 00 00 00 71 f5 0c 00 00 00 00 00   .KKX....q.......
0020  0f 00 00 00 00 00 00 00 00 00 00 00 00 00 00 00   ................
0030  00 00 00 00 00 00 00 00 00 00 00 00 00 00 00 00   ................
No.     Time           Source                Destination           Protocol Length Info
     46 17.127748000   host                  36.2                  USB      79     URB_BULK out

Frame 46: 79 bytes on wire (632 bits), 79 bytes captured (632 bits) on interface 0
    Interface id: 0
    Encapsulation type: USB packets with Linux header and padding (115)
    Arrival Time: Dec 10, 2016 01:27:26.962893000 CET
    [Time shift for this packet: 0.000000000 seconds]
    Epoch Time: 1481329646.962893000 seconds
    [Time delta from previous captured frame: 0.113628000 seconds]
    [Time delta from previous displayed frame: 0.113628000 seconds]
    [Time since reference or first frame: 17.127748000 seconds]
    Frame Number: 46
    Frame Length: 79 bytes (632 bits)
    Capture Length: 79 bytes (632 bits)
    [Frame is marked: False]
    [Frame is ignored: False]
    [Protocols in frame: usb]
USB URB
    URB id: 0x00000000ee9e6480
    URB type: URB_SUBMIT ('S')
    URB transfer type: URB_BULK (0x03)
    Endpoint: 0x02, Direction: OUT
        0... .... = Direction: OUT (0)
        .000 0010 = Endpoint value: 2
    Device: 36
    URB bus id: 4
    Device setup request: not relevant ('-')
    Data: present (0)
    URB sec: 1481329646
    URB usec: 962893
    URB status: Operation now in progress (-EINPROGRESS) (-115)
    URB length [bytes]: 15
    Data length [bytes]: 15
    [Response in: 47]
    [bInterfaceClass: Vendor Specific (0xff)]
Leftover Capture Data: 4d4d12020000040200000082856ad5

0000  80 64 9e ee 00 00 00 00 53 03 02 24 04 00 2d 00   .d......S..$..-.
0010  ee 4b 4b 58 00 00 00 00 4d b1 0e 00 8d ff ff ff   .KKX....M.......
0020  0f 00 00 00 0f 00 00 00 00 00 00 00 00 00 00 00   ................
0030  00 00 00 00 00 00 00 00 00 00 00 00 00 00 00 00   ................
0040  4d 4d 12 02 00 00 04 02 00 00 00 82 85 6a d5      MM...........j.
No.     Time           Source                Destination           Protocol Length Info
     47 17.128110000   36.2                  host                  USB      64     URB_BULK out

Frame 47: 64 bytes on wire (512 bits), 64 bytes captured (512 bits) on interface 0
    Interface id: 0
    Encapsulation type: USB packets with Linux header and padding (115)
    Arrival Time: Dec 10, 2016 01:27:26.963255000 CET
    [Time shift for this packet: 0.000000000 seconds]
    Epoch Time: 1481329646.963255000 seconds
    [Time delta from previous captured frame: 0.000362000 seconds]
    [Time delta from previous displayed frame: 0.000362000 seconds]
    [Time since reference or first frame: 17.128110000 seconds]
    Frame Number: 47
    Frame Length: 64 bytes (512 bits)
    Capture Length: 64 bytes (512 bits)
    [Frame is marked: False]
    [Frame is ignored: False]
    [Protocols in frame: usb]
USB URB
    URB id: 0x00000000ee9e6480
    URB type: URB_COMPLETE ('C')
    URB transfer type: URB_BULK (0x03)
    Endpoint: 0x02, Direction: OUT
        0... .... = Direction: OUT (0)
        .000 0010 = Endpoint value: 2
    Device: 36
    URB bus id: 4
    Device setup request: not relevant ('-')
    Data: not present ('>')
    URB sec: 1481329646
    URB usec: 963255
    URB status: Success (0)
    URB length [bytes]: 15
    Data length [bytes]: 0
    [Request in: 46]
    [Time from request: 0.000362000 seconds]
    [bInterfaceClass: Vendor Specific (0xff)]

0000  80 64 9e ee 00 00 00 00 43 03 02 24 04 00 2d 3e   .d......C..$..->
0010  ee 4b 4b 58 00 00 00 00 b7 b2 0e 00 00 00 00 00   .KKX............
0020  0f 00 00 00 00 00 00 00 00 00 00 00 00 00 00 00   ................
0030  00 00 00 00 00 00 00 00 00 00 00 00 00 00 00 00   ................
No.     Time           Source                Destination           Protocol Length Info
     48 17.241807000   host                  36.2                  USB      79     URB_BULK out

Frame 48: 79 bytes on wire (632 bits), 79 bytes captured (632 bits) on interface 0
    Interface id: 0
    Encapsulation type: USB packets with Linux header and padding (115)
    Arrival Time: Dec 10, 2016 01:27:27.076952000 CET
    [Time shift for this packet: 0.000000000 seconds]
    Epoch Time: 1481329647.076952000 seconds
    [Time delta from previous captured frame: 0.113697000 seconds]
    [Time delta from previous displayed frame: 0.113697000 seconds]
    [Time since reference or first frame: 17.241807000 seconds]
    Frame Number: 48
    Frame Length: 79 bytes (632 bits)
    Capture Length: 79 bytes (632 bits)
    [Frame is marked: False]
    [Frame is ignored: False]
    [Protocols in frame: usb]
USB URB
    URB id: 0x00000000eea2c6c0
    URB type: URB_SUBMIT ('S')
    URB transfer type: URB_BULK (0x03)
    Endpoint: 0x02, Direction: OUT
        0... .... = Direction: OUT (0)
        .000 0010 = Endpoint value: 2
    Device: 36
    URB bus id: 4
    Device setup request: not relevant ('-')
    Data: present (0)
