No.     Time           Source                Destination           Protocol Length Info
      1 0.000000000    host                  39.0                  USB      64     GET DESCRIPTOR Request DEVICE

Frame 1: 64 bytes on wire (512 bits), 64 bytes captured (512 bits) on interface 0
    Interface id: 0
    Encapsulation type: USB packets with Linux header and padding (115)
    Arrival Time: Dec 10, 2016 01:33:25.765601000 CET
    [Time shift for this packet: 0.000000000 seconds]
    Epoch Time: 1481330005.765601000 seconds
    [Time delta from previous captured frame: 0.000000000 seconds]
    [Time delta from previous displayed frame: 0.000000000 seconds]
    [Time since reference or first frame: 0.000000000 seconds]
    Frame Number: 1
    Frame Length: 64 bytes (512 bits)
    Capture Length: 64 bytes (512 bits)
    [Frame is marked: False]
    [Frame is ignored: False]
    [Protocols in frame: usb]
USB URB
    URB id: 0x00000000d2f00180
    URB type: URB_SUBMIT ('S')
    URB transfer type: URB_CONTROL (0x02)
    Endpoint: 0x80, Direction: IN
        1... .... = Direction: IN (1)
        .000 0000 = Endpoint value: 0
    Device: 39
    URB bus id: 4
    Device setup request: relevant (0)
    Data: not present ('<')
    URB sec: 1481330005
    URB usec: 765601
    URB status: Operation now in progress (-EINPROGRESS) (-115)
    URB length [bytes]: 40
    Data length [bytes]: 0
    [Response in: 2]
URB setup
    bmRequestType: 0x80
        1... .... = Direction: Device-to-host
        .00. .... = Type: Standard (0x00)
        ...0 0000 = Recipient: Device (0x00)
    bRequest: GET DESCRIPTOR (6)
    Descriptor Index: 0x00
    bDescriptorType: DEVICE (1)
    Language Id: no language specified (0x0000)
    wLength: 40

0000  80 01 f0 d2 00 00 00 00 53 02 80 27 04 00 00 3c   ........S..'...<
0010  55 4d 4b 58 00 00 00 00 a1 ae 0b 00 8d ff ff ff   UMKX............
0020  28 00 00 00 00 00 00 00 80 06 00 01 00 00 28 00   (.............(.
0030  00 00 00 00 00 00 00 00 00 02 00 00 00 00 00 00   ................
No.     Time           Source                Destination           Protocol Length Info
      2 0.000699000    39.0                  host                  USB      82     GET DESCRIPTOR Response DEVICE

Frame 2: 82 bytes on wire (656 bits), 82 bytes captured (656 bits) on interface 0
    Interface id: 0
    Encapsulation type: USB packets with Linux header and padding (115)
    Arrival Time: Dec 10, 2016 01:33:25.766300000 CET
    [Time shift for this packet: 0.000000000 seconds]
    Epoch Time: 1481330005.766300000 seconds
    [Time delta from previous captured frame: 0.000699000 seconds]
    [Time delta from previous displayed frame: 0.000699000 seconds]
    [Time since reference or first frame: 0.000699000 seconds]
    Frame Number: 2
    Frame Length: 82 bytes (656 bits)
    Capture Length: 82 bytes (656 bits)
    [Frame is marked: False]
    [Frame is ignored: False]
    [Protocols in frame: usb]
USB URB
    URB id: 0x00000000d2f00180
    URB type: URB_COMPLETE ('C')
    URB transfer type: URB_CONTROL (0x02)
    Endpoint: 0x80, Direction: IN
        1... .... = Direction: IN (1)
        .000 0000 = Endpoint value: 0
    Device: 39
    URB bus id: 4
    Device setup request: not relevant ('-')
    Data: present (0)
    URB sec: 1481330005
    URB usec: 766300
    URB status: Success (0)
    URB length [bytes]: 18
    Data length [bytes]: 18
    [Request in: 1]
    [Time from request: 0.000699000 seconds]
    [bInterfaceClass: Unknown (0xffff)]
DEVICE DESCRIPTOR
    bLength: 18
    bDescriptorType: DEVICE (1)
    bcdUSB: 0x0110
    bDeviceClass: Vendor Specific (0xff)
    bDeviceSubClass: 255
    bDeviceProtocol: 255
    bMaxPacketSize0: 8
    idVendor: Cybiko Inc. (0x0b66)
    idProduct: Xtreme (0x0041)
    bcdDevice: 0x0001
    iManufacturer: 4
    iProduct: 28
    iSerialNumber: 0
    bNumConfigurations: 1

0000  80 01 f0 d2 00 00 00 00 43 02 80 27 04 00 2d 00   ........C..'..-.
0010  55 4d 4b 58 00 00 00 00 5c b1 0b 00 00 00 00 00   UMKX....\.......
0020  12 00 00 00 12 00 00 00 00 00 00 00 00 00 00 00   ................
0030  00 00 00 00 00 00 00 00 00 02 00 00 00 00 00 00   ................
0040  12 01 10 01 ff ff ff 08 66 0b 41 00 01 00 04 1c   ........f.A.....
0050  00 01                                             ..
No.     Time           Source                Destination           Protocol Length Info
      5 41.860378000   host                  39.0                  USB      64     GET DESCRIPTOR Request DEVICE

Frame 5: 64 bytes on wire (512 bits), 64 bytes captured (512 bits) on interface 0
    Interface id: 0
    Encapsulation type: USB packets with Linux header and padding (115)
    Arrival Time: Dec 10, 2016 01:34:07.625979000 CET
    [Time shift for this packet: 0.000000000 seconds]
    Epoch Time: 1481330047.625979000 seconds
    [Time delta from previous captured frame: 41.858886000 seconds]
    [Time delta from previous displayed frame: 41.859679000 seconds]
    [Time since reference or first frame: 41.860378000 seconds]
    Frame Number: 5
    Frame Length: 64 bytes (512 bits)
    Capture Length: 64 bytes (512 bits)
    [Frame is marked: False]
    [Frame is ignored: False]
    [Protocols in frame: usb]
USB URB
    URB id: 0x00000000d179b780
    URB type: URB_SUBMIT ('S')
    URB transfer type: URB_CONTROL (0x02)
    Endpoint: 0x80, Direction: IN
        1... .... = Direction: IN (1)
        .000 0000 = Endpoint value: 0
    Device: 39
    URB bus id: 4
    Device setup request: relevant (0)
    Data: not present ('<')
    URB sec: 1481330047
    URB usec: 625979
    URB status: Operation now in progress (-EINPROGRESS) (-115)
    URB length [bytes]: 18
    Data length [bytes]: 0
    [Response in: 6]
URB setup
    bmRequestType: 0x80
        1... .... = Direction: Device-to-host
        .00. .... = Type: Standard (0x00)
        ...0 0000 = Recipient: Device (0x00)
    bRequest: GET DESCRIPTOR (6)
    Descriptor Index: 0x00
    bDescriptorType: DEVICE (1)
    Language Id: no language specified (0x0000)
    wLength: 18

0000  80 b7 79 d1 00 00 00 00 53 02 80 27 04 00 00 3c   ..y.....S..'...<
0010  7f 4d 4b 58 00 00 00 00 3b 8d 09 00 8d ff ff ff   .MKX....;.......
0020  12 00 00 00 00 00 00 00 80 06 00 01 00 00 12 00   ................
0030  00 00 00 00 00 00 00 00 00 02 00 00 00 00 00 00   ................
No.     Time           Source                Destination           Protocol Length Info
      6 41.861710000   39.0                  host                  USB      82     GET DESCRIPTOR Response DEVICE

Frame 6: 82 bytes on wire (656 bits), 82 bytes captured (656 bits) on interface 0
    Interface id: 0
    Encapsulation type: USB packets with Linux header and padding (115)
    Arrival Time: Dec 10, 2016 01:34:07.627311000 CET
    [Time shift for this packet: 0.000000000 seconds]
    Epoch Time: 1481330047.627311000 seconds
    [Time delta from previous captured frame: 0.001332000 seconds]
    [Time delta from previous displayed frame: 0.001332000 seconds]
    [Time since reference or first frame: 41.861710000 seconds]
    Frame Number: 6
    Frame Length: 82 bytes (656 bits)
    Capture Length: 82 bytes (656 bits)
    [Frame is marked: False]
    [Frame is ignored: False]
    [Protocols in frame: usb]
USB URB
    URB id: 0x00000000d179b780
    URB type: URB_COMPLETE ('C')
    URB transfer type: URB_CONTROL (0x02)
    Endpoint: 0x80, Direction: IN
        1... .... = Direction: IN (1)
        .000 0000 = Endpoint value: 0
    Device: 39
    URB bus id: 4
    Device setup request: not relevant ('-')
    Data: present (0)
    URB sec: 1481330047
    URB usec: 627311
    URB status: Success (0)
    URB length [bytes]: 18
    Data length [bytes]: 18
    [Request in: 5]
    [Time from request: 0.001332000 seconds]
    [bInterfaceClass: Unknown (0xffff)]
DEVICE DESCRIPTOR
    bLength: 18
    bDescriptorType: DEVICE (1)
    bcdUSB: 0x0110
    bDeviceClass: Vendor Specific (0xff)
    bDeviceSubClass: 255
    bDeviceProtocol: 255
    bMaxPacketSize0: 8
    idVendor: Cybiko Inc. (0x0b66)
    idProduct: Xtreme (0x0041)
    bcdDevice: 0x0001
    iManufacturer: 4
    iProduct: 28
    iSerialNumber: 0
    bNumConfigurations: 1

0000  80 b7 79 d1 00 00 00 00 43 02 80 27 04 00 2d 00   ..y.....C..'..-.
0010  7f 4d 4b 58 00 00 00 00 6f 92 09 00 00 00 00 00   .MKX....o.......
0020  12 00 00 00 12 00 00 00 00 00 00 00 00 00 00 00   ................
0030  00 00 00 00 00 00 00 00 00 02 00 00 00 00 00 00   ................
0040  12 01 10 01 ff ff ff 08 66 0b 41 00 01 00 04 1c   ........f.A.....
0050  00 01                                             ..
No.     Time           Source                Destination           Protocol Length Info
      7 41.861752000   host                  39.0                  USB      64     GET DESCRIPTOR Request CONFIGURATION

Frame 7: 64 bytes on wire (512 bits), 64 bytes captured (512 bits) on interface 0
    Interface id: 0
    Encapsulation type: USB packets with Linux header and padding (115)
    Arrival Time: Dec 10, 2016 01:34:07.627353000 CET
    [Time shift for this packet: 0.000000000 seconds]
    Epoch Time: 1481330047.627353000 seconds
    [Time delta from previous captured frame: 0.000042000 seconds]
    [Time delta from previous displayed frame: 0.000042000 seconds]
    [Time since reference or first frame: 41.861752000 seconds]
    Frame Number: 7
    Frame Length: 64 bytes (512 bits)
    Capture Length: 64 bytes (512 bits)
    [Frame is marked: False]
    [Frame is ignored: False]
    [Protocols in frame: usb]
USB URB
    URB id: 0x00000000d179b780
    URB type: URB_SUBMIT ('S')
    URB transfer type: URB_CONTROL (0x02)
    Endpoint: 0x80, Direction: IN
        1... .... = Direction: IN (1)
        .000 0000 = Endpoint value: 0
    Device: 39
    URB bus id: 4
    Device setup request: relevant (0)
    Data: not present ('<')
    URB sec: 1481330047
    URB usec: 627353
    URB status: Operation now in progress (-EINPROGRESS) (-115)
    URB length [bytes]: 9
    Data length [bytes]: 0
    [Response in: 8]
URB setup
    bmRequestType: 0x80
        1... .... = Direction: Device-to-host
        .00. .... = Type: Standard (0x00)
        ...0 0000 = Recipient: Device (0x00)
    bRequest: GET DESCRIPTOR (6)
    Descriptor Index: 0x00
    bDescriptorType: CONFIGURATION (2)
    Language Id: no language specified (0x0000)
    wLength: 9

0000  80 b7 79 d1 00 00 00 00 53 02 80 27 04 00 00 3c   ..y.....S..'...<
0010  7f 4d 4b 58 00 00 00 00 99 92 09 00 8d ff ff ff   .MKX............
0020  09 00 00 00 00 00 00 00 80 06 00 02 00 00 09 00   ................
0030  00 00 00 00 00 00 00 00 00 02 00 00 00 00 00 00   ................
No.     Time           Source                Destination           Protocol Length Info
      8 41.863710000   39.0                  host                  USB      73     GET DESCRIPTOR Response CONFIGURATION

Frame 8: 73 bytes on wire (584 bits), 73 bytes captured (584 bits) on interface 0
    Interface id: 0
    Encapsulation type: USB packets with Linux header and padding (115)
    Arrival Time: Dec 10, 2016 01:34:07.629311000 CET
    [Time shift for this packet: 0.000000000 seconds]
    Epoch Time: 1481330047.629311000 seconds
    [Time delta from previous captured frame: 0.001958000 seconds]
    [Time delta from previous displayed frame: 0.001958000 seconds]
    [Time since reference or first frame: 41.863710000 seconds]
    Frame Number: 8
    Frame Length: 73 bytes (584 bits)
    Capture Length: 73 bytes (584 bits)
    [Frame is marked: False]
    [Frame is ignored: False]
    [Protocols in frame: usb]
USB URB
    URB id: 0x00000000d179b780
    URB type: URB_COMPLETE ('C')
    URB transfer type: URB_CONTROL (0x02)
    Endpoint: 0x80, Direction: IN
        1... .... = Direction: IN (1)
        .000 0000 = Endpoint value: 0
    Device: 39
    URB bus id: 4
    Device setup request: not relevant ('-')
    Data: present (0)
    URB sec: 1481330047
    URB usec: 629311
    URB status: Success (0)
    URB length [bytes]: 9
    Data length [bytes]: 9
    [Request in: 7]
    [Time from request: 0.001958000 seconds]
    [bInterfaceClass: Unknown (0xffff)]
CONFIGURATION DESCRIPTOR
    bLength: 9
    bDescriptorType: CONFIGURATION (2)
    wTotalLength: 46
    bNumInterfaces: 1
    bConfigurationValue: 1
    iConfiguration: 56
    Configuration bmAttributes: 0x80  NOT SELF-POWERED  NO REMOTE-WAKEUP
        1... .... = Must be 1: Must be 1 for USB 1.1 and higher
        .0.. .... = Self-Powered: This device is powered from the USB bus
        ..0. .... = Remote Wakeup: This device does NOT support remote wakeup
    bMaxPower: 150  (300mA)

0000  80 b7 79 d1 00 00 00 00 43 02 80 27 04 00 2d 00   ..y.....C..'..-.
0010  7f 4d 4b 58 00 00 00 00 3f 9a 09 00 00 00 00 00   .MKX....?.......
0020  09 00 00 00 09 00 00 00 00 00 00 00 00 00 00 00   ................
0030  00 00 00 00 00 00 00 00 00 02 00 00 00 00 00 00   ................
0040  09 02 2e 00 01 01 38 80 96                        ......8..
No.     Time           Source                Destination           Protocol Length Info
      9 41.863740000   host                  39.0                  USB      64     GET DESCRIPTOR Request CONFIGURATION

Frame 9: 64 bytes on wire (512 bits), 64 bytes captured (512 bits) on interface 0
    Interface id: 0
    Encapsulation type: USB packets with Linux header and padding (115)
    Arrival Time: Dec 10, 2016 01:34:07.629341000 CET
    [Time shift for this packet: 0.000000000 seconds]
    Epoch Time: 1481330047.629341000 seconds
    [Time delta from previous captured frame: 0.000030000 seconds]
    [Time delta from previous displayed frame: 0.000030000 seconds]
    [Time since reference or first frame: 41.863740000 seconds]
    Frame Number: 9
    Frame Length: 64 bytes (512 bits)
    Capture Length: 64 bytes (512 bits)
    [Frame is marked: False]
    [Frame is ignored: False]
    [Protocols in frame: usb]
USB URB
    URB id: 0x00000000d179b780
    URB type: URB_SUBMIT ('S')
    URB transfer type: URB_CONTROL (0x02)
    Endpoint: 0x80, Direction: IN
        1... .... = Direction: IN (1)
        .000 0000 = Endpoint value: 0
    Device: 39
    URB bus id: 4
    Device setup request: relevant (0)
    Data: not present ('<')
    URB sec: 1481330047
    URB usec: 629341
    URB status: Operation now in progress (-EINPROGRESS) (-115)
    URB length [bytes]: 46
    Data length [bytes]: 0
    [Response in: 10]
URB setup
    bmRequestType: 0x80
        1... .... = Direction: Device-to-host
        .00. .... = Type: Standard (0x00)
        ...0 0000 = Recipient: Device (0x00)
    bRequest: GET DESCRIPTOR (6)
    Descriptor Index: 0x00
    bDescriptorType: CONFIGURATION (2)
    Language Id: no language specified (0x0000)
    wLength: 46

0000  80 b7 79 d1 00 00 00 00 53 02 80 27 04 00 00 3c   ..y.....S..'...<
0010  7f 4d 4b 58 00 00 00 00 5d 9a 09 00 8d ff ff ff   .MKX....].......
0020  2e 00 00 00 00 00 00 00 80 06 00 02 00 00 2e 00   ................
0030  00 00 00 00 00 00 00 00 00 02 00 00 00 00 00 00   ................
No.     Time           Source                Destination           Protocol Length Info
     10 41.866709000   39.0                  host                  USB      110    GET DESCRIPTOR Response CONFIGURATION

Frame 10: 110 bytes on wire (880 bits), 110 bytes captured (880 bits) on interface 0
    Interface id: 0
    Encapsulation type: USB packets with Linux header and padding (115)
    Arrival Time: Dec 10, 2016 01:34:07.632310000 CET
    [Time shift for this packet: 0.000000000 seconds]
    Epoch Time: 1481330047.632310000 seconds
    [Time delta from previous captured frame: 0.002969000 seconds]
    [Time delta from previous displayed frame: 0.002969000 seconds]
    [Time since reference or first frame: 41.866709000 seconds]
    Frame Number: 10
    Frame Length: 110 bytes (880 bits)
    Capture Length: 110 bytes (880 bits)
    [Frame is marked: False]
    [Frame is ignored: False]
    [Protocols in frame: usb]
USB URB
    URB id: 0x00000000d179b780
    URB type: URB_COMPLETE ('C')
    URB transfer type: URB_CONTROL (0x02)
    Endpoint: 0x80, Direction: IN
        1... .... = Direction: IN (1)
        .000 0000 = Endpoint value: 0
    Device: 39
    URB bus id: 4
    Device setup request: not relevant ('-')
    Data: present (0)
    URB sec: 1481330047
    URB usec: 632310
    URB status: Success (0)
    URB length [bytes]: 46
    Data length [bytes]: 46
    [Request in: 9]
    [Time from request: 0.002969000 seconds]
    [bInterfaceClass: Unknown (0xffff)]
CONFIGURATION DESCRIPTOR
    bLength: 9
    bDescriptorType: CONFIGURATION (2)
    wTotalLength: 46
    bNumInterfaces: 1
    bConfigurationValue: 1
    iConfiguration: 56
    Configuration bmAttributes: 0x80  NOT SELF-POWERED  NO REMOTE-WAKEUP
        1... .... = Must be 1: Must be 1 for USB 1.1 and higher
        .0.. .... = Self-Powered: This device is powered from the USB bus
        ..0. .... = Remote Wakeup: This device does NOT support remote wakeup
    bMaxPower: 150  (300mA)
INTERFACE DESCRIPTOR (0.0): class Vendor Specific
    bLength: 9
    bDescriptorType: INTERFACE (4)
    bInterfaceNumber: 0
    bAlternateSetting: 0
    bNumEndpoints: 4
    bInterfaceClass: Vendor Specific (0xff)
    bInterfaceSubClass: 0xff
    bInterfaceProtocol: 0xff
    iInterface: 0
ENDPOINT DESCRIPTOR
    bLength: 7
    bDescriptorType: ENDPOINT (5)
    bEndpointAddress: 0x81  IN  Endpoint:1
        1... .... = Direction: IN Endpoint
        .... 0001 = Endpoint Number: 0x01
    bmAttributes: 0x02
        .... ..10 = Transfertype: Bulk-Transfer (0x02)
        .... 00.. = Synchronisationtype: No Sync (0x00)
        ..00 .... = Behaviourtype: Data-Endpoint (0x00)
    wMaxPacketSize: 64
        .... ..00 0100 0000 = Maximum Packet Size: 64
    bInterval: 0
ENDPOINT DESCRIPTOR
    bLength: 7
    bDescriptorType: ENDPOINT (5)
    bEndpointAddress: 0x02  OUT  Endpoint:2
        0... .... = Direction: OUT Endpoint
        .... 0010 = Endpoint Number: 0x02
    bmAttributes: 0x02
        .... ..10 = Transfertype: Bulk-Transfer (0x02)
        .... 00.. = Synchronisationtype: No Sync (0x00)
        ..00 .... = Behaviourtype: Data-Endpoint (0x00)
    wMaxPacketSize: 64
        .... ..00 0100 0000 = Maximum Packet Size: 64
    bInterval: 0
ENDPOINT DESCRIPTOR
    bLength: 7
    bDescriptorType: ENDPOINT (5)
    bEndpointAddress: 0x83  IN  Endpoint:3
        1... .... = Direction: IN Endpoint
        .... 0011 = Endpoint Number: 0x03
    bmAttributes: 0x02
        .... ..10 = Transfertype: Bulk-Transfer (0x02)
        .... 00.. = Synchronisationtype: No Sync (0x00)
        ..00 .... = Behaviourtype: Data-Endpoint (0x00)
    wMaxPacketSize: 64
        .... ..00 0100 0000 = Maximum Packet Size: 64
    bInterval: 0
ENDPOINT DESCRIPTOR
    bLength: 7
    bDescriptorType: ENDPOINT (5)
    bEndpointAddress: 0x04  OUT  Endpoint:4
        0... .... = Direction: OUT Endpoint
        .... 0100 = Endpoint Number: 0x04
    bmAttributes: 0x02
        .... ..10 = Transfertype: Bulk-Transfer (0x02)
        .... 00.. = Synchronisationtype: No Sync (0x00)
        ..00 .... = Behaviourtype: Data-Endpoint (0x00)
    wMaxPacketSize: 64
        .... ..00 0100 0000 = Maximum Packet Size: 64
    bInterval: 0

0000  80 b7 79 d1 00 00 00 00 43 02 80 27 04 00 2d 00   ..y.....C..'..-.
0010  7f 4d 4b 58 00 00 00 00 f6 a5 09 00 00 00 00 00   .MKX............
0020  2e 00 00 00 2e 00 00 00 00 00 00 00 00 00 00 00   ................
0030  00 00 00 00 00 00 00 00 00 02 00 00 00 00 00 00   ................
0040  09 02 2e 00 01 01 38 80 96 09 04 00 00 04 ff ff   ......8.........
0050  ff 00 07 05 81 02 40 00 00 07 05 02 02 40 00 00   ......@......@..
0060  07 05 83 02 40 00 00 07 05 04 02 40 00 00         ....@......@..
No.     Time           Source                Destination           Protocol Length Info
     11 42.005857000   host                  39.0                  USB      64     GET DESCRIPTOR Request DEVICE

Frame 11: 64 bytes on wire (512 bits), 64 bytes captured (512 bits) on interface 0
    Interface id: 0
    Encapsulation type: USB packets with Linux header and padding (115)
    Arrival Time: Dec 10, 2016 01:34:07.771458000 CET
    [Time shift for this packet: 0.000000000 seconds]
    Epoch Time: 1481330047.771458000 seconds
    [Time delta from previous captured frame: 0.139148000 seconds]
    [Time delta from previous displayed frame: 0.139148000 seconds]
    [Time since reference or first frame: 42.005857000 seconds]
    Frame Number: 11
    Frame Length: 64 bytes (512 bits)
    Capture Length: 64 bytes (512 bits)
    [Frame is marked: False]
    [Frame is ignored: False]
    [Protocols in frame: usb]
USB URB
    URB id: 0x00000000e4760300
    URB type: URB_SUBMIT ('S')
    URB transfer type: URB_CONTROL (0x02)
    Endpoint: 0x80, Direction: IN
        1... .... = Direction: IN (1)
        .000 0000 = Endpoint value: 0
    Device: 39
    URB bus id: 4
    Device setup request: relevant (0)
    Data: not present ('<')
    URB sec: 1481330047
    URB usec: 771458
    URB status: Operation now in progress (-EINPROGRESS) (-115)
    URB length [bytes]: 64
    Data length [bytes]: 0
    [Response in: 12]
URB setup
    bmRequestType: 0x80
        1... .... = Direction: Device-to-host
        .00. .... = Type: Standard (0x00)
        ...0 0000 = Recipient: Device (0x00)
    bRequest: GET DESCRIPTOR (6)
    Descriptor Index: 0x00
    bDescriptorType: DEVICE (1)
    Language Id: no language specified (0x0000)
    wLength: 64

0000  00 03 76 e4 00 00 00 00 53 02 80 27 04 00 00 3c   ..v.....S..'...<
0010  7f 4d 4b 58 00 00 00 00 82 c5 0b 00 8d ff ff ff   .MKX............
0020  40 00 00 00 00 00 00 00 80 06 00 01 00 00 40 00   @.............@.
0030  00 00 00 00 00 00 00 00 00 02 00 00 00 00 00 00   ................
No.     Time           Source                Destination           Protocol Length Info
     12 42.006712000   39.0                  host                  USB      82     GET DESCRIPTOR Response DEVICE

Frame 12: 82 bytes on wire (656 bits), 82 bytes captured (656 bits) on interface 0
    Interface id: 0
    Encapsulation type: USB packets with Linux header and padding (115)
    Arrival Time: Dec 10, 2016 01:34:07.772313000 CET
    [Time shift for this packet: 0.000000000 seconds]
    Epoch Time: 1481330047.772313000 seconds
    [Time delta from previous captured frame: 0.000855000 seconds]
    [Time delta from previous displayed frame: 0.000855000 seconds]
    [Time since reference or first frame: 42.006712000 seconds]
    Frame Number: 12
    Frame Length: 82 bytes (656 bits)
    Capture Length: 82 bytes (656 bits)
    [Frame is marked: False]
    [Frame is ignored: False]
    [Protocols in frame: usb]
USB URB
    URB id: 0x00000000e4760300
    URB type: URB_COMPLETE ('C')
    URB transfer type: URB_CONTROL (0x02)
    Endpoint: 0x80, Direction: IN
        1... .... = Direction: IN (1)
        .000 0000 = Endpoint value: 0
    Device: 39
    URB bus id: 4
    Device setup request: not relevant ('-')
    Data: present (0)
    URB sec: 1481330047
    URB usec: 772313
    URB status: Success (0)
    URB length [bytes]: 18
    Data length [bytes]: 18
    [Request in: 11]
    [Time from request: 0.000855000 seconds]
    [bInterfaceClass: Unknown (0xffff)]
DEVICE DESCRIPTOR
    bLength: 18
    bDescriptorType: DEVICE (1)
    bcdUSB: 0x0110
    bDeviceClass: Vendor Specific (0xff)
    bDeviceSubClass: 255
    bDeviceProtocol: 255
    bMaxPacketSize0: 8
    idVendor: Cybiko Inc. (0x0b66)
    idProduct: Xtreme (0x0041)
    bcdDevice: 0x0001
    iManufacturer: 4
    iProduct: 28
    iSerialNumber: 0
    bNumConfigurations: 1

0000  00 03 76 e4 00 00 00 00 43 02 80 27 04 00 2d 00   ..v.....C..'..-.
0010  7f 4d 4b 58 00 00 00 00 d9 c8 0b 00 00 00 00 00   .MKX............
0020  12 00 00 00 12 00 00 00 00 00 00 00 00 00 00 00   ................
0030  00 00 00 00 00 00 00 00 00 02 00 00 00 00 00 00   ................
0040  12 01 10 01 ff ff ff 08 66 0b 41 00 01 00 04 1c   ........f.A.....
0050  00 01                                             ..
No.     Time           Source                Destination           Protocol Length Info
     13 42.054066000   host                  39.0                  USB      64     GET DESCRIPTOR Request DEVICE

Frame 13: 64 bytes on wire (512 bits), 64 bytes captured (512 bits) on interface 0
    Interface id: 0
    Encapsulation type: USB packets with Linux header and padding (115)
    Arrival Time: Dec 10, 2016 01:34:07.819667000 CET
    [Time shift for this packet: 0.000000000 seconds]
    Epoch Time: 1481330047.819667000 seconds
    [Time delta from previous captured frame: 0.047354000 seconds]
    [Time delta from previous displayed frame: 0.047354000 seconds]
    [Time since reference or first frame: 42.054066000 seconds]
    Frame Number: 13
    Frame Length: 64 bytes (512 bits)
    Capture Length: 64 bytes (512 bits)
    [Frame is marked: False]
    [Frame is ignored: False]
    [Protocols in frame: usb]
USB URB
    URB id: 0x00000000e47600c0
    URB type: URB_SUBMIT ('S')
    URB transfer type: URB_CONTROL (0x02)
    Endpoint: 0x80, Direction: IN
        1... .... = Direction: IN (1)
        .000 0000 = Endpoint value: 0
    Device: 39
    URB bus id: 4
    Device setup request: relevant (0)
    Data: not present ('<')
    URB sec: 1481330047
    URB usec: 819667
    URB status: Operation now in progress (-EINPROGRESS) (-115)
    URB length [bytes]: 18
    Data length [bytes]: 0
    [Response in: 14]
URB setup
    bmRequestType: 0x80
        1... .... = Direction: Device-to-host
        .00. .... = Type: Standard (0x00)
        ...0 0000 = Recipient: Device (0x00)
    bRequest: GET DESCRIPTOR (6)
    Descriptor Index: 0x00
    bDescriptorType: DEVICE (1)
    Language Id: no language specified (0x0000)
    wLength: 18

0000  c0 00 76 e4 00 00 00 00 53 02 80 27 04 00 00 3c   ..v.....S..'...<
0010  7f 4d 4b 58 00 00 00 00 d3 81 0c 00 8d ff ff ff   .MKX............
0020  12 00 00 00 00 00 00 00 80 06 00 01 00 00 12 00   ................
0030  00 00 00 00 00 00 00 00 00 02 00 00 00 00 00 00   ................
No.     Time           Source                Destination           Protocol Length Info
     14 42.054705000   39.0                  host                  USB      82     GET DESCRIPTOR Response DEVICE

Frame 14: 82 bytes on wire (656 bits), 82 bytes captured (656 bits) on interface 0
    Interface id: 0
    Encapsulation type: USB packets with Linux header and padding (115)
    Arrival Time: Dec 10, 2016 01:34:07.820306000 CET
    [Time shift for this packet: 0.000000000 seconds]
    Epoch Time: 1481330047.820306000 seconds
    [Time delta from previous captured frame: 0.000639000 seconds]
    [Time delta from previous displayed frame: 0.000639000 seconds]
    [Time since reference or first frame: 42.054705000 seconds]
    Frame Number: 14
    Frame Length: 82 bytes (656 bits)
    Capture Length: 82 bytes (656 bits)
    [Frame is marked: False]
    [Frame is ignored: False]
    [Protocols in frame: usb]
USB URB
    URB id: 0x00000000e47600c0
    URB type: URB_COMPLETE ('C')
    URB transfer type: URB_CONTROL (0x02)
    Endpoint: 0x80, Direction: IN
        1... .... = Direction: IN (1)
        .000 0000 = Endpoint value: 0
    Device: 39
    URB bus id: 4
    Device setup request: not relevant ('-')
    Data: present (0)
    URB sec: 1481330047
    URB usec: 820306
    URB status: Success (0)
    URB length [bytes]: 18
    Data length [bytes]: 18
    [Request in: 13]
    [Time from request: 0.000639000 seconds]
    [bInterfaceClass: Unknown (0xffff)]
DEVICE DESCRIPTOR
    bLength: 18
    bDescriptorType: DEVICE (1)
    bcdUSB: 0x0110
    bDeviceClass: Vendor Specific (0xff)
    bDeviceSubClass: 255
    bDeviceProtocol: 255
    bMaxPacketSize0: 8
    idVendor: Cybiko Inc. (0x0b66)
    idProduct: Xtreme (0x0041)
    bcdDevice: 0x0001
    iManufacturer: 4
    iProduct: 28
    iSerialNumber: 0
    bNumConfigurations: 1

0000  c0 00 76 e4 00 00 00 00 43 02 80 27 04 00 2d 00   ..v.....C..'..-.
0010  7f 4d 4b 58 00 00 00 00 52 84 0c 00 00 00 00 00   .MKX....R.......
0020  12 00 00 00 12 00 00 00 00 00 00 00 00 00 00 00   ................
0030  00 00 00 00 00 00 00 00 00 02 00 00 00 00 00 00   ................
0040  12 01 10 01 ff ff ff 08 66 0b 41 00 01 00 04 1c   ........f.A.....
0050  00 01                                             ..
No.     Time           Source                Destination           Protocol Length Info
     15 42.057299000   host                  39.0                  USB      64     GET DESCRIPTOR Request CONFIGURATION

Frame 15: 64 bytes on wire (512 bits), 64 bytes captured (512 bits) on interface 0
    Interface id: 0
    Encapsulation type: USB packets with Linux header and padding (115)
    Arrival Time: Dec 10, 2016 01:34:07.822900000 CET
    [Time shift for this packet: 0.000000000 seconds]
    Epoch Time: 1481330047.822900000 seconds
    [Time delta from previous captured frame: 0.002594000 seconds]
    [Time delta from previous displayed frame: 0.002594000 seconds]
    [Time since reference or first frame: 42.057299000 seconds]
    Frame Number: 15
    Frame Length: 64 bytes (512 bits)
    Capture Length: 64 bytes (512 bits)
    [Frame is marked: False]
    [Frame is ignored: False]
    [Protocols in frame: usb]
USB URB
    URB id: 0x00000000d179b180
    URB type: URB_SUBMIT ('S')
    URB transfer type: URB_CONTROL (0x02)
    Endpoint: 0x80, Direction: IN
        1... .... = Direction: IN (1)
        .000 0000 = Endpoint value: 0
    Device: 39
    URB bus id: 4
    Device setup request: relevant (0)
    Data: not present ('<')
    URB sec: 1481330047
    URB usec: 822900
    URB status: Operation now in progress (-EINPROGRESS) (-115)
    URB length [bytes]: 9
    Data length [bytes]: 0
    [Response in: 16]
URB setup
    bmRequestType: 0x80
        1... .... = Direction: Device-to-host
        .00. .... = Type: Standard (0x00)
        ...0 0000 = Recipient: Device (0x00)
    bRequest: GET DESCRIPTOR (6)
    Descriptor Index: 0x00
    bDescriptorType: CONFIGURATION (2)
    Language Id: no language specified (0x0000)
    wLength: 9

0000  80 b1 79 d1 00 00 00 00 53 02 80 27 04 00 00 3c   ..y.....S..'...<
0010  7f 4d 4b 58 00 00 00 00 74 8e 0c 00 8d ff ff ff   .MKX....t.......
0020  09 00 00 00 00 00 00 00 80 06 00 02 00 00 09 00   ................
0030  00 00 00 00 00 00 00 00 00 02 00 00 00 00 00 00   ................
No.     Time           Source                Destination           Protocol Length Info
     16 42.058705000   39.0                  host                  USB      73     GET DESCRIPTOR Response CONFIGURATION

Frame 16: 73 bytes on wire (584 bits), 73 bytes captured (584 bits) on interface 0
    Interface id: 0
    Encapsulation type: USB packets with Linux header and padding (115)
    Arrival Time: Dec 10, 2016 01:34:07.824306000 CET
    [Time shift for this packet: 0.000000000 seconds]
    Epoch Time: 1481330047.824306000 seconds
    [Time delta from previous captured frame: 0.001406000 seconds]
    [Time delta from previous displayed frame: 0.001406000 seconds]
    [Time since reference or first frame: 42.058705000 seconds]
    Frame Number: 16
    Frame Length: 73 bytes (584 bits)
    Capture Length: 73 bytes (584 bits)
    [Frame is marked: False]
    [Frame is ignored: False]
    [Protocols in frame: usb]
USB URB
    URB id: 0x00000000d179b180
    URB type: URB_COMPLETE ('C')
    URB transfer type: URB_CONTROL (0x02)
    Endpoint: 0x80, Direction: IN
        1... .... = Direction: IN (1)
        .000 0000 = Endpoint value: 0
    Device: 39
    URB bus id: 4
    Device setup request: not relevant ('-')
    Data: present (0)
    URB sec: 1481330047
    URB usec: 824306
    URB status: Success (0)
    URB length [bytes]: 9
    Data length [bytes]: 9
    [Request in: 15]
    [Time from request: 0.001406000 seconds]
    [bInterfaceClass: Unknown (0xffff)]
CONFIGURATION DESCRIPTOR
    bLength: 9
    bDescriptorType: CONFIGURATION (2)
    wTotalLength: 46
    bNumInterfaces: 1
    bConfigurationValue: 1
    iConfiguration: 56
    Configuration bmAttributes: 0x80  NOT SELF-POWERED  NO REMOTE-WAKEUP
        1... .... = Must be 1: Must be 1 for USB 1.1 and higher
        .0.. .... = Self-Powered: This device is powered from the USB bus
        ..0. .... = Remote Wakeup: This device does NOT support remote wakeup
    bMaxPower: 150  (300mA)

0000  80 b1 79 d1 00 00 00 00 43 02 80 27 04 00 2d 00   ..y.....C..'..-.
0010  7f 4d 4b 58 00 00 00 00 f2 93 0c 00 00 00 00 00   .MKX............
0020  09 00 00 00 09 00 00 00 00 00 00 00 00 00 00 00   ................
0030  00 00 00 00 00 00 00 00 00 02 00 00 00 00 00 00   ................
0040  09 02 2e 00 01 01 38 80 96                        ......8..
No.     Time           Source                Destination           Protocol Length Info
     17 42.061585000   host                  39.0                  USB      64     GET DESCRIPTOR Request CONFIGURATION

Frame 17: 64 bytes on wire (512 bits), 64 bytes captured (512 bits) on interface 0
    Interface id: 0
    Encapsulation type: USB packets with Linux header and padding (115)
    Arrival Time: Dec 10, 2016 01:34:07.827186000 CET
    [Time shift for this packet: 0.000000000 seconds]
    Epoch Time: 1481330047.827186000 seconds
    [Time delta from previous captured frame: 0.002880000 seconds]
    [Time delta from previous displayed frame: 0.002880000 seconds]
    [Time since reference or first frame: 42.061585000 seconds]
    Frame Number: 17
    Frame Length: 64 bytes (512 bits)
    Capture Length: 64 bytes (512 bits)
    [Frame is marked: False]
    [Frame is ignored: False]
    [Protocols in frame: usb]
USB URB
    URB id: 0x00000000d179be40
    URB type: URB_SUBMIT ('S')
    URB transfer type: URB_CONTROL (0x02)
    Endpoint: 0x80, Direction: IN
        1... .... = Direction: IN (1)
        .000 0000 = Endpoint value: 0
    Device: 39
    URB bus id: 4
    Device setup request: relevant (0)
    Data: not present ('<')
    URB sec: 1481330047
    URB usec: 827186
    URB status: Operation now in progress (-EINPROGRESS) (-115)
    URB length [bytes]: 255
    Data length [bytes]: 0
    [Response in: 18]
URB setup
    bmRequestType: 0x80
        1... .... = Direction: Device-to-host
        .00. .... = Type: Standard (0x00)
        ...0 0000 = Recipient: Device (0x00)
    bRequest: GET DESCRIPTOR (6)
    Descriptor Index: 0x00
    bDescriptorType: CONFIGURATION (2)
    Language Id: no language specified (0x0000)
    wLength: 255

0000  40 be 79 d1 00 00 00 00 53 02 80 27 04 00 00 3c   @.y.....S..'...<
0010  7f 4d 4b 58 00 00 00 00 32 9f 0c 00 8d ff ff ff   .MKX....2.......
0020  ff 00 00 00 00 00 00 00 80 06 00 02 00 00 ff 00   ................
0030  00 00 00 00 00 00 00 00 00 02 00 00 00 00 00 00   ................
No.     Time           Source                Destination           Protocol Length Info
     18 42.062691000   39.0                  host                  USB      110    GET DESCRIPTOR Response CONFIGURATION

Frame 18: 110 bytes on wire (880 bits), 110 bytes captured (880 bits) on interface 0
    Interface id: 0
    Encapsulation type: USB packets with Linux header and padding (115)
    Arrival Time: Dec 10, 2016 01:34:07.828292000 CET
    [Time shift for this packet: 0.000000000 seconds]
    Epoch Time: 1481330047.828292000 seconds
    [Time delta from previous captured frame: 0.001106000 seconds]
    [Time delta from previous displayed frame: 0.001106000 seconds]
    [Time since reference or first frame: 42.062691000 seconds]
    Frame Number: 18
    Frame Length: 110 bytes (880 bits)
    Capture Length: 110 bytes (880 bits)
    [Frame is marked: False]
    [Frame is ignored: False]
    [Protocols in frame: usb]
USB URB
    URB id: 0x00000000d179be40
    URB type: URB_COMPLETE ('C')
    URB transfer type: URB_CONTROL (0x02)
    Endpoint: 0x80, Direction: IN
        1... .... = Direction: IN (1)
        .000 0000 = Endpoint value: 0
    Device: 39
    URB bus id: 4
    Device setup request: not relevant ('-')
    Data: present (0)
    URB sec: 1481330047
    URB usec: 828292
    URB status: Success (0)
    URB length [bytes]: 46
    Data length [bytes]: 46
    [Request in: 17]
    [Time from request: 0.001106000 seconds]
    [bInterfaceClass: Unknown (0xffff)]
CONFIGURATION DESCRIPTOR
    bLength: 9
    bDescriptorType: CONFIGURATION (2)
    wTotalLength: 46
    bNumInterfaces: 1
    bConfigurationValue: 1
    iConfiguration: 56
    Configuration bmAttributes: 0x80  NOT SELF-POWERED  NO REMOTE-WAKEUP
        1... .... = Must be 1: Must be 1 for USB 1.1 and higher
        .0.. .... = Self-Powered: This device is powered from the USB bus
        ..0. .... = Remote Wakeup: This device does NOT support remote wakeup
    bMaxPower: 150  (300mA)
INTERFACE DESCRIPTOR (0.0): class Vendor Specific
    bLength: 9
    bDescriptorType: INTERFACE (4)
    bInterfaceNumber: 0
    bAlternateSetting: 0
    bNumEndpoints: 4
    bInterfaceClass: Vendor Specific (0xff)
    bInterfaceSubClass: 0xff
    bInterfaceProtocol: 0xff
    iInterface: 0
ENDPOINT DESCRIPTOR
    bLength: 7
    bDescriptorType: ENDPOINT (5)
    bEndpointAddress: 0x81  IN  Endpoint:1
        1... .... = Direction: IN Endpoint
        .... 0001 = Endpoint Number: 0x01
    bmAttributes: 0x02
        .... ..10 = Transfertype: Bulk-Transfer (0x02)
        .... 00.. = Synchronisationtype: No Sync (0x00)
        ..00 .... = Behaviourtype: Data-Endpoint (0x00)
    wMaxPacketSize: 64
        .... ..00 0100 0000 = Maximum Packet Size: 64
    bInterval: 0
ENDPOINT DESCRIPTOR
    bLength: 7
    bDescriptorType: ENDPOINT (5)
    bEndpointAddress: 0x02  OUT  Endpoint:2
        0... .... = Direction: OUT Endpoint
        .... 0010 = Endpoint Number: 0x02
    bmAttributes: 0x02
        .... ..10 = Transfertype: Bulk-Transfer (0x02)
        .... 00.. = Synchronisationtype: No Sync (0x00)
        ..00 .... = Behaviourtype: Data-Endpoint (0x00)
    wMaxPacketSize: 64
        .... ..00 0100 0000 = Maximum Packet Size: 64
    bInterval: 0
ENDPOINT DESCRIPTOR
    bLength: 7
    bDescriptorType: ENDPOINT (5)
    bEndpointAddress: 0x83  IN  Endpoint:3
        1... .... = Direction: IN Endpoint
        .... 0011 = Endpoint Number: 0x03
    bmAttributes: 0x02
        .... ..10 = Transfertype: Bulk-Transfer (0x02)
        .... 00.. = Synchronisationtype: No Sync (0x00)
        ..00 .... = Behaviourtype: Data-Endpoint (0x00)
    wMaxPacketSize: 64
        .... ..00 0100 0000 = Maximum Packet Size: 64
    bInterval: 0
ENDPOINT DESCRIPTOR
    bLength: 7
    bDescriptorType: ENDPOINT (5)
    bEndpointAddress: 0x04  OUT  Endpoint:4
        0... .... = Direction: OUT Endpoint
        .... 0100 = Endpoint Number: 0x04
    bmAttributes: 0x02
        .... ..10 = Transfertype: Bulk-Transfer (0x02)
        .... 00.. = Synchronisationtype: No Sync (0x00)
        ..00 .... = Behaviourtype: Data-Endpoint (0x00)
    wMaxPacketSize: 64
        .... ..00 0100 0000 = Maximum Packet Size: 64
    bInterval: 0

0000  40 be 79 d1 00 00 00 00 43 02 80 27 04 00 2d 00   @.y.....C..'..-.
0010  7f 4d 4b 58 00 00 00 00 84 a3 0c 00 00 00 00 00   .MKX............
0020  2e 00 00 00 2e 00 00 00 00 00 00 00 00 00 00 00   ................
0030  00 00 00 00 00 00 00 00 00 02 00 00 00 00 00 00   ................
0040  09 02 2e 00 01 01 38 80 96 09 04 00 00 04 ff ff   ......8.........
0050  ff 00 07 05 81 02 40 00 00 07 05 02 02 40 00 00   ......@......@..
0060  07 05 83 02 40 00 00 07 05 04 02 40 00 00         ....@......@..
No.     Time           Source                Destination           Protocol Length Info
     19 42.067011000   host                  39.0                  USB      64     GET DESCRIPTOR Request STRING

Frame 19: 64 bytes on wire (512 bits), 64 bytes captured (512 bits) on interface 0
    Interface id: 0
    Encapsulation type: USB packets with Linux header and padding (115)
    Arrival Time: Dec 10, 2016 01:34:07.832612000 CET
    [Time shift for this packet: 0.000000000 seconds]
    Epoch Time: 1481330047.832612000 seconds
    [Time delta from previous captured frame: 0.004320000 seconds]
    [Time delta from previous displayed frame: 0.004320000 seconds]
    [Time since reference or first frame: 42.067011000 seconds]
    Frame Number: 19
    Frame Length: 64 bytes (512 bits)
    Capture Length: 64 bytes (512 bits)
    [Frame is marked: False]
    [Frame is ignored: False]
    [Protocols in frame: usb]
USB URB
    URB id: 0x00000000e4760180
    URB type: URB_SUBMIT ('S')
    URB transfer type: URB_CONTROL (0x02)
    Endpoint: 0x80, Direction: IN
        1... .... = Direction: IN (1)
        .000 0000 = Endpoint value: 0
    Device: 39
    URB bus id: 4
    Device setup request: relevant (0)
    Data: not present ('<')
    URB sec: 1481330047
    URB usec: 832612
    URB status: Operation now in progress (-EINPROGRESS) (-115)
    URB length [bytes]: 255
    Data length [bytes]: 0
    [Response in: 20]
URB setup
    bmRequestType: 0x80
        1... .... = Direction: Device-to-host
        .00. .... = Type: Standard (0x00)
        ...0 0000 = Recipient: Device (0x00)
    bRequest: GET DESCRIPTOR (6)
    Descriptor Index: 0x00
    bDescriptorType: STRING (3)
    Language Id: no language specified (0x0000)
    wLength: 255

0000  80 01 76 e4 00 00 00 00 53 02 80 27 04 00 00 3c   ..v.....S..'...<
0010  7f 4d 4b 58 00 00 00 00 64 b4 0c 00 8d ff ff ff   .MKX....d.......
0020  ff 00 00 00 00 00 00 00 80 06 00 03 00 00 ff 00   ................
0030  00 00 00 00 00 00 00 00 00 02 00 00 00 00 00 00   ................
No.     Time           Source                Destination           Protocol Length Info
     20 42.067692000   39.0                  host                  USB      68     GET DESCRIPTOR Response STRING

Frame 20: 68 bytes on wire (544 bits), 68 bytes captured (544 bits) on interface 0
    Interface id: 0
    Encapsulation type: USB packets with Linux header and padding (115)
    Arrival Time: Dec 10, 2016 01:34:07.833293000 CET
    [Time shift for this packet: 0.000000000 seconds]
    Epoch Time: 1481330047.833293000 seconds
    [Time delta from previous captured frame: 0.000681000 seconds]
    [Time delta from previous displayed frame: 0.000681000 seconds]
    [Time since reference or first frame: 42.067692000 seconds]
    Frame Number: 20
    Frame Length: 68 bytes (544 bits)
    Capture Length: 68 bytes (544 bits)
    [Frame is marked: False]
    [Frame is ignored: False]
    [Protocols in frame: usb]
USB URB
    URB id: 0x00000000e4760180
    URB type: URB_COMPLETE ('C')
    URB transfer type: URB_CONTROL (0x02)
    Endpoint: 0x80, Direction: IN
        1... .... = Direction: IN (1)
        .000 0000 = Endpoint value: 0
    Device: 39
    URB bus id: 4
    Device setup request: not relevant ('-')
    Data: present (0)
    URB sec: 1481330047
    URB usec: 833293
    URB status: Success (0)
    URB length [bytes]: 4
    Data length [bytes]: 4
    [Request in: 19]
    [Time from request: 0.000681000 seconds]
    [bInterfaceClass: Unknown (0xffff)]
STRING DESCRIPTOR
    bLength: 4
    bDescriptorType: STRING (3)
    wLANGID: English (United States) (0x0409)

0000  80 01 76 e4 00 00 00 00 43 02 80 27 04 00 2d 00   ..v.....C..'..-.
0010  7f 4d 4b 58 00 00 00 00 0d b7 0c 00 00 00 00 00   .MKX............
0020  04 00 00 00 04 00 00 00 00 00 00 00 00 00 00 00   ................
0030  00 00 00 00 00 00 00 00 00 02 00 00 00 00 00 00   ................
0040  04 03 09 04                                       ....
No.     Time           Source                Destination           Protocol Length Info
     21 42.070191000   host                  39.0                  USB      64     GET DESCRIPTOR Request STRING

Frame 21: 64 bytes on wire (512 bits), 64 bytes captured (512 bits) on interface 0
    Interface id: 0
    Encapsulation type: USB packets with Linux header and padding (115)
    Arrival Time: Dec 10, 2016 01:34:07.835792000 CET
    [Time shift for this packet: 0.000000000 seconds]
    Epoch Time: 1481330047.835792000 seconds
    [Time delta from previous captured frame: 0.002499000 seconds]
    [Time delta from previous displayed frame: 0.002499000 seconds]
    [Time since reference or first frame: 42.070191000 seconds]
    Frame Number: 21
    Frame Length: 64 bytes (512 bits)
    Capture Length: 64 bytes (512 bits)
    [Frame is marked: False]
    [Frame is ignored: False]
    [Protocols in frame: usb]
USB URB
    URB id: 0x00000000d179b000
    URB type: URB_SUBMIT ('S')
    URB transfer type: URB_CONTROL (0x02)
    Endpoint: 0x80, Direction: IN
        1... .... = Direction: IN (1)
        .000 0000 = Endpoint value: 0
    Device: 39
    URB bus id: 4
    Device setup request: relevant (0)
    Data: not present ('<')
    URB sec: 1481330047
    URB usec: 835792
    URB status: Operation now in progress (-EINPROGRESS) (-115)
    URB length [bytes]: 255
    Data length [bytes]: 0
    [Response in: 22]
URB setup
    bmRequestType: 0x80
        1... .... = Direction: Device-to-host
        .00. .... = Type: Standard (0x00)
        ...0 0000 = Recipient: Device (0x00)
    bRequest: GET DESCRIPTOR (6)
    Descriptor Index: 0x1c
    bDescriptorType: STRING (3)
    Language Id: English (United States) (0x0409)
    wLength: 255

0000  00 b0 79 d1 00 00 00 00 53 02 80 27 04 00 00 3c   ..y.....S..'...<
0010  7f 4d 4b 58 00 00 00 00 d0 c0 0c 00 8d ff ff ff   .MKX............
0020  ff 00 00 00 00 00 00 00 80 06 1c 03 09 04 ff 00   ................
0030  00 00 00 00 00 00 00 00 00 02 00 00 00 00 00 00   ................
No.     Time           Source                Destination           Protocol Length Info
     22 42.071702000   39.0                  host                  USB      92     GET DESCRIPTOR Response STRING

Frame 22: 92 bytes on wire (736 bits), 92 bytes captured (736 bits) on interface 0
    Interface id: 0
    Encapsulation type: USB packets with Linux header and padding (115)
    Arrival Time: Dec 10, 2016 01:34:07.837303000 CET
    [Time shift for this packet: 0.000000000 seconds]
    Epoch Time: 1481330047.837303000 seconds
    [Time delta from previous captured frame: 0.001511000 seconds]
    [Time delta from previous displayed frame: 0.001511000 seconds]
    [Time since reference or first frame: 42.071702000 seconds]
    Frame Number: 22
    Frame Length: 92 bytes (736 bits)
    Capture Length: 92 bytes (736 bits)
    [Frame is marked: False]
    [Frame is ignored: False]
    [Protocols in frame: usb]
USB URB
    URB id: 0x00000000d179b000
    URB type: URB_COMPLETE ('C')
    URB transfer type: URB_CONTROL (0x02)
    Endpoint: 0x80, Direction: IN
        1... .... = Direction: IN (1)
        .000 0000 = Endpoint value: 0
    Device: 39
    URB bus id: 4
    Device setup request: not relevant ('-')
    Data: present (0)
    URB sec: 1481330047
    URB usec: 837303
    URB status: Success (0)
    URB length [bytes]: 28
    Data length [bytes]: 28
    [Request in: 21]
    [Time from request: 0.001511000 seconds]
    [bInterfaceClass: Unknown (0xffff)]
STRING DESCRIPTOR
    bLength: 28
    bDescriptorType: STRING (3)
    bString: Cybiko Xtreme

0000  00 b0 79 d1 00 00 00 00 43 02 80 27 04 00 2d 00   ..y.....C..'..-.
0010  7f 4d 4b 58 00 00 00 00 b7 c6 0c 00 00 00 00 00   .MKX............
0020  1c 00 00 00 1c 00 00 00 00 00 00 00 00 00 00 00   ................
0030  00 00 00 00 00 00 00 00 00 02 00 00 00 00 00 00   ................
0040  1c 03 43 00 79 00 62 00 69 00 6b 00 6f 00 20 00   ..C.y.b.i.k.o. .
0050  58 00 74 00 72 00 65 00 6d 00 65 00               X.t.r.e.m.e.
No.     Time           Source                Destination           Protocol Length Info
     23 42.074516000   host                  39.0                  USB      64     GET DESCRIPTOR Request STRING

Frame 23: 64 bytes on wire (512 bits), 64 bytes captured (512 bits) on interface 0
    Interface id: 0
    Encapsulation type: USB packets with Linux header and padding (115)
    Arrival Time: Dec 10, 2016 01:34:07.840117000 CET
    [Time shift for this packet: 0.000000000 seconds]
    Epoch Time: 1481330047.840117000 seconds
    [Time delta from previous captured frame: 0.002814000 seconds]
    [Time delta from previous displayed frame: 0.002814000 seconds]
    [Time since reference or first frame: 42.074516000 seconds]
    Frame Number: 23
    Frame Length: 64 bytes (512 bits)
    Capture Length: 64 bytes (512 bits)
    [Frame is marked: False]
    [Frame is ignored: False]
    [Protocols in frame: usb]
USB URB
    URB id: 0x00000000e4760480
    URB type: URB_SUBMIT ('S')
    URB transfer type: URB_CONTROL (0x02)
    Endpoint: 0x80, Direction: IN
        1... .... = Direction: IN (1)
        .000 0000 = Endpoint value: 0
    Device: 39
    URB bus id: 4
    Device setup request: relevant (0)
    Data: not present ('<')
    URB sec: 1481330047
    URB usec: 840117
    URB status: Operation now in progress (-EINPROGRESS) (-115)
    URB length [bytes]: 255
    Data length [bytes]: 0
    [Response in: 24]
URB setup
    bmRequestType: 0x80
        1... .... = Direction: Device-to-host
        .00. .... = Type: Standard (0x00)
        ...0 0000 = Recipient: Device (0x00)
    bRequest: GET DESCRIPTOR (6)
    Descriptor Index: 0x00
    bDescriptorType: STRING (3)
    Language Id: no language specified (0x0000)
    wLength: 255

0000  80 04 76 e4 00 00 00 00 53 02 80 27 04 00 00 3c   ..v.....S..'...<
0010  7f 4d 4b 58 00 00 00 00 b5 d1 0c 00 8d ff ff ff   .MKX............
0020  ff 00 00 00 00 00 00 00 80 06 00 03 00 00 ff 00   ................
0030  00 00 00 00 00 00 00 00 00 02 00 00 00 00 00 00   ................
No.     Time           Source                Destination           Protocol Length Info
     24 42.075701000   39.0                  host                  USB      68     GET DESCRIPTOR Response STRING

Frame 24: 68 bytes on wire (544 bits), 68 bytes captured (544 bits) on interface 0
    Interface id: 0
    Encapsulation type: USB packets with Linux header and padding (115)
    Arrival Time: Dec 10, 2016 01:34:07.841302000 CET
    [Time shift for this packet: 0.000000000 seconds]
    Epoch Time: 1481330047.841302000 seconds
    [Time delta from previous captured frame: 0.001185000 seconds]
    [Time delta from previous displayed frame: 0.001185000 seconds]
    [Time since reference or first frame: 42.075701000 seconds]
    Frame Number: 24
    Frame Length: 68 bytes (544 bits)
    Capture Length: 68 bytes (544 bits)
    [Frame is marked: False]
    [Frame is ignored: False]
    [Protocols in frame: usb]
USB URB
    URB id: 0x00000000e4760480
    URB type: URB_COMPLETE ('C')
    URB transfer type: URB_CONTROL (0x02)
    Endpoint: 0x80, Direction: IN
        1... .... = Direction: IN (1)
        .000 0000 = Endpoint value: 0
    Device: 39
    URB bus id: 4
    Device setup request: not relevant ('-')
    Data: present (0)
    URB sec: 1481330047
    URB usec: 841302
    URB status: Success (0)
    URB length [bytes]: 4
    Data length [bytes]: 4
    [Request in: 23]
    [Time from request: 0.001185000 seconds]
    [bInterfaceClass: Unknown (0xffff)]
STRING DESCRIPTOR
    bLength: 4
    bDescriptorType: STRING (3)
    wLANGID: English (United States) (0x0409)

0000  80 04 76 e4 00 00 00 00 43 02 80 27 04 00 2d 00   ..v.....C..'..-.
0010  7f 4d 4b 58 00 00 00 00 56 d6 0c 00 00 00 00 00   .MKX....V.......
0020  04 00 00 00 04 00 00 00 00 00 00 00 00 00 00 00   ................
0030  00 00 00 00 00 00 00 00 00 02 00 00 00 00 00 00   ................
0040  04 03 09 04                                       ....
No.     Time           Source                Destination           Protocol Length Info
     25 42.079039000   host                  39.0                  USB      64     GET DESCRIPTOR Request STRING

Frame 25: 64 bytes on wire (512 bits), 64 bytes captured (512 bits) on interface 0
    Interface id: 0
    Encapsulation type: USB packets with Linux header and padding (115)
    Arrival Time: Dec 10, 2016 01:34:07.844640000 CET
    [Time shift for this packet: 0.000000000 seconds]
    Epoch Time: 1481330047.844640000 seconds
    [Time delta from previous captured frame: 0.003338000 seconds]
    [Time delta from previous displayed frame: 0.003338000 seconds]
    [Time since reference or first frame: 42.079039000 seconds]
    Frame Number: 25
    Frame Length: 64 bytes (512 bits)
    Capture Length: 64 bytes (512 bits)
    [Frame is marked: False]
    [Frame is ignored: False]
    [Protocols in frame: usb]
USB URB
    URB id: 0x00000000d179b240
    URB type: URB_SUBMIT ('S')
    URB transfer type: URB_CONTROL (0x02)
    Endpoint: 0x80, Direction: IN
        1... .... = Direction: IN (1)
        .000 0000 = Endpoint value: 0
    Device: 39
    URB bus id: 4
    Device setup request: relevant (0)
    Data: not present ('<')
    URB sec: 1481330047
    URB usec: 844640
    URB status: Operation now in progress (-EINPROGRESS) (-115)
    URB length [bytes]: 255
    Data length [bytes]: 0
    [Response in: 26]
URB setup
    bmRequestType: 0x80
        1... .... = Direction: Device-to-host
        .00. .... = Type: Standard (0x00)
        ...0 0000 = Recipient: Device (0x00)
    bRequest: GET DESCRIPTOR (6)
    Descriptor Index: 0x1c
    bDescriptorType: STRING (3)
    Language Id: English (United States) (0x0409)
    wLength: 255

0000  40 b2 79 d1 00 00 00 00 53 02 80 27 04 00 00 3c   @.y.....S..'...<
0010  7f 4d 4b 58 00 00 00 00 60 e3 0c 00 8d ff ff ff   .MKX....`.......
0020  ff 00 00 00 00 00 00 00 80 06 1c 03 09 04 ff 00   ................
0030  00 00 00 00 00 00 00 00 00 02 00 00 00 00 00 00   ................
No.     Time           Source                Destination           Protocol Length Info
     26 42.080717000   39.0                  host                  USB      92     GET DESCRIPTOR Response STRING

Frame 26: 92 bytes on wire (736 bits), 92 bytes captured (736 bits) on interface 0
    Interface id: 0
    Encapsulation type: USB packets with Linux header and padding (115)
    Arrival Time: Dec 10, 2016 01:34:07.846318000 CET
    [Time shift for this packet: 0.000000000 seconds]
    Epoch Time: 1481330047.846318000 seconds
    [Time delta from previous captured frame: 0.001678000 seconds]
    [Time delta from previous displayed frame: 0.001678000 seconds]
    [Time since reference or first frame: 42.080717000 seconds]
    Frame Number: 26
    Frame Length: 92 bytes (736 bits)
    Capture Length: 92 bytes (736 bits)
    [Frame is marked: False]
    [Frame is ignored: False]
    [Protocols in frame: usb]
USB URB
    URB id: 0x00000000d179b240
    URB type: URB_COMPLETE ('C')
    URB transfer type: URB_CONTROL (0x02)
    Endpoint: 0x80, Direction: IN
        1... .... = Direction: IN (1)
        .000 0000 = Endpoint value: 0
    Device: 39
    URB bus id: 4
    Device setup request: not relevant ('-')
    Data: present (0)
    URB sec: 1481330047
    URB usec: 846318
    URB status: Success (0)
    URB length [bytes]: 28
    Data length [bytes]: 28
    [Request in: 25]
    [Time from request: 0.001678000 seconds]
    [bInterfaceClass: Unknown (0xffff)]
STRING DESCRIPTOR
    bLength: 28
    bDescriptorType: STRING (3)
    bString: Cybiko Xtreme

0000  40 b2 79 d1 00 00 00 00 43 02 80 27 04 00 2d 00   @.y.....C..'..-.
0010  7f 4d 4b 58 00 00 00 00 ee e9 0c 00 00 00 00 00   .MKX............
0020  1c 00 00 00 1c 00 00 00 00 00 00 00 00 00 00 00   ................
0030  00 00 00 00 00 00 00 00 00 02 00 00 00 00 00 00   ................
0040  1c 03 43 00 79 00 62 00 69 00 6b 00 6f 00 20 00   ..C.y.b.i.k.o. .
0050  58 00 74 00 72 00 65 00 6d 00 65 00               X.t.r.e.m.e.
No.     Time           Source                Destination           Protocol Length Info
     27 42.088408000   host                  39.0                  USB      64     GET DESCRIPTOR Request DEVICE

Frame 27: 64 bytes on wire (512 bits), 64 bytes captured (512 bits) on interface 0
    Interface id: 0
    Encapsulation type: USB packets with Linux header and padding (115)
    Arrival Time: Dec 10, 2016 01:34:07.854009000 CET
    [Time shift for this packet: 0.000000000 seconds]
    Epoch Time: 1481330047.854009000 seconds
    [Time delta from previous captured frame: 0.007691000 seconds]
    [Time delta from previous displayed frame: 0.007691000 seconds]
    [Time since reference or first frame: 42.088408000 seconds]
    Frame Number: 27
    Frame Length: 64 bytes (512 bits)
    Capture Length: 64 bytes (512 bits)
    [Frame is marked: False]
    [Frame is ignored: False]
    [Protocols in frame: usb]
USB URB
    URB id: 0x00000000d179b240
    URB type: URB_SUBMIT ('S')
    URB transfer type: URB_CONTROL (0x02)
    Endpoint: 0x80, Direction: IN
        1... .... = Direction: IN (1)
        .000 0000 = Endpoint value: 0
    Device: 39
    URB bus id: 4
    Device setup request: relevant (0)
    Data: not present ('<')
    URB sec: 1481330047
    URB usec: 854009
    URB status: Operation now in progress (-EINPROGRESS) (-115)
    URB length [bytes]: 18
    Data length [bytes]: 0
    [Response in: 28]
URB setup
    bmRequestType: 0x80
        1... .... = Direction: Device-to-host
        .00. .... = Type: Standard (0x00)
        ...0 0000 = Recipient: Device (0x00)
    bRequest: GET DESCRIPTOR (6)
    Descriptor Index: 0x00
    bDescriptorType: DEVICE (1)
    Language Id: no language specified (0x0000)
    wLength: 18

0000  40 b2 79 d1 00 00 00 00 53 02 80 27 04 00 00 3c   @.y.....S..'...<
0010  7f 4d 4b 58 00 00 00 00 f9 07 0d 00 8d ff ff ff   .MKX............
0020  12 00 00 00 00 00 00 00 80 06 00 01 00 00 12 00   ................
0030  00 00 00 00 00 00 00 00 00 02 00 00 00 00 00 00   ................
No.     Time           Source                Destination           Protocol Length Info
     28 42.089694000   39.0                  host                  USB      82     GET DESCRIPTOR Response DEVICE

Frame 28: 82 bytes on wire (656 bits), 82 bytes captured (656 bits) on interface 0
    Interface id: 0
    Encapsulation type: USB packets with Linux header and padding (115)
    Arrival Time: Dec 10, 2016 01:34:07.855295000 CET
    [Time shift for this packet: 0.000000000 seconds]
    Epoch Time: 1481330047.855295000 seconds
    [Time delta from previous captured frame: 0.001286000 seconds]
    [Time delta from previous displayed frame: 0.001286000 seconds]
    [Time since reference or first frame: 42.089694000 seconds]
    Frame Number: 28
    Frame Length: 82 bytes (656 bits)
    Capture Length: 82 bytes (656 bits)
    [Frame is marked: False]
    [Frame is ignored: False]
    [Protocols in frame: usb]
USB URB
    URB id: 0x00000000d179b240
    URB type: URB_COMPLETE ('C')
    URB transfer type: URB_CONTROL (0x02)
    Endpoint: 0x80, Direction: IN
        1... .... = Direction: IN (1)
        .000 0000 = Endpoint value: 0
    Device: 39
    URB bus id: 4
    Device setup request: not relevant ('-')
    Data: present (0)
    URB sec: 1481330047
    URB usec: 855295
    URB status: Success (0)
    URB length [bytes]: 18
    Data length [bytes]: 18
    [Request in: 27]
    [Time from request: 0.001286000 seconds]
    [bInterfaceClass: Unknown (0xffff)]
DEVICE DESCRIPTOR
    bLength: 18
    bDescriptorType: DEVICE (1)
    bcdUSB: 0x0110
    bDeviceClass: Vendor Specific (0xff)
    bDeviceSubClass: 255
    bDeviceProtocol: 255
    bMaxPacketSize0: 8
    idVendor: Cybiko Inc. (0x0b66)
    idProduct: Xtreme (0x0041)
    bcdDevice: 0x0001
    iManufacturer: 4
    iProduct: 28
    iSerialNumber: 0
    bNumConfigurations: 1

0000  40 b2 79 d1 00 00 00 00 43 02 80 27 04 00 2d 00   @.y.....C..'..-.
0010  7f 4d 4b 58 00 00 00 00 ff 0c 0d 00 00 00 00 00   .MKX............
0020  12 00 00 00 12 00 00 00 00 00 00 00 00 00 00 00   ................
0030  00 00 00 00 00 00 00 00 00 02 00 00 00 00 00 00   ................
0040  12 01 10 01 ff ff ff 08 66 0b 41 00 01 00 04 1c   ........f.A.....
0050  00 01                                             ..
No.     Time           Source                Destination           Protocol Length Info
     29 42.092726000   host                  39.0                  USB      64     GET DESCRIPTOR Request CONFIGURATION

Frame 29: 64 bytes on wire (512 bits), 64 bytes captured (512 bits) on interface 0
    Interface id: 0
    Encapsulation type: USB packets with Linux header and padding (115)
    Arrival Time: Dec 10, 2016 01:34:07.858327000 CET
    [Time shift for this packet: 0.000000000 seconds]
    Epoch Time: 1481330047.858327000 seconds
    [Time delta from previous captured frame: 0.003032000 seconds]
    [Time delta from previous displayed frame: 0.003032000 seconds]
    [Time since reference or first frame: 42.092726000 seconds]
    Frame Number: 29
    Frame Length: 64 bytes (512 bits)
    Capture Length: 64 bytes (512 bits)
    [Frame is marked: False]
    [Frame is ignored: False]
    [Protocols in frame: usb]
USB URB
    URB id: 0x00000000d179b900
    URB type: URB_SUBMIT ('S')
    URB transfer type: URB_CONTROL (0x02)
    Endpoint: 0x80, Direction: IN
        1... .... = Direction: IN (1)
        .000 0000 = Endpoint value: 0
    Device: 39
    URB bus id: 4
    Device setup request: relevant (0)
    Data: not present ('<')
    URB sec: 1481330047
    URB usec: 858327
    URB status: Operation now in progress (-EINPROGRESS) (-115)
    URB length [bytes]: 14
    Data length [bytes]: 0
    [Response in: 30]
URB setup
    bmRequestType: 0x80
        1... .... = Direction: Device-to-host
        .00. .... = Type: Standard (0x00)
        ...0 0000 = Recipient: Device (0x00)
    bRequest: GET DESCRIPTOR (6)
    Descriptor Index: 0x00
    bDescriptorType: CONFIGURATION (2)
    Language Id: no language specified (0x0000)
    wLength: 14

0000  00 b9 79 d1 00 00 00 00 53 02 80 27 04 00 00 3c   ..y.....S..'...<
0010  7f 4d 4b 58 00 00 00 00 d7 18 0d 00 8d ff ff ff   .MKX............
0020  0e 00 00 00 00 00 00 00 80 06 00 02 00 00 0e 00   ................
0030  00 00 00 00 00 00 00 00 00 02 00 00 00 00 00 00   ................
No.     Time           Source                Destination           Protocol Length Info
     30 42.093695000   39.0                  host                  USB      78     GET DESCRIPTOR Response CONFIGURATION

Frame 30: 78 bytes on wire (624 bits), 78 bytes captured (624 bits) on interface 0
    Interface id: 0
    Encapsulation type: USB packets with Linux header and padding (115)
    Arrival Time: Dec 10, 2016 01:34:07.859296000 CET
    [Time shift for this packet: 0.000000000 seconds]
    Epoch Time: 1481330047.859296000 seconds
    [Time delta from previous captured frame: 0.000969000 seconds]
    [Time delta from previous displayed frame: 0.000969000 seconds]
    [Time since reference or first frame: 42.093695000 seconds]
    Frame Number: 30
    Frame Length: 78 bytes (624 bits)
    Capture Length: 78 bytes (624 bits)
    [Frame is marked: False]
    [Frame is ignored: False]
    [Protocols in frame: usb]
USB URB
    URB id: 0x00000000d179b900
    URB type: URB_COMPLETE ('C')
    URB transfer type: URB_CONTROL (0x02)
    Endpoint: 0x80, Direction: IN
        1... .... = Direction: IN (1)
        .000 0000 = Endpoint value: 0
    Device: 39
    URB bus id: 4
    Device setup request: not relevant ('-')
    Data: present (0)
    URB sec: 1481330047
    URB usec: 859296
    URB status: Success (0)
    URB length [bytes]: 14
    Data length [bytes]: 14
    [Request in: 29]
    [Time from request: 0.000969000 seconds]
    [bInterfaceClass: Unknown (0xffff)]
CONFIGURATION DESCRIPTOR
    bLength: 9
    bDescriptorType: CONFIGURATION (2)
    wTotalLength: 46
    bNumInterfaces: 1
    bConfigurationValue: 1
    iConfiguration: 56
    Configuration bmAttributes: 0x80  NOT SELF-POWERED  NO REMOTE-WAKEUP
        1... .... = Must be 1: Must be 1 for USB 1.1 and higher
        .0.. .... = Self-Powered: This device is powered from the USB bus
        ..0. .... = Remote Wakeup: This device does NOT support remote wakeup
    bMaxPower: 150  (300mA)
Leftover Capture Data: 0904000004

0000  00 b9 79 d1 00 00 00 00 43 02 80 27 04 00 2d 00   ..y.....C..'..-.
0010  7f 4d 4b 58 00 00 00 00 a0 1c 0d 00 00 00 00 00   .MKX............
0020  0e 00 00 00 0e 00 00 00 00 00 00 00 00 00 00 00   ................
0030  00 00 00 00 00 00 00 00 00 02 00 00 00 00 00 00   ................
0040  09 02 2e 00 01 01 38 80 96 09 04 00 00 04         ......8.......
No.     Time           Source                Destination           Protocol Length Info
     31 42.097046000   host                  39.0                  USB      64     GET DESCRIPTOR Request CONFIGURATION

Frame 31: 64 bytes on wire (512 bits), 64 bytes captured (512 bits) on interface 0
    Interface id: 0
    Encapsulation type: USB packets with Linux header and padding (115)
    Arrival Time: Dec 10, 2016 01:34:07.862647000 CET
    [Time shift for this packet: 0.000000000 seconds]
    Epoch Time: 1481330047.862647000 seconds
    [Time delta from previous captured frame: 0.003351000 seconds]
    [Time delta from previous displayed frame: 0.003351000 seconds]
    [Time since reference or first frame: 42.097046000 seconds]
    Frame Number: 31
    Frame Length: 64 bytes (512 bits)
    Capture Length: 64 bytes (512 bits)
    [Frame is marked: False]
    [Frame is ignored: False]
    [Protocols in frame: usb]
USB URB
    URB id: 0x00000000d179b0c0
    URB type: URB_SUBMIT ('S')
    URB transfer type: URB_CONTROL (0x02)
    Endpoint: 0x80, Direction: IN
        1... .... = Direction: IN (1)
        .000 0000 = Endpoint value: 0
    Device: 39
    URB bus id: 4
    Device setup request: relevant (0)
    Data: not present ('<')
    URB sec: 1481330047
    URB usec: 862647
    URB status: Operation now in progress (-EINPROGRESS) (-115)
    URB length [bytes]: 46
    Data length [bytes]: 0
    [Response in: 32]
URB setup
    bmRequestType: 0x80
        1... .... = Direction: Device-to-host
        .00. .... = Type: Standard (0x00)
        ...0 0000 = Recipient: Device (0x00)
    bRequest: GET DESCRIPTOR (6)
    Descriptor Index: 0x00
    bDescriptorType: CONFIGURATION (2)
    Language Id: no language specified (0x0000)
    wLength: 46

0000  c0 b0 79 d1 00 00 00 00 53 02 80 27 04 00 00 3c   ..y.....S..'...<
0010  7f 4d 4b 58 00 00 00 00 b7 29 0d 00 8d ff ff ff   .MKX.....)......
0020  2e 00 00 00 00 00 00 00 80 06 00 02 00 00 2e 00   ................
0030  00 00 00 00 00 00 00 00 00 02 00 00 00 00 00 00   ................
No.     Time           Source                Destination           Protocol Length Info
     32 42.098699000   39.0                  host                  USB      110    GET DESCRIPTOR Response CONFIGURATION

Frame 32: 110 bytes on wire (880 bits), 110 bytes captured (880 bits) on interface 0
    Interface id: 0
    Encapsulation type: USB packets with Linux header and padding (115)
    Arrival Time: Dec 10, 2016 01:34:07.864300000 CET
    [Time shift for this packet: 0.000000000 seconds]
    Epoch Time: 1481330047.864300000 seconds
    [Time delta from previous captured frame: 0.001653000 seconds]
    [Time delta from previous displayed frame: 0.001653000 seconds]
    [Time since reference or first frame: 42.098699000 seconds]
    Frame Number: 32
    Frame Length: 110 bytes (880 bits)
    Capture Length: 110 bytes (880 bits)
    [Frame is marked: False]
    [Frame is ignored: False]
    [Protocols in frame: usb]
USB URB
    URB id: 0x00000000d179b0c0
    URB type: URB_COMPLETE ('C')
    URB transfer type: URB_CONTROL (0x02)
    Endpoint: 0x80, Direction: IN
        1... .... = Direction: IN (1)
        .000 0000 = Endpoint value: 0
    Device: 39
    URB bus id: 4
    Device setup request: not relevant ('-')
    Data: present (0)
    URB sec: 1481330047
    URB usec: 864300
    URB status: Success (0)
    URB length [bytes]: 46
    Data length [bytes]: 46
    [Request in: 31]
    [Time from request: 0.001653000 seconds]
    [bInterfaceClass: Unknown (0xffff)]
CONFIGURATION DESCRIPTOR
    bLength: 9
    bDescriptorType: CONFIGURATION (2)
    wTotalLength: 46
    bNumInterfaces: 1
    bConfigurationValue: 1
    iConfiguration: 56
    Configuration bmAttributes: 0x80  NOT SELF-POWERED  NO REMOTE-WAKEUP
        1... .... = Must be 1: Must be 1 for USB 1.1 and higher
        .0.. .... = Self-Powered: This device is powered from the USB bus
        ..0. .... = Remote Wakeup: This device does NOT support remote wakeup
    bMaxPower: 150  (300mA)
INTERFACE DESCRIPTOR (0.0): class Vendor Specific
    bLength: 9
    bDescriptorType: INTERFACE (4)
    bInterfaceNumber: 0
    bAlternateSetting: 0
    bNumEndpoints: 4
    bInterfaceClass: Vendor Specific (0xff)
    bInterfaceSubClass: 0xff
    bInterfaceProtocol: 0xff
    iInterface: 0
ENDPOINT DESCRIPTOR
    bLength: 7
    bDescriptorType: ENDPOINT (5)
    bEndpointAddress: 0x81  IN  Endpoint:1
        1... .... = Direction: IN Endpoint
        .... 0001 = Endpoint Number: 0x01
    bmAttributes: 0x02
        .... ..10 = Transfertype: Bulk-Transfer (0x02)
        .... 00.. = Synchronisationtype: No Sync (0x00)
        ..00 .... = Behaviourtype: Data-Endpoint (0x00)
    wMaxPacketSize: 64
        .... ..00 0100 0000 = Maximum Packet Size: 64
    bInterval: 0
ENDPOINT DESCRIPTOR
    bLength: 7
    bDescriptorType: ENDPOINT (5)
    bEndpointAddress: 0x02  OUT  Endpoint:2
        0... .... = Direction: OUT Endpoint
        .... 0010 = Endpoint Number: 0x02
    bmAttributes: 0x02
        .... ..10 = Transfertype: Bulk-Transfer (0x02)
        .... 00.. = Synchronisationtype: No Sync (0x00)
        ..00 .... = Behaviourtype: Data-Endpoint (0x00)
    wMaxPacketSize: 64
        .... ..00 0100 0000 = Maximum Packet Size: 64
    bInterval: 0
ENDPOINT DESCRIPTOR
    bLength: 7
    bDescriptorType: ENDPOINT (5)
    bEndpointAddress: 0x83  IN  Endpoint:3
        1... .... = Direction: IN Endpoint
        .... 0011 = Endpoint Number: 0x03
    bmAttributes: 0x02
        .... ..10 = Transfertype: Bulk-Transfer (0x02)
        .... 00.. = Synchronisationtype: No Sync (0x00)
        ..00 .... = Behaviourtype: Data-Endpoint (0x00)
    wMaxPacketSize: 64
        .... ..00 0100 0000 = Maximum Packet Size: 64
    bInterval: 0
ENDPOINT DESCRIPTOR
    bLength: 7
    bDescriptorType: ENDPOINT (5)
    bEndpointAddress: 0x04  OUT  Endpoint:4
        0... .... = Direction: OUT Endpoint
        .... 0100 = Endpoint Number: 0x04
    bmAttributes: 0x02
        .... ..10 = Transfertype: Bulk-Transfer (0x02)
        .... 00.. = Synchronisationtype: No Sync (0x00)
        ..00 .... = Behaviourtype: Data-Endpoint (0x00)
    wMaxPacketSize: 64
        .... ..00 0100 0000 = Maximum Packet Size: 64
    bInterval: 0

0000  c0 b0 79 d1 00 00 00 00 43 02 80 27 04 00 2d 00   ..y.....C..'..-.
0010  7f 4d 4b 58 00 00 00 00 2c 30 0d 00 00 00 00 00   .MKX....,0......
0020  2e 00 00 00 2e 00 00 00 00 00 00 00 00 00 00 00   ................
0030  00 00 00 00 00 00 00 00 00 02 00 00 00 00 00 00   ................
0040  09 02 2e 00 01 01 38 80 96 09 04 00 00 04 ff ff   ......8.........
0050  ff 00 07 05 81 02 40 00 00 07 05 02 02 40 00 00   ......@......@..
0060  07 05 83 02 40 00 00 07 05 04 02 40 00 00         ....@......@..
No.     Time           Source                Destination           Protocol Length Info
     33 42.108706000   host                  39.0                  USB      64     GET DESCRIPTOR Request STRING

Frame 33: 64 bytes on wire (512 bits), 64 bytes captured (512 bits) on interface 0
    Interface id: 0
    Encapsulation type: USB packets with Linux header and padding (115)
    Arrival Time: Dec 10, 2016 01:34:07.874307000 CET
    [Time shift for this packet: 0.000000000 seconds]
    Epoch Time: 1481330047.874307000 seconds
    [Time delta from previous captured frame: 0.010007000 seconds]
    [Time delta from previous displayed frame: 0.010007000 seconds]
    [Time since reference or first frame: 42.108706000 seconds]
    Frame Number: 33
    Frame Length: 64 bytes (512 bits)
    Capture Length: 64 bytes (512 bits)
    [Frame is marked: False]
    [Frame is ignored: False]
    [Protocols in frame: usb]
USB URB
    URB id: 0x00000000d11ec6c0
    URB type: URB_SUBMIT ('S')
    URB transfer type: URB_CONTROL (0x02)
    Endpoint: 0x80, Direction: IN
        1... .... = Direction: IN (1)
        .000 0000 = Endpoint value: 0
    Device: 39
    URB bus id: 4
    Device setup request: relevant (0)
    Data: not present ('<')
    URB sec: 1481330047
    URB usec: 874307
    URB status: Operation now in progress (-EINPROGRESS) (-115)
    URB length [bytes]: 46
    Data length [bytes]: 0
    [Response in: 34]
URB setup
    bmRequestType: 0x80
        1... .... = Direction: Device-to-host
        .00. .... = Type: Standard (0x00)
        ...0 0000 = Recipient: Device (0x00)
    bRequest: GET DESCRIPTOR (6)
    Descriptor Index: 0x38
    bDescriptorType: STRING (3)
    Language Id: no language specified (0x0000)
    wLength: 46

0000  c0 c6 1e d1 00 00 00 00 53 02 80 27 04 00 00 3c   ........S..'...<
0010  7f 4d 4b 58 00 00 00 00 43 57 0d 00 8d ff ff ff   .MKX....CW......
0020  2e 00 00 00 00 00 00 00 80 06 38 03 00 00 2e 00   ..........8.....
0030  00 00 00 00 00 00 00 00 00 02 00 00 00 00 00 00   ................
No.     Time           Source                Destination           Protocol Length Info
     34 42.110700000   39.0                  host                  USB      110    GET DESCRIPTOR Response STRING

Frame 34: 110 bytes on wire (880 bits), 110 bytes captured (880 bits) on interface 0
    Interface id: 0
    Encapsulation type: USB packets with Linux header and padding (115)
    Arrival Time: Dec 10, 2016 01:34:07.876301000 CET
    [Time shift for this packet: 0.000000000 seconds]
    Epoch Time: 1481330047.876301000 seconds
    [Time delta from previous captured frame: 0.001994000 seconds]
    [Time delta from previous displayed frame: 0.001994000 seconds]
    [Time since reference or first frame: 42.110700000 seconds]
    Frame Number: 34
    Frame Length: 110 bytes (880 bits)
    Capture Length: 110 bytes (880 bits)
    [Frame is marked: False]
    [Frame is ignored: False]
    [Protocols in frame: usb]
USB URB
    URB id: 0x00000000d11ec6c0
    URB type: URB_COMPLETE ('C')
    URB transfer type: URB_CONTROL (0x02)
    Endpoint: 0x80, Direction: IN
        1... .... = Direction: IN (1)
        .000 0000 = Endpoint value: 0
    Device: 39
    URB bus id: 4
    Device setup request: not relevant ('-')
    Data: present (0)
    URB sec: 1481330047
    URB usec: 876301
    URB status: Success (0)
    URB length [bytes]: 46
    Data length [bytes]: 46
    [Request in: 33]
    [Time from request: 0.001994000 seconds]
    [bInterfaceClass: Unknown (0xffff)]
STRING DESCRIPTOR
    bLength: 46
    bDescriptorType: STRING (3)
    bString: C000006EAD008 @XTAXETA

0000  c0 c6 1e d1 00 00 00 00 43 02 80 27 04 00 2d 00   ........C..'..-.
0010  7f 4d 4b 58 00 00 00 00 0d 5f 0d 00 00 00 00 00   .MKX....._......
0020  2e 00 00 00 2e 00 00 00 00 00 00 00 00 00 00 00   ................
0030  00 00 00 00 00 00 00 00 00 02 00 00 00 00 00 00   ................
0040  2e 03 43 00 30 00 30 00 30 00 30 00 30 00 36 00   ..C.0.0.0.0.0.6.
0050  45 00 41 00 44 00 30 00 30 00 38 00 20 00 40 00   E.A.D.0.0.8. .@.
0060  58 00 54 00 41 00 58 00 45 00 54 00 41 00         X.T.A.X.E.T.A.
No.     Time           Source                Destination           Protocol Length Info
     35 42.175117000   host                  39.2                  USB      79     URB_BULK out

Frame 35: 79 bytes on wire (632 bits), 79 bytes captured (632 bits) on interface 0
    Interface id: 0
    Encapsulation type: USB packets with Linux header and padding (115)
    Arrival Time: Dec 10, 2016 01:34:07.940718000 CET
    [Time shift for this packet: 0.000000000 seconds]
    Epoch Time: 1481330047.940718000 seconds
    [Time delta from previous captured frame: 0.064417000 seconds]
    [Time delta from previous displayed frame: 0.064417000 seconds]
    [Time since reference or first frame: 42.175117000 seconds]
    Frame Number: 35
    Frame Length: 79 bytes (632 bits)
    Capture Length: 79 bytes (632 bits)
    [Frame is marked: False]
    [Frame is ignored: False]
    [Protocols in frame: usb]
USB URB
    URB id: 0x00000000c0fa1a80
    URB type: URB_SUBMIT ('S')
    URB transfer type: URB_BULK (0x03)
    Endpoint: 0x02, Direction: OUT
        0... .... = Direction: OUT (0)
        .000 0010 = Endpoint value: 2
    Device: 39
    URB bus id: 4
    Device setup request: not relevant ('-')
    Data: present (0)
    URB sec: 1481330047
    URB usec: 940718
    URB status: Operation now in progress (-EINPROGRESS) (-115)
    URB length [bytes]: 15
    Data length [bytes]: 15
    [bInterfaceClass: Vendor Specific (0xff)]
Leftover Capture Data: 4d4d120200000404000000a7ee3509

0000  80 1a fa c0 00 00 00 00 53 03 02 27 04 00 2d 00   ........S..'..-.
0010  7f 4d 4b 58 00 00 00 00 ae 5a 0e 00 8d ff ff ff   .MKX.....Z......
0020  0f 00 00 00 0f 00 00 00 00 00 00 00 00 00 00 00   ................
0030  00 00 00 00 00 00 00 00 00 00 00 00 00 00 00 00   ................
0040  4d 4d 12 02 00 00 04 04 00 00 00 a7 ee 35 09      MM...........5.
No.     Time           Source                Destination           Protocol Length Info
     36 42.175206000   host                  39.1                  USB      64     URB_BULK in

Frame 36: 64 bytes on wire (512 bits), 64 bytes captured (512 bits) on interface 0
    Interface id: 0
    Encapsulation type: USB packets with Linux header and padding (115)
    Arrival Time: Dec 10, 2016 01:34:07.940807000 CET
    [Time shift for this packet: 0.000000000 seconds]
    Epoch Time: 1481330047.940807000 seconds
    [Time delta from previous captured frame: 0.000089000 seconds]
    [Time delta from previous displayed frame: 0.000089000 seconds]
    [Time since reference or first frame: 42.175206000 seconds]
    Frame Number: 36
    Frame Length: 64 bytes (512 bits)
    Capture Length: 64 bytes (512 bits)
    [Frame is marked: False]
    [Frame is ignored: False]
    [Protocols in frame: usb]
USB URB
    URB id: 0x00000000c0fa1e40
    URB type: URB_SUBMIT ('S')
    URB transfer type: URB_BULK (0x03)
    Endpoint: 0x81, Direction: IN
        1... .... = Direction: IN (1)
        .000 0001 = Endpoint value: 1
    Device: 39
    URB bus id: 4
    Device setup request: not relevant ('-')
    Data: not present ('<')
    URB sec: 1481330047
    URB usec: 940807
    URB status: Operation now in progress (-EINPROGRESS) (-115)
    URB length [bytes]: 1000
    Data length [bytes]: 0
    [Response in: 37]
    [bInterfaceClass: Vendor Specific (0xff)]

0000  40 1e fa c0 00 00 00 00 53 03 81 27 04 00 2d 3c   @.......S..'..-<
0010  7f 4d 4b 58 00 00 00 00 07 5b 0e 00 8d ff ff ff   .MKX.....[......
0020  e8 03 00 00 00 00 00 00 00 00 00 00 00 00 00 00   ................
0030  00 00 00 00 00 00 00 00 00 02 00 00 00 00 00 00   ................
No.     Time           Source                Destination           Protocol Length Info
     37 42.175712000   39.2                  host                  USB      64     URB_BULK out

Frame 37: 64 bytes on wire (512 bits), 64 bytes captured (512 bits) on interface 0
    Interface id: 0
    Encapsulation type: USB packets with Linux header and padding (115)
    Arrival Time: Dec 10, 2016 01:34:07.941313000 CET
    [Time shift for this packet: 0.000000000 seconds]
    Epoch Time: 1481330047.941313000 seconds
    [Time delta from previous captured frame: 0.000506000 seconds]
    [Time delta from previous displayed frame: 0.000506000 seconds]
    [Time since reference or first frame: 42.175712000 seconds]
    Frame Number: 37
    Frame Length: 64 bytes (512 bits)
    Capture Length: 64 bytes (512 bits)
    [Frame is marked: False]
    [Frame is ignored: False]
    [Protocols in frame: usb]
USB URB
    URB id: 0x00000000c0fa1a80
    URB type: URB_COMPLETE ('C')
    URB transfer type: URB_BULK (0x03)
    Endpoint: 0x02, Direction: OUT
        0... .... = Direction: OUT (0)
        .000 0010 = Endpoint value: 2
    Device: 39
    URB bus id: 4
    Device setup request: not relevant ('-')
    Data: not present ('>')
    URB sec: 1481330047
    URB usec: 941313
    URB status: Success (0)
    URB length [bytes]: 15
    Data length [bytes]: 0
    [Request in: 36]
    [Time from request: 0.000506000 seconds]
    [bInterfaceClass: Vendor Specific (0xff)]

0000  80 1a fa c0 00 00 00 00 43 03 02 27 04 00 2d 3e   ........C..'..->
0010  7f 4d 4b 58 00 00 00 00 01 5d 0e 00 00 00 00 00   .MKX.....]......
0020  0f 00 00 00 00 00 00 00 00 00 00 00 00 00 00 00   ................
0030  00 00 00 00 00 00 00 00 00 00 00 00 00 00 00 00   ................
No.     Time           Source                Destination           Protocol Length Info
     38 42.253101000   host                  39.2                  USB      79     URB_BULK out

Frame 38: 79 bytes on wire (632 bits), 79 bytes captured (632 bits) on interface 0
    Interface id: 0
    Encapsulation type: USB packets with Linux header and padding (115)
    Arrival Time: Dec 10, 2016 01:34:08.018702000 CET
    [Time shift for this packet: 0.000000000 seconds]
    Epoch Time: 1481330048.018702000 seconds
    [Time delta from previous captured frame: 0.077389000 seconds]
    [Time delta from previous displayed frame: 0.077389000 seconds]
    [Time since reference or first frame: 42.253101000 seconds]
    Frame Number: 38
    Frame Length: 79 bytes (632 bits)
    Capture Length: 79 bytes (632 bits)
    [Frame is marked: False]
    [Frame is ignored: False]
    [Protocols in frame: usb]
USB URB
    URB id: 0x00000000c0fa13c0
    URB type: URB_SUBMIT ('S')
    URB transfer type: URB_BULK (0x03)
    Endpoint: 0x02, Direction: OUT
        0... .... = Direction: OUT (0)
        .000 0010 = Endpoint value: 2
    Device: 39
    URB bus id: 4
    Device setup request: not relevant ('-')
    Data: present (0)
    URB sec: 1481330048
    URB usec: 18702
    URB status: Operation now in progress (-EINPROGRESS) (-115)
    URB length [bytes]: 15
    Data length [bytes]: 15
    [Response in: 39]
    [bInterfaceClass: Vendor Specific (0xff)]
Leftover Capture Data: 4d4d120100000404000000296132ea

0000  c0 13 fa c0 00 00 00 00 53 03 02 27 04 00 2d 00   ........S..'..-.
0010  80 4d 4b 58 00 00 00 00 0e 49 00 00 8d ff ff ff   .MKX.....I......
0020  0f 00 00 00 0f 00 00 00 00 00 00 00 00 00 00 00   ................
0030  00 00 00 00 00 00 00 00 00 00 00 00 00 00 00 00   ................
0040  4d 4d 12 01 00 00 04 04 00 00 00 29 61 32 ea      MM.........)a2.
No.     Time           Source                Destination           Protocol Length Info
     39 42.253711000   39.2                  host                  USB      64     URB_BULK out

Frame 39: 64 bytes on wire (512 bits), 64 bytes captured (512 bits) on interface 0
    Interface id: 0
    Encapsulation type: USB packets with Linux header and padding (115)
    Arrival Time: Dec 10, 2016 01:34:08.019312000 CET
    [Time shift for this packet: 0.000000000 seconds]
    Epoch Time: 1481330048.019312000 seconds
    [Time delta from previous captured frame: 0.000610000 seconds]
    [Time delta from previous displayed frame: 0.000610000 seconds]
    [Time since reference or first frame: 42.253711000 seconds]
    Frame Number: 39
    Frame Length: 64 bytes (512 bits)
    Capture Length: 64 bytes (512 bits)
    [Frame is marked: False]
    [Frame is ignored: False]
    [Protocols in frame: usb]
USB URB
    URB id: 0x00000000c0fa13c0
    URB type: URB_COMPLETE ('C')
    URB transfer type: URB_BULK (0x03)
    Endpoint: 0x02, Direction: OUT
        0... .... = Direction: OUT (0)
        .000 0010 = Endpoint value: 2
    Device: 39
    URB bus id: 4
    Device setup request: not relevant ('-')
    Data: not present ('>')
    URB sec: 1481330048
    URB usec: 19312
    URB status: Success (0)
    URB length [bytes]: 15
    Data length [bytes]: 0
    [Request in: 38]
    [Time from request: 0.000610000 seconds]
    [bInterfaceClass: Vendor Specific (0xff)]

0000  c0 13 fa c0 00 00 00 00 43 03 02 27 04 00 2d 3e   ........C..'..->
0010  80 4d 4b 58 00 00 00 00 70 4b 00 00 00 00 00 00   .MKX....pK......
0020  0f 00 00 00 00 00 00 00 00 00 00 00 00 00 00 00   ................
0030  00 00 00 00 00 00 00 00 00 00 00 00 00 00 00 00   ................
No.     Time           Source                Destination           Protocol Length Info
     40 42.265738000   host                  39.2                  USB      79     URB_BULK out

Frame 40: 79 bytes on wire (632 bits), 79 bytes captured (632 bits) on interface 0
    Interface id: 0
    Encapsulation type: USB packets with Linux header and padding (115)
    Arrival Time: Dec 10, 2016 01:34:08.031339000 CET
    [Time shift for this packet: 0.000000000 seconds]
    Epoch Time: 1481330048.031339000 seconds
    [Time delta from previous captured frame: 0.012027000 seconds]
    [Time delta from previous displayed frame: 0.012027000 seconds]
    [Time since reference or first frame: 42.265738000 seconds]
    Frame Number: 40
    Frame Length: 79 bytes (632 bits)
    Capture Length: 79 bytes (632 bits)
    [Frame is marked: False]
    [Frame is ignored: False]
    [Protocols in frame: usb]
USB URB
    URB id: 0x00000000cfc14240
    URB type: URB_SUBMIT ('S')
    URB transfer type: URB_BULK (0x03)
    Endpoint: 0x02, Direction: OUT
        0... .... = Direction: OUT (0)
        .000 0010 = Endpoint value: 2
    Device: 39
    URB bus id: 4
    Device setup request: not relevant ('-')
    Data: present (0)
    URB sec: 1481330048
    URB usec: 31339
    URB status: Operation now in progress (-EINPROGRESS) (-115)
    URB length [bytes]: 15
    Data length [bytes]: 15
    [Response in: 41]
    [bInterfaceClass: Vendor Specific (0xff)]
Leftover Capture Data: 4d4d12020000040200000082856ad5

0000  40 42 c1 cf 00 00 00 00 53 03 02 27 04 00 2d 00   @B......S..'..-.
0010  80 4d 4b 58 00 00 00 00 6b 7a 00 00 8d ff ff ff   .MKX....kz......
0020  0f 00 00 00 0f 00 00 00 00 00 00 00 00 00 00 00   ................
0030  00 00 00 00 00 00 00 00 00 00 00 00 00 00 00 00   ................
0040  4d 4d 12 02 00 00 04 02 00 00 00 82 85 6a d5      MM...........j.
No.     Time           Source                Destination           Protocol Length Info
     41 42.266695000   39.2                  host                  USB      64     URB_BULK out

Frame 41: 64 bytes on wire (512 bits), 64 bytes captured (512 bits) on interface 0
    Interface id: 0
    Encapsulation type: USB packets with Linux header and padding (115)
    Arrival Time: Dec 10, 2016 01:34:08.032296000 CET
    [Time shift for this packet: 0.000000000 seconds]
    Epoch Time: 1481330048.032296000 seconds
    [Time delta from previous captured frame: 0.000957000 seconds]
    [Time delta from previous displayed frame: 0.000957000 seconds]
    [Time since reference or first frame: 42.266695000 seconds]
    Frame Number: 41
    Frame Length: 64 bytes (512 bits)
    Capture Length: 64 bytes (512 bits)
    [Frame is marked: False]
    [Frame is ignored: False]
    [Protocols in frame: usb]
USB URB
    URB id: 0x00000000cfc14240
    URB type: URB_COMPLETE ('C')
    URB transfer type: URB_BULK (0x03)
    Endpoint: 0x02, Direction: OUT
        0... .... = Direction: OUT (0)
        .000 0010 = Endpoint value: 2
    Device: 39
    URB bus id: 4
    Device setup request: not relevant ('-')
    Data: not present ('>')
    URB sec: 1481330048
    URB usec: 32296
    URB status: Success (0)
    URB length [bytes]: 15
    Data length [bytes]: 0
    [Request in: 40]
    [Time from request: 0.000957000 seconds]
    [bInterfaceClass: Vendor Specific (0xff)]

0000  40 42 c1 cf 00 00 00 00 43 03 02 27 04 00 2d 3e   @B......C..'..->
0010  80 4d 4b 58 00 00 00 00 28 7e 00 00 00 00 00 00   .MKX....(~......
0020  0f 00 00 00 00 00 00 00 00 00 00 00 00 00 00 00   ................
0030  00 00 00 00 00 00 00 00 00 00 00 00 00 00 00 00   ................
No.     Time           Source                Destination           Protocol Length Info
     42 42.344545000   host                  39.2                  USB      79     URB_BULK out

Frame 42: 79 bytes on wire (632 bits), 79 bytes captured (632 bits) on interface 0
    Interface id: 0
    Encapsulation type: USB packets with Linux header and padding (115)
    Arrival Time: Dec 10, 2016 01:34:08.110146000 CET
    [Time shift for this packet: 0.000000000 seconds]
    Epoch Time: 1481330048.110146000 seconds
    [Time delta from previous captured frame: 0.077850000 seconds]
    [Time delta from previous displayed frame: 0.077850000 seconds]
    [Time since reference or first frame: 42.344545000 seconds]
    Frame Number: 42
    Frame Length: 79 bytes (632 bits)
    Capture Length: 79 bytes (632 bits)
    [Frame is marked: False]
    [Frame is ignored: False]
    [Protocols in frame: usb]
USB URB
    URB id: 0x00000000c0fa1540
    URB type: URB_SUBMIT ('S')
    URB transfer type: URB_BULK (0x03)
    Endpoint: 0x02, Direction: OUT
        0... .... = Direction: OUT (0)
        .000 0010 = Endpoint value: 2
    Device: 39
    URB bus id: 4
    Device setup request: not relevant ('-')
    Data: present (0)
    URB sec: 1481330048
    URB usec: 110146
    URB status: Operation now in progress (-EINPROGRESS) (-115)
    URB length [bytes]: 15
    Data length [bytes]: 15
    [Response in: 43]
    [bInterfaceClass: Vendor Specific (0xff)]
Leftover Capture Data: 4d4d12020000040200000082856ad5

0000  40 15 fa c0 00 00 00 00 53 03 02 27 04 00 2d 00   @.......S..'..-.
0010  80 4d 4b 58 00 00 00 00 42 ae 01 00 8d ff ff ff   .MKX....B.......
0020  0f 00 00 00 0f 00 00 00 00 00 00 00 00 00 00 00   ................
0030  00 00 00 00 00 00 00 00 00 00 00 00 00 00 00 00   ................
0040  4d 4d 12 02 00 00 04 02 00 00 00 82 85 6a d5      MM...........j.
No.     Time           Source                Destination           Protocol Length Info
     43 42.344713000   39.2                  host                  USB      64     URB_BULK out

Frame 43: 64 bytes on wire (512 bits), 64 bytes captured (512 bits) on interface 0
    Interface id: 0
    Encapsulation type: USB packets with Linux header and padding (115)
    Arrival Time: Dec 10, 2016 01:34:08.110314000 CET
    [Time shift for this packet: 0.000000000 seconds]
    Epoch Time: 1481330048.110314000 seconds
    [Time delta from previous captured frame: 0.000168000 seconds]
    [Time delta from previous displayed frame: 0.000168000 seconds]
    [Time since reference or first frame: 42.344713000 seconds]
    Frame Number: 43
    Frame Length: 64 bytes (512 bits)
    Capture Length: 64 bytes (512 bits)
    [Frame is marked: False]
    [Frame is ignored: False]
    [Protocols in frame: usb]
USB URB
    URB id: 0x00000000c0fa1540
    URB type: URB_COMPLETE ('C')
    URB transfer type: URB_BULK (0x03)
    Endpoint: 0x02, Direction: OUT
        0... .... = Direction: OUT (0)
        .000 0010 = Endpoint value: 2
    Device: 39
    URB bus id: 4
    Device setup request: not relevant ('-')
    Data: not present ('>')
    URB sec: 1481330048
    URB usec: 110314
    URB status: Success (0)
    URB length [bytes]: 15
    Data length [bytes]: 0
    [Request in: 42]
    [Time from request: 0.000168000 seconds]
    [bInterfaceClass: Vendor Specific (0xff)]

0000  40 15 fa c0 00 00 00 00 43 03 02 27 04 00 2d 3e   @.......C..'..->
0010  80 4d 4b 58 00 00 00 00 ea ae 01 00 00 00 00 00   .MKX............
0020  0f 00 00 00 00 00 00 00 00 00 00 00 00 00 00 00   ................
0030  00 00 00 00 00 00 00 00 00 00 00 00 00 00 00 00   ................
No.     Time           Source                Destination           Protocol Length Info
     44 42.458876000   host                  39.2                  USB      79     URB_BULK out

Frame 44: 79 bytes on wire (632 bits), 79 bytes captured (632 bits) on interface 0
    Interface id: 0
    Encapsulation type: USB packets with Linux header and padding (115)
    Arrival Time: Dec 10, 2016 01:34:08.224477000 CET
    [Time shift for this packet: 0.000000000 seconds]
    Epoch Time: 1481330048.224477000 seconds
    [Time delta from previous captured frame: 0.114163000 seconds]
    [Time delta from previous displayed frame: 0.114163000 seconds]
    [Time since reference or first frame: 42.458876000 seconds]
    Frame Number: 44
    Frame Length: 79 bytes (632 bits)
    Capture Length: 79 bytes (632 bits)
    [Frame is marked: False]
    [Frame is ignored: False]
    [Protocols in frame: usb]
USB URB
    URB id: 0x00000000cfc14780
    URB type: URB_SUBMIT ('S')
    URB transfer type: URB_BULK (0x03)
    Endpoint: 0x02, Direction: OUT
        0... .... = Direction: OUT (0)
        .000 0010 = Endpoint value: 2
    Device: 39
    URB bus id: 4
    Device setup request: not relevant ('-')
    Data: present (0)
    URB sec: 1481330048
    URB usec: 224477
    URB status: Operation now in progress (-EINPROGRESS) (-115)
    URB length [bytes]: 15
    Data length [bytes]: 15
    [Response in: 46]
    [bInterfaceClass: Vendor Specific (0xff)]
Leftover Capture Data: 4d4d12020000040200000082856ad5

0000  80 47 c1 cf 00 00 00 00 53 03 02 27 04 00 2d 00   .G......S..'..-.
0010  80 4d 4b 58 00 00 00 00 dd 6c 03 00 8d ff ff ff   .MKX.....l......
0020  0f 00 00 00 0f 00 00 00 00 00 00 00 00 00 00 00   ................
0030  00 00 00 00 00 00 00 00 00 00 00 00 00 00 00 00   ................
0040  4d 4d 12 02 00 00 04 02 00 00 00 82 85 6a d5      MM...........j.
No.     Time           Source                Destination           Protocol Length Info
     45 42.459704000   39.2                  host                  USB      64     URB_BULK out

Frame 45: 64 bytes on wire (512 bits), 64 bytes captured (512 bits) on interface 0
    Interface id: 0
    Encapsulation type: USB packets with Linux header and padding (115)
    Arrival Time: Dec 10, 2016 01:34:08.225305000 CET
    [Time shift for this packet: 0.000000000 seconds]
    Epoch Time: 1481330048.225305000 seconds
    [Time delta from previous captured frame: 0.000828000 seconds]
    [Time delta from previous displayed frame: 0.000828000 seconds]
    [Time since reference or first frame: 42.459704000 seconds]
    Frame Number: 45
    Frame Length: 64 bytes (512 bits)
    Capture Length: 64 bytes (512 bits)
    [Frame is marked: False]
    [Frame is ignored: False]
    [Protocols in frame: usb]
USB URB
    URB id: 0x00000000cfc14780
    URB type: URB_COMPLETE ('C')
    URB transfer type: URB_BULK (0x03)
    Endpoint: 0x02, Direction: OUT
        0... .... = Direction: OUT (0)
        .000 0010 = Endpoint value: 2
    Device: 39
    URB bus id: 4
    Device setup request: not relevant ('-')
    Data: not present ('>')
    URB sec: 1481330048
    URB usec: 225305
    URB status: Success (0)
    URB length [bytes]: 15
    Data length [bytes]: 0
    [Request in: 44]
    [Time from request: 0.000828000 seconds]
    [bInterfaceClass: Vendor Specific (0xff)]

0000  80 47 c1 cf 00 00 00 00 43 03 02 27 04 00 2d 3e   .G......C..'..->
0010  80 4d 4b 58 00 00 00 00 19 70 03 00 00 00 00 00   .MKX.....p......
0020  0f 00 00 00 00 00 00 00 00 00 00 00 00 00 00 00   ................
0030  00 00 00 00 00 00 00 00 00 00 00 00 00 00 00 00   ................
No.     Time           Source                Destination           Protocol Length Info
     46 42.559715000   39.1                  host                  USB      79     URB_BULK in

Frame 46: 79 bytes on wire (632 bits), 79 bytes captured (632 bits) on interface 0
    Interface id: 0
    Encapsulation type: USB packets with Linux header and padding (115)
    Arrival Time: Dec 10, 2016 01:34:08.325316000 CET
    [Time shift for this packet: 0.000000000 seconds]
    Epoch Time: 1481330048.325316000 seconds
    [Time delta from previous captured frame: 0.100011000 seconds]
    [Time delta from previous displayed frame: 0.100011000 seconds]
    [Time since reference or first frame: 42.559715000 seconds]
    Frame Number: 46
    Frame Length: 79 bytes (632 bits)
    Capture Length: 79 bytes (632 bits)
    [Frame is marked: False]
    [Frame is ignored: False]
    [Protocols in frame: usb]
USB URB
    URB id: 0x00000000c0fa1e40
    URB type: URB_COMPLETE ('C')
    URB transfer type: URB_BULK (0x03)
    Endpoint: 0x81, Direction: IN
        1... .... = Direction: IN (1)
        .000 0001 = Endpoint value: 1
    Device: 39
    URB bus id: 4
    Device setup request: not relevant ('-')
    Data: present (0)
    URB sec: 1481330048
    URB usec: 325316
    URB status: Success (0)
    URB length [bytes]: 15
    Data length [bytes]: 15
    [Request in: 44]
    [Time from request: 0.100839000 seconds]
    [bInterfaceClass: Vendor Specific (0xff)]
Leftover Capture Data: 4d4d12010000040200b448f4a4cf28

0000  40 1e fa c0 00 00 00 00 43 03 81 27 04 00 2d 00   @.......C..'..-.
0010  80 4d 4b 58 00 00 00 00 c4 f6 04 00 00 00 00 00   .MKX............
0020  0f 00 00 00 0f 00 00 00 00 00 00 00 00 00 00 00   ................
0030  00 00 00 00 00 00 00 00 00 02 00 00 00 00 00 00   ................
0040  4d 4d 12 01 00 00 04 02 00 b4 48 f4 a4 cf 28      MM........H...(
No.     Time           Source                Destination           Protocol Length Info
     47 42.559823000   host                  39.2                  USB      79     URB_BULK out

Frame 47: 79 bytes on wire (632 bits), 79 bytes captured (632 bits) on interface 0
    Interface id: 0
    Encapsulation type: USB packets with Linux header and padding (115)
    Arrival Time: Dec 10, 2016 01:34:08.325424000 CET
    [Time shift for this packet: 0.000000000 seconds]
    Epoch Time: 1481330048.325424000 seconds
    [Time delta from previous captured frame: 0.000108000 seconds]
    [Time delta from previous displayed frame: 0.000108000 seconds]
    [Time since reference or first frame: 42.559823000 seconds]
    Frame Number: 47
    Frame Length: 79 bytes (632 bits)
    Capture Length: 79 bytes (632 bits)
    [Frame is marked: False]
    [Frame is ignored: False]
    [Protocols in frame: usb]
USB URB
    URB id: 0x00000000cfc143c0
    URB type: URB_SUBMIT ('S')
    URB transfer type: URB_BULK (0x03)
    Endpoint: 0x02, Direction: OUT
        0... .... = Direction: OUT (0)
        .000 0010 = Endpoint value: 2
    Device: 39
    URB bus id: 4
    Device setup request: not relevant ('-')
    Data: present (0)
    URB sec: 1481330048
    URB usec: 325424
    URB status: Operation now in progress (-EINPROGRESS) (-115)
    URB length [bytes]: 15
    Data length [bytes]: 15
    [bInterfaceClass: Vendor Specific (0xff)]
Leftover Capture Data: 4d4d12020000040200000082856ad5

0000  c0 43 c1 cf 00 00 00 00 53 03 02 27 04 00 2d 00   .C......S..'..-.
0010  80 4d 4b 58 00 00 00 00 30 f7 04 00 8d ff ff ff   .MKX....0.......
0020  0f 00 00 00 0f 00 00 00 00 00 00 00 00 00 00 00   ................
0030  00 00 00 00 00 00 00 00 00 00 00 00 00 00 00 00   ................
0040  4d 4d 12 02 00 00 04 02 00 00 00 82 85 6a d5      MM...........j.
No.     Time           Source                Destination           Protocol Length Info
     48 42.561041000   host                  39.1                  USB      64     URB_BULK in

Frame 48: 64 bytes on wire (512 bits), 64 bytes captured (512 bits) on interface 0
    Interface id: 0
    Encapsulation type: USB packets with Linux header and padding (115)
    Arrival Time: Dec 10, 2016 01:34:08.326642000 CET
    [Time shift for this packet: 0.000000000 seconds]
    Epoch Time: 1481330048.326642000 seconds
    [Time delta from previous captured frame: 0.001218000 seconds]
    [Time delta from previous displayed frame: 0.001218000 seconds]
    [Time since reference or first frame: 42.561041000 seconds]
    Frame Number: 48
    Frame Length: 64 bytes (512 bits)
    Capture Length: 64 bytes (512 bits)
    [Frame is marked: False]
    [Frame is ignored: False]
    [Protocols in frame: usb]
USB URB
    URB id: 0x00000000f0552cc0
    URB type: URB_SUBMIT ('S')
    URB transfer type: URB_BULK (0x03)
    Endpoint: 0x81, Direction: IN
        1... .... = Direction: IN (1)
        .000 0001 = Endpoint value: 1
    Device: 39
