No.     Time           Source                Destination           Protocol Length Info
      1 0.000000000    host                  28.0                  USB      64     GET DESCRIPTOR Request DEVICE

Frame 1: 64 bytes on wire (512 bits), 64 bytes captured (512 bits) on interface 0
    Interface id: 0
    Encapsulation type: USB packets with Linux header and padding (115)
    Arrival Time: Dec 10, 2016 00:46:57.392841000 CET
    [Time shift for this packet: 0.000000000 seconds]
    Epoch Time: 1481327217.392841000 seconds
    [Time delta from previous captured frame: 0.000000000 seconds]
    [Time delta from previous displayed frame: 0.000000000 seconds]
    [Time since reference or first frame: 0.000000000 seconds]
    Frame Number: 1
    Frame Length: 64 bytes (512 bits)
    Capture Length: 64 bytes (512 bits)
    [Frame is marked: False]
    [Frame is ignored: False]
    [Protocols in frame: usb]
USB URB
    URB id: 0x00000000d10e8480
    URB type: URB_SUBMIT ('S')
    URB transfer type: URB_CONTROL (0x02)
    Endpoint: 0x80, Direction: IN
        1... .... = Direction: IN (1)
        .000 0000 = Endpoint value: 0
    Device: 28
    URB bus id: 4
    Device setup request: relevant (0)
    Data: not present ('<')
    URB sec: 1481327217
    URB usec: 392841
    URB status: Operation now in progress (-EINPROGRESS) (-115)
    URB length [bytes]: 40
    Data length [bytes]: 0
    [Response in: 2]
URB setup
    bmRequestType: 0x80
        1... .... = Direction: Device-to-host
        .00. .... = Type: Standard (0x00)
        ...0 0000 = Recipient: Device (0x00)
    bRequest: GET DESCRIPTOR (6)
    Descriptor Index: 0x00
    bDescriptorType: DEVICE (1)
    Language Id: no language specified (0x0000)
    wLength: 40

0000  80 84 0e d1 00 00 00 00 53 02 80 1c 04 00 00 3c   ........S......<
0010  71 42 4b 58 00 00 00 00 89 fe 05 00 8d ff ff ff   qBKX............
0020  28 00 00 00 00 00 00 00 80 06 00 01 00 00 28 00   (.............(.
0030  00 00 00 00 00 00 00 00 00 02 00 00 00 00 00 00   ................
No.     Time           Source                Destination           Protocol Length Info
      2 0.001108000    28.0                  host                  USB      82     GET DESCRIPTOR Response DEVICE

Frame 2: 82 bytes on wire (656 bits), 82 bytes captured (656 bits) on interface 0
    Interface id: 0
    Encapsulation type: USB packets with Linux header and padding (115)
    Arrival Time: Dec 10, 2016 00:46:57.393949000 CET
    [Time shift for this packet: 0.000000000 seconds]
    Epoch Time: 1481327217.393949000 seconds
    [Time delta from previous captured frame: 0.001108000 seconds]
    [Time delta from previous displayed frame: 0.001108000 seconds]
    [Time since reference or first frame: 0.001108000 seconds]
    Frame Number: 2
    Frame Length: 82 bytes (656 bits)
    Capture Length: 82 bytes (656 bits)
    [Frame is marked: False]
    [Frame is ignored: False]
    [Protocols in frame: usb]
USB URB
    URB id: 0x00000000d10e8480
    URB type: URB_COMPLETE ('C')
    URB transfer type: URB_CONTROL (0x02)
    Endpoint: 0x80, Direction: IN
        1... .... = Direction: IN (1)
        .000 0000 = Endpoint value: 0
    Device: 28
    URB bus id: 4
    Device setup request: not relevant ('-')
    Data: present (0)
    URB sec: 1481327217
    URB usec: 393949
    URB status: Success (0)
    URB length [bytes]: 18
    Data length [bytes]: 18
    [Request in: 1]
    [Time from request: 0.001108000 seconds]
    [bInterfaceClass: Unknown (0xffff)]
DEVICE DESCRIPTOR
    bLength: 18
    bDescriptorType: DEVICE (1)
    bcdUSB: 0x0110
    bDeviceClass: Vendor Specific (0xff)
    bDeviceSubClass: 255
    bDeviceProtocol: 255
    bMaxPacketSize0: 8
    idVendor: Cybiko Inc. (0x0b66)
    idProduct: Xtreme (0x0041)
    bcdDevice: 0x0001
    iManufacturer: 4
    iProduct: 28
    iSerialNumber: 0
    bNumConfigurations: 1

0000  80 84 0e d1 00 00 00 00 43 02 80 1c 04 00 2d 00   ........C.....-.
0010  71 42 4b 58 00 00 00 00 dd 02 06 00 00 00 00 00   qBKX............
0020  12 00 00 00 12 00 00 00 00 00 00 00 00 00 00 00   ................
0030  00 00 00 00 00 00 00 00 00 02 00 00 00 00 00 00   ................
0040  12 01 10 01 ff ff ff 08 66 0b 41 00 01 00 04 1c   ........f.A.....
0050  00 01                                             ..
No.     Time           Source                Destination           Protocol Length Info
      5 209.381488000  host                  28.0                  USB      64     GET DESCRIPTOR Request DEVICE

Frame 5: 64 bytes on wire (512 bits), 64 bytes captured (512 bits) on interface 0
    Interface id: 0
    Encapsulation type: USB packets with Linux header and padding (115)
    Arrival Time: Dec 10, 2016 00:50:26.774329000 CET
    [Time shift for this packet: 0.000000000 seconds]
    Epoch Time: 1481327426.774329000 seconds
    [Time delta from previous captured frame: 209.380327000 seconds]
    [Time delta from previous displayed frame: 209.380380000 seconds]
    [Time since reference or first frame: 209.381488000 seconds]
    Frame Number: 5
    Frame Length: 64 bytes (512 bits)
    Capture Length: 64 bytes (512 bits)
    [Frame is marked: False]
    [Frame is ignored: False]
    [Protocols in frame: usb]
USB URB
    URB id: 0x00000000f5422780
    URB type: URB_SUBMIT ('S')
    URB transfer type: URB_CONTROL (0x02)
    Endpoint: 0x80, Direction: IN
        1... .... = Direction: IN (1)
        .000 0000 = Endpoint value: 0
    Device: 28
    URB bus id: 4
    Device setup request: relevant (0)
    Data: not present ('<')
    URB sec: 1481327426
    URB usec: 774329
    URB status: Operation now in progress (-EINPROGRESS) (-115)
    URB length [bytes]: 18
    Data length [bytes]: 0
    [Response in: 6]
URB setup
    bmRequestType: 0x80
        1... .... = Direction: Device-to-host
        .00. .... = Type: Standard (0x00)
        ...0 0000 = Recipient: Device (0x00)
    bRequest: GET DESCRIPTOR (6)
    Descriptor Index: 0x00
    bDescriptorType: DEVICE (1)
    Language Id: no language specified (0x0000)
    wLength: 18

0000  80 27 42 f5 00 00 00 00 53 02 80 1c 04 00 00 3c   .'B.....S......<
0010  42 43 4b 58 00 00 00 00 b9 d0 0b 00 8d ff ff ff   BCKX............
0020  12 00 00 00 00 00 00 00 80 06 00 01 00 00 12 00   ................
0030  00 00 00 00 00 00 00 00 00 02 00 00 00 00 00 00   ................
No.     Time           Source                Destination           Protocol Length Info
      6 209.382142000  28.0                  host                  USB      82     GET DESCRIPTOR Response DEVICE

Frame 6: 82 bytes on wire (656 bits), 82 bytes captured (656 bits) on interface 0
    Interface id: 0
    Encapsulation type: USB packets with Linux header and padding (115)
    Arrival Time: Dec 10, 2016 00:50:26.774983000 CET
    [Time shift for this packet: 0.000000000 seconds]
    Epoch Time: 1481327426.774983000 seconds
    [Time delta from previous captured frame: 0.000654000 seconds]
    [Time delta from previous displayed frame: 0.000654000 seconds]
    [Time since reference or first frame: 209.382142000 seconds]
    Frame Number: 6
    Frame Length: 82 bytes (656 bits)
    Capture Length: 82 bytes (656 bits)
    [Frame is marked: False]
    [Frame is ignored: False]
    [Protocols in frame: usb]
USB URB
    URB id: 0x00000000f5422780
    URB type: URB_COMPLETE ('C')
    URB transfer type: URB_CONTROL (0x02)
    Endpoint: 0x80, Direction: IN
        1... .... = Direction: IN (1)
        .000 0000 = Endpoint value: 0
    Device: 28
    URB bus id: 4
    Device setup request: not relevant ('-')
    Data: present (0)
    URB sec: 1481327426
    URB usec: 774983
    URB status: Success (0)
    URB length [bytes]: 18
    Data length [bytes]: 18
    [Request in: 5]
    [Time from request: 0.000654000 seconds]
    [bInterfaceClass: Unknown (0xffff)]
DEVICE DESCRIPTOR
    bLength: 18
    bDescriptorType: DEVICE (1)
    bcdUSB: 0x0110
    bDeviceClass: Vendor Specific (0xff)
    bDeviceSubClass: 255
    bDeviceProtocol: 255
    bMaxPacketSize0: 8
    idVendor: Cybiko Inc. (0x0b66)
    idProduct: Xtreme (0x0041)
    bcdDevice: 0x0001
    iManufacturer: 4
    iProduct: 28
    iSerialNumber: 0
    bNumConfigurations: 1

0000  80 27 42 f5 00 00 00 00 43 02 80 1c 04 00 2d 00   .'B.....C.....-.
0010  42 43 4b 58 00 00 00 00 47 d3 0b 00 00 00 00 00   BCKX....G.......
0020  12 00 00 00 12 00 00 00 00 00 00 00 00 00 00 00   ................
0030  00 00 00 00 00 00 00 00 00 02 00 00 00 00 00 00   ................
0040  12 01 10 01 ff ff ff 08 66 0b 41 00 01 00 04 1c   ........f.A.....
0050  00 01                                             ..
No.     Time           Source                Destination           Protocol Length Info
      7 209.382183000  host                  28.0                  USB      64     GET DESCRIPTOR Request CONFIGURATION

Frame 7: 64 bytes on wire (512 bits), 64 bytes captured (512 bits) on interface 0
    Interface id: 0
    Encapsulation type: USB packets with Linux header and padding (115)
    Arrival Time: Dec 10, 2016 00:50:26.775024000 CET
    [Time shift for this packet: 0.000000000 seconds]
    Epoch Time: 1481327426.775024000 seconds
    [Time delta from previous captured frame: 0.000041000 seconds]
    [Time delta from previous displayed frame: 0.000041000 seconds]
    [Time since reference or first frame: 209.382183000 seconds]
    Frame Number: 7
    Frame Length: 64 bytes (512 bits)
    Capture Length: 64 bytes (512 bits)
    [Frame is marked: False]
    [Frame is ignored: False]
    [Protocols in frame: usb]
USB URB
    URB id: 0x00000000ee96ba80
    URB type: URB_SUBMIT ('S')
    URB transfer type: URB_CONTROL (0x02)
    Endpoint: 0x80, Direction: IN
        1... .... = Direction: IN (1)
        .000 0000 = Endpoint value: 0
    Device: 28
    URB bus id: 4
    Device setup request: relevant (0)
    Data: not present ('<')
    URB sec: 1481327426
    URB usec: 775024
    URB status: Operation now in progress (-EINPROGRESS) (-115)
    URB length [bytes]: 9
    Data length [bytes]: 0
    [Response in: 8]
URB setup
    bmRequestType: 0x80
        1... .... = Direction: Device-to-host
        .00. .... = Type: Standard (0x00)
        ...0 0000 = Recipient: Device (0x00)
    bRequest: GET DESCRIPTOR (6)
    Descriptor Index: 0x00
    bDescriptorType: CONFIGURATION (2)
    Language Id: no language specified (0x0000)
    wLength: 9

0000  80 ba 96 ee 00 00 00 00 53 02 80 1c 04 00 00 3c   ........S......<
0010  42 43 4b 58 00 00 00 00 70 d3 0b 00 8d ff ff ff   BCKX....p.......
0020  09 00 00 00 00 00 00 00 80 06 00 02 00 00 09 00   ................
0030  00 00 00 00 00 00 00 00 00 02 00 00 00 00 00 00   ................
No.     Time           Source                Destination           Protocol Length Info
      8 209.384135000  28.0                  host                  USB      73     GET DESCRIPTOR Response CONFIGURATION

Frame 8: 73 bytes on wire (584 bits), 73 bytes captured (584 bits) on interface 0
    Interface id: 0
    Encapsulation type: USB packets with Linux header and padding (115)
    Arrival Time: Dec 10, 2016 00:50:26.776976000 CET
    [Time shift for this packet: 0.000000000 seconds]
    Epoch Time: 1481327426.776976000 seconds
    [Time delta from previous captured frame: 0.001952000 seconds]
    [Time delta from previous displayed frame: 0.001952000 seconds]
    [Time since reference or first frame: 209.384135000 seconds]
    Frame Number: 8
    Frame Length: 73 bytes (584 bits)
    Capture Length: 73 bytes (584 bits)
    [Frame is marked: False]
    [Frame is ignored: False]
    [Protocols in frame: usb]
USB URB
    URB id: 0x00000000ee96ba80
    URB type: URB_COMPLETE ('C')
    URB transfer type: URB_CONTROL (0x02)
    Endpoint: 0x80, Direction: IN
        1... .... = Direction: IN (1)
        .000 0000 = Endpoint value: 0
    Device: 28
    URB bus id: 4
    Device setup request: not relevant ('-')
    Data: present (0)
    URB sec: 1481327426
    URB usec: 776976
    URB status: Success (0)
    URB length [bytes]: 9
    Data length [bytes]: 9
    [Request in: 7]
    [Time from request: 0.001952000 seconds]
    [bInterfaceClass: Unknown (0xffff)]
CONFIGURATION DESCRIPTOR
    bLength: 9
    bDescriptorType: CONFIGURATION (2)
    wTotalLength: 46
    bNumInterfaces: 1
    bConfigurationValue: 1
    iConfiguration: 56
    Configuration bmAttributes: 0x80  NOT SELF-POWERED  NO REMOTE-WAKEUP
        1... .... = Must be 1: Must be 1 for USB 1.1 and higher
        .0.. .... = Self-Powered: This device is powered from the USB bus
        ..0. .... = Remote Wakeup: This device does NOT support remote wakeup
    bMaxPower: 150  (300mA)

0000  80 ba 96 ee 00 00 00 00 43 02 80 1c 04 00 2d 00   ........C.....-.
0010  42 43 4b 58 00 00 00 00 10 db 0b 00 00 00 00 00   BCKX............
0020  09 00 00 00 09 00 00 00 00 00 00 00 00 00 00 00   ................
0030  00 00 00 00 00 00 00 00 00 02 00 00 00 00 00 00   ................
0040  09 02 2e 00 01 01 38 80 96                        ......8..
No.     Time           Source                Destination           Protocol Length Info
      9 209.384169000  host                  28.0                  USB      64     GET DESCRIPTOR Request CONFIGURATION

Frame 9: 64 bytes on wire (512 bits), 64 bytes captured (512 bits) on interface 0
    Interface id: 0
    Encapsulation type: USB packets with Linux header and padding (115)
    Arrival Time: Dec 10, 2016 00:50:26.777010000 CET
    [Time shift for this packet: 0.000000000 seconds]
    Epoch Time: 1481327426.777010000 seconds
    [Time delta from previous captured frame: 0.000034000 seconds]
    [Time delta from previous displayed frame: 0.000034000 seconds]
    [Time since reference or first frame: 209.384169000 seconds]
    Frame Number: 9
    Frame Length: 64 bytes (512 bits)
    Capture Length: 64 bytes (512 bits)
    [Frame is marked: False]
    [Frame is ignored: False]
    [Protocols in frame: usb]
USB URB
    URB id: 0x00000000ee96ba80
    URB type: URB_SUBMIT ('S')
    URB transfer type: URB_CONTROL (0x02)
    Endpoint: 0x80, Direction: IN
        1... .... = Direction: IN (1)
        .000 0000 = Endpoint value: 0
    Device: 28
    URB bus id: 4
    Device setup request: relevant (0)
    Data: not present ('<')
    URB sec: 1481327426
    URB usec: 777010
    URB status: Operation now in progress (-EINPROGRESS) (-115)
    URB length [bytes]: 46
    Data length [bytes]: 0
    [Response in: 10]
URB setup
    bmRequestType: 0x80
        1... .... = Direction: Device-to-host
        .00. .... = Type: Standard (0x00)
        ...0 0000 = Recipient: Device (0x00)
    bRequest: GET DESCRIPTOR (6)
    Descriptor Index: 0x00
    bDescriptorType: CONFIGURATION (2)
    Language Id: no language specified (0x0000)
    wLength: 46

0000  80 ba 96 ee 00 00 00 00 53 02 80 1c 04 00 00 3c   ........S......<
0010  42 43 4b 58 00 00 00 00 32 db 0b 00 8d ff ff ff   BCKX....2.......
0020  2e 00 00 00 00 00 00 00 80 06 00 02 00 00 2e 00   ................
0030  00 00 00 00 00 00 00 00 00 02 00 00 00 00 00 00   ................
No.     Time           Source                Destination           Protocol Length Info
     10 209.387138000  28.0                  host                  USB      110    GET DESCRIPTOR Response CONFIGURATION

Frame 10: 110 bytes on wire (880 bits), 110 bytes captured (880 bits) on interface 0
    Interface id: 0
    Encapsulation type: USB packets with Linux header and padding (115)
    Arrival Time: Dec 10, 2016 00:50:26.779979000 CET
    [Time shift for this packet: 0.000000000 seconds]
    Epoch Time: 1481327426.779979000 seconds
    [Time delta from previous captured frame: 0.002969000 seconds]
    [Time delta from previous displayed frame: 0.002969000 seconds]
    [Time since reference or first frame: 209.387138000 seconds]
    Frame Number: 10
    Frame Length: 110 bytes (880 bits)
    Capture Length: 110 bytes (880 bits)
    [Frame is marked: False]
    [Frame is ignored: False]
    [Protocols in frame: usb]
USB URB
    URB id: 0x00000000ee96ba80
    URB type: URB_COMPLETE ('C')
    URB transfer type: URB_CONTROL (0x02)
    Endpoint: 0x80, Direction: IN
        1... .... = Direction: IN (1)
        .000 0000 = Endpoint value: 0
    Device: 28
    URB bus id: 4
    Device setup request: not relevant ('-')
    Data: present (0)
    URB sec: 1481327426
    URB usec: 779979
    URB status: Success (0)
    URB length [bytes]: 46
    Data length [bytes]: 46
    [Request in: 9]
    [Time from request: 0.002969000 seconds]
    [bInterfaceClass: Unknown (0xffff)]
CONFIGURATION DESCRIPTOR
    bLength: 9
    bDescriptorType: CONFIGURATION (2)
    wTotalLength: 46
    bNumInterfaces: 1
    bConfigurationValue: 1
    iConfiguration: 56
    Configuration bmAttributes: 0x80  NOT SELF-POWERED  NO REMOTE-WAKEUP
        1... .... = Must be 1: Must be 1 for USB 1.1 and higher
        .0.. .... = Self-Powered: This device is powered from the USB bus
        ..0. .... = Remote Wakeup: This device does NOT support remote wakeup
    bMaxPower: 150  (300mA)
INTERFACE DESCRIPTOR (0.0): class Vendor Specific
    bLength: 9
    bDescriptorType: INTERFACE (4)
    bInterfaceNumber: 0
    bAlternateSetting: 0
    bNumEndpoints: 4
    bInterfaceClass: Vendor Specific (0xff)
    bInterfaceSubClass: 0xff
    bInterfaceProtocol: 0xff
    iInterface: 0
ENDPOINT DESCRIPTOR
    bLength: 7
    bDescriptorType: ENDPOINT (5)
    bEndpointAddress: 0x81  IN  Endpoint:1
        1... .... = Direction: IN Endpoint
        .... 0001 = Endpoint Number: 0x01
    bmAttributes: 0x02
        .... ..10 = Transfertype: Bulk-Transfer (0x02)
        .... 00.. = Synchronisationtype: No Sync (0x00)
        ..00 .... = Behaviourtype: Data-Endpoint (0x00)
    wMaxPacketSize: 64
        .... ..00 0100 0000 = Maximum Packet Size: 64
    bInterval: 0
ENDPOINT DESCRIPTOR
    bLength: 7
    bDescriptorType: ENDPOINT (5)
    bEndpointAddress: 0x02  OUT  Endpoint:2
        0... .... = Direction: OUT Endpoint
        .... 0010 = Endpoint Number: 0x02
    bmAttributes: 0x02
        .... ..10 = Transfertype: Bulk-Transfer (0x02)
        .... 00.. = Synchronisationtype: No Sync (0x00)
        ..00 .... = Behaviourtype: Data-Endpoint (0x00)
    wMaxPacketSize: 64
        .... ..00 0100 0000 = Maximum Packet Size: 64
    bInterval: 0
ENDPOINT DESCRIPTOR
    bLength: 7
    bDescriptorType: ENDPOINT (5)
    bEndpointAddress: 0x83  IN  Endpoint:3
        1... .... = Direction: IN Endpoint
        .... 0011 = Endpoint Number: 0x03
    bmAttributes: 0x02
        .... ..10 = Transfertype: Bulk-Transfer (0x02)
        .... 00.. = Synchronisationtype: No Sync (0x00)
        ..00 .... = Behaviourtype: Data-Endpoint (0x00)
    wMaxPacketSize: 64
        .... ..00 0100 0000 = Maximum Packet Size: 64
    bInterval: 0
ENDPOINT DESCRIPTOR
    bLength: 7
    bDescriptorType: ENDPOINT (5)
    bEndpointAddress: 0x04  OUT  Endpoint:4
        0... .... = Direction: OUT Endpoint
        .... 0100 = Endpoint Number: 0x04
    bmAttributes: 0x02
        .... ..10 = Transfertype: Bulk-Transfer (0x02)
        .... 00.. = Synchronisationtype: No Sync (0x00)
        ..00 .... = Behaviourtype: Data-Endpoint (0x00)
    wMaxPacketSize: 64
        .... ..00 0100 0000 = Maximum Packet Size: 64
    bInterval: 0

0000  80 ba 96 ee 00 00 00 00 43 02 80 1c 04 00 2d 00   ........C.....-.
0010  42 43 4b 58 00 00 00 00 cb e6 0b 00 00 00 00 00   BCKX............
0020  2e 00 00 00 2e 00 00 00 00 00 00 00 00 00 00 00   ................
0030  00 00 00 00 00 00 00 00 00 02 00 00 00 00 00 00   ................
0040  09 02 2e 00 01 01 38 80 96 09 04 00 00 04 ff ff   ......8.........
0050  ff 00 07 05 81 02 40 00 00 07 05 02 02 40 00 00   ......@......@..
0060  07 05 83 02 40 00 00 07 05 04 02 40 00 00         ....@......@..
No.     Time           Source                Destination           Protocol Length Info
     11 209.549453000  host                  28.0                  USB      64     GET DESCRIPTOR Request DEVICE

Frame 11: 64 bytes on wire (512 bits), 64 bytes captured (512 bits) on interface 0
    Interface id: 0
    Encapsulation type: USB packets with Linux header and padding (115)
    Arrival Time: Dec 10, 2016 00:50:26.942294000 CET
    [Time shift for this packet: 0.000000000 seconds]
    Epoch Time: 1481327426.942294000 seconds
    [Time delta from previous captured frame: 0.162315000 seconds]
    [Time delta from previous displayed frame: 0.162315000 seconds]
    [Time since reference or first frame: 209.549453000 seconds]
    Frame Number: 11
    Frame Length: 64 bytes (512 bits)
    Capture Length: 64 bytes (512 bits)
    [Frame is marked: False]
    [Frame is ignored: False]
    [Protocols in frame: usb]
USB URB
    URB id: 0x00000000f077bf00
    URB type: URB_SUBMIT ('S')
    URB transfer type: URB_CONTROL (0x02)
    Endpoint: 0x80, Direction: IN
        1... .... = Direction: IN (1)
        .000 0000 = Endpoint value: 0
    Device: 28
    URB bus id: 4
    Device setup request: relevant (0)
    Data: not present ('<')
    URB sec: 1481327426
    URB usec: 942294
    URB status: Operation now in progress (-EINPROGRESS) (-115)
    URB length [bytes]: 64
    Data length [bytes]: 0
    [Response in: 12]
URB setup
    bmRequestType: 0x80
        1... .... = Direction: Device-to-host
        .00. .... = Type: Standard (0x00)
        ...0 0000 = Recipient: Device (0x00)
    bRequest: GET DESCRIPTOR (6)
    Descriptor Index: 0x00
    bDescriptorType: DEVICE (1)
    Language Id: no language specified (0x0000)
    wLength: 64

0000  00 bf 77 f0 00 00 00 00 53 02 80 1c 04 00 00 3c   ..w.....S......<
0010  42 43 4b 58 00 00 00 00 d6 60 0e 00 8d ff ff ff   BCKX.....`......
0020  40 00 00 00 00 00 00 00 80 06 00 01 00 00 40 00   @.............@.
0030  00 00 00 00 00 00 00 00 00 02 00 00 00 00 00 00   ................
No.     Time           Source                Destination           Protocol Length Info
     12 209.550139000  28.0                  host                  USB      82     GET DESCRIPTOR Response DEVICE

Frame 12: 82 bytes on wire (656 bits), 82 bytes captured (656 bits) on interface 0
    Interface id: 0
    Encapsulation type: USB packets with Linux header and padding (115)
    Arrival Time: Dec 10, 2016 00:50:26.942980000 CET
    [Time shift for this packet: 0.000000000 seconds]
    Epoch Time: 1481327426.942980000 seconds
    [Time delta from previous captured frame: 0.000686000 seconds]
    [Time delta from previous displayed frame: 0.000686000 seconds]
    [Time since reference or first frame: 209.550139000 seconds]
    Frame Number: 12
    Frame Length: 82 bytes (656 bits)
    Capture Length: 82 bytes (656 bits)
    [Frame is marked: False]
    [Frame is ignored: False]
    [Protocols in frame: usb]
USB URB
    URB id: 0x00000000f077bf00
    URB type: URB_COMPLETE ('C')
    URB transfer type: URB_CONTROL (0x02)
    Endpoint: 0x80, Direction: IN
        1... .... = Direction: IN (1)
        .000 0000 = Endpoint value: 0
    Device: 28
    URB bus id: 4
    Device setup request: not relevant ('-')
    Data: present (0)
    URB sec: 1481327426
    URB usec: 942980
    URB status: Success (0)
    URB length [bytes]: 18
    Data length [bytes]: 18
    [Request in: 11]
    [Time from request: 0.000686000 seconds]
    [bInterfaceClass: Unknown (0xffff)]
DEVICE DESCRIPTOR
    bLength: 18
    bDescriptorType: DEVICE (1)
    bcdUSB: 0x0110
    bDeviceClass: Vendor Specific (0xff)
    bDeviceSubClass: 255
    bDeviceProtocol: 255
    bMaxPacketSize0: 8
    idVendor: Cybiko Inc. (0x0b66)
    idProduct: Xtreme (0x0041)
    bcdDevice: 0x0001
    iManufacturer: 4
    iProduct: 28
    iSerialNumber: 0
    bNumConfigurations: 1

0000  00 bf 77 f0 00 00 00 00 43 02 80 1c 04 00 2d 00   ..w.....C.....-.
0010  42 43 4b 58 00 00 00 00 84 63 0e 00 00 00 00 00   BCKX.....c......
0020  12 00 00 00 12 00 00 00 00 00 00 00 00 00 00 00   ................
0030  00 00 00 00 00 00 00 00 00 02 00 00 00 00 00 00   ................
0040  12 01 10 01 ff ff ff 08 66 0b 41 00 01 00 04 1c   ........f.A.....
0050  00 01                                             ..
No.     Time           Source                Destination           Protocol Length Info
     13 209.599741000  host                  28.0                  USB      64     GET DESCRIPTOR Request DEVICE

Frame 13: 64 bytes on wire (512 bits), 64 bytes captured (512 bits) on interface 0
    Interface id: 0
    Encapsulation type: USB packets with Linux header and padding (115)
    Arrival Time: Dec 10, 2016 00:50:26.992582000 CET
    [Time shift for this packet: 0.000000000 seconds]
    Epoch Time: 1481327426.992582000 seconds
    [Time delta from previous captured frame: 0.049602000 seconds]
    [Time delta from previous displayed frame: 0.049602000 seconds]
    [Time since reference or first frame: 209.599741000 seconds]
    Frame Number: 13
    Frame Length: 64 bytes (512 bits)
    Capture Length: 64 bytes (512 bits)
    [Frame is marked: False]
    [Frame is ignored: False]
    [Protocols in frame: usb]
USB URB
    URB id: 0x00000000f077b540
    URB type: URB_SUBMIT ('S')
    URB transfer type: URB_CONTROL (0x02)
    Endpoint: 0x80, Direction: IN
        1... .... = Direction: IN (1)
        .000 0000 = Endpoint value: 0
    Device: 28
    URB bus id: 4
    Device setup request: relevant (0)
    Data: not present ('<')
    URB sec: 1481327426
    URB usec: 992582
    URB status: Operation now in progress (-EINPROGRESS) (-115)
    URB length [bytes]: 18
    Data length [bytes]: 0
    [Response in: 14]
URB setup
    bmRequestType: 0x80
        1... .... = Direction: Device-to-host
        .00. .... = Type: Standard (0x00)
        ...0 0000 = Recipient: Device (0x00)
    bRequest: GET DESCRIPTOR (6)
    Descriptor Index: 0x00
    bDescriptorType: DEVICE (1)
    Language Id: no language specified (0x0000)
    wLength: 18

0000  40 b5 77 f0 00 00 00 00 53 02 80 1c 04 00 00 3c   @.w.....S......<
0010  42 43 4b 58 00 00 00 00 46 25 0f 00 8d ff ff ff   BCKX....F%......
0020  12 00 00 00 00 00 00 00 80 06 00 01 00 00 12 00   ................
0030  00 00 00 00 00 00 00 00 00 02 00 00 00 00 00 00   ................
No.     Time           Source                Destination           Protocol Length Info
     14 209.601125000  28.0                  host                  USB      82     GET DESCRIPTOR Response DEVICE

Frame 14: 82 bytes on wire (656 bits), 82 bytes captured (656 bits) on interface 0
    Interface id: 0
    Encapsulation type: USB packets with Linux header and padding (115)
    Arrival Time: Dec 10, 2016 00:50:26.993966000 CET
    [Time shift for this packet: 0.000000000 seconds]
    Epoch Time: 1481327426.993966000 seconds
    [Time delta from previous captured frame: 0.001384000 seconds]
    [Time delta from previous displayed frame: 0.001384000 seconds]
    [Time since reference or first frame: 209.601125000 seconds]
    Frame Number: 14
    Frame Length: 82 bytes (656 bits)
    Capture Length: 82 bytes (656 bits)
    [Frame is marked: False]
    [Frame is ignored: False]
    [Protocols in frame: usb]
USB URB
    URB id: 0x00000000f077b540
    URB type: URB_COMPLETE ('C')
    URB transfer type: URB_CONTROL (0x02)
    Endpoint: 0x80, Direction: IN
        1... .... = Direction: IN (1)
        .000 0000 = Endpoint value: 0
    Device: 28
    URB bus id: 4
    Device setup request: not relevant ('-')
    Data: present (0)
    URB sec: 1481327426
    URB usec: 993966
    URB status: Success (0)
    URB length [bytes]: 18
    Data length [bytes]: 18
    [Request in: 13]
    [Time from request: 0.001384000 seconds]
    [bInterfaceClass: Unknown (0xffff)]
DEVICE DESCRIPTOR
    bLength: 18
    bDescriptorType: DEVICE (1)
    bcdUSB: 0x0110
    bDeviceClass: Vendor Specific (0xff)
    bDeviceSubClass: 255
    bDeviceProtocol: 255
    bMaxPacketSize0: 8
    idVendor: Cybiko Inc. (0x0b66)
    idProduct: Xtreme (0x0041)
    bcdDevice: 0x0001
    iManufacturer: 4
    iProduct: 28
    iSerialNumber: 0
    bNumConfigurations: 1

0000  40 b5 77 f0 00 00 00 00 43 02 80 1c 04 00 2d 00   @.w.....C.....-.
0010  42 43 4b 58 00 00 00 00 ae 2a 0f 00 00 00 00 00   BCKX.....*......
0020  12 00 00 00 12 00 00 00 00 00 00 00 00 00 00 00   ................
0030  00 00 00 00 00 00 00 00 00 02 00 00 00 00 00 00   ................
0040  12 01 10 01 ff ff ff 08 66 0b 41 00 01 00 04 1c   ........f.A.....
0050  00 01                                             ..
No.     Time           Source                Destination           Protocol Length Info
     15 209.604086000  host                  28.0                  USB      64     GET DESCRIPTOR Request CONFIGURATION

Frame 15: 64 bytes on wire (512 bits), 64 bytes captured (512 bits) on interface 0
    Interface id: 0
    Encapsulation type: USB packets with Linux header and padding (115)
    Arrival Time: Dec 10, 2016 00:50:26.996927000 CET
    [Time shift for this packet: 0.000000000 seconds]
    Epoch Time: 1481327426.996927000 seconds
    [Time delta from previous captured frame: 0.002961000 seconds]
    [Time delta from previous displayed frame: 0.002961000 seconds]
    [Time since reference or first frame: 209.604086000 seconds]
    Frame Number: 15
    Frame Length: 64 bytes (512 bits)
    Capture Length: 64 bytes (512 bits)
    [Frame is marked: False]
    [Frame is ignored: False]
    [Protocols in frame: usb]
USB URB
    URB id: 0x00000000f077b780
    URB type: URB_SUBMIT ('S')
    URB transfer type: URB_CONTROL (0x02)
    Endpoint: 0x80, Direction: IN
        1... .... = Direction: IN (1)
        .000 0000 = Endpoint value: 0
    Device: 28
    URB bus id: 4
    Device setup request: relevant (0)
    Data: not present ('<')
    URB sec: 1481327426
    URB usec: 996927
    URB status: Operation now in progress (-EINPROGRESS) (-115)
    URB length [bytes]: 9
    Data length [bytes]: 0
    [Response in: 16]
URB setup
    bmRequestType: 0x80
        1... .... = Direction: Device-to-host
        .00. .... = Type: Standard (0x00)
        ...0 0000 = Recipient: Device (0x00)
    bRequest: GET DESCRIPTOR (6)
    Descriptor Index: 0x00
    bDescriptorType: CONFIGURATION (2)
    Language Id: no language specified (0x0000)
    wLength: 9

0000  80 b7 77 f0 00 00 00 00 53 02 80 1c 04 00 00 3c   ..w.....S......<
0010  42 43 4b 58 00 00 00 00 3f 36 0f 00 8d ff ff ff   BCKX....?6......
0020  09 00 00 00 00 00 00 00 80 06 00 02 00 00 09 00   ................
0030  00 00 00 00 00 00 00 00 00 02 00 00 00 00 00 00   ................
No.     Time           Source                Destination           Protocol Length Info
     16 209.605143000  28.0                  host                  USB      73     GET DESCRIPTOR Response CONFIGURATION

Frame 16: 73 bytes on wire (584 bits), 73 bytes captured (584 bits) on interface 0
    Interface id: 0
    Encapsulation type: USB packets with Linux header and padding (115)
    Arrival Time: Dec 10, 2016 00:50:26.997984000 CET
    [Time shift for this packet: 0.000000000 seconds]
    Epoch Time: 1481327426.997984000 seconds
    [Time delta from previous captured frame: 0.001057000 seconds]
    [Time delta from previous displayed frame: 0.001057000 seconds]
    [Time since reference or first frame: 209.605143000 seconds]
    Frame Number: 16
    Frame Length: 73 bytes (584 bits)
    Capture Length: 73 bytes (584 bits)
    [Frame is marked: False]
    [Frame is ignored: False]
    [Protocols in frame: usb]
USB URB
    URB id: 0x00000000f077b780
    URB type: URB_COMPLETE ('C')
    URB transfer type: URB_CONTROL (0x02)
    Endpoint: 0x80, Direction: IN
        1... .... = Direction: IN (1)
        .000 0000 = Endpoint value: 0
    Device: 28
    URB bus id: 4
    Device setup request: not relevant ('-')
    Data: present (0)
    URB sec: 1481327426
    URB usec: 997984
    URB status: Success (0)
    URB length [bytes]: 9
    Data length [bytes]: 9
    [Request in: 15]
    [Time from request: 0.001057000 seconds]
    [bInterfaceClass: Unknown (0xffff)]
CONFIGURATION DESCRIPTOR
    bLength: 9
    bDescriptorType: CONFIGURATION (2)
    wTotalLength: 46
    bNumInterfaces: 1
    bConfigurationValue: 1
    iConfiguration: 56
    Configuration bmAttributes: 0x80  NOT SELF-POWERED  NO REMOTE-WAKEUP
        1... .... = Must be 1: Must be 1 for USB 1.1 and higher
        .0.. .... = Self-Powered: This device is powered from the USB bus
        ..0. .... = Remote Wakeup: This device does NOT support remote wakeup
    bMaxPower: 150  (300mA)

0000  80 b7 77 f0 00 00 00 00 43 02 80 1c 04 00 2d 00   ..w.....C.....-.
0010  42 43 4b 58 00 00 00 00 60 3a 0f 00 00 00 00 00   BCKX....`:......
0020  09 00 00 00 09 00 00 00 00 00 00 00 00 00 00 00   ................
0030  00 00 00 00 00 00 00 00 00 02 00 00 00 00 00 00   ................
0040  09 02 2e 00 01 01 38 80 96                        ......8..
No.     Time           Source                Destination           Protocol Length Info
     17 209.608475000  host                  28.0                  USB      64     GET DESCRIPTOR Request CONFIGURATION

Frame 17: 64 bytes on wire (512 bits), 64 bytes captured (512 bits) on interface 0
    Interface id: 0
    Encapsulation type: USB packets with Linux header and padding (115)
    Arrival Time: Dec 10, 2016 00:50:27.001316000 CET
    [Time shift for this packet: 0.000000000 seconds]
    Epoch Time: 1481327427.001316000 seconds
    [Time delta from previous captured frame: 0.003332000 seconds]
    [Time delta from previous displayed frame: 0.003332000 seconds]
    [Time since reference or first frame: 209.608475000 seconds]
    Frame Number: 17
    Frame Length: 64 bytes (512 bits)
    Capture Length: 64 bytes (512 bits)
    [Frame is marked: False]
    [Frame is ignored: False]
    [Protocols in frame: usb]
USB URB
    URB id: 0x00000000f077b9c0
    URB type: URB_SUBMIT ('S')
    URB transfer type: URB_CONTROL (0x02)
    Endpoint: 0x80, Direction: IN
        1... .... = Direction: IN (1)
        .000 0000 = Endpoint value: 0
    Device: 28
    URB bus id: 4
    Device setup request: relevant (0)
    Data: not present ('<')
    URB sec: 1481327427
    URB usec: 1316
    URB status: Operation now in progress (-EINPROGRESS) (-115)
    URB length [bytes]: 255
    Data length [bytes]: 0
    [Response in: 18]
URB setup
    bmRequestType: 0x80
        1... .... = Direction: Device-to-host
        .00. .... = Type: Standard (0x00)
        ...0 0000 = Recipient: Device (0x00)
    bRequest: GET DESCRIPTOR (6)
    Descriptor Index: 0x00
    bDescriptorType: CONFIGURATION (2)
    Language Id: no language specified (0x0000)
    wLength: 255

0000  c0 b9 77 f0 00 00 00 00 53 02 80 1c 04 00 00 3c   ..w.....S......<
0010  43 43 4b 58 00 00 00 00 24 05 00 00 8d ff ff ff   CCKX....$.......
0020  ff 00 00 00 00 00 00 00 80 06 00 02 00 00 ff 00   ................
0030  00 00 00 00 00 00 00 00 00 02 00 00 00 00 00 00   ................
No.     Time           Source                Destination           Protocol Length Info
     18 209.610131000  28.0                  host                  USB      110    GET DESCRIPTOR Response CONFIGURATION

Frame 18: 110 bytes on wire (880 bits), 110 bytes captured (880 bits) on interface 0
    Interface id: 0
    Encapsulation type: USB packets with Linux header and padding (115)
    Arrival Time: Dec 10, 2016 00:50:27.002972000 CET
    [Time shift for this packet: 0.000000000 seconds]
    Epoch Time: 1481327427.002972000 seconds
    [Time delta from previous captured frame: 0.001656000 seconds]
    [Time delta from previous displayed frame: 0.001656000 seconds]
    [Time since reference or first frame: 209.610131000 seconds]
    Frame Number: 18
    Frame Length: 110 bytes (880 bits)
    Capture Length: 110 bytes (880 bits)
    [Frame is marked: False]
    [Frame is ignored: False]
    [Protocols in frame: usb]
USB URB
    URB id: 0x00000000f077b9c0
    URB type: URB_COMPLETE ('C')
    URB transfer type: URB_CONTROL (0x02)
    Endpoint: 0x80, Direction: IN
        1... .... = Direction: IN (1)
        .000 0000 = Endpoint value: 0
    Device: 28
    URB bus id: 4
    Device setup request: not relevant ('-')
    Data: present (0)
    URB sec: 1481327427
    URB usec: 2972
    URB status: Success (0)
    URB length [bytes]: 46
    Data length [bytes]: 46
    [Request in: 17]
    [Time from request: 0.001656000 seconds]
    [bInterfaceClass: Unknown (0xffff)]
CONFIGURATION DESCRIPTOR
    bLength: 9
    bDescriptorType: CONFIGURATION (2)
    wTotalLength: 46
    bNumInterfaces: 1
    bConfigurationValue: 1
    iConfiguration: 56
    Configuration bmAttributes: 0x80  NOT SELF-POWERED  NO REMOTE-WAKEUP
        1... .... = Must be 1: Must be 1 for USB 1.1 and higher
        .0.. .... = Self-Powered: This device is powered from the USB bus
        ..0. .... = Remote Wakeup: This device does NOT support remote wakeup
    bMaxPower: 150  (300mA)
INTERFACE DESCRIPTOR (0.0): class Vendor Specific
    bLength: 9
    bDescriptorType: INTERFACE (4)
    bInterfaceNumber: 0
    bAlternateSetting: 0
    bNumEndpoints: 4
    bInterfaceClass: Vendor Specific (0xff)
    bInterfaceSubClass: 0xff
    bInterfaceProtocol: 0xff
    iInterface: 0
ENDPOINT DESCRIPTOR
    bLength: 7
    bDescriptorType: ENDPOINT (5)
    bEndpointAddress: 0x81  IN  Endpoint:1
        1... .... = Direction: IN Endpoint
        .... 0001 = Endpoint Number: 0x01
    bmAttributes: 0x02
        .... ..10 = Transfertype: Bulk-Transfer (0x02)
        .... 00.. = Synchronisationtype: No Sync (0x00)
        ..00 .... = Behaviourtype: Data-Endpoint (0x00)
    wMaxPacketSize: 64
        .... ..00 0100 0000 = Maximum Packet Size: 64
    bInterval: 0
ENDPOINT DESCRIPTOR
    bLength: 7
    bDescriptorType: ENDPOINT (5)
    bEndpointAddress: 0x02  OUT  Endpoint:2
        0... .... = Direction: OUT Endpoint
        .... 0010 = Endpoint Number: 0x02
    bmAttributes: 0x02
        .... ..10 = Transfertype: Bulk-Transfer (0x02)
        .... 00.. = Synchronisationtype: No Sync (0x00)
        ..00 .... = Behaviourtype: Data-Endpoint (0x00)
    wMaxPacketSize: 64
        .... ..00 0100 0000 = Maximum Packet Size: 64
    bInterval: 0
ENDPOINT DESCRIPTOR
    bLength: 7
    bDescriptorType: ENDPOINT (5)
    bEndpointAddress: 0x83  IN  Endpoint:3
        1... .... = Direction: IN Endpoint
        .... 0011 = Endpoint Number: 0x03
    bmAttributes: 0x02
        .... ..10 = Transfertype: Bulk-Transfer (0x02)
        .... 00.. = Synchronisationtype: No Sync (0x00)
        ..00 .... = Behaviourtype: Data-Endpoint (0x00)
    wMaxPacketSize: 64
        .... ..00 0100 0000 = Maximum Packet Size: 64
    bInterval: 0
ENDPOINT DESCRIPTOR
    bLength: 7
    bDescriptorType: ENDPOINT (5)
    bEndpointAddress: 0x04  OUT  Endpoint:4
        0... .... = Direction: OUT Endpoint
        .... 0100 = Endpoint Number: 0x04
    bmAttributes: 0x02
        .... ..10 = Transfertype: Bulk-Transfer (0x02)
        .... 00.. = Synchronisationtype: No Sync (0x00)
        ..00 .... = Behaviourtype: Data-Endpoint (0x00)
    wMaxPacketSize: 64
        .... ..00 0100 0000 = Maximum Packet Size: 64
    bInterval: 0

0000  c0 b9 77 f0 00 00 00 00 43 02 80 1c 04 00 2d 00   ..w.....C.....-.
0010  43 43 4b 58 00 00 00 00 9c 0b 00 00 00 00 00 00   CCKX............
0020  2e 00 00 00 2e 00 00 00 00 00 00 00 00 00 00 00   ................
0030  00 00 00 00 00 00 00 00 00 02 00 00 00 00 00 00   ................
0040  09 02 2e 00 01 01 38 80 96 09 04 00 00 04 ff ff   ......8.........
0050  ff 00 07 05 81 02 40 00 00 07 05 02 02 40 00 00   ......@......@..
0060  07 05 83 02 40 00 00 07 05 04 02 40 00 00         ....@......@..
No.     Time           Source                Destination           Protocol Length Info
     19 209.613912000  host                  28.0                  USB      64     GET DESCRIPTOR Request STRING

Frame 19: 64 bytes on wire (512 bits), 64 bytes captured (512 bits) on interface 0
    Interface id: 0
    Encapsulation type: USB packets with Linux header and padding (115)
    Arrival Time: Dec 10, 2016 00:50:27.006753000 CET
    [Time shift for this packet: 0.000000000 seconds]
    Epoch Time: 1481327427.006753000 seconds
    [Time delta from previous captured frame: 0.003781000 seconds]
    [Time delta from previous displayed frame: 0.003781000 seconds]
    [Time since reference or first frame: 209.613912000 seconds]
    Frame Number: 19
    Frame Length: 64 bytes (512 bits)
    Capture Length: 64 bytes (512 bits)
    [Frame is marked: False]
    [Frame is ignored: False]
    [Protocols in frame: usb]
USB URB
    URB id: 0x00000000f077b9c0
    URB type: URB_SUBMIT ('S')
    URB transfer type: URB_CONTROL (0x02)
    Endpoint: 0x80, Direction: IN
        1... .... = Direction: IN (1)
        .000 0000 = Endpoint value: 0
    Device: 28
    URB bus id: 4
    Device setup request: relevant (0)
    Data: not present ('<')
    URB sec: 1481327427
    URB usec: 6753
    URB status: Operation now in progress (-EINPROGRESS) (-115)
    URB length [bytes]: 255
    Data length [bytes]: 0
    [Response in: 20]
URB setup
    bmRequestType: 0x80
        1... .... = Direction: Device-to-host
        .00. .... = Type: Standard (0x00)
        ...0 0000 = Recipient: Device (0x00)
    bRequest: GET DESCRIPTOR (6)
    Descriptor Index: 0x00
    bDescriptorType: STRING (3)
    Language Id: no language specified (0x0000)
    wLength: 255

0000  c0 b9 77 f0 00 00 00 00 53 02 80 1c 04 00 00 3c   ..w.....S......<
0010  43 43 4b 58 00 00 00 00 61 1a 00 00 8d ff ff ff   CCKX....a.......
0020  ff 00 00 00 00 00 00 00 80 06 00 03 00 00 ff 00   ................
0030  00 00 00 00 00 00 00 00 00 02 00 00 00 00 00 00   ................
No.     Time           Source                Destination           Protocol Length Info
     20 209.615119000  28.0                  host                  USB      68     GET DESCRIPTOR Response STRING

Frame 20: 68 bytes on wire (544 bits), 68 bytes captured (544 bits) on interface 0
    Interface id: 0
    Encapsulation type: USB packets with Linux header and padding (115)
    Arrival Time: Dec 10, 2016 00:50:27.007960000 CET
    [Time shift for this packet: 0.000000000 seconds]
    Epoch Time: 1481327427.007960000 seconds
    [Time delta from previous captured frame: 0.001207000 seconds]
    [Time delta from previous displayed frame: 0.001207000 seconds]
    [Time since reference or first frame: 209.615119000 seconds]
    Frame Number: 20
    Frame Length: 68 bytes (544 bits)
    Capture Length: 68 bytes (544 bits)
    [Frame is marked: False]
    [Frame is ignored: False]
    [Protocols in frame: usb]
USB URB
    URB id: 0x00000000f077b9c0
    URB type: URB_COMPLETE ('C')
    URB transfer type: URB_CONTROL (0x02)
    Endpoint: 0x80, Direction: IN
        1... .... = Direction: IN (1)
        .000 0000 = Endpoint value: 0
    Device: 28
    URB bus id: 4
    Device setup request: not relevant ('-')
    Data: present (0)
    URB sec: 1481327427
    URB usec: 7960
    URB status: Success (0)
    URB length [bytes]: 4
    Data length [bytes]: 4
    [Request in: 19]
    [Time from request: 0.001207000 seconds]
    [bInterfaceClass: Unknown (0xffff)]
STRING DESCRIPTOR
    bLength: 4
    bDescriptorType: STRING (3)
    wLANGID: English (United States) (0x0409)

0000  c0 b9 77 f0 00 00 00 00 43 02 80 1c 04 00 2d 00   ..w.....C.....-.
0010  43 43 4b 58 00 00 00 00 18 1f 00 00 00 00 00 00   CCKX............
0020  04 00 00 00 04 00 00 00 00 00 00 00 00 00 00 00   ................
0030  00 00 00 00 00 00 00 00 00 02 00 00 00 00 00 00   ................
0040  04 03 09 04                                       ....
No.     Time           Source                Destination           Protocol Length Info
     21 209.618249000  host                  28.0                  USB      64     GET DESCRIPTOR Request STRING

Frame 21: 64 bytes on wire (512 bits), 64 bytes captured (512 bits) on interface 0
    Interface id: 0
    Encapsulation type: USB packets with Linux header and padding (115)
    Arrival Time: Dec 10, 2016 00:50:27.011090000 CET
    [Time shift for this packet: 0.000000000 seconds]
    Epoch Time: 1481327427.011090000 seconds
    [Time delta from previous captured frame: 0.003130000 seconds]
    [Time delta from previous displayed frame: 0.003130000 seconds]
    [Time since reference or first frame: 209.618249000 seconds]
    Frame Number: 21
    Frame Length: 64 bytes (512 bits)
    Capture Length: 64 bytes (512 bits)
    [Frame is marked: False]
    [Frame is ignored: False]
    [Protocols in frame: usb]
USB URB
    URB id: 0x00000000f077b780
    URB type: URB_SUBMIT ('S')
    URB transfer type: URB_CONTROL (0x02)
    Endpoint: 0x80, Direction: IN
        1... .... = Direction: IN (1)
        .000 0000 = Endpoint value: 0
    Device: 28
    URB bus id: 4
    Device setup request: relevant (0)
    Data: not present ('<')
    URB sec: 1481327427
    URB usec: 11090
    URB status: Operation now in progress (-EINPROGRESS) (-115)
    URB length [bytes]: 255
    Data length [bytes]: 0
    [Response in: 22]
URB setup
    bmRequestType: 0x80
        1... .... = Direction: Device-to-host
        .00. .... = Type: Standard (0x00)
        ...0 0000 = Recipient: Device (0x00)
    bRequest: GET DESCRIPTOR (6)
    Descriptor Index: 0x1c
    bDescriptorType: STRING (3)
    Language Id: English (United States) (0x0409)
    wLength: 255

0000  80 b7 77 f0 00 00 00 00 53 02 80 1c 04 00 00 3c   ..w.....S......<
0010  43 43 4b 58 00 00 00 00 52 2b 00 00 8d ff ff ff   CCKX....R+......
0020  ff 00 00 00 00 00 00 00 80 06 1c 03 09 04 ff 00   ................
0030  00 00 00 00 00 00 00 00 00 02 00 00 00 00 00 00   ................
No.     Time           Source                Destination           Protocol Length Info
     22 209.619135000  28.0                  host                  USB      92     GET DESCRIPTOR Response STRING

Frame 22: 92 bytes on wire (736 bits), 92 bytes captured (736 bits) on interface 0
    Interface id: 0
    Encapsulation type: USB packets with Linux header and padding (115)
    Arrival Time: Dec 10, 2016 00:50:27.011976000 CET
    [Time shift for this packet: 0.000000000 seconds]
    Epoch Time: 1481327427.011976000 seconds
    [Time delta from previous captured frame: 0.000886000 seconds]
    [Time delta from previous displayed frame: 0.000886000 seconds]
    [Time since reference or first frame: 209.619135000 seconds]
    Frame Number: 22
    Frame Length: 92 bytes (736 bits)
    Capture Length: 92 bytes (736 bits)
    [Frame is marked: False]
    [Frame is ignored: False]
    [Protocols in frame: usb]
USB URB
    URB id: 0x00000000f077b780
    URB type: URB_COMPLETE ('C')
    URB transfer type: URB_CONTROL (0x02)
    Endpoint: 0x80, Direction: IN
        1... .... = Direction: IN (1)
        .000 0000 = Endpoint value: 0
    Device: 28
    URB bus id: 4
    Device setup request: not relevant ('-')
    Data: present (0)
    URB sec: 1481327427
    URB usec: 11976
    URB status: Success (0)
    URB length [bytes]: 28
    Data length [bytes]: 28
    [Request in: 21]
    [Time from request: 0.000886000 seconds]
    [bInterfaceClass: Unknown (0xffff)]
STRING DESCRIPTOR
    bLength: 28
    bDescriptorType: STRING (3)
    bString: Cybiko Xtreme

0000  80 b7 77 f0 00 00 00 00 43 02 80 1c 04 00 2d 00   ..w.....C.....-.
0010  43 43 4b 58 00 00 00 00 c8 2e 00 00 00 00 00 00   CCKX............
0020  1c 00 00 00 1c 00 00 00 00 00 00 00 00 00 00 00   ................
0030  00 00 00 00 00 00 00 00 00 02 00 00 00 00 00 00   ................
0040  1c 03 43 00 79 00 62 00 69 00 6b 00 6f 00 20 00   ..C.y.b.i.k.o. .
0050  58 00 74 00 72 00 65 00 6d 00 65 00               X.t.r.e.m.e.
No.     Time           Source                Destination           Protocol Length Info
     23 209.621502000  host                  28.0                  USB      64     GET DESCRIPTOR Request STRING

Frame 23: 64 bytes on wire (512 bits), 64 bytes captured (512 bits) on interface 0
    Interface id: 0
    Encapsulation type: USB packets with Linux header and padding (115)
    Arrival Time: Dec 10, 2016 00:50:27.014343000 CET
    [Time shift for this packet: 0.000000000 seconds]
    Epoch Time: 1481327427.014343000 seconds
    [Time delta from previous captured frame: 0.002367000 seconds]
    [Time delta from previous displayed frame: 0.002367000 seconds]
    [Time since reference or first frame: 209.621502000 seconds]
    Frame Number: 23
    Frame Length: 64 bytes (512 bits)
    Capture Length: 64 bytes (512 bits)
    [Frame is marked: False]
    [Frame is ignored: False]
    [Protocols in frame: usb]
USB URB
    URB id: 0x00000000f077b780
    URB type: URB_SUBMIT ('S')
    URB transfer type: URB_CONTROL (0x02)
    Endpoint: 0x80, Direction: IN
        1... .... = Direction: IN (1)
        .000 0000 = Endpoint value: 0
    Device: 28
    URB bus id: 4
    Device setup request: relevant (0)
    Data: not present ('<')
    URB sec: 1481327427
    URB usec: 14343
    URB status: Operation now in progress (-EINPROGRESS) (-115)
    URB length [bytes]: 255
    Data length [bytes]: 0
    [Response in: 24]
URB setup
    bmRequestType: 0x80
        1... .... = Direction: Device-to-host
        .00. .... = Type: Standard (0x00)
        ...0 0000 = Recipient: Device (0x00)
    bRequest: GET DESCRIPTOR (6)
    Descriptor Index: 0x00
    bDescriptorType: STRING (3)
    Language Id: no language specified (0x0000)
    wLength: 255

0000  80 b7 77 f0 00 00 00 00 53 02 80 1c 04 00 00 3c   ..w.....S......<
0010  43 43 4b 58 00 00 00 00 07 38 00 00 8d ff ff ff   CCKX.....8......
0020  ff 00 00 00 00 00 00 00 80 06 00 03 00 00 ff 00   ................
0030  00 00 00 00 00 00 00 00 00 02 00 00 00 00 00 00   ................
No.     Time           Source                Destination           Protocol Length Info
     24 209.622138000  28.0                  host                  USB      68     GET DESCRIPTOR Response STRING

Frame 24: 68 bytes on wire (544 bits), 68 bytes captured (544 bits) on interface 0
    Interface id: 0
    Encapsulation type: USB packets with Linux header and padding (115)
    Arrival Time: Dec 10, 2016 00:50:27.014979000 CET
    [Time shift for this packet: 0.000000000 seconds]
    Epoch Time: 1481327427.014979000 seconds
    [Time delta from previous captured frame: 0.000636000 seconds]
    [Time delta from previous displayed frame: 0.000636000 seconds]
    [Time since reference or first frame: 209.622138000 seconds]
    Frame Number: 24
    Frame Length: 68 bytes (544 bits)
    Capture Length: 68 bytes (544 bits)
    [Frame is marked: False]
    [Frame is ignored: False]
    [Protocols in frame: usb]
USB URB
    URB id: 0x00000000f077b780
    URB type: URB_COMPLETE ('C')
    URB transfer type: URB_CONTROL (0x02)
    Endpoint: 0x80, Direction: IN
        1... .... = Direction: IN (1)
        .000 0000 = Endpoint value: 0
    Device: 28
    URB bus id: 4
    Device setup request: not relevant ('-')
    Data: present (0)
    URB sec: 1481327427
    URB usec: 14979
    URB status: Success (0)
    URB length [bytes]: 4
    Data length [bytes]: 4
    [Request in: 23]
    [Time from request: 0.000636000 seconds]
    [bInterfaceClass: Unknown (0xffff)]
STRING DESCRIPTOR
    bLength: 4
    bDescriptorType: STRING (3)
    wLANGID: English (United States) (0x0409)

0000  80 b7 77 f0 00 00 00 00 43 02 80 1c 04 00 2d 00   ..w.....C.....-.
0010  43 43 4b 58 00 00 00 00 83 3a 00 00 00 00 00 00   CCKX.....:......
0020  04 00 00 00 04 00 00 00 00 00 00 00 00 00 00 00   ................
0030  00 00 00 00 00 00 00 00 00 02 00 00 00 00 00 00   ................
0040  04 03 09 04                                       ....
No.     Time           Source                Destination           Protocol Length Info
     25 209.624779000  host                  28.0                  USB      64     GET DESCRIPTOR Request STRING

Frame 25: 64 bytes on wire (512 bits), 64 bytes captured (512 bits) on interface 0
    Interface id: 0
    Encapsulation type: USB packets with Linux header and padding (115)
    Arrival Time: Dec 10, 2016 00:50:27.017620000 CET
    [Time shift for this packet: 0.000000000 seconds]
    Epoch Time: 1481327427.017620000 seconds
    [Time delta from previous captured frame: 0.002641000 seconds]
    [Time delta from previous displayed frame: 0.002641000 seconds]
    [Time since reference or first frame: 209.624779000 seconds]
    Frame Number: 25
    Frame Length: 64 bytes (512 bits)
    Capture Length: 64 bytes (512 bits)
    [Frame is marked: False]
    [Frame is ignored: False]
    [Protocols in frame: usb]
USB URB
    URB id: 0x00000000f077b780
    URB type: URB_SUBMIT ('S')
    URB transfer type: URB_CONTROL (0x02)
    Endpoint: 0x80, Direction: IN
        1... .... = Direction: IN (1)
        .000 0000 = Endpoint value: 0
    Device: 28
    URB bus id: 4
    Device setup request: relevant (0)
    Data: not present ('<')
    URB sec: 1481327427
    URB usec: 17620
    URB status: Operation now in progress (-EINPROGRESS) (-115)
    URB length [bytes]: 255
    Data length [bytes]: 0
    [Response in: 26]
URB setup
    bmRequestType: 0x80
        1... .... = Direction: Device-to-host
        .00. .... = Type: Standard (0x00)
        ...0 0000 = Recipient: Device (0x00)
    bRequest: GET DESCRIPTOR (6)
    Descriptor Index: 0x1c
    bDescriptorType: STRING (3)
    Language Id: English (United States) (0x0409)
    wLength: 255

0000  80 b7 77 f0 00 00 00 00 53 02 80 1c 04 00 00 3c   ..w.....S......<
0010  43 43 4b 58 00 00 00 00 d4 44 00 00 8d ff ff ff   CCKX.....D......
0020  ff 00 00 00 00 00 00 00 80 06 1c 03 09 04 ff 00   ................
0030  00 00 00 00 00 00 00 00 00 02 00 00 00 00 00 00   ................
No.     Time           Source                Destination           Protocol Length Info
     26 209.626130000  28.0                  host                  USB      92     GET DESCRIPTOR Response STRING

Frame 26: 92 bytes on wire (736 bits), 92 bytes captured (736 bits) on interface 0
    Interface id: 0
    Encapsulation type: USB packets with Linux header and padding (115)
    Arrival Time: Dec 10, 2016 00:50:27.018971000 CET
    [Time shift for this packet: 0.000000000 seconds]
    Epoch Time: 1481327427.018971000 seconds
    [Time delta from previous captured frame: 0.001351000 seconds]
    [Time delta from previous displayed frame: 0.001351000 seconds]
    [Time since reference or first frame: 209.626130000 seconds]
    Frame Number: 26
    Frame Length: 92 bytes (736 bits)
    Capture Length: 92 bytes (736 bits)
    [Frame is marked: False]
    [Frame is ignored: False]
    [Protocols in frame: usb]
USB URB
    URB id: 0x00000000f077b780
    URB type: URB_COMPLETE ('C')
    URB transfer type: URB_CONTROL (0x02)
    Endpoint: 0x80, Direction: IN
        1... .... = Direction: IN (1)
        .000 0000 = Endpoint value: 0
    Device: 28
    URB bus id: 4
    Device setup request: not relevant ('-')
    Data: present (0)
    URB sec: 1481327427
    URB usec: 18971
    URB status: Success (0)
    URB length [bytes]: 28
    Data length [bytes]: 28
    [Request in: 25]
    [Time from request: 0.001351000 seconds]
    [bInterfaceClass: Unknown (0xffff)]
STRING DESCRIPTOR
    bLength: 28
    bDescriptorType: STRING (3)
    bString: Cybiko Xtreme

0000  80 b7 77 f0 00 00 00 00 43 02 80 1c 04 00 2d 00   ..w.....C.....-.
0010  43 43 4b 58 00 00 00 00 1b 4a 00 00 00 00 00 00   CCKX.....J......
0020  1c 00 00 00 1c 00 00 00 00 00 00 00 00 00 00 00   ................
0030  00 00 00 00 00 00 00 00 00 02 00 00 00 00 00 00   ................
0040  1c 03 43 00 79 00 62 00 69 00 6b 00 6f 00 20 00   ..C.y.b.i.k.o. .
0050  58 00 74 00 72 00 65 00 6d 00 65 00               X.t.r.e.m.e.
No.     Time           Source                Destination           Protocol Length Info
     27 209.633339000  host                  28.0                  USB      64     GET DESCRIPTOR Request DEVICE

Frame 27: 64 bytes on wire (512 bits), 64 bytes captured (512 bits) on interface 0
    Interface id: 0
    Encapsulation type: USB packets with Linux header and padding (115)
    Arrival Time: Dec 10, 2016 00:50:27.026180000 CET
    [Time shift for this packet: 0.000000000 seconds]
    Epoch Time: 1481327427.026180000 seconds
    [Time delta from previous captured frame: 0.007209000 seconds]
    [Time delta from previous displayed frame: 0.007209000 seconds]
    [Time since reference or first frame: 209.633339000 seconds]
    Frame Number: 27
    Frame Length: 64 bytes (512 bits)
    Capture Length: 64 bytes (512 bits)
    [Frame is marked: False]
    [Frame is ignored: False]
    [Protocols in frame: usb]
USB URB
    URB id: 0x00000000f077b540
    URB type: URB_SUBMIT ('S')
    URB transfer type: URB_CONTROL (0x02)
    Endpoint: 0x80, Direction: IN
        1... .... = Direction: IN (1)
        .000 0000 = Endpoint value: 0
    Device: 28
    URB bus id: 4
    Device setup request: relevant (0)
    Data: not present ('<')
    URB sec: 1481327427
    URB usec: 26180
    URB status: Operation now in progress (-EINPROGRESS) (-115)
    URB length [bytes]: 18
    Data length [bytes]: 0
    [Response in: 28]
URB setup
    bmRequestType: 0x80
        1... .... = Direction: Device-to-host
        .00. .... = Type: Standard (0x00)
        ...0 0000 = Recipient: Device (0x00)
    bRequest: GET DESCRIPTOR (6)
    Descriptor Index: 0x00
    bDescriptorType: DEVICE (1)
    Language Id: no language specified (0x0000)
    wLength: 18

0000  40 b5 77 f0 00 00 00 00 53 02 80 1c 04 00 00 3c   @.w.....S......<
0010  43 43 4b 58 00 00 00 00 44 66 00 00 8d ff ff ff   CCKX....Df......
0020  12 00 00 00 00 00 00 00 80 06 00 01 00 00 12 00   ................
0030  00 00 00 00 00 00 00 00 00 02 00 00 00 00 00 00   ................
No.     Time           Source                Destination           Protocol Length Info
     28 209.634129000  28.0                  host                  USB      82     GET DESCRIPTOR Response DEVICE

Frame 28: 82 bytes on wire (656 bits), 82 bytes captured (656 bits) on interface 0
    Interface id: 0
    Encapsulation type: USB packets with Linux header and padding (115)
    Arrival Time: Dec 10, 2016 00:50:27.026970000 CET
    [Time shift for this packet: 0.000000000 seconds]
    Epoch Time: 1481327427.026970000 seconds
    [Time delta from previous captured frame: 0.000790000 seconds]
    [Time delta from previous displayed frame: 0.000790000 seconds]
    [Time since reference or first frame: 209.634129000 seconds]
    Frame Number: 28
    Frame Length: 82 bytes (656 bits)
    Capture Length: 82 bytes (656 bits)
    [Frame is marked: False]
    [Frame is ignored: False]
    [Protocols in frame: usb]
USB URB
    URB id: 0x00000000f077b540
    URB type: URB_COMPLETE ('C')
    URB transfer type: URB_CONTROL (0x02)
    Endpoint: 0x80, Direction: IN
        1... .... = Direction: IN (1)
        .000 0000 = Endpoint value: 0
    Device: 28
    URB bus id: 4
    Device setup request: not relevant ('-')
    Data: present (0)
    URB sec: 1481327427
    URB usec: 26970
    URB status: Success (0)
    URB length [bytes]: 18
    Data length [bytes]: 18
    [Request in: 27]
    [Time from request: 0.000790000 seconds]
    [bInterfaceClass: Unknown (0xffff)]
DEVICE DESCRIPTOR
    bLength: 18
    bDescriptorType: DEVICE (1)
    bcdUSB: 0x0110
    bDeviceClass: Vendor Specific (0xff)
    bDeviceSubClass: 255
    bDeviceProtocol: 255
    bMaxPacketSize0: 8
    idVendor: Cybiko Inc. (0x0b66)
    idProduct: Xtreme (0x0041)
    bcdDevice: 0x0001
    iManufacturer: 4
    iProduct: 28
    iSerialNumber: 0
    bNumConfigurations: 1

0000  40 b5 77 f0 00 00 00 00 43 02 80 1c 04 00 2d 00   @.w.....C.....-.
0010  43 43 4b 58 00 00 00 00 5a 69 00 00 00 00 00 00   CCKX....Zi......
0020  12 00 00 00 12 00 00 00 00 00 00 00 00 00 00 00   ................
0030  00 00 00 00 00 00 00 00 00 02 00 00 00 00 00 00   ................
0040  12 01 10 01 ff ff ff 08 66 0b 41 00 01 00 04 1c   ........f.A.....
0050  00 01                                             ..
No.     Time           Source                Destination           Protocol Length Info
     29 209.636780000  host                  28.0                  USB      64     GET DESCRIPTOR Request CONFIGURATION

Frame 29: 64 bytes on wire (512 bits), 64 bytes captured (512 bits) on interface 0
    Interface id: 0
    Encapsulation type: USB packets with Linux header and padding (115)
    Arrival Time: Dec 10, 2016 00:50:27.029621000 CET
    [Time shift for this packet: 0.000000000 seconds]
    Epoch Time: 1481327427.029621000 seconds
    [Time delta from previous captured frame: 0.002651000 seconds]
    [Time delta from previous displayed frame: 0.002651000 seconds]
    [Time since reference or first frame: 209.636780000 seconds]
    Frame Number: 29
    Frame Length: 64 bytes (512 bits)
    Capture Length: 64 bytes (512 bits)
    [Frame is marked: False]
    [Frame is ignored: False]
    [Protocols in frame: usb]
USB URB
    URB id: 0x00000000f077b600
    URB type: URB_SUBMIT ('S')
    URB transfer type: URB_CONTROL (0x02)
    Endpoint: 0x80, Direction: IN
        1... .... = Direction: IN (1)
        .000 0000 = Endpoint value: 0
    Device: 28
    URB bus id: 4
    Device setup request: relevant (0)
    Data: not present ('<')
    URB sec: 1481327427
    URB usec: 29621
    URB status: Operation now in progress (-EINPROGRESS) (-115)
    URB length [bytes]: 14
    Data length [bytes]: 0
    [Response in: 30]
URB setup
    bmRequestType: 0x80
        1... .... = Direction: Device-to-host
        .00. .... = Type: Standard (0x00)
        ...0 0000 = Recipient: Device (0x00)
    bRequest: GET DESCRIPTOR (6)
    Descriptor Index: 0x00
    bDescriptorType: CONFIGURATION (2)
    Language Id: no language specified (0x0000)
    wLength: 14

0000  00 b6 77 f0 00 00 00 00 53 02 80 1c 04 00 00 3c   ..w.....S......<
0010  43 43 4b 58 00 00 00 00 b5 73 00 00 8d ff ff ff   CCKX.....s......
0020  0e 00 00 00 00 00 00 00 80 06 00 02 00 00 0e 00   ................
0030  00 00 00 00 00 00 00 00 00 02 00 00 00 00 00 00   ................
No.     Time           Source                Destination           Protocol Length Info
     30 209.638118000  28.0                  host                  USB      78     GET DESCRIPTOR Response CONFIGURATION

Frame 30: 78 bytes on wire (624 bits), 78 bytes captured (624 bits) on interface 0
    Interface id: 0
    Encapsulation type: USB packets with Linux header and padding (115)
    Arrival Time: Dec 10, 2016 00:50:27.030959000 CET
    [Time shift for this packet: 0.000000000 seconds]
    Epoch Time: 1481327427.030959000 seconds
    [Time delta from previous captured frame: 0.001338000 seconds]
    [Time delta from previous displayed frame: 0.001338000 seconds]
    [Time since reference or first frame: 209.638118000 seconds]
    Frame Number: 30
    Frame Length: 78 bytes (624 bits)
    Capture Length: 78 bytes (624 bits)
    [Frame is marked: False]
    [Frame is ignored: False]
    [Protocols in frame: usb]
USB URB
    URB id: 0x00000000f077b600
    URB type: URB_COMPLETE ('C')
    URB transfer type: URB_CONTROL (0x02)
    Endpoint: 0x80, Direction: IN
        1... .... = Direction: IN (1)
        .000 0000 = Endpoint value: 0
    Device: 28
    URB bus id: 4
    Device setup request: not relevant ('-')
    Data: present (0)
    URB sec: 1481327427
    URB usec: 30959
    URB status: Success (0)
    URB length [bytes]: 14
    Data length [bytes]: 14
    [Request in: 29]
    [Time from request: 0.001338000 seconds]
    [bInterfaceClass: Unknown (0xffff)]
CONFIGURATION DESCRIPTOR
    bLength: 9
    bDescriptorType: CONFIGURATION (2)
    wTotalLength: 46
    bNumInterfaces: 1
    bConfigurationValue: 1
    iConfiguration: 56
    Configuration bmAttributes: 0x80  NOT SELF-POWERED  NO REMOTE-WAKEUP
        1... .... = Must be 1: Must be 1 for USB 1.1 and higher
        .0.. .... = Self-Powered: This device is powered from the USB bus
        ..0. .... = Remote Wakeup: This device does NOT support remote wakeup
    bMaxPower: 150  (300mA)
Leftover Capture Data: 0904000004

0000  00 b6 77 f0 00 00 00 00 43 02 80 1c 04 00 2d 00   ..w.....C.....-.
0010  43 43 4b 58 00 00 00 00 ef 78 00 00 00 00 00 00   CCKX.....x......
0020  0e 00 00 00 0e 00 00 00 00 00 00 00 00 00 00 00   ................
0030  00 00 00 00 00 00 00 00 00 02 00 00 00 00 00 00   ................
0040  09 02 2e 00 01 01 38 80 96 09 04 00 00 04         ......8.......
No.     Time           Source                Destination           Protocol Length Info
     31 209.643672000  host                  28.0                  USB      64     GET DESCRIPTOR Request CONFIGURATION

Frame 31: 64 bytes on wire (512 bits), 64 bytes captured (512 bits) on interface 0
    Interface id: 0
    Encapsulation type: USB packets with Linux header and padding (115)
    Arrival Time: Dec 10, 2016 00:50:27.036513000 CET
    [Time shift for this packet: 0.000000000 seconds]
    Epoch Time: 1481327427.036513000 seconds
    [Time delta from previous captured frame: 0.005554000 seconds]
    [Time delta from previous displayed frame: 0.005554000 seconds]
    [Time since reference or first frame: 209.643672000 seconds]
    Frame Number: 31
    Frame Length: 64 bytes (512 bits)
    Capture Length: 64 bytes (512 bits)
    [Frame is marked: False]
    [Frame is ignored: False]
    [Protocols in frame: usb]
USB URB
    URB id: 0x00000000f077b900
    URB type: URB_SUBMIT ('S')
    URB transfer type: URB_CONTROL (0x02)
    Endpoint: 0x80, Direction: IN
        1... .... = Direction: IN (1)
        .000 0000 = Endpoint value: 0
    Device: 28
    URB bus id: 4
    Device setup request: relevant (0)
    Data: not present ('<')
    URB sec: 1481327427
    URB usec: 36513
    URB status: Operation now in progress (-EINPROGRESS) (-115)
    URB length [bytes]: 46
    Data length [bytes]: 0
    [Response in: 32]
URB setup
    bmRequestType: 0x80
        1... .... = Direction: Device-to-host
        .00. .... = Type: Standard (0x00)
        ...0 0000 = Recipient: Device (0x00)
    bRequest: GET DESCRIPTOR (6)
    Descriptor Index: 0x00
    bDescriptorType: CONFIGURATION (2)
    Language Id: no language specified (0x0000)
    wLength: 46

0000  00 b9 77 f0 00 00 00 00 53 02 80 1c 04 00 00 3c   ..w.....S......<
0010  43 43 4b 58 00 00 00 00 a1 8e 00 00 8d ff ff ff   CCKX............
0020  2e 00 00 00 00 00 00 00 80 06 00 02 00 00 2e 00   ................
0030  00 00 00 00 00 00 00 00 00 02 00 00 00 00 00 00   ................
No.     Time           Source                Destination           Protocol Length Info
     32 209.645129000  28.0                  host                  USB      110    GET DESCRIPTOR Response CONFIGURATION

Frame 32: 110 bytes on wire (880 bits), 110 bytes captured (880 bits) on interface 0
    Interface id: 0
    Encapsulation type: USB packets with Linux header and padding (115)
    Arrival Time: Dec 10, 2016 00:50:27.037970000 CET
    [Time shift for this packet: 0.000000000 seconds]
    Epoch Time: 1481327427.037970000 seconds
    [Time delta from previous captured frame: 0.001457000 seconds]
    [Time delta from previous displayed frame: 0.001457000 seconds]
    [Time since reference or first frame: 209.645129000 seconds]
    Frame Number: 32
    Frame Length: 110 bytes (880 bits)
    Capture Length: 110 bytes (880 bits)
    [Frame is marked: False]
    [Frame is ignored: False]
    [Protocols in frame: usb]
USB URB
    URB id: 0x00000000f077b900
    URB type: URB_COMPLETE ('C')
    URB transfer type: URB_CONTROL (0x02)
    Endpoint: 0x80, Direction: IN
        1... .... = Direction: IN (1)
        .000 0000 = Endpoint value: 0
    Device: 28
    URB bus id: 4
    Device setup request: not relevant ('-')
    Data: present (0)
    URB sec: 1481327427
    URB usec: 37970
    URB status: Success (0)
    URB length [bytes]: 46
    Data length [bytes]: 46
    [Request in: 31]
    [Time from request: 0.001457000 seconds]
    [bInterfaceClass: Unknown (0xffff)]
CONFIGURATION DESCRIPTOR
    bLength: 9
    bDescriptorType: CONFIGURATION (2)
    wTotalLength: 46
    bNumInterfaces: 1
    bConfigurationValue: 1
    iConfiguration: 56
    Configuration bmAttributes: 0x80  NOT SELF-POWERED  NO REMOTE-WAKEUP
        1... .... = Must be 1: Must be 1 for USB 1.1 and higher
        .0.. .... = Self-Powered: This device is powered from the USB bus
        ..0. .... = Remote Wakeup: This device does NOT support remote wakeup
    bMaxPower: 150  (300mA)
INTERFACE DESCRIPTOR (0.0): class Vendor Specific
    bLength: 9
    bDescriptorType: INTERFACE (4)
    bInterfaceNumber: 0
    bAlternateSetting: 0
    bNumEndpoints: 4
    bInterfaceClass: Vendor Specific (0xff)
    bInterfaceSubClass: 0xff
    bInterfaceProtocol: 0xff
    iInterface: 0
ENDPOINT DESCRIPTOR
    bLength: 7
    bDescriptorType: ENDPOINT (5)
    bEndpointAddress: 0x81  IN  Endpoint:1
        1... .... = Direction: IN Endpoint
        .... 0001 = Endpoint Number: 0x01
    bmAttributes: 0x02
        .... ..10 = Transfertype: Bulk-Transfer (0x02)
        .... 00.. = Synchronisationtype: No Sync (0x00)
        ..00 .... = Behaviourtype: Data-Endpoint (0x00)
    wMaxPacketSize: 64
        .... ..00 0100 0000 = Maximum Packet Size: 64
    bInterval: 0
ENDPOINT DESCRIPTOR
    bLength: 7
    bDescriptorType: ENDPOINT (5)
    bEndpointAddress: 0x02  OUT  Endpoint:2
        0... .... = Direction: OUT Endpoint
        .... 0010 = Endpoint Number: 0x02
    bmAttributes: 0x02
        .... ..10 = Transfertype: Bulk-Transfer (0x02)
        .... 00.. = Synchronisationtype: No Sync (0x00)
        ..00 .... = Behaviourtype: Data-Endpoint (0x00)
    wMaxPacketSize: 64
        .... ..00 0100 0000 = Maximum Packet Size: 64
    bInterval: 0
ENDPOINT DESCRIPTOR
    bLength: 7
    bDescriptorType: ENDPOINT (5)
    bEndpointAddress: 0x83  IN  Endpoint:3
        1... .... = Direction: IN Endpoint
        .... 0011 = Endpoint Number: 0x03
    bmAttributes: 0x02
        .... ..10 = Transfertype: Bulk-Transfer (0x02)
        .... 00.. = Synchronisationtype: No Sync (0x00)
        ..00 .... = Behaviourtype: Data-Endpoint (0x00)
    wMaxPacketSize: 64
        .... ..00 0100 0000 = Maximum Packet Size: 64
    bInterval: 0
ENDPOINT DESCRIPTOR
    bLength: 7
    bDescriptorType: ENDPOINT (5)
    bEndpointAddress: 0x04  OUT  Endpoint:4
        0... .... = Direction: OUT Endpoint
        .... 0100 = Endpoint Number: 0x04
    bmAttributes: 0x02
        .... ..10 = Transfertype: Bulk-Transfer (0x02)
        .... 00.. = Synchronisationtype: No Sync (0x00)
        ..00 .... = Behaviourtype: Data-Endpoint (0x00)
    wMaxPacketSize: 64
        .... ..00 0100 0000 = Maximum Packet Size: 64
    bInterval: 0

0000  00 b9 77 f0 00 00 00 00 43 02 80 1c 04 00 2d 00   ..w.....C.....-.
0010  43 43 4b 58 00 00 00 00 52 94 00 00 00 00 00 00   CCKX....R.......
0020  2e 00 00 00 2e 00 00 00 00 00 00 00 00 00 00 00   ................
0030  00 00 00 00 00 00 00 00 00 02 00 00 00 00 00 00   ................
0040  09 02 2e 00 01 01 38 80 96 09 04 00 00 04 ff ff   ......8.........
0050  ff 00 07 05 81 02 40 00 00 07 05 02 02 40 00 00   ......@......@..
0060  07 05 83 02 40 00 00 07 05 04 02 40 00 00         ....@......@..
No.     Time           Source                Destination           Protocol Length Info
     33 209.648040000  host                  28.0                  USB      64     GET DESCRIPTOR Request STRING

Frame 33: 64 bytes on wire (512 bits), 64 bytes captured (512 bits) on interface 0
    Interface id: 0
    Encapsulation type: USB packets with Linux header and padding (115)
    Arrival Time: Dec 10, 2016 00:50:27.040881000 CET
    [Time shift for this packet: 0.000000000 seconds]
    Epoch Time: 1481327427.040881000 seconds
    [Time delta from previous captured frame: 0.002911000 seconds]
    [Time delta from previous displayed frame: 0.002911000 seconds]
    [Time since reference or first frame: 209.648040000 seconds]
    Frame Number: 33
    Frame Length: 64 bytes (512 bits)
    Capture Length: 64 bytes (512 bits)
    [Frame is marked: False]
    [Frame is ignored: False]
    [Protocols in frame: usb]
USB URB
    URB id: 0x00000000f077b900
    URB type: URB_SUBMIT ('S')
    URB transfer type: URB_CONTROL (0x02)
    Endpoint: 0x80, Direction: IN
        1... .... = Direction: IN (1)
        .000 0000 = Endpoint value: 0
    Device: 28
    URB bus id: 4
    Device setup request: relevant (0)
    Data: not present ('<')
    URB sec: 1481327427
    URB usec: 40881
    URB status: Operation now in progress (-EINPROGRESS) (-115)
    URB length [bytes]: 46
    Data length [bytes]: 0
    [Response in: 34]
URB setup
    bmRequestType: 0x80
        1... .... = Direction: Device-to-host
        .00. .... = Type: Standard (0x00)
        ...0 0000 = Recipient: Device (0x00)
    bRequest: GET DESCRIPTOR (6)
    Descriptor Index: 0x38
    bDescriptorType: STRING (3)
    Language Id: no language specified (0x0000)
    wLength: 46

0000  00 b9 77 f0 00 00 00 00 53 02 80 1c 04 00 00 3c   ..w.....S......<
0010  43 43 4b 58 00 00 00 00 b1 9f 00 00 8d ff ff ff   CCKX............
0020  2e 00 00 00 00 00 00 00 80 06 38 03 00 00 2e 00   ..........8.....
0030  00 00 00 00 00 00 00 00 00 02 00 00 00 00 00 00   ................
No.     Time           Source                Destination           Protocol Length Info
     34 209.649128000  28.0                  host                  USB      110    GET DESCRIPTOR Response STRING

Frame 34: 110 bytes on wire (880 bits), 110 bytes captured (880 bits) on interface 0
    Interface id: 0
    Encapsulation type: USB packets with Linux header and padding (115)
    Arrival Time: Dec 10, 2016 00:50:27.041969000 CET
    [Time shift for this packet: 0.000000000 seconds]
    Epoch Time: 1481327427.041969000 seconds
    [Time delta from previous captured frame: 0.001088000 seconds]
    [Time delta from previous displayed frame: 0.001088000 seconds]
    [Time since reference or first frame: 209.649128000 seconds]
    Frame Number: 34
    Frame Length: 110 bytes (880 bits)
    Capture Length: 110 bytes (880 bits)
    [Frame is marked: False]
    [Frame is ignored: False]
    [Protocols in frame: usb]
USB URB
    URB id: 0x00000000f077b900
    URB type: URB_COMPLETE ('C')
    URB transfer type: URB_CONTROL (0x02)
    Endpoint: 0x80, Direction: IN
        1... .... = Direction: IN (1)
        .000 0000 = Endpoint value: 0
    Device: 28
    URB bus id: 4
    Device setup request: not relevant ('-')
    Data: present (0)
    URB sec: 1481327427
    URB usec: 41969
    URB status: Success (0)
    URB length [bytes]: 46
    Data length [bytes]: 46
    [Request in: 33]
    [Time from request: 0.001088000 seconds]
    [bInterfaceClass: Unknown (0xffff)]
STRING DESCRIPTOR
    bLength: 46
    bDescriptorType: STRING (3)
    bString: C000006EAD008 @XTAXETA

0000  00 b9 77 f0 00 00 00 00 43 02 80 1c 04 00 2d 00   ..w.....C.....-.
0010  43 43 4b 58 00 00 00 00 f1 a3 00 00 00 00 00 00   CCKX............
0020  2e 00 00 00 2e 00 00 00 00 00 00 00 00 00 00 00   ................
0030  00 00 00 00 00 00 00 00 00 02 00 00 00 00 00 00   ................
0040  2e 03 43 00 30 00 30 00 30 00 30 00 30 00 36 00   ..C.0.0.0.0.0.6.
0050  45 00 41 00 44 00 30 00 30 00 38 00 20 00 40 00   E.A.D.0.0.8. .@.
0060  58 00 54 00 41 00 58 00 45 00 54 00 41 00         X.T.A.X.E.T.A.
No.     Time           Source                Destination           Protocol Length Info
     35 209.705791000  host                  28.2                  USB      79     URB_BULK out

Frame 35: 79 bytes on wire (632 bits), 79 bytes captured (632 bits) on interface 0
    Interface id: 0
    Encapsulation type: USB packets with Linux header and padding (115)
    Arrival Time: Dec 10, 2016 00:50:27.098632000 CET
    [Time shift for this packet: 0.000000000 seconds]
    Epoch Time: 1481327427.098632000 seconds
    [Time delta from previous captured frame: 0.056663000 seconds]
    [Time delta from previous displayed frame: 0.056663000 seconds]
    [Time since reference or first frame: 209.705791000 seconds]
    Frame Number: 35
    Frame Length: 79 bytes (632 bits)
    Capture Length: 79 bytes (632 bits)
    [Frame is marked: False]
    [Frame is ignored: False]
    [Protocols in frame: usb]
USB URB
    URB id: 0x00000000f077bb40
    URB type: URB_SUBMIT ('S')
    URB transfer type: URB_BULK (0x03)
    Endpoint: 0x02, Direction: OUT
        0... .... = Direction: OUT (0)
        .000 0010 = Endpoint value: 2
    Device: 28
    URB bus id: 4
    Device setup request: not relevant ('-')
    Data: present (0)
    URB sec: 1481327427
    URB usec: 98632
    URB status: Operation now in progress (-EINPROGRESS) (-115)
    URB length [bytes]: 15
    Data length [bytes]: 15
    [bInterfaceClass: Vendor Specific (0xff)]
Leftover Capture Data: 4d4d120200000404000000a7ee3509

0000  40 bb 77 f0 00 00 00 00 53 03 02 1c 04 00 2d 00   @.w.....S.....-.
0010  43 43 4b 58 00 00 00 00 48 81 01 00 8d ff ff ff   CCKX....H.......
0020  0f 00 00 00 0f 00 00 00 00 00 00 00 00 00 00 00   ................
0030  00 00 00 00 00 00 00 00 00 00 00 00 00 00 00 00   ................
0040  4d 4d 12 02 00 00 04 04 00 00 00 a7 ee 35 09      MM...........5.
No.     Time           Source                Destination           Protocol Length Info
     36 209.705811000  host                  28.1                  USB      64     URB_BULK in

Frame 36: 64 bytes on wire (512 bits), 64 bytes captured (512 bits) on interface 0
    Interface id: 0
    Encapsulation type: USB packets with Linux header and padding (115)
    Arrival Time: Dec 10, 2016 00:50:27.098652000 CET
    [Time shift for this packet: 0.000000000 seconds]
    Epoch Time: 1481327427.098652000 seconds
    [Time delta from previous captured frame: 0.000020000 seconds]
    [Time delta from previous displayed frame: 0.000020000 seconds]
    [Time since reference or first frame: 209.705811000 seconds]
    Frame Number: 36
    Frame Length: 64 bytes (512 bits)
    Capture Length: 64 bytes (512 bits)
    [Frame is marked: False]
    [Frame is ignored: False]
    [Protocols in frame: usb]
USB URB
    URB id: 0x00000000f077b9c0
    URB type: URB_SUBMIT ('S')
    URB transfer type: URB_BULK (0x03)
    Endpoint: 0x81, Direction: IN
        1... .... = Direction: IN (1)
        .000 0001 = Endpoint value: 1
    Device: 28
    URB bus id: 4
    Device setup request: not relevant ('-')
    Data: not present ('<')
    URB sec: 1481327427
    URB usec: 98652
    URB status: Operation now in progress (-EINPROGRESS) (-115)
    URB length [bytes]: 1000
    Data length [bytes]: 0
    [Response in: 37]
    [bInterfaceClass: Vendor Specific (0xff)]

0000  c0 b9 77 f0 00 00 00 00 53 03 81 1c 04 00 2d 3c   ..w.....S.....-<
0010  43 43 4b 58 00 00 00 00 5c 81 01 00 8d ff ff ff   CCKX....\.......
0020  e8 03 00 00 00 00 00 00 00 00 00 00 00 00 00 00   ................
0030  00 00 00 00 00 00 00 00 00 02 00 00 00 00 00 00   ................
No.     Time           Source                Destination           Protocol Length Info
     37 209.706140000  28.2                  host                  USB      64     URB_BULK out

Frame 37: 64 bytes on wire (512 bits), 64 bytes captured (512 bits) on interface 0
    Interface id: 0
    Encapsulation type: USB packets with Linux header and padding (115)
    Arrival Time: Dec 10, 2016 00:50:27.098981000 CET
    [Time shift for this packet: 0.000000000 seconds]
    Epoch Time: 1481327427.098981000 seconds
    [Time delta from previous captured frame: 0.000329000 seconds]
    [Time delta from previous displayed frame: 0.000329000 seconds]
    [Time since reference or first frame: 209.706140000 seconds]
    Frame Number: 37
    Frame Length: 64 bytes (512 bits)
    Capture Length: 64 bytes (512 bits)
    [Frame is marked: False]
    [Frame is ignored: False]
    [Protocols in frame: usb]
USB URB
    URB id: 0x00000000f077bb40
    URB type: URB_COMPLETE ('C')
    URB transfer type: URB_BULK (0x03)
    Endpoint: 0x02, Direction: OUT
        0... .... = Direction: OUT (0)
        .000 0010 = Endpoint value: 2
    Device: 28
    URB bus id: 4
    Device setup request: not relevant ('-')
    Data: not present ('>')
    URB sec: 1481327427
    URB usec: 98981
    URB status: Success (0)
    URB length [bytes]: 15
    Data length [bytes]: 0
    [Request in: 36]
    [Time from request: 0.000329000 seconds]
    [bInterfaceClass: Vendor Specific (0xff)]

0000  40 bb 77 f0 00 00 00 00 43 03 02 1c 04 00 2d 3e   @.w.....C.....->
0010  43 43 4b 58 00 00 00 00 a5 82 01 00 00 00 00 00   CCKX............
0020  0f 00 00 00 00 00 00 00 00 00 00 00 00 00 00 00   ................
0030  00 00 00 00 00 00 00 00 00 00 00 00 00 00 00 00   ................
No.     Time           Source                Destination           Protocol Length Info
     38 209.783642000  host                  28.2                  USB      79     URB_BULK out

Frame 38: 79 bytes on wire (632 bits), 79 bytes captured (632 bits) on interface 0
    Interface id: 0
    Encapsulation type: USB packets with Linux header and padding (115)
    Arrival Time: Dec 10, 2016 00:50:27.176483000 CET
    [Time shift for this packet: 0.000000000 seconds]
    Epoch Time: 1481327427.176483000 seconds
    [Time delta from previous captured frame: 0.077502000 seconds]
    [Time delta from previous displayed frame: 0.077502000 seconds]
    [Time since reference or first frame: 209.783642000 seconds]
    Frame Number: 38
    Frame Length: 79 bytes (632 bits)
    Capture Length: 79 bytes (632 bits)
    [Frame is marked: False]
    [Frame is ignored: False]
    [Protocols in frame: usb]
USB URB
    URB id: 0x00000000f077b780
    URB type: URB_SUBMIT ('S')
    URB transfer type: URB_BULK (0x03)
    Endpoint: 0x02, Direction: OUT
        0... .... = Direction: OUT (0)
        .000 0010 = Endpoint value: 2
    Device: 28
    URB bus id: 4
    Device setup request: not relevant ('-')
    Data: present (0)
    URB sec: 1481327427
    URB usec: 176483
    URB status: Operation now in progress (-EINPROGRESS) (-115)
    URB length [bytes]: 15
    Data length [bytes]: 15
    [Response in: 39]
    [bInterfaceClass: Vendor Specific (0xff)]
Leftover Capture Data: 4d4d120100000404000000296132ea

0000  80 b7 77 f0 00 00 00 00 53 03 02 1c 04 00 2d 00   ..w.....S.....-.
0010  43 43 4b 58 00 00 00 00 63 b1 02 00 8d ff ff ff   CCKX....c.......
0020  0f 00 00 00 0f 00 00 00 00 00 00 00 00 00 00 00   ................
0030  00 00 00 00 00 00 00 00 00 00 00 00 00 00 00 00   ................
0040  4d 4d 12 01 00 00 04 04 00 00 00 29 61 32 ea      MM.........)a2.
No.     Time           Source                Destination           Protocol Length Info
     39 209.784121000  28.2                  host                  USB      64     URB_BULK out

Frame 39: 64 bytes on wire (512 bits), 64 bytes captured (512 bits) on interface 0
    Interface id: 0
    Encapsulation type: USB packets with Linux header and padding (115)
    Arrival Time: Dec 10, 2016 00:50:27.176962000 CET
    [Time shift for this packet: 0.000000000 seconds]
    Epoch Time: 1481327427.176962000 seconds
    [Time delta from previous captured frame: 0.000479000 seconds]
    [Time delta from previous displayed frame: 0.000479000 seconds]
    [Time since reference or first frame: 209.784121000 seconds]
    Frame Number: 39
    Frame Length: 64 bytes (512 bits)
    Capture Length: 64 bytes (512 bits)
    [Frame is marked: False]
    [Frame is ignored: False]
    [Protocols in frame: usb]
USB URB
    URB id: 0x00000000f077b780
    URB type: URB_COMPLETE ('C')
    URB transfer type: URB_BULK (0x03)
    Endpoint: 0x02, Direction: OUT
        0... .... = Direction: OUT (0)
        .000 0010 = Endpoint value: 2
    Device: 28
    URB bus id: 4
    Device setup request: not relevant ('-')
    Data: not present ('>')
    URB sec: 1481327427
    URB usec: 176962
    URB status: Success (0)
    URB length [bytes]: 15
    Data length [bytes]: 0
    [Request in: 38]
    [Time from request: 0.000479000 seconds]
    [bInterfaceClass: Vendor Specific (0xff)]

0000  80 b7 77 f0 00 00 00 00 43 03 02 1c 04 00 2d 3e   ..w.....C.....->
0010  43 43 4b 58 00 00 00 00 42 b3 02 00 00 00 00 00   CCKX....B.......
0020  0f 00 00 00 00 00 00 00 00 00 00 00 00 00 00 00   ................
0030  00 00 00 00 00 00 00 00 00 00 00 00 00 00 00 00   ................
No.     Time           Source                Destination           Protocol Length Info
     40 209.796262000  host                  28.2                  USB      79     URB_BULK out

Frame 40: 79 bytes on wire (632 bits), 79 bytes captured (632 bits) on interface 0
    Interface id: 0
    Encapsulation type: USB packets with Linux header and padding (115)
    Arrival Time: Dec 10, 2016 00:50:27.189103000 CET
    [Time shift for this packet: 0.000000000 seconds]
    Epoch Time: 1481327427.189103000 seconds
    [Time delta from previous captured frame: 0.012141000 seconds]
    [Time delta from previous displayed frame: 0.012141000 seconds]
    [Time since reference or first frame: 209.796262000 seconds]
    Frame Number: 40
    Frame Length: 79 bytes (632 bits)
    Capture Length: 79 bytes (632 bits)
    [Frame is marked: False]
    [Frame is ignored: False]
    [Protocols in frame: usb]
USB URB
    URB id: 0x00000000f077ba80
    URB type: URB_SUBMIT ('S')
    URB transfer type: URB_BULK (0x03)
    Endpoint: 0x02, Direction: OUT
        0... .... = Direction: OUT (0)
        .000 0010 = Endpoint value: 2
    Device: 28
    URB bus id: 4
    Device setup request: not relevant ('-')
    Data: present (0)
    URB sec: 1481327427
    URB usec: 189103
    URB status: Operation now in progress (-EINPROGRESS) (-115)
    URB length [bytes]: 15
    Data length [bytes]: 15
    [Response in: 41]
    [bInterfaceClass: Vendor Specific (0xff)]
Leftover Capture Data: 4d4d12020000040200000082856ad5

0000  80 ba 77 f0 00 00 00 00 53 03 02 1c 04 00 2d 00   ..w.....S.....-.
0010  43 43 4b 58 00 00 00 00 af e2 02 00 8d ff ff ff   CCKX............
0020  0f 00 00 00 0f 00 00 00 00 00 00 00 00 00 00 00   ................
0030  00 00 00 00 00 00 00 00 00 00 00 00 00 00 00 00   ................
0040  4d 4d 12 02 00 00 04 02 00 00 00 82 85 6a d5      MM...........j.
No.     Time           Source                Destination           Protocol Length Info
     41 209.797121000  28.2                  host                  USB      64     URB_BULK out

Frame 41: 64 bytes on wire (512 bits), 64 bytes captured (512 bits) on interface 0
    Interface id: 0
    Encapsulation type: USB packets with Linux header and padding (115)
    Arrival Time: Dec 10, 2016 00:50:27.189962000 CET
    [Time shift for this packet: 0.000000000 seconds]
    Epoch Time: 1481327427.189962000 seconds
    [Time delta from previous captured frame: 0.000859000 seconds]
    [Time delta from previous displayed frame: 0.000859000 seconds]
    [Time since reference or first frame: 209.797121000 seconds]
    Frame Number: 41
    Frame Length: 64 bytes (512 bits)
    Capture Length: 64 bytes (512 bits)
    [Frame is marked: False]
    [Frame is ignored: False]
    [Protocols in frame: usb]
USB URB
    URB id: 0x00000000f077ba80
    URB type: URB_COMPLETE ('C')
    URB transfer type: URB_BULK (0x03)
    Endpoint: 0x02, Direction: OUT
        0... .... = Direction: OUT (0)
        .000 0010 = Endpoint value: 2
    Device: 28
    URB bus id: 4
    Device setup request: not relevant ('-')
    Data: not present ('>')
    URB sec: 1481327427
    URB usec: 189962
    URB status: Success (0)
    URB length [bytes]: 15
    Data length [bytes]: 0
    [Request in: 40]
    [Time from request: 0.000859000 seconds]
    [bInterfaceClass: Vendor Specific (0xff)]

0000  80 ba 77 f0 00 00 00 00 43 03 02 1c 04 00 2d 3e   ..w.....C.....->
0010  43 43 4b 58 00 00 00 00 0a e6 02 00 00 00 00 00   CCKX............
0020  0f 00 00 00 00 00 00 00 00 00 00 00 00 00 00 00   ................
0030  00 00 00 00 00 00 00 00 00 00 00 00 00 00 00 00   ................
No.     Time           Source                Destination           Protocol Length Info
     42 209.890272000  host                  28.2                  USB      79     URB_BULK out

Frame 42: 79 bytes on wire (632 bits), 79 bytes captured (632 bits) on interface 0
    Interface id: 0
    Encapsulation type: USB packets with Linux header and padding (115)
    Arrival Time: Dec 10, 2016 00:50:27.283113000 CET
    [Time shift for this packet: 0.000000000 seconds]
    Epoch Time: 1481327427.283113000 seconds
    [Time delta from previous captured frame: 0.093151000 seconds]
    [Time delta from previous displayed frame: 0.093151000 seconds]
    [Time since reference or first frame: 209.890272000 seconds]
    Frame Number: 42
    Frame Length: 79 bytes (632 bits)
    Capture Length: 79 bytes (632 bits)
    [Frame is marked: False]
    [Frame is ignored: False]
    [Protocols in frame: usb]
USB URB
    URB id: 0x00000000ee9640c0
    URB type: URB_SUBMIT ('S')
    URB transfer type: URB_BULK (0x03)
    Endpoint: 0x02, Direction: OUT
        0... .... = Direction: OUT (0)
        .000 0010 = Endpoint value: 2
    Device: 28
    URB bus id: 4
    Device setup request: not relevant ('-')
    Data: present (0)
    URB sec: 1481327427
    URB usec: 283113
    URB status: Operation now in progress (-EINPROGRESS) (-115)
    URB length [bytes]: 15
    Data length [bytes]: 15
    [Response in: 44]
    [bInterfaceClass: Vendor Specific (0xff)]
Leftover Capture Data: 4d4d12020000040200000082856ad5

0000  c0 40 96 ee 00 00 00 00 53 03 02 1c 04 00 2d 00   .@......S.....-.
0010  43 43 4b 58 00 00 00 00 e9 51 04 00 8d ff ff ff   CCKX.....Q......
0020  0f 00 00 00 0f 00 00 00 00 00 00 00 00 00 00 00   ................
0030  00 00 00 00 00 00 00 00 00 00 00 00 00 00 00 00   ................
0040  4d 4d 12 02 00 00 04 02 00 00 00 82 85 6a d5      MM...........j.
No.     Time           Source                Destination           Protocol Length Info
     43 209.891123000  28.2                  host                  USB      64     URB_BULK out

Frame 43: 64 bytes on wire (512 bits), 64 bytes captured (512 bits) on interface 0
    Interface id: 0
    Encapsulation type: USB packets with Linux header and padding (115)
    Arrival Time: Dec 10, 2016 00:50:27.283964000 CET
    [Time shift for this packet: 0.000000000 seconds]
    Epoch Time: 1481327427.283964000 seconds
    [Time delta from previous captured frame: 0.000851000 seconds]
    [Time delta from previous displayed frame: 0.000851000 seconds]
    [Time since reference or first frame: 209.891123000 seconds]
    Frame Number: 43
    Frame Length: 64 bytes (512 bits)
    Capture Length: 64 bytes (512 bits)
    [Frame is marked: False]
    [Frame is ignored: False]
    [Protocols in frame: usb]
USB URB
    URB id: 0x00000000ee9640c0
    URB type: URB_COMPLETE ('C')
    URB transfer type: URB_BULK (0x03)
    Endpoint: 0x02, Direction: OUT
        0... .... = Direction: OUT (0)
        .000 0010 = Endpoint value: 2
    Device: 28
    URB bus id: 4
    Device setup request: not relevant ('-')
    Data: not present ('>')
    URB sec: 1481327427
    URB usec: 283964
    URB status: Success (0)
    URB length [bytes]: 15
    Data length [bytes]: 0
    [Request in: 42]
    [Time from request: 0.000851000 seconds]
    [bInterfaceClass: Vendor Specific (0xff)]

0000  c0 40 96 ee 00 00 00 00 43 03 02 1c 04 00 2d 3e   .@......C.....->
0010  43 43 4b 58 00 00 00 00 3c 55 04 00 00 00 00 00   CCKX....<U......
0020  0f 00 00 00 00 00 00 00 00 00 00 00 00 00 00 00   ................
0030  00 00 00 00 00 00 00 00 00 00 00 00 00 00 00 00   ................
No.     Time           Source                Destination           Protocol Length Info
     44 209.921140000  28.1                  host                  USB      79     URB_BULK in

Frame 44: 79 bytes on wire (632 bits), 79 bytes captured (632 bits) on interface 0
    Interface id: 0
    Encapsulation type: USB packets with Linux header and padding (115)
    Arrival Time: Dec 10, 2016 00:50:27.313981000 CET
    [Time shift for this packet: 0.000000000 seconds]
    Epoch Time: 1481327427.313981000 seconds
    [Time delta from previous captured frame: 0.030017000 seconds]
    [Time delta from previous displayed frame: 0.030017000 seconds]
    [Time since reference or first frame: 209.921140000 seconds]
    Frame Number: 44
    Frame Length: 79 bytes (632 bits)
    Capture Length: 79 bytes (632 bits)
    [Frame is marked: False]
    [Frame is ignored: False]
    [Protocols in frame: usb]
USB URB
    URB id: 0x00000000f077b9c0
    URB type: URB_COMPLETE ('C')
    URB transfer type: URB_BULK (0x03)
    Endpoint: 0x81, Direction: IN
        1... .... = Direction: IN (1)
        .000 0001 = Endpoint value: 1
    Device: 28
    URB bus id: 4
    Device setup request: not relevant ('-')
    Data: present (0)
    URB sec: 1481327427
    URB usec: 313981
    URB status: Success (0)
    URB length [bytes]: 15
    Data length [bytes]: 15
    [Request in: 42]
    [Time from request: 0.030868000 seconds]
    [bInterfaceClass: Vendor Specific (0xff)]
Leftover Capture Data: 4d4d12010000040200b448f4a4cf28

0000  c0 b9 77 f0 00 00 00 00 43 03 81 1c 04 00 2d 00   ..w.....C.....-.
0010  43 43 4b 58 00 00 00 00 7d ca 04 00 00 00 00 00   CCKX....}.......
0020  0f 00 00 00 0f 00 00 00 00 00 00 00 00 00 00 00   ................
0030  00 00 00 00 00 00 00 00 00 02 00 00 00 00 00 00   ................
0040  4d 4d 12 01 00 00 04 02 00 b4 48 f4 a4 cf 28      MM........H...(
No.     Time           Source                Destination           Protocol Length Info
     45 209.922335000  host                  28.1                  USB      64     URB_BULK in

Frame 45: 64 bytes on wire (512 bits), 64 bytes captured (512 bits) on interface 0
    Interface id: 0
    Encapsulation type: USB packets with Linux header and padding (115)
    Arrival Time: Dec 10, 2016 00:50:27.315176000 CET
    [Time shift for this packet: 0.000000000 seconds]
    Epoch Time: 1481327427.315176000 seconds
    [Time delta from previous captured frame: 0.001195000 seconds]
    [Time delta from previous displayed frame: 0.001195000 seconds]
    [Time since reference or first frame: 209.922335000 seconds]
    Frame Number: 45
    Frame Length: 64 bytes (512 bits)
    Capture Length: 64 bytes (512 bits)
    [Frame is marked: False]
    [Frame is ignored: False]
    [Protocols in frame: usb]
USB URB
    URB id: 0x00000000d11fc300
    URB type: URB_SUBMIT ('S')
    URB transfer type: URB_BULK (0x03)
    Endpoint: 0x81, Direction: IN
        1... .... = Direction: IN (1)
        .000 0001 = Endpoint value: 1
    Device: 28
    URB bus id: 4
    Device setup request: not relevant ('-')
    Data: not present ('<')
    URB sec: 1481327427
    URB usec: 315176
    URB status: Operation now in progress (-EINPROGRESS) (-115)
    URB length [bytes]: 1000
    Data length [bytes]: 0
    [bInterfaceClass: Vendor Specific (0xff)]

0000  00 c3 1f d1 00 00 00 00 53 03 81 1c 04 00 2d 3c   ........S.....-<
0010  43 43 4b 58 00 00 00 00 28 cf 04 00 8d ff ff ff   CCKX....(.......
0020  e8 03 00 00 00 00 00 00 00 00 00 00 00 00 00 00   ................
0030  00 00 00 00 00 00 00 00 00 02 00 00 00 00 00 00   ................
No.     Time           Source                Destination           Protocol Length Info
     46 209.992549000  host                  28.2                  USB      79     URB_BULK out

Frame 46: 79 bytes on wire (632 bits), 79 bytes captured (632 bits) on interface 0
    Interface id: 0
    Encapsulation type: USB packets with Linux header and padding (115)
    Arrival Time: Dec 10, 2016 00:50:27.385390000 CET
    [Time shift for this packet: 0.000000000 seconds]
    Epoch Time: 1481327427.385390000 seconds
    [Time delta from previous captured frame: 0.070214000 seconds]
    [Time delta from previous displayed frame: 0.070214000 seconds]
    [Time since reference or first frame: 209.992549000 seconds]
    Frame Number: 46
    Frame Length: 79 bytes (632 bits)
    Capture Length: 79 bytes (632 bits)
    [Frame is marked: False]
    [Frame is ignored: False]
    [Protocols in frame: usb]
USB URB
    URB id: 0x00000000d11fce40
    URB type: URB_SUBMIT ('S')
    URB transfer type: URB_BULK (0x03)
    Endpoint: 0x02, Direction: OUT
        0... .... = Direction: OUT (0)
        .000 0010 = Endpoint value: 2
    Device: 28
    URB bus id: 4
    Device setup request: not relevant ('-')
    Data: present (0)
    URB sec: 1481327427
    URB usec: 385390
    URB status: Operation now in progress (-EINPROGRESS) (-115)
    URB length [bytes]: 15
    Data length [bytes]: 15
    [Response in: 48]
    [bInterfaceClass: Vendor Specific (0xff)]
Leftover Capture Data: 4d4d12020000040200000082856ad5

0000  40 ce 1f d1 00 00 00 00 53 03 02 1c 04 00 2d 00   @.......S.....-.
0010  43 43 4b 58 00 00 00 00 6e e1 05 00 8d ff ff ff   CCKX....n.......
0020  0f 00 00 00 0f 00 00 00 00 00 00 00 00 00 00 00   ................
0030  00 00 00 00 00 00 00 00 00 00 00 00 00 00 00 00   ................
0040  4d 4d 12 02 00 00 04 02 00 00 00 82 85 6a d5      MM...........j.
No.     Time           Source                Destination           Protocol Length Info
     47 209.993137000  28.2                  host                  USB      64     URB_BULK out

Frame 47: 64 bytes on wire (512 bits), 64 bytes captured (512 bits) on interface 0
    Interface id: 0
    Encapsulation type: USB packets with Linux header and padding (115)
    Arrival Time: Dec 10, 2016 00:50:27.385978000 CET
    [Time shift for this packet: 0.000000000 seconds]
    Epoch Time: 1481327427.385978000 seconds
    [Time delta from previous captured frame: 0.000588000 seconds]
    [Time delta from previous displayed frame: 0.000588000 seconds]
    [Time since reference or first frame: 209.993137000 seconds]
    Frame Number: 47
    Frame Length: 64 bytes (512 bits)
    Capture Length: 64 bytes (512 bits)
    [Frame is marked: False]
    [Frame is ignored: False]
    [Protocols in frame: usb]
USB URB
    URB id: 0x00000000d11fce40
    URB type: URB_COMPLETE ('C')
    URB transfer type: URB_BULK (0x03)
    Endpoint: 0x02, Direction: OUT
        0... .... = Direction: OUT (0)
        .000 0010 = Endpoint value: 2
    Device: 28
    URB bus id: 4
    Device setup request: not relevant ('-')
    Data: not present ('>')
    URB sec: 1481327427
    URB usec: 385978
    URB status: Success (0)
    URB length [bytes]: 15
    Data length [bytes]: 0
    [Request in: 46]
    [Time from request: 0.000588000 seconds]
    [bInterfaceClass: Vendor Specific (0xff)]

0000  40 ce 1f d1 00 00 00 00 43 03 02 1c 04 00 2d 3e   @.......C.....->
0010  43 43 4b 58 00 00 00 00 ba e3 05 00 00 00 00 00   CCKX............
0020  0f 00 00 00 00 00 00 00 00 00 00 00 00 00 00 00   ................
0030  00 00 00 00 00 00 00 00 00 00 00 00 00 00 00 00   ................
No.     Time           Source                Destination           Protocol Length Info
     48 210.086142000  28.1                  host                  USB      79     URB_BULK in

Frame 48: 79 bytes on wire (632 bits), 79 bytes captured (632 bits) on interface 0
    Interface id: 0
    Encapsulation type: USB packets with Linux header and padding (115)
    Arrival Time: Dec 10, 2016 00:50:27.478983000 CET
    [Time shift for this packet: 0.000000000 seconds]
    Epoch Time: 1481327427.478983000 seconds
    [Time delta from previous captured frame: 0.093005000 seconds]
    [Time delta from previous displayed frame: 0.093005000 seconds]
    [Time since reference or first frame: 210.086142000 seconds]
    Frame Number: 48
    Frame Length: 79 bytes (632 bits)
    Capture Length: 79 bytes (632 bits)
    [Frame is marked: False]
    [Frame is ignored: False]
    [Protocols in frame: usb]
USB URB
    URB id: 0x00000000d11fc300
    URB type: URB_COMPLETE ('C')
    URB transfer type: URB_BULK (0x03)
    Endpoint: 0x81, Direction: IN
        1... .... = Direction: IN (1)
        .000 0001 = Endpoint value: 1
    Device: 28
    URB bus id: 4
    Device setup request: not relevant ('-')
    Data: present (0)
