No.     Time           Source                Destination           Protocol Length Info
      1 0.000000000    host                  23.0                  USB      64     GET DESCRIPTOR Request DEVICE

Frame 1: 64 bytes on wire (512 bits), 64 bytes captured (512 bits) on interface 0
    Interface id: 0
    Encapsulation type: USB packets with Linux header and padding (115)
    Arrival Time: Dec 10, 2016 00:09:28.650770000 CET
    [Time shift for this packet: 0.000000000 seconds]
    Epoch Time: 1481324968.650770000 seconds
    [Time delta from previous captured frame: 0.000000000 seconds]
    [Time delta from previous displayed frame: 0.000000000 seconds]
    [Time since reference or first frame: 0.000000000 seconds]
    Frame Number: 1
    Frame Length: 64 bytes (512 bits)
    Capture Length: 64 bytes (512 bits)
    [Frame is marked: False]
    [Frame is ignored: False]
    [Protocols in frame: usb]
USB URB
    URB id: 0x00000000d11ec6c0
    URB type: URB_SUBMIT ('S')
    URB transfer type: URB_CONTROL (0x02)
    Endpoint: 0x80, Direction: IN
        1... .... = Direction: IN (1)
        .000 0000 = Endpoint value: 0
    Device: 23
    URB bus id: 4
    Device setup request: relevant (0)
    Data: not present ('<')
    URB sec: 1481324968
    URB usec: 650770
    URB status: Operation now in progress (-EINPROGRESS) (-115)
    URB length [bytes]: 40
    Data length [bytes]: 0
    [Response in: 2]
URB setup
    bmRequestType: 0x80
        1... .... = Direction: Device-to-host
        .00. .... = Type: Standard (0x00)
        ...0 0000 = Recipient: Device (0x00)
    bRequest: GET DESCRIPTOR (6)
    Descriptor Index: 0x00
    bDescriptorType: DEVICE (1)
    Language Id: no language specified (0x0000)
    wLength: 40

0000  c0 c6 1e d1 00 00 00 00 53 02 80 17 04 00 00 3c   ........S......<
0010  a8 39 4b 58 00 00 00 00 12 ee 09 00 8d ff ff ff   .9KX............
0020  28 00 00 00 00 00 00 00 80 06 00 01 00 00 28 00   (.............(.
0030  00 00 00 00 00 00 00 00 00 02 00 00 00 00 00 00   ................
No.     Time           Source                Destination           Protocol Length Info
      2 0.000899000    23.0                  host                  USB      82     GET DESCRIPTOR Response DEVICE

Frame 2: 82 bytes on wire (656 bits), 82 bytes captured (656 bits) on interface 0
    Interface id: 0
    Encapsulation type: USB packets with Linux header and padding (115)
    Arrival Time: Dec 10, 2016 00:09:28.651669000 CET
    [Time shift for this packet: 0.000000000 seconds]
    Epoch Time: 1481324968.651669000 seconds
    [Time delta from previous captured frame: 0.000899000 seconds]
    [Time delta from previous displayed frame: 0.000899000 seconds]
    [Time since reference or first frame: 0.000899000 seconds]
    Frame Number: 2
    Frame Length: 82 bytes (656 bits)
    Capture Length: 82 bytes (656 bits)
    [Frame is marked: False]
    [Frame is ignored: False]
    [Protocols in frame: usb]
USB URB
    URB id: 0x00000000d11ec6c0
    URB type: URB_COMPLETE ('C')
    URB transfer type: URB_CONTROL (0x02)
    Endpoint: 0x80, Direction: IN
        1... .... = Direction: IN (1)
        .000 0000 = Endpoint value: 0
    Device: 23
    URB bus id: 4
    Device setup request: not relevant ('-')
    Data: present (0)
    URB sec: 1481324968
    URB usec: 651669
    URB status: Success (0)
    URB length [bytes]: 18
    Data length [bytes]: 18
    [Request in: 1]
    [Time from request: 0.000899000 seconds]
    [bInterfaceClass: Unknown (0xffff)]
DEVICE DESCRIPTOR
    bLength: 18
    bDescriptorType: DEVICE (1)
    bcdUSB: 0x0110
    bDeviceClass: Vendor Specific (0xff)
    bDeviceSubClass: 255
    bDeviceProtocol: 255
    bMaxPacketSize0: 8
    idVendor: Cybiko Inc. (0x0b66)
    idProduct: Xtreme (0x0041)
    bcdDevice: 0x0001
    iManufacturer: 4
    iProduct: 28
    iSerialNumber: 0
    bNumConfigurations: 1

0000  c0 c6 1e d1 00 00 00 00 43 02 80 17 04 00 2d 00   ........C.....-.
0010  a8 39 4b 58 00 00 00 00 95 f1 09 00 00 00 00 00   .9KX............
0020  12 00 00 00 12 00 00 00 00 00 00 00 00 00 00 00   ................
0030  00 00 00 00 00 00 00 00 00 02 00 00 00 00 00 00   ................
0040  12 01 10 01 ff ff ff 08 66 0b 41 00 01 00 04 1c   ........f.A.....
0050  00 01                                             ..
No.     Time           Source                Destination           Protocol Length Info
      5 17.312829000   host                  23.0                  USB      64     GET DESCRIPTOR Request DEVICE

Frame 5: 64 bytes on wire (512 bits), 64 bytes captured (512 bits) on interface 0
    Interface id: 0
    Encapsulation type: USB packets with Linux header and padding (115)
    Arrival Time: Dec 10, 2016 00:09:45.963599000 CET
    [Time shift for this packet: 0.000000000 seconds]
    Epoch Time: 1481324985.963599000 seconds
    [Time delta from previous captured frame: 17.311852000 seconds]
    [Time delta from previous displayed frame: 17.311930000 seconds]
    [Time since reference or first frame: 17.312829000 seconds]
    Frame Number: 5
    Frame Length: 64 bytes (512 bits)
    Capture Length: 64 bytes (512 bits)
    [Frame is marked: False]
    [Frame is ignored: False]
    [Protocols in frame: usb]
USB URB
    URB id: 0x00000000f5053f00
    URB type: URB_SUBMIT ('S')
    URB transfer type: URB_CONTROL (0x02)
    Endpoint: 0x80, Direction: IN
        1... .... = Direction: IN (1)
        .000 0000 = Endpoint value: 0
    Device: 23
    URB bus id: 4
    Device setup request: relevant (0)
    Data: not present ('<')
    URB sec: 1481324985
    URB usec: 963599
    URB status: Operation now in progress (-EINPROGRESS) (-115)
    URB length [bytes]: 18
    Data length [bytes]: 0
    [Response in: 6]
URB setup
    bmRequestType: 0x80
        1... .... = Direction: Device-to-host
        .00. .... = Type: Standard (0x00)
        ...0 0000 = Recipient: Device (0x00)
    bRequest: GET DESCRIPTOR (6)
    Descriptor Index: 0x00
    bDescriptorType: DEVICE (1)
    Language Id: no language specified (0x0000)
    wLength: 18

0000  00 3f 05 f5 00 00 00 00 53 02 80 17 04 00 00 3c   .?......S......<
0010  b9 39 4b 58 00 00 00 00 0f b4 0e 00 8d ff ff ff   .9KX............
0020  12 00 00 00 00 00 00 00 80 06 00 01 00 00 12 00   ................
0030  00 00 00 00 00 00 00 00 00 02 00 00 00 00 00 00   ................
No.     Time           Source                Destination           Protocol Length Info
      6 17.313900000   23.0                  host                  USB      82     GET DESCRIPTOR Response DEVICE

Frame 6: 82 bytes on wire (656 bits), 82 bytes captured (656 bits) on interface 0
    Interface id: 0
    Encapsulation type: USB packets with Linux header and padding (115)
    Arrival Time: Dec 10, 2016 00:09:45.964670000 CET
    [Time shift for this packet: 0.000000000 seconds]
    Epoch Time: 1481324985.964670000 seconds
    [Time delta from previous captured frame: 0.001071000 seconds]
    [Time delta from previous displayed frame: 0.001071000 seconds]
    [Time since reference or first frame: 17.313900000 seconds]
    Frame Number: 6
    Frame Length: 82 bytes (656 bits)
    Capture Length: 82 bytes (656 bits)
    [Frame is marked: False]
    [Frame is ignored: False]
    [Protocols in frame: usb]
USB URB
    URB id: 0x00000000f5053f00
    URB type: URB_COMPLETE ('C')
    URB transfer type: URB_CONTROL (0x02)
    Endpoint: 0x80, Direction: IN
        1... .... = Direction: IN (1)
        .000 0000 = Endpoint value: 0
    Device: 23
    URB bus id: 4
    Device setup request: not relevant ('-')
    Data: present (0)
    URB sec: 1481324985
    URB usec: 964670
    URB status: Success (0)
    URB length [bytes]: 18
    Data length [bytes]: 18
    [Request in: 5]
    [Time from request: 0.001071000 seconds]
    [bInterfaceClass: Unknown (0xffff)]
DEVICE DESCRIPTOR
    bLength: 18
    bDescriptorType: DEVICE (1)
    bcdUSB: 0x0110
    bDeviceClass: Vendor Specific (0xff)
    bDeviceSubClass: 255
    bDeviceProtocol: 255
    bMaxPacketSize0: 8
    idVendor: Cybiko Inc. (0x0b66)
    idProduct: Xtreme (0x0041)
    bcdDevice: 0x0001
    iManufacturer: 4
    iProduct: 28
    iSerialNumber: 0
    bNumConfigurations: 1

0000  00 3f 05 f5 00 00 00 00 43 02 80 17 04 00 2d 00   .?......C.....-.
0010  b9 39 4b 58 00 00 00 00 3e b8 0e 00 00 00 00 00   .9KX....>.......
0020  12 00 00 00 12 00 00 00 00 00 00 00 00 00 00 00   ................
0030  00 00 00 00 00 00 00 00 00 02 00 00 00 00 00 00   ................
0040  12 01 10 01 ff ff ff 08 66 0b 41 00 01 00 04 1c   ........f.A.....
0050  00 01                                             ..
No.     Time           Source                Destination           Protocol Length Info
      7 17.313941000   host                  23.0                  USB      64     GET DESCRIPTOR Request CONFIGURATION

Frame 7: 64 bytes on wire (512 bits), 64 bytes captured (512 bits) on interface 0
    Interface id: 0
    Encapsulation type: USB packets with Linux header and padding (115)
    Arrival Time: Dec 10, 2016 00:09:45.964711000 CET
    [Time shift for this packet: 0.000000000 seconds]
    Epoch Time: 1481324985.964711000 seconds
    [Time delta from previous captured frame: 0.000041000 seconds]
    [Time delta from previous displayed frame: 0.000041000 seconds]
    [Time since reference or first frame: 17.313941000 seconds]
    Frame Number: 7
    Frame Length: 64 bytes (512 bits)
    Capture Length: 64 bytes (512 bits)
    [Frame is marked: False]
    [Frame is ignored: False]
    [Protocols in frame: usb]
USB URB
    URB id: 0x00000000f5053f00
    URB type: URB_SUBMIT ('S')
    URB transfer type: URB_CONTROL (0x02)
    Endpoint: 0x80, Direction: IN
        1... .... = Direction: IN (1)
        .000 0000 = Endpoint value: 0
    Device: 23
    URB bus id: 4
    Device setup request: relevant (0)
    Data: not present ('<')
    URB sec: 1481324985
    URB usec: 964711
    URB status: Operation now in progress (-EINPROGRESS) (-115)
    URB length [bytes]: 9
    Data length [bytes]: 0
    [Response in: 8]
URB setup
    bmRequestType: 0x80
        1... .... = Direction: Device-to-host
        .00. .... = Type: Standard (0x00)
        ...0 0000 = Recipient: Device (0x00)
    bRequest: GET DESCRIPTOR (6)
    Descriptor Index: 0x00
    bDescriptorType: CONFIGURATION (2)
    Language Id: no language specified (0x0000)
    wLength: 9

0000  00 3f 05 f5 00 00 00 00 53 02 80 17 04 00 00 3c   .?......S......<
0010  b9 39 4b 58 00 00 00 00 67 b8 0e 00 8d ff ff ff   .9KX....g.......
0020  09 00 00 00 00 00 00 00 80 06 00 02 00 00 09 00   ................
0030  00 00 00 00 00 00 00 00 00 02 00 00 00 00 00 00   ................
No.     Time           Source                Destination           Protocol Length Info
      8 17.315879000   23.0                  host                  USB      73     GET DESCRIPTOR Response CONFIGURATION

Frame 8: 73 bytes on wire (584 bits), 73 bytes captured (584 bits) on interface 0
    Interface id: 0
    Encapsulation type: USB packets with Linux header and padding (115)
    Arrival Time: Dec 10, 2016 00:09:45.966649000 CET
    [Time shift for this packet: 0.000000000 seconds]
    Epoch Time: 1481324985.966649000 seconds
    [Time delta from previous captured frame: 0.001938000 seconds]
    [Time delta from previous displayed frame: 0.001938000 seconds]
    [Time since reference or first frame: 17.315879000 seconds]
    Frame Number: 8
    Frame Length: 73 bytes (584 bits)
    Capture Length: 73 bytes (584 bits)
    [Frame is marked: False]
    [Frame is ignored: False]
    [Protocols in frame: usb]
USB URB
    URB id: 0x00000000f5053f00
    URB type: URB_COMPLETE ('C')
    URB transfer type: URB_CONTROL (0x02)
    Endpoint: 0x80, Direction: IN
        1... .... = Direction: IN (1)
        .000 0000 = Endpoint value: 0
    Device: 23
    URB bus id: 4
    Device setup request: not relevant ('-')
    Data: present (0)
    URB sec: 1481324985
    URB usec: 966649
    URB status: Success (0)
    URB length [bytes]: 9
    Data length [bytes]: 9
    [Request in: 7]
    [Time from request: 0.001938000 seconds]
    [bInterfaceClass: Unknown (0xffff)]
CONFIGURATION DESCRIPTOR
    bLength: 9
    bDescriptorType: CONFIGURATION (2)
    wTotalLength: 46
    bNumInterfaces: 1
    bConfigurationValue: 1
    iConfiguration: 56
    Configuration bmAttributes: 0x80  NOT SELF-POWERED  NO REMOTE-WAKEUP
        1... .... = Must be 1: Must be 1 for USB 1.1 and higher
        .0.. .... = Self-Powered: This device is powered from the USB bus
        ..0. .... = Remote Wakeup: This device does NOT support remote wakeup
    bMaxPower: 150  (300mA)

0000  00 3f 05 f5 00 00 00 00 43 02 80 17 04 00 2d 00   .?......C.....-.
0010  b9 39 4b 58 00 00 00 00 f9 bf 0e 00 00 00 00 00   .9KX............
0020  09 00 00 00 09 00 00 00 00 00 00 00 00 00 00 00   ................
0030  00 00 00 00 00 00 00 00 00 02 00 00 00 00 00 00   ................
0040  09 02 2e 00 01 01 38 80 96                        ......8..
No.     Time           Source                Destination           Protocol Length Info
      9 17.315942000   host                  23.0                  USB      64     GET DESCRIPTOR Request CONFIGURATION

Frame 9: 64 bytes on wire (512 bits), 64 bytes captured (512 bits) on interface 0
    Interface id: 0
    Encapsulation type: USB packets with Linux header and padding (115)
    Arrival Time: Dec 10, 2016 00:09:45.966712000 CET
    [Time shift for this packet: 0.000000000 seconds]
    Epoch Time: 1481324985.966712000 seconds
    [Time delta from previous captured frame: 0.000063000 seconds]
    [Time delta from previous displayed frame: 0.000063000 seconds]
    [Time since reference or first frame: 17.315942000 seconds]
    Frame Number: 9
    Frame Length: 64 bytes (512 bits)
    Capture Length: 64 bytes (512 bits)
    [Frame is marked: False]
    [Frame is ignored: False]
    [Protocols in frame: usb]
USB URB
    URB id: 0x00000000f5053f00
    URB type: URB_SUBMIT ('S')
    URB transfer type: URB_CONTROL (0x02)
    Endpoint: 0x80, Direction: IN
        1... .... = Direction: IN (1)
        .000 0000 = Endpoint value: 0
    Device: 23
    URB bus id: 4
    Device setup request: relevant (0)
    Data: not present ('<')
    URB sec: 1481324985
    URB usec: 966712
    URB status: Operation now in progress (-EINPROGRESS) (-115)
    URB length [bytes]: 46
    Data length [bytes]: 0
    [Response in: 10]
URB setup
    bmRequestType: 0x80
        1... .... = Direction: Device-to-host
        .00. .... = Type: Standard (0x00)
        ...0 0000 = Recipient: Device (0x00)
    bRequest: GET DESCRIPTOR (6)
    Descriptor Index: 0x00
    bDescriptorType: CONFIGURATION (2)
    Language Id: no language specified (0x0000)
    wLength: 46

0000  00 3f 05 f5 00 00 00 00 53 02 80 17 04 00 00 3c   .?......S......<
0010  b9 39 4b 58 00 00 00 00 38 c0 0e 00 8d ff ff ff   .9KX....8.......
0020  2e 00 00 00 00 00 00 00 80 06 00 02 00 00 2e 00   ................
0030  00 00 00 00 00 00 00 00 00 02 00 00 00 00 00 00   ................
No.     Time           Source                Destination           Protocol Length Info
     10 17.318897000   23.0                  host                  USB      110    GET DESCRIPTOR Response CONFIGURATION

Frame 10: 110 bytes on wire (880 bits), 110 bytes captured (880 bits) on interface 0
    Interface id: 0
    Encapsulation type: USB packets with Linux header and padding (115)
    Arrival Time: Dec 10, 2016 00:09:45.969667000 CET
    [Time shift for this packet: 0.000000000 seconds]
    Epoch Time: 1481324985.969667000 seconds
    [Time delta from previous captured frame: 0.002955000 seconds]
    [Time delta from previous displayed frame: 0.002955000 seconds]
    [Time since reference or first frame: 17.318897000 seconds]
    Frame Number: 10
    Frame Length: 110 bytes (880 bits)
    Capture Length: 110 bytes (880 bits)
    [Frame is marked: False]
    [Frame is ignored: False]
    [Protocols in frame: usb]
USB URB
    URB id: 0x00000000f5053f00
    URB type: URB_COMPLETE ('C')
    URB transfer type: URB_CONTROL (0x02)
    Endpoint: 0x80, Direction: IN
        1... .... = Direction: IN (1)
        .000 0000 = Endpoint value: 0
    Device: 23
    URB bus id: 4
    Device setup request: not relevant ('-')
    Data: present (0)
    URB sec: 1481324985
    URB usec: 969667
    URB status: Success (0)
    URB length [bytes]: 46
    Data length [bytes]: 46
    [Request in: 9]
    [Time from request: 0.002955000 seconds]
    [bInterfaceClass: Unknown (0xffff)]
CONFIGURATION DESCRIPTOR
    bLength: 9
    bDescriptorType: CONFIGURATION (2)
    wTotalLength: 46
    bNumInterfaces: 1
    bConfigurationValue: 1
    iConfiguration: 56
    Configuration bmAttributes: 0x80  NOT SELF-POWERED  NO REMOTE-WAKEUP
        1... .... = Must be 1: Must be 1 for USB 1.1 and higher
        .0.. .... = Self-Powered: This device is powered from the USB bus
        ..0. .... = Remote Wakeup: This device does NOT support remote wakeup
    bMaxPower: 150  (300mA)
INTERFACE DESCRIPTOR (0.0): class Vendor Specific
    bLength: 9
    bDescriptorType: INTERFACE (4)
    bInterfaceNumber: 0
    bAlternateSetting: 0
    bNumEndpoints: 4
    bInterfaceClass: Vendor Specific (0xff)
    bInterfaceSubClass: 0xff
    bInterfaceProtocol: 0xff
    iInterface: 0
ENDPOINT DESCRIPTOR
    bLength: 7
    bDescriptorType: ENDPOINT (5)
    bEndpointAddress: 0x81  IN  Endpoint:1
        1... .... = Direction: IN Endpoint
        .... 0001 = Endpoint Number: 0x01
    bmAttributes: 0x02
        .... ..10 = Transfertype: Bulk-Transfer (0x02)
        .... 00.. = Synchronisationtype: No Sync (0x00)
        ..00 .... = Behaviourtype: Data-Endpoint (0x00)
    wMaxPacketSize: 64
        .... ..00 0100 0000 = Maximum Packet Size: 64
    bInterval: 0
ENDPOINT DESCRIPTOR
    bLength: 7
    bDescriptorType: ENDPOINT (5)
    bEndpointAddress: 0x02  OUT  Endpoint:2
        0... .... = Direction: OUT Endpoint
        .... 0010 = Endpoint Number: 0x02
    bmAttributes: 0x02
        .... ..10 = Transfertype: Bulk-Transfer (0x02)
        .... 00.. = Synchronisationtype: No Sync (0x00)
        ..00 .... = Behaviourtype: Data-Endpoint (0x00)
    wMaxPacketSize: 64
        .... ..00 0100 0000 = Maximum Packet Size: 64
    bInterval: 0
ENDPOINT DESCRIPTOR
    bLength: 7
    bDescriptorType: ENDPOINT (5)
    bEndpointAddress: 0x83  IN  Endpoint:3
        1... .... = Direction: IN Endpoint
        .... 0011 = Endpoint Number: 0x03
    bmAttributes: 0x02
        .... ..10 = Transfertype: Bulk-Transfer (0x02)
        .... 00.. = Synchronisationtype: No Sync (0x00)
        ..00 .... = Behaviourtype: Data-Endpoint (0x00)
    wMaxPacketSize: 64
        .... ..00 0100 0000 = Maximum Packet Size: 64
    bInterval: 0
ENDPOINT DESCRIPTOR
    bLength: 7
    bDescriptorType: ENDPOINT (5)
    bEndpointAddress: 0x04  OUT  Endpoint:4
        0... .... = Direction: OUT Endpoint
        .... 0100 = Endpoint Number: 0x04
    bmAttributes: 0x02
        .... ..10 = Transfertype: Bulk-Transfer (0x02)
        .... 00.. = Synchronisationtype: No Sync (0x00)
        ..00 .... = Behaviourtype: Data-Endpoint (0x00)
    wMaxPacketSize: 64
        .... ..00 0100 0000 = Maximum Packet Size: 64
    bInterval: 0

0000  00 3f 05 f5 00 00 00 00 43 02 80 17 04 00 2d 00   .?......C.....-.
0010  b9 39 4b 58 00 00 00 00 c3 cb 0e 00 00 00 00 00   .9KX............
0020  2e 00 00 00 2e 00 00 00 00 00 00 00 00 00 00 00   ................
0030  00 00 00 00 00 00 00 00 00 02 00 00 00 00 00 00   ................
0040  09 02 2e 00 01 01 38 80 96 09 04 00 00 04 ff ff   ......8.........
0050  ff 00 07 05 81 02 40 00 00 07 05 02 02 40 00 00   ......@......@..
0060  07 05 83 02 40 00 00 07 05 04 02 40 00 00         ....@......@..
No.     Time           Source                Destination           Protocol Length Info
     11 17.476682000   host                  23.0                  USB      64     GET DESCRIPTOR Request DEVICE

Frame 11: 64 bytes on wire (512 bits), 64 bytes captured (512 bits) on interface 0
    Interface id: 0
    Encapsulation type: USB packets with Linux header and padding (115)
    Arrival Time: Dec 10, 2016 00:09:46.127452000 CET
    [Time shift for this packet: 0.000000000 seconds]
    Epoch Time: 1481324986.127452000 seconds
    [Time delta from previous captured frame: 0.157785000 seconds]
    [Time delta from previous displayed frame: 0.157785000 seconds]
    [Time since reference or first frame: 17.476682000 seconds]
    Frame Number: 11
    Frame Length: 64 bytes (512 bits)
    Capture Length: 64 bytes (512 bits)
    [Frame is marked: False]
    [Frame is ignored: False]
    [Protocols in frame: usb]
USB URB
    URB id: 0x00000000f5053f00
    URB type: URB_SUBMIT ('S')
    URB transfer type: URB_CONTROL (0x02)
    Endpoint: 0x80, Direction: IN
        1... .... = Direction: IN (1)
        .000 0000 = Endpoint value: 0
    Device: 23
    URB bus id: 4
    Device setup request: relevant (0)
    Data: not present ('<')
    URB sec: 1481324986
    URB usec: 127452
    URB status: Operation now in progress (-EINPROGRESS) (-115)
    URB length [bytes]: 64
    Data length [bytes]: 0
    [Response in: 12]
URB setup
    bmRequestType: 0x80
        1... .... = Direction: Device-to-host
        .00. .... = Type: Standard (0x00)
        ...0 0000 = Recipient: Device (0x00)
    bRequest: GET DESCRIPTOR (6)
    Descriptor Index: 0x00
    bDescriptorType: DEVICE (1)
    Language Id: no language specified (0x0000)
    wLength: 64

0000  00 3f 05 f5 00 00 00 00 53 02 80 17 04 00 00 3c   .?......S......<
0010  ba 39 4b 58 00 00 00 00 dc f1 01 00 8d ff ff ff   .9KX............
0020  40 00 00 00 00 00 00 00 80 06 00 01 00 00 40 00   @.............@.
0030  00 00 00 00 00 00 00 00 00 02 00 00 00 00 00 00   ................
No.     Time           Source                Destination           Protocol Length Info
     12 17.477897000   23.0                  host                  USB      82     GET DESCRIPTOR Response DEVICE

Frame 12: 82 bytes on wire (656 bits), 82 bytes captured (656 bits) on interface 0
    Interface id: 0
    Encapsulation type: USB packets with Linux header and padding (115)
    Arrival Time: Dec 10, 2016 00:09:46.128667000 CET
    [Time shift for this packet: 0.000000000 seconds]
    Epoch Time: 1481324986.128667000 seconds
    [Time delta from previous captured frame: 0.001215000 seconds]
    [Time delta from previous displayed frame: 0.001215000 seconds]
    [Time since reference or first frame: 17.477897000 seconds]
    Frame Number: 12
    Frame Length: 82 bytes (656 bits)
    Capture Length: 82 bytes (656 bits)
    [Frame is marked: False]
    [Frame is ignored: False]
    [Protocols in frame: usb]
USB URB
    URB id: 0x00000000f5053f00
    URB type: URB_COMPLETE ('C')
    URB transfer type: URB_CONTROL (0x02)
    Endpoint: 0x80, Direction: IN
        1... .... = Direction: IN (1)
        .000 0000 = Endpoint value: 0
    Device: 23
    URB bus id: 4
    Device setup request: not relevant ('-')
    Data: present (0)
    URB sec: 1481324986
    URB usec: 128667
    URB status: Success (0)
    URB length [bytes]: 18
    Data length [bytes]: 18
    [Request in: 11]
    [Time from request: 0.001215000 seconds]
    [bInterfaceClass: Unknown (0xffff)]
DEVICE DESCRIPTOR
    bLength: 18
    bDescriptorType: DEVICE (1)
    bcdUSB: 0x0110
    bDeviceClass: Vendor Specific (0xff)
    bDeviceSubClass: 255
    bDeviceProtocol: 255
    bMaxPacketSize0: 8
    idVendor: Cybiko Inc. (0x0b66)
    idProduct: Xtreme (0x0041)
    bcdDevice: 0x0001
    iManufacturer: 4
    iProduct: 28
    iSerialNumber: 0
    bNumConfigurations: 1

0000  00 3f 05 f5 00 00 00 00 43 02 80 17 04 00 2d 00   .?......C.....-.
0010  ba 39 4b 58 00 00 00 00 9b f6 01 00 00 00 00 00   .9KX............
0020  12 00 00 00 12 00 00 00 00 00 00 00 00 00 00 00   ................
0030  00 00 00 00 00 00 00 00 00 02 00 00 00 00 00 00   ................
0040  12 01 10 01 ff ff ff 08 66 0b 41 00 01 00 04 1c   ........f.A.....
0050  00 01                                             ..
No.     Time           Source                Destination           Protocol Length Info
     13 17.527966000   host                  23.0                  USB      64     GET DESCRIPTOR Request DEVICE

Frame 13: 64 bytes on wire (512 bits), 64 bytes captured (512 bits) on interface 0
    Interface id: 0
    Encapsulation type: USB packets with Linux header and padding (115)
    Arrival Time: Dec 10, 2016 00:09:46.178736000 CET
    [Time shift for this packet: 0.000000000 seconds]
    Epoch Time: 1481324986.178736000 seconds
    [Time delta from previous captured frame: 0.050069000 seconds]
    [Time delta from previous displayed frame: 0.050069000 seconds]
    [Time since reference or first frame: 17.527966000 seconds]
    Frame Number: 13
    Frame Length: 64 bytes (512 bits)
    Capture Length: 64 bytes (512 bits)
    [Frame is marked: False]
    [Frame is ignored: False]
    [Protocols in frame: usb]
USB URB
    URB id: 0x00000000f5053cc0
    URB type: URB_SUBMIT ('S')
    URB transfer type: URB_CONTROL (0x02)
    Endpoint: 0x80, Direction: IN
        1... .... = Direction: IN (1)
        .000 0000 = Endpoint value: 0
    Device: 23
    URB bus id: 4
    Device setup request: relevant (0)
    Data: not present ('<')
    URB sec: 1481324986
    URB usec: 178736
    URB status: Operation now in progress (-EINPROGRESS) (-115)
    URB length [bytes]: 18
    Data length [bytes]: 0
    [Response in: 14]
URB setup
    bmRequestType: 0x80
        1... .... = Direction: Device-to-host
        .00. .... = Type: Standard (0x00)
        ...0 0000 = Recipient: Device (0x00)
    bRequest: GET DESCRIPTOR (6)
    Descriptor Index: 0x00
    bDescriptorType: DEVICE (1)
    Language Id: no language specified (0x0000)
    wLength: 18

0000  c0 3c 05 f5 00 00 00 00 53 02 80 17 04 00 00 3c   .<......S......<
0010  ba 39 4b 58 00 00 00 00 30 ba 02 00 8d ff ff ff   .9KX....0.......
0020  12 00 00 00 00 00 00 00 80 06 00 01 00 00 12 00   ................
0030  00 00 00 00 00 00 00 00 00 02 00 00 00 00 00 00   ................
No.     Time           Source                Destination           Protocol Length Info
     14 17.528887000   23.0                  host                  USB      82     GET DESCRIPTOR Response DEVICE

Frame 14: 82 bytes on wire (656 bits), 82 bytes captured (656 bits) on interface 0
    Interface id: 0
    Encapsulation type: USB packets with Linux header and padding (115)
    Arrival Time: Dec 10, 2016 00:09:46.179657000 CET
    [Time shift for this packet: 0.000000000 seconds]
    Epoch Time: 1481324986.179657000 seconds
    [Time delta from previous captured frame: 0.000921000 seconds]
    [Time delta from previous displayed frame: 0.000921000 seconds]
    [Time since reference or first frame: 17.528887000 seconds]
    Frame Number: 14
    Frame Length: 82 bytes (656 bits)
    Capture Length: 82 bytes (656 bits)
    [Frame is marked: False]
    [Frame is ignored: False]
    [Protocols in frame: usb]
USB URB
    URB id: 0x00000000f5053cc0
    URB type: URB_COMPLETE ('C')
    URB transfer type: URB_CONTROL (0x02)
    Endpoint: 0x80, Direction: IN
        1... .... = Direction: IN (1)
        .000 0000 = Endpoint value: 0
    Device: 23
    URB bus id: 4
    Device setup request: not relevant ('-')
    Data: present (0)
    URB sec: 1481324986
    URB usec: 179657
    URB status: Success (0)
    URB length [bytes]: 18
    Data length [bytes]: 18
    [Request in: 13]
    [Time from request: 0.000921000 seconds]
    [bInterfaceClass: Unknown (0xffff)]
DEVICE DESCRIPTOR
    bLength: 18
    bDescriptorType: DEVICE (1)
    bcdUSB: 0x0110
    bDeviceClass: Vendor Specific (0xff)
    bDeviceSubClass: 255
    bDeviceProtocol: 255
    bMaxPacketSize0: 8
    idVendor: Cybiko Inc. (0x0b66)
    idProduct: Xtreme (0x0041)
    bcdDevice: 0x0001
    iManufacturer: 4
    iProduct: 28
    iSerialNumber: 0
    bNumConfigurations: 1

0000  c0 3c 05 f5 00 00 00 00 43 02 80 17 04 00 2d 00   .<......C.....-.
0010  ba 39 4b 58 00 00 00 00 c9 bd 02 00 00 00 00 00   .9KX............
0020  12 00 00 00 12 00 00 00 00 00 00 00 00 00 00 00   ................
0030  00 00 00 00 00 00 00 00 00 02 00 00 00 00 00 00   ................
0040  12 01 10 01 ff ff ff 08 66 0b 41 00 01 00 04 1c   ........f.A.....
0050  00 01                                             ..
No.     Time           Source                Destination           Protocol Length Info
     15 17.531197000   host                  23.0                  USB      64     GET DESCRIPTOR Request CONFIGURATION

Frame 15: 64 bytes on wire (512 bits), 64 bytes captured (512 bits) on interface 0
    Interface id: 0
    Encapsulation type: USB packets with Linux header and padding (115)
    Arrival Time: Dec 10, 2016 00:09:46.181967000 CET
    [Time shift for this packet: 0.000000000 seconds]
    Epoch Time: 1481324986.181967000 seconds
    [Time delta from previous captured frame: 0.002310000 seconds]
    [Time delta from previous displayed frame: 0.002310000 seconds]
    [Time since reference or first frame: 17.531197000 seconds]
    Frame Number: 15
    Frame Length: 64 bytes (512 bits)
    Capture Length: 64 bytes (512 bits)
    [Frame is marked: False]
    [Frame is ignored: False]
    [Protocols in frame: usb]
USB URB
    URB id: 0x00000000ee964300
    URB type: URB_SUBMIT ('S')
    URB transfer type: URB_CONTROL (0x02)
    Endpoint: 0x80, Direction: IN
        1... .... = Direction: IN (1)
        .000 0000 = Endpoint value: 0
    Device: 23
    URB bus id: 4
    Device setup request: relevant (0)
    Data: not present ('<')
    URB sec: 1481324986
    URB usec: 181967
    URB status: Operation now in progress (-EINPROGRESS) (-115)
    URB length [bytes]: 9
    Data length [bytes]: 0
    [Response in: 16]
URB setup
    bmRequestType: 0x80
        1... .... = Direction: Device-to-host
        .00. .... = Type: Standard (0x00)
        ...0 0000 = Recipient: Device (0x00)
    bRequest: GET DESCRIPTOR (6)
    Descriptor Index: 0x00
    bDescriptorType: CONFIGURATION (2)
    Language Id: no language specified (0x0000)
    wLength: 9

0000  00 43 96 ee 00 00 00 00 53 02 80 17 04 00 00 3c   .C......S......<
0010  ba 39 4b 58 00 00 00 00 cf c6 02 00 8d ff ff ff   .9KX............
0020  09 00 00 00 00 00 00 00 80 06 00 02 00 00 09 00   ................
0030  00 00 00 00 00 00 00 00 00 02 00 00 00 00 00 00   ................
No.     Time           Source                Destination           Protocol Length Info
     16 17.531888000   23.0                  host                  USB      73     GET DESCRIPTOR Response CONFIGURATION

Frame 16: 73 bytes on wire (584 bits), 73 bytes captured (584 bits) on interface 0
    Interface id: 0
    Encapsulation type: USB packets with Linux header and padding (115)
    Arrival Time: Dec 10, 2016 00:09:46.182658000 CET
    [Time shift for this packet: 0.000000000 seconds]
    Epoch Time: 1481324986.182658000 seconds
    [Time delta from previous captured frame: 0.000691000 seconds]
    [Time delta from previous displayed frame: 0.000691000 seconds]
    [Time since reference or first frame: 17.531888000 seconds]
    Frame Number: 16
    Frame Length: 73 bytes (584 bits)
    Capture Length: 73 bytes (584 bits)
    [Frame is marked: False]
    [Frame is ignored: False]
    [Protocols in frame: usb]
USB URB
    URB id: 0x00000000ee964300
    URB type: URB_COMPLETE ('C')
    URB transfer type: URB_CONTROL (0x02)
    Endpoint: 0x80, Direction: IN
        1... .... = Direction: IN (1)
        .000 0000 = Endpoint value: 0
    Device: 23
    URB bus id: 4
    Device setup request: not relevant ('-')
    Data: present (0)
    URB sec: 1481324986
    URB usec: 182658
    URB status: Success (0)
    URB length [bytes]: 9
    Data length [bytes]: 9
    [Request in: 15]
    [Time from request: 0.000691000 seconds]
    [bInterfaceClass: Unknown (0xffff)]
CONFIGURATION DESCRIPTOR
    bLength: 9
    bDescriptorType: CONFIGURATION (2)
    wTotalLength: 46
    bNumInterfaces: 1
    bConfigurationValue: 1
    iConfiguration: 56
    Configuration bmAttributes: 0x80  NOT SELF-POWERED  NO REMOTE-WAKEUP
        1... .... = Must be 1: Must be 1 for USB 1.1 and higher
        .0.. .... = Self-Powered: This device is powered from the USB bus
        ..0. .... = Remote Wakeup: This device does NOT support remote wakeup
    bMaxPower: 150  (300mA)

0000  00 43 96 ee 00 00 00 00 43 02 80 17 04 00 2d 00   .C......C.....-.
0010  ba 39 4b 58 00 00 00 00 82 c9 02 00 00 00 00 00   .9KX............
0020  09 00 00 00 09 00 00 00 00 00 00 00 00 00 00 00   ................
0030  00 00 00 00 00 00 00 00 00 02 00 00 00 00 00 00   ................
0040  09 02 2e 00 01 01 38 80 96                        ......8..
No.     Time           Source                Destination           Protocol Length Info
     17 17.534442000   host                  23.0                  USB      64     GET DESCRIPTOR Request CONFIGURATION

Frame 17: 64 bytes on wire (512 bits), 64 bytes captured (512 bits) on interface 0
    Interface id: 0
    Encapsulation type: USB packets with Linux header and padding (115)
    Arrival Time: Dec 10, 2016 00:09:46.185212000 CET
    [Time shift for this packet: 0.000000000 seconds]
    Epoch Time: 1481324986.185212000 seconds
    [Time delta from previous captured frame: 0.002554000 seconds]
    [Time delta from previous displayed frame: 0.002554000 seconds]
    [Time since reference or first frame: 17.534442000 seconds]
    Frame Number: 17
    Frame Length: 64 bytes (512 bits)
    Capture Length: 64 bytes (512 bits)
    [Frame is marked: False]
    [Frame is ignored: False]
    [Protocols in frame: usb]
USB URB
    URB id: 0x00000000ee964300
    URB type: URB_SUBMIT ('S')
    URB transfer type: URB_CONTROL (0x02)
    Endpoint: 0x80, Direction: IN
        1... .... = Direction: IN (1)
        .000 0000 = Endpoint value: 0
    Device: 23
    URB bus id: 4
    Device setup request: relevant (0)
    Data: not present ('<')
    URB sec: 1481324986
    URB usec: 185212
    URB status: Operation now in progress (-EINPROGRESS) (-115)
    URB length [bytes]: 255
    Data length [bytes]: 0
    [Response in: 18]
URB setup
    bmRequestType: 0x80
        1... .... = Direction: Device-to-host
        .00. .... = Type: Standard (0x00)
        ...0 0000 = Recipient: Device (0x00)
    bRequest: GET DESCRIPTOR (6)
    Descriptor Index: 0x00
    bDescriptorType: CONFIGURATION (2)
    Language Id: no language specified (0x0000)
    wLength: 255

0000  00 43 96 ee 00 00 00 00 53 02 80 17 04 00 00 3c   .C......S......<
0010  ba 39 4b 58 00 00 00 00 7c d3 02 00 8d ff ff ff   .9KX....|.......
0020  ff 00 00 00 00 00 00 00 80 06 00 02 00 00 ff 00   ................
0030  00 00 00 00 00 00 00 00 00 02 00 00 00 00 00 00   ................
No.     Time           Source                Destination           Protocol Length Info
     18 17.535882000   23.0                  host                  USB      110    GET DESCRIPTOR Response CONFIGURATION

Frame 18: 110 bytes on wire (880 bits), 110 bytes captured (880 bits) on interface 0
    Interface id: 0
    Encapsulation type: USB packets with Linux header and padding (115)
    Arrival Time: Dec 10, 2016 00:09:46.186652000 CET
    [Time shift for this packet: 0.000000000 seconds]
    Epoch Time: 1481324986.186652000 seconds
    [Time delta from previous captured frame: 0.001440000 seconds]
    [Time delta from previous displayed frame: 0.001440000 seconds]
    [Time since reference or first frame: 17.535882000 seconds]
    Frame Number: 18
    Frame Length: 110 bytes (880 bits)
    Capture Length: 110 bytes (880 bits)
    [Frame is marked: False]
    [Frame is ignored: False]
    [Protocols in frame: usb]
USB URB
    URB id: 0x00000000ee964300
    URB type: URB_COMPLETE ('C')
    URB transfer type: URB_CONTROL (0x02)
    Endpoint: 0x80, Direction: IN
        1... .... = Direction: IN (1)
        .000 0000 = Endpoint value: 0
    Device: 23
    URB bus id: 4
    Device setup request: not relevant ('-')
    Data: present (0)
    URB sec: 1481324986
    URB usec: 186652
    URB status: Success (0)
    URB length [bytes]: 46
    Data length [bytes]: 46
    [Request in: 17]
    [Time from request: 0.001440000 seconds]
    [bInterfaceClass: Unknown (0xffff)]
CONFIGURATION DESCRIPTOR
    bLength: 9
    bDescriptorType: CONFIGURATION (2)
    wTotalLength: 46
    bNumInterfaces: 1
    bConfigurationValue: 1
    iConfiguration: 56
    Configuration bmAttributes: 0x80  NOT SELF-POWERED  NO REMOTE-WAKEUP
        1... .... = Must be 1: Must be 1 for USB 1.1 and higher
        .0.. .... = Self-Powered: This device is powered from the USB bus
        ..0. .... = Remote Wakeup: This device does NOT support remote wakeup
    bMaxPower: 150  (300mA)
INTERFACE DESCRIPTOR (0.0): class Vendor Specific
    bLength: 9
    bDescriptorType: INTERFACE (4)
    bInterfaceNumber: 0
    bAlternateSetting: 0
    bNumEndpoints: 4
    bInterfaceClass: Vendor Specific (0xff)
    bInterfaceSubClass: 0xff
    bInterfaceProtocol: 0xff
    iInterface: 0
ENDPOINT DESCRIPTOR
    bLength: 7
    bDescriptorType: ENDPOINT (5)
    bEndpointAddress: 0x81  IN  Endpoint:1
        1... .... = Direction: IN Endpoint
        .... 0001 = Endpoint Number: 0x01
    bmAttributes: 0x02
        .... ..10 = Transfertype: Bulk-Transfer (0x02)
        .... 00.. = Synchronisationtype: No Sync (0x00)
        ..00 .... = Behaviourtype: Data-Endpoint (0x00)
    wMaxPacketSize: 64
        .... ..00 0100 0000 = Maximum Packet Size: 64
    bInterval: 0
ENDPOINT DESCRIPTOR
    bLength: 7
    bDescriptorType: ENDPOINT (5)
    bEndpointAddress: 0x02  OUT  Endpoint:2
        0... .... = Direction: OUT Endpoint
        .... 0010 = Endpoint Number: 0x02
    bmAttributes: 0x02
        .... ..10 = Transfertype: Bulk-Transfer (0x02)
        .... 00.. = Synchronisationtype: No Sync (0x00)
        ..00 .... = Behaviourtype: Data-Endpoint (0x00)
    wMaxPacketSize: 64
        .... ..00 0100 0000 = Maximum Packet Size: 64
    bInterval: 0
ENDPOINT DESCRIPTOR
    bLength: 7
    bDescriptorType: ENDPOINT (5)
    bEndpointAddress: 0x83  IN  Endpoint:3
        1... .... = Direction: IN Endpoint
        .... 0011 = Endpoint Number: 0x03
    bmAttributes: 0x02
        .... ..10 = Transfertype: Bulk-Transfer (0x02)
        .... 00.. = Synchronisationtype: No Sync (0x00)
        ..00 .... = Behaviourtype: Data-Endpoint (0x00)
    wMaxPacketSize: 64
        .... ..00 0100 0000 = Maximum Packet Size: 64
    bInterval: 0
ENDPOINT DESCRIPTOR
    bLength: 7
    bDescriptorType: ENDPOINT (5)
    bEndpointAddress: 0x04  OUT  Endpoint:4
        0... .... = Direction: OUT Endpoint
        .... 0100 = Endpoint Number: 0x04
    bmAttributes: 0x02
        .... ..10 = Transfertype: Bulk-Transfer (0x02)
        .... 00.. = Synchronisationtype: No Sync (0x00)
        ..00 .... = Behaviourtype: Data-Endpoint (0x00)
    wMaxPacketSize: 64
        .... ..00 0100 0000 = Maximum Packet Size: 64
    bInterval: 0

0000  00 43 96 ee 00 00 00 00 43 02 80 17 04 00 2d 00   .C......C.....-.
0010  ba 39 4b 58 00 00 00 00 1c d9 02 00 00 00 00 00   .9KX............
0020  2e 00 00 00 2e 00 00 00 00 00 00 00 00 00 00 00   ................
0030  00 00 00 00 00 00 00 00 00 02 00 00 00 00 00 00   ................
0040  09 02 2e 00 01 01 38 80 96 09 04 00 00 04 ff ff   ......8.........
0050  ff 00 07 05 81 02 40 00 00 07 05 02 02 40 00 00   ......@......@..
0060  07 05 83 02 40 00 00 07 05 04 02 40 00 00         ....@......@..
No.     Time           Source                Destination           Protocol Length Info
     19 17.539766000   host                  23.0                  USB      64     GET DESCRIPTOR Request STRING

Frame 19: 64 bytes on wire (512 bits), 64 bytes captured (512 bits) on interface 0
    Interface id: 0
    Encapsulation type: USB packets with Linux header and padding (115)
    Arrival Time: Dec 10, 2016 00:09:46.190536000 CET
    [Time shift for this packet: 0.000000000 seconds]
    Epoch Time: 1481324986.190536000 seconds
    [Time delta from previous captured frame: 0.003884000 seconds]
    [Time delta from previous displayed frame: 0.003884000 seconds]
    [Time since reference or first frame: 17.539766000 seconds]
    Frame Number: 19
    Frame Length: 64 bytes (512 bits)
    Capture Length: 64 bytes (512 bits)
    [Frame is marked: False]
    [Frame is ignored: False]
    [Protocols in frame: usb]
USB URB
    URB id: 0x00000000ee964300
    URB type: URB_SUBMIT ('S')
    URB transfer type: URB_CONTROL (0x02)
    Endpoint: 0x80, Direction: IN
        1... .... = Direction: IN (1)
        .000 0000 = Endpoint value: 0
    Device: 23
    URB bus id: 4
    Device setup request: relevant (0)
    Data: not present ('<')
    URB sec: 1481324986
    URB usec: 190536
    URB status: Operation now in progress (-EINPROGRESS) (-115)
    URB length [bytes]: 255
    Data length [bytes]: 0
    [Response in: 20]
URB setup
    bmRequestType: 0x80
        1... .... = Direction: Device-to-host
        .00. .... = Type: Standard (0x00)
        ...0 0000 = Recipient: Device (0x00)
    bRequest: GET DESCRIPTOR (6)
    Descriptor Index: 0x00
    bDescriptorType: STRING (3)
    Language Id: no language specified (0x0000)
    wLength: 255

0000  00 43 96 ee 00 00 00 00 53 02 80 17 04 00 00 3c   .C......S......<
0010  ba 39 4b 58 00 00 00 00 48 e8 02 00 8d ff ff ff   .9KX....H.......
0020  ff 00 00 00 00 00 00 00 80 06 00 03 00 00 ff 00   ................
0030  00 00 00 00 00 00 00 00 00 02 00 00 00 00 00 00   ................
No.     Time           Source                Destination           Protocol Length Info
     20 17.540882000   23.0                  host                  USB      68     GET DESCRIPTOR Response STRING

Frame 20: 68 bytes on wire (544 bits), 68 bytes captured (544 bits) on interface 0
    Interface id: 0
    Encapsulation type: USB packets with Linux header and padding (115)
    Arrival Time: Dec 10, 2016 00:09:46.191652000 CET
    [Time shift for this packet: 0.000000000 seconds]
    Epoch Time: 1481324986.191652000 seconds
    [Time delta from previous captured frame: 0.001116000 seconds]
    [Time delta from previous displayed frame: 0.001116000 seconds]
    [Time since reference or first frame: 17.540882000 seconds]
    Frame Number: 20
    Frame Length: 68 bytes (544 bits)
    Capture Length: 68 bytes (544 bits)
    [Frame is marked: False]
    [Frame is ignored: False]
    [Protocols in frame: usb]
USB URB
    URB id: 0x00000000ee964300
    URB type: URB_COMPLETE ('C')
    URB transfer type: URB_CONTROL (0x02)
    Endpoint: 0x80, Direction: IN
        1... .... = Direction: IN (1)
        .000 0000 = Endpoint value: 0
    Device: 23
    URB bus id: 4
    Device setup request: not relevant ('-')
    Data: present (0)
    URB sec: 1481324986
    URB usec: 191652
    URB status: Success (0)
    URB length [bytes]: 4
    Data length [bytes]: 4
    [Request in: 19]
    [Time from request: 0.001116000 seconds]
    [bInterfaceClass: Unknown (0xffff)]
STRING DESCRIPTOR
    bLength: 4
    bDescriptorType: STRING (3)
    wLANGID: English (United States) (0x0409)

0000  00 43 96 ee 00 00 00 00 43 02 80 17 04 00 2d 00   .C......C.....-.
0010  ba 39 4b 58 00 00 00 00 a4 ec 02 00 00 00 00 00   .9KX............
0020  04 00 00 00 04 00 00 00 00 00 00 00 00 00 00 00   ................
0030  00 00 00 00 00 00 00 00 00 02 00 00 00 00 00 00   ................
0040  04 03 09 04                                       ....
No.     Time           Source                Destination           Protocol Length Info
     21 17.544091000   host                  23.0                  USB      64     GET DESCRIPTOR Request STRING

Frame 21: 64 bytes on wire (512 bits), 64 bytes captured (512 bits) on interface 0
    Interface id: 0
    Encapsulation type: USB packets with Linux header and padding (115)
    Arrival Time: Dec 10, 2016 00:09:46.194861000 CET
    [Time shift for this packet: 0.000000000 seconds]
    Epoch Time: 1481324986.194861000 seconds
    [Time delta from previous captured frame: 0.003209000 seconds]
    [Time delta from previous displayed frame: 0.003209000 seconds]
    [Time since reference or first frame: 17.544091000 seconds]
    Frame Number: 21
    Frame Length: 64 bytes (512 bits)
    Capture Length: 64 bytes (512 bits)
    [Frame is marked: False]
    [Frame is ignored: False]
    [Protocols in frame: usb]
USB URB
    URB id: 0x00000000f50533c0
    URB type: URB_SUBMIT ('S')
    URB transfer type: URB_CONTROL (0x02)
    Endpoint: 0x80, Direction: IN
        1... .... = Direction: IN (1)
        .000 0000 = Endpoint value: 0
    Device: 23
    URB bus id: 4
    Device setup request: relevant (0)
    Data: not present ('<')
    URB sec: 1481324986
    URB usec: 194861
    URB status: Operation now in progress (-EINPROGRESS) (-115)
    URB length [bytes]: 255
    Data length [bytes]: 0
    [Response in: 22]
URB setup
    bmRequestType: 0x80
        1... .... = Direction: Device-to-host
        .00. .... = Type: Standard (0x00)
        ...0 0000 = Recipient: Device (0x00)
    bRequest: GET DESCRIPTOR (6)
    Descriptor Index: 0x1c
    bDescriptorType: STRING (3)
    Language Id: English (United States) (0x0409)
    wLength: 255

0000  c0 33 05 f5 00 00 00 00 53 02 80 17 04 00 00 3c   .3......S......<
0010  ba 39 4b 58 00 00 00 00 2d f9 02 00 8d ff ff ff   .9KX....-.......
0020  ff 00 00 00 00 00 00 00 80 06 1c 03 09 04 ff 00   ................
0030  00 00 00 00 00 00 00 00 00 02 00 00 00 00 00 00   ................
No.     Time           Source                Destination           Protocol Length Info
     22 17.544881000   23.0                  host                  USB      92     GET DESCRIPTOR Response STRING

Frame 22: 92 bytes on wire (736 bits), 92 bytes captured (736 bits) on interface 0
    Interface id: 0
    Encapsulation type: USB packets with Linux header and padding (115)
    Arrival Time: Dec 10, 2016 00:09:46.195651000 CET
    [Time shift for this packet: 0.000000000 seconds]
    Epoch Time: 1481324986.195651000 seconds
    [Time delta from previous captured frame: 0.000790000 seconds]
    [Time delta from previous displayed frame: 0.000790000 seconds]
    [Time since reference or first frame: 17.544881000 seconds]
    Frame Number: 22
    Frame Length: 92 bytes (736 bits)
    Capture Length: 92 bytes (736 bits)
    [Frame is marked: False]
    [Frame is ignored: False]
    [Protocols in frame: usb]
USB URB
    URB id: 0x00000000f50533c0
    URB type: URB_COMPLETE ('C')
    URB transfer type: URB_CONTROL (0x02)
    Endpoint: 0x80, Direction: IN
        1... .... = Direction: IN (1)
        .000 0000 = Endpoint value: 0
    Device: 23
    URB bus id: 4
    Device setup request: not relevant ('-')
    Data: present (0)
    URB sec: 1481324986
    URB usec: 195651
    URB status: Success (0)
    URB length [bytes]: 28
    Data length [bytes]: 28
    [Request in: 21]
    [Time from request: 0.000790000 seconds]
    [bInterfaceClass: Unknown (0xffff)]
STRING DESCRIPTOR
    bLength: 28
    bDescriptorType: STRING (3)
    bString: Cybiko Xtreme

0000  c0 33 05 f5 00 00 00 00 43 02 80 17 04 00 2d 00   .3......C.....-.
0010  ba 39 4b 58 00 00 00 00 43 fc 02 00 00 00 00 00   .9KX....C.......
0020  1c 00 00 00 1c 00 00 00 00 00 00 00 00 00 00 00   ................
0030  00 00 00 00 00 00 00 00 00 02 00 00 00 00 00 00   ................
0040  1c 03 43 00 79 00 62 00 69 00 6b 00 6f 00 20 00   ..C.y.b.i.k.o. .
0050  58 00 74 00 72 00 65 00 6d 00 65 00               X.t.r.e.m.e.
No.     Time           Source                Destination           Protocol Length Info
     23 17.547247000   host                  23.0                  USB      64     GET DESCRIPTOR Request STRING

Frame 23: 64 bytes on wire (512 bits), 64 bytes captured (512 bits) on interface 0
    Interface id: 0
    Encapsulation type: USB packets with Linux header and padding (115)
    Arrival Time: Dec 10, 2016 00:09:46.198017000 CET
    [Time shift for this packet: 0.000000000 seconds]
    Epoch Time: 1481324986.198017000 seconds
    [Time delta from previous captured frame: 0.002366000 seconds]
    [Time delta from previous displayed frame: 0.002366000 seconds]
    [Time since reference or first frame: 17.547247000 seconds]
    Frame Number: 23
    Frame Length: 64 bytes (512 bits)
    Capture Length: 64 bytes (512 bits)
    [Frame is marked: False]
    [Frame is ignored: False]
    [Protocols in frame: usb]
USB URB
    URB id: 0x00000000ee9640c0
    URB type: URB_SUBMIT ('S')
    URB transfer type: URB_CONTROL (0x02)
    Endpoint: 0x80, Direction: IN
        1... .... = Direction: IN (1)
        .000 0000 = Endpoint value: 0
    Device: 23
    URB bus id: 4
    Device setup request: relevant (0)
    Data: not present ('<')
    URB sec: 1481324986
    URB usec: 198017
    URB status: Operation now in progress (-EINPROGRESS) (-115)
    URB length [bytes]: 255
    Data length [bytes]: 0
    [Response in: 24]
URB setup
    bmRequestType: 0x80
        1... .... = Direction: Device-to-host
        .00. .... = Type: Standard (0x00)
        ...0 0000 = Recipient: Device (0x00)
    bRequest: GET DESCRIPTOR (6)
    Descriptor Index: 0x00
    bDescriptorType: STRING (3)
    Language Id: no language specified (0x0000)
    wLength: 255

0000  c0 40 96 ee 00 00 00 00 53 02 80 17 04 00 00 3c   .@......S......<
0010  ba 39 4b 58 00 00 00 00 81 05 03 00 8d ff ff ff   .9KX............
0020  ff 00 00 00 00 00 00 00 80 06 00 03 00 00 ff 00   ................
0030  00 00 00 00 00 00 00 00 00 02 00 00 00 00 00 00   ................
No.     Time           Source                Destination           Protocol Length Info
     24 17.547880000   23.0                  host                  USB      68     GET DESCRIPTOR Response STRING

Frame 24: 68 bytes on wire (544 bits), 68 bytes captured (544 bits) on interface 0
    Interface id: 0
    Encapsulation type: USB packets with Linux header and padding (115)
    Arrival Time: Dec 10, 2016 00:09:46.198650000 CET
    [Time shift for this packet: 0.000000000 seconds]
    Epoch Time: 1481324986.198650000 seconds
    [Time delta from previous captured frame: 0.000633000 seconds]
    [Time delta from previous displayed frame: 0.000633000 seconds]
    [Time since reference or first frame: 17.547880000 seconds]
    Frame Number: 24
    Frame Length: 68 bytes (544 bits)
    Capture Length: 68 bytes (544 bits)
    [Frame is marked: False]
    [Frame is ignored: False]
    [Protocols in frame: usb]
USB URB
    URB id: 0x00000000ee9640c0
    URB type: URB_COMPLETE ('C')
    URB transfer type: URB_CONTROL (0x02)
    Endpoint: 0x80, Direction: IN
        1... .... = Direction: IN (1)
        .000 0000 = Endpoint value: 0
    Device: 23
    URB bus id: 4
    Device setup request: not relevant ('-')
    Data: present (0)
    URB sec: 1481324986
    URB usec: 198650
    URB status: Success (0)
    URB length [bytes]: 4
    Data length [bytes]: 4
    [Request in: 23]
    [Time from request: 0.000633000 seconds]
    [bInterfaceClass: Unknown (0xffff)]
STRING DESCRIPTOR
    bLength: 4
    bDescriptorType: STRING (3)
    wLANGID: English (United States) (0x0409)

0000  c0 40 96 ee 00 00 00 00 43 02 80 17 04 00 2d 00   .@......C.....-.
0010  ba 39 4b 58 00 00 00 00 fa 07 03 00 00 00 00 00   .9KX............
0020  04 00 00 00 04 00 00 00 00 00 00 00 00 00 00 00   ................
0030  00 00 00 00 00 00 00 00 00 02 00 00 00 00 00 00   ................
0040  04 03 09 04                                       ....
No.     Time           Source                Destination           Protocol Length Info
     25 17.550412000   host                  23.0                  USB      64     GET DESCRIPTOR Request STRING

Frame 25: 64 bytes on wire (512 bits), 64 bytes captured (512 bits) on interface 0
    Interface id: 0
    Encapsulation type: USB packets with Linux header and padding (115)
    Arrival Time: Dec 10, 2016 00:09:46.201182000 CET
    [Time shift for this packet: 0.000000000 seconds]
    Epoch Time: 1481324986.201182000 seconds
    [Time delta from previous captured frame: 0.002532000 seconds]
    [Time delta from previous displayed frame: 0.002532000 seconds]
    [Time since reference or first frame: 17.550412000 seconds]
    Frame Number: 25
    Frame Length: 64 bytes (512 bits)
    Capture Length: 64 bytes (512 bits)
    [Frame is marked: False]
    [Frame is ignored: False]
    [Protocols in frame: usb]
USB URB
    URB id: 0x00000000f50539c0
    URB type: URB_SUBMIT ('S')
    URB transfer type: URB_CONTROL (0x02)
    Endpoint: 0x80, Direction: IN
        1... .... = Direction: IN (1)
        .000 0000 = Endpoint value: 0
    Device: 23
    URB bus id: 4
    Device setup request: relevant (0)
    Data: not present ('<')
    URB sec: 1481324986
    URB usec: 201182
    URB status: Operation now in progress (-EINPROGRESS) (-115)
    URB length [bytes]: 255
    Data length [bytes]: 0
    [Response in: 26]
URB setup
    bmRequestType: 0x80
        1... .... = Direction: Device-to-host
        .00. .... = Type: Standard (0x00)
        ...0 0000 = Recipient: Device (0x00)
    bRequest: GET DESCRIPTOR (6)
    Descriptor Index: 0x1c
    bDescriptorType: STRING (3)
    Language Id: English (United States) (0x0409)
    wLength: 255

0000  c0 39 05 f5 00 00 00 00 53 02 80 17 04 00 00 3c   .9......S......<
0010  ba 39 4b 58 00 00 00 00 de 11 03 00 8d ff ff ff   .9KX............
0020  ff 00 00 00 00 00 00 00 80 06 1c 03 09 04 ff 00   ................
0030  00 00 00 00 00 00 00 00 00 02 00 00 00 00 00 00   ................
No.     Time           Source                Destination           Protocol Length Info
     26 17.551880000   23.0                  host                  USB      92     GET DESCRIPTOR Response STRING

Frame 26: 92 bytes on wire (736 bits), 92 bytes captured (736 bits) on interface 0
    Interface id: 0
    Encapsulation type: USB packets with Linux header and padding (115)
    Arrival Time: Dec 10, 2016 00:09:46.202650000 CET
    [Time shift for this packet: 0.000000000 seconds]
    Epoch Time: 1481324986.202650000 seconds
    [Time delta from previous captured frame: 0.001468000 seconds]
    [Time delta from previous displayed frame: 0.001468000 seconds]
    [Time since reference or first frame: 17.551880000 seconds]
    Frame Number: 26
    Frame Length: 92 bytes (736 bits)
    Capture Length: 92 bytes (736 bits)
    [Frame is marked: False]
    [Frame is ignored: False]
    [Protocols in frame: usb]
USB URB
    URB id: 0x00000000f50539c0
    URB type: URB_COMPLETE ('C')
    URB transfer type: URB_CONTROL (0x02)
    Endpoint: 0x80, Direction: IN
        1... .... = Direction: IN (1)
        .000 0000 = Endpoint value: 0
    Device: 23
    URB bus id: 4
    Device setup request: not relevant ('-')
    Data: present (0)
    URB sec: 1481324986
    URB usec: 202650
    URB status: Success (0)
    URB length [bytes]: 28
    Data length [bytes]: 28
    [Request in: 25]
    [Time from request: 0.001468000 seconds]
    [bInterfaceClass: Unknown (0xffff)]
STRING DESCRIPTOR
    bLength: 28
    bDescriptorType: STRING (3)
    bString: Cybiko Xtreme

0000  c0 39 05 f5 00 00 00 00 43 02 80 17 04 00 2d 00   .9......C.....-.
0010  ba 39 4b 58 00 00 00 00 9a 17 03 00 00 00 00 00   .9KX............
0020  1c 00 00 00 1c 00 00 00 00 00 00 00 00 00 00 00   ................
0030  00 00 00 00 00 00 00 00 00 02 00 00 00 00 00 00   ................
0040  1c 03 43 00 79 00 62 00 69 00 6b 00 6f 00 20 00   ..C.y.b.i.k.o. .
0050  58 00 74 00 72 00 65 00 6d 00 65 00               X.t.r.e.m.e.
No.     Time           Source                Destination           Protocol Length Info
     27 17.558968000   host                  23.0                  USB      64     GET DESCRIPTOR Request DEVICE

Frame 27: 64 bytes on wire (512 bits), 64 bytes captured (512 bits) on interface 0
    Interface id: 0
    Encapsulation type: USB packets with Linux header and padding (115)
    Arrival Time: Dec 10, 2016 00:09:46.209738000 CET
    [Time shift for this packet: 0.000000000 seconds]
    Epoch Time: 1481324986.209738000 seconds
    [Time delta from previous captured frame: 0.007088000 seconds]
    [Time delta from previous displayed frame: 0.007088000 seconds]
    [Time since reference or first frame: 17.558968000 seconds]
    Frame Number: 27
    Frame Length: 64 bytes (512 bits)
    Capture Length: 64 bytes (512 bits)
    [Frame is marked: False]
    [Frame is ignored: False]
    [Protocols in frame: usb]
USB URB
    URB id: 0x00000000f5053f00
    URB type: URB_SUBMIT ('S')
    URB transfer type: URB_CONTROL (0x02)
    Endpoint: 0x80, Direction: IN
        1... .... = Direction: IN (1)
        .000 0000 = Endpoint value: 0
    Device: 23
    URB bus id: 4
    Device setup request: relevant (0)
    Data: not present ('<')
    URB sec: 1481324986
    URB usec: 209738
    URB status: Operation now in progress (-EINPROGRESS) (-115)
    URB length [bytes]: 18
    Data length [bytes]: 0
    [Response in: 28]
URB setup
    bmRequestType: 0x80
        1... .... = Direction: Device-to-host
        .00. .... = Type: Standard (0x00)
        ...0 0000 = Recipient: Device (0x00)
    bRequest: GET DESCRIPTOR (6)
    Descriptor Index: 0x00
    bDescriptorType: DEVICE (1)
    Language Id: no language specified (0x0000)
    wLength: 18

0000  00 3f 05 f5 00 00 00 00 53 02 80 17 04 00 00 3c   .?......S......<
0010  ba 39 4b 58 00 00 00 00 4a 33 03 00 8d ff ff ff   .9KX....J3......
0020  12 00 00 00 00 00 00 00 80 06 00 01 00 00 12 00   ................
0030  00 00 00 00 00 00 00 00 00 02 00 00 00 00 00 00   ................
No.     Time           Source                Destination           Protocol Length Info
     28 17.559886000   23.0                  host                  USB      82     GET DESCRIPTOR Response DEVICE

Frame 28: 82 bytes on wire (656 bits), 82 bytes captured (656 bits) on interface 0
    Interface id: 0
    Encapsulation type: USB packets with Linux header and padding (115)
    Arrival Time: Dec 10, 2016 00:09:46.210656000 CET
    [Time shift for this packet: 0.000000000 seconds]
    Epoch Time: 1481324986.210656000 seconds
    [Time delta from previous captured frame: 0.000918000 seconds]
    [Time delta from previous displayed frame: 0.000918000 seconds]
    [Time since reference or first frame: 17.559886000 seconds]
    Frame Number: 28
    Frame Length: 82 bytes (656 bits)
    Capture Length: 82 bytes (656 bits)
    [Frame is marked: False]
    [Frame is ignored: False]
    [Protocols in frame: usb]
USB URB
    URB id: 0x00000000f5053f00
    URB type: URB_COMPLETE ('C')
    URB transfer type: URB_CONTROL (0x02)
    Endpoint: 0x80, Direction: IN
        1... .... = Direction: IN (1)
        .000 0000 = Endpoint value: 0
    Device: 23
    URB bus id: 4
    Device setup request: not relevant ('-')
    Data: present (0)
    URB sec: 1481324986
    URB usec: 210656
    URB status: Success (0)
    URB length [bytes]: 18
    Data length [bytes]: 18
    [Request in: 27]
    [Time from request: 0.000918000 seconds]
    [bInterfaceClass: Unknown (0xffff)]
DEVICE DESCRIPTOR
    bLength: 18
    bDescriptorType: DEVICE (1)
    bcdUSB: 0x0110
    bDeviceClass: Vendor Specific (0xff)
    bDeviceSubClass: 255
    bDeviceProtocol: 255
    bMaxPacketSize0: 8
    idVendor: Cybiko Inc. (0x0b66)
    idProduct: Xtreme (0x0041)
    bcdDevice: 0x0001
    iManufacturer: 4
    iProduct: 28
    iSerialNumber: 0
    bNumConfigurations: 1

0000  00 3f 05 f5 00 00 00 00 43 02 80 17 04 00 2d 00   .?......C.....-.
0010  ba 39 4b 58 00 00 00 00 e0 36 03 00 00 00 00 00   .9KX.....6......
0020  12 00 00 00 12 00 00 00 00 00 00 00 00 00 00 00   ................
0030  00 00 00 00 00 00 00 00 00 02 00 00 00 00 00 00   ................
0040  12 01 10 01 ff ff ff 08 66 0b 41 00 01 00 04 1c   ........f.A.....
0050  00 01                                             ..
No.     Time           Source                Destination           Protocol Length Info
     29 17.562189000   host                  23.0                  USB      64     GET DESCRIPTOR Request CONFIGURATION

Frame 29: 64 bytes on wire (512 bits), 64 bytes captured (512 bits) on interface 0
    Interface id: 0
    Encapsulation type: USB packets with Linux header and padding (115)
    Arrival Time: Dec 10, 2016 00:09:46.212959000 CET
    [Time shift for this packet: 0.000000000 seconds]
    Epoch Time: 1481324986.212959000 seconds
    [Time delta from previous captured frame: 0.002303000 seconds]
    [Time delta from previous displayed frame: 0.002303000 seconds]
    [Time since reference or first frame: 17.562189000 seconds]
    Frame Number: 29
    Frame Length: 64 bytes (512 bits)
    Capture Length: 64 bytes (512 bits)
    [Frame is marked: False]
    [Frame is ignored: False]
    [Protocols in frame: usb]
USB URB
    URB id: 0x00000000f5053000
    URB type: URB_SUBMIT ('S')
    URB transfer type: URB_CONTROL (0x02)
    Endpoint: 0x80, Direction: IN
        1... .... = Direction: IN (1)
        .000 0000 = Endpoint value: 0
    Device: 23
    URB bus id: 4
    Device setup request: relevant (0)
    Data: not present ('<')
    URB sec: 1481324986
    URB usec: 212959
    URB status: Operation now in progress (-EINPROGRESS) (-115)
    URB length [bytes]: 14
    Data length [bytes]: 0
    [Response in: 30]
URB setup
    bmRequestType: 0x80
        1... .... = Direction: Device-to-host
        .00. .... = Type: Standard (0x00)
        ...0 0000 = Recipient: Device (0x00)
    bRequest: GET DESCRIPTOR (6)
    Descriptor Index: 0x00
    bDescriptorType: CONFIGURATION (2)
    Language Id: no language specified (0x0000)
    wLength: 14

0000  00 30 05 f5 00 00 00 00 53 02 80 17 04 00 00 3c   .0......S......<
0010  ba 39 4b 58 00 00 00 00 df 3f 03 00 8d ff ff ff   .9KX.....?......
0020  0e 00 00 00 00 00 00 00 80 06 00 02 00 00 0e 00   ................
0030  00 00 00 00 00 00 00 00 00 02 00 00 00 00 00 00   ................
No.     Time           Source                Destination           Protocol Length Info
     30 17.562881000   23.0                  host                  USB      78     GET DESCRIPTOR Response CONFIGURATION

Frame 30: 78 bytes on wire (624 bits), 78 bytes captured (624 bits) on interface 0
    Interface id: 0
    Encapsulation type: USB packets with Linux header and padding (115)
    Arrival Time: Dec 10, 2016 00:09:46.213651000 CET
    [Time shift for this packet: 0.000000000 seconds]
    Epoch Time: 1481324986.213651000 seconds
    [Time delta from previous captured frame: 0.000692000 seconds]
    [Time delta from previous displayed frame: 0.000692000 seconds]
    [Time since reference or first frame: 17.562881000 seconds]
    Frame Number: 30
    Frame Length: 78 bytes (624 bits)
    Capture Length: 78 bytes (624 bits)
    [Frame is marked: False]
    [Frame is ignored: False]
    [Protocols in frame: usb]
USB URB
    URB id: 0x00000000f5053000
    URB type: URB_COMPLETE ('C')
    URB transfer type: URB_CONTROL (0x02)
    Endpoint: 0x80, Direction: IN
        1... .... = Direction: IN (1)
        .000 0000 = Endpoint value: 0
    Device: 23
    URB bus id: 4
    Device setup request: not relevant ('-')
    Data: present (0)
    URB sec: 1481324986
    URB usec: 213651
    URB status: Success (0)
    URB length [bytes]: 14
    Data length [bytes]: 14
    [Request in: 29]
    [Time from request: 0.000692000 seconds]
    [bInterfaceClass: Unknown (0xffff)]
CONFIGURATION DESCRIPTOR
    bLength: 9
    bDescriptorType: CONFIGURATION (2)
    wTotalLength: 46
    bNumInterfaces: 1
    bConfigurationValue: 1
    iConfiguration: 56
    Configuration bmAttributes: 0x80  NOT SELF-POWERED  NO REMOTE-WAKEUP
        1... .... = Must be 1: Must be 1 for USB 1.1 and higher
        .0.. .... = Self-Powered: This device is powered from the USB bus
        ..0. .... = Remote Wakeup: This device does NOT support remote wakeup
    bMaxPower: 150  (300mA)
Leftover Capture Data: 0904000004

0000  00 30 05 f5 00 00 00 00 43 02 80 17 04 00 2d 00   .0......C.....-.
0010  ba 39 4b 58 00 00 00 00 93 42 03 00 00 00 00 00   .9KX.....B......
0020  0e 00 00 00 0e 00 00 00 00 00 00 00 00 00 00 00   ................
0030  00 00 00 00 00 00 00 00 00 02 00 00 00 00 00 00   ................
0040  09 02 2e 00 01 01 38 80 96 09 04 00 00 04         ......8.......
No.     Time           Source                Destination           Protocol Length Info
     31 17.565521000   host                  23.0                  USB      64     GET DESCRIPTOR Request CONFIGURATION

Frame 31: 64 bytes on wire (512 bits), 64 bytes captured (512 bits) on interface 0
    Interface id: 0
    Encapsulation type: USB packets with Linux header and padding (115)
    Arrival Time: Dec 10, 2016 00:09:46.216291000 CET
    [Time shift for this packet: 0.000000000 seconds]
    Epoch Time: 1481324986.216291000 seconds
    [Time delta from previous captured frame: 0.002640000 seconds]
    [Time delta from previous displayed frame: 0.002640000 seconds]
    [Time since reference or first frame: 17.565521000 seconds]
    Frame Number: 31
    Frame Length: 64 bytes (512 bits)
    Capture Length: 64 bytes (512 bits)
    [Frame is marked: False]
    [Frame is ignored: False]
    [Protocols in frame: usb]
USB URB
    URB id: 0x00000000f5053cc0
    URB type: URB_SUBMIT ('S')
    URB transfer type: URB_CONTROL (0x02)
    Endpoint: 0x80, Direction: IN
        1... .... = Direction: IN (1)
        .000 0000 = Endpoint value: 0
    Device: 23
    URB bus id: 4
    Device setup request: relevant (0)
    Data: not present ('<')
    URB sec: 1481324986
    URB usec: 216291
    URB status: Operation now in progress (-EINPROGRESS) (-115)
    URB length [bytes]: 46
    Data length [bytes]: 0
    [Response in: 32]
URB setup
    bmRequestType: 0x80
        1... .... = Direction: Device-to-host
        .00. .... = Type: Standard (0x00)
        ...0 0000 = Recipient: Device (0x00)
    bRequest: GET DESCRIPTOR (6)
    Descriptor Index: 0x00
    bDescriptorType: CONFIGURATION (2)
    Language Id: no language specified (0x0000)
    wLength: 46

0000  c0 3c 05 f5 00 00 00 00 53 02 80 17 04 00 00 3c   .<......S......<
0010  ba 39 4b 58 00 00 00 00 e3 4c 03 00 8d ff ff ff   .9KX.....L......
0020  2e 00 00 00 00 00 00 00 80 06 00 02 00 00 2e 00   ................
0030  00 00 00 00 00 00 00 00 00 02 00 00 00 00 00 00   ................
No.     Time           Source                Destination           Protocol Length Info
     32 17.566883000   23.0                  host                  USB      110    GET DESCRIPTOR Response CONFIGURATION

Frame 32: 110 bytes on wire (880 bits), 110 bytes captured (880 bits) on interface 0
    Interface id: 0
    Encapsulation type: USB packets with Linux header and padding (115)
    Arrival Time: Dec 10, 2016 00:09:46.217653000 CET
    [Time shift for this packet: 0.000000000 seconds]
    Epoch Time: 1481324986.217653000 seconds
    [Time delta from previous captured frame: 0.001362000 seconds]
    [Time delta from previous displayed frame: 0.001362000 seconds]
    [Time since reference or first frame: 17.566883000 seconds]
    Frame Number: 32
    Frame Length: 110 bytes (880 bits)
    Capture Length: 110 bytes (880 bits)
    [Frame is marked: False]
    [Frame is ignored: False]
    [Protocols in frame: usb]
USB URB
    URB id: 0x00000000f5053cc0
    URB type: URB_COMPLETE ('C')
    URB transfer type: URB_CONTROL (0x02)
    Endpoint: 0x80, Direction: IN
        1... .... = Direction: IN (1)
        .000 0000 = Endpoint value: 0
    Device: 23
    URB bus id: 4
    Device setup request: not relevant ('-')
    Data: present (0)
    URB sec: 1481324986
    URB usec: 217653
    URB status: Success (0)
    URB length [bytes]: 46
    Data length [bytes]: 46
    [Request in: 31]
    [Time from request: 0.001362000 seconds]
    [bInterfaceClass: Unknown (0xffff)]
CONFIGURATION DESCRIPTOR
    bLength: 9
    bDescriptorType: CONFIGURATION (2)
    wTotalLength: 46
    bNumInterfaces: 1
    bConfigurationValue: 1
    iConfiguration: 56
    Configuration bmAttributes: 0x80  NOT SELF-POWERED  NO REMOTE-WAKEUP
        1... .... = Must be 1: Must be 1 for USB 1.1 and higher
        .0.. .... = Self-Powered: This device is powered from the USB bus
        ..0. .... = Remote Wakeup: This device does NOT support remote wakeup
    bMaxPower: 150  (300mA)
INTERFACE DESCRIPTOR (0.0): class Vendor Specific
    bLength: 9
    bDescriptorType: INTERFACE (4)
    bInterfaceNumber: 0
    bAlternateSetting: 0
    bNumEndpoints: 4
    bInterfaceClass: Vendor Specific (0xff)
    bInterfaceSubClass: 0xff
    bInterfaceProtocol: 0xff
    iInterface: 0
ENDPOINT DESCRIPTOR
    bLength: 7
    bDescriptorType: ENDPOINT (5)
    bEndpointAddress: 0x81  IN  Endpoint:1
        1... .... = Direction: IN Endpoint
        .... 0001 = Endpoint Number: 0x01
    bmAttributes: 0x02
        .... ..10 = Transfertype: Bulk-Transfer (0x02)
        .... 00.. = Synchronisationtype: No Sync (0x00)
        ..00 .... = Behaviourtype: Data-Endpoint (0x00)
    wMaxPacketSize: 64
        .... ..00 0100 0000 = Maximum Packet Size: 64
    bInterval: 0
ENDPOINT DESCRIPTOR
    bLength: 7
    bDescriptorType: ENDPOINT (5)
    bEndpointAddress: 0x02  OUT  Endpoint:2
        0... .... = Direction: OUT Endpoint
        .... 0010 = Endpoint Number: 0x02
    bmAttributes: 0x02
        .... ..10 = Transfertype: Bulk-Transfer (0x02)
        .... 00.. = Synchronisationtype: No Sync (0x00)
        ..00 .... = Behaviourtype: Data-Endpoint (0x00)
    wMaxPacketSize: 64
        .... ..00 0100 0000 = Maximum Packet Size: 64
    bInterval: 0
ENDPOINT DESCRIPTOR
    bLength: 7
    bDescriptorType: ENDPOINT (5)
    bEndpointAddress: 0x83  IN  Endpoint:3
        1... .... = Direction: IN Endpoint
        .... 0011 = Endpoint Number: 0x03
    bmAttributes: 0x02
        .... ..10 = Transfertype: Bulk-Transfer (0x02)
        .... 00.. = Synchronisationtype: No Sync (0x00)
        ..00 .... = Behaviourtype: Data-Endpoint (0x00)
    wMaxPacketSize: 64
        .... ..00 0100 0000 = Maximum Packet Size: 64
    bInterval: 0
ENDPOINT DESCRIPTOR
    bLength: 7
    bDescriptorType: ENDPOINT (5)
    bEndpointAddress: 0x04  OUT  Endpoint:4
        0... .... = Direction: OUT Endpoint
        .... 0100 = Endpoint Number: 0x04
    bmAttributes: 0x02
        .... ..10 = Transfertype: Bulk-Transfer (0x02)
        .... 00.. = Synchronisationtype: No Sync (0x00)
        ..00 .... = Behaviourtype: Data-Endpoint (0x00)
    wMaxPacketSize: 64
        .... ..00 0100 0000 = Maximum Packet Size: 64
    bInterval: 0

0000  c0 3c 05 f5 00 00 00 00 43 02 80 17 04 00 2d 00   .<......C.....-.
0010  ba 39 4b 58 00 00 00 00 35 52 03 00 00 00 00 00   .9KX....5R......
0020  2e 00 00 00 2e 00 00 00 00 00 00 00 00 00 00 00   ................
0030  00 00 00 00 00 00 00 00 00 02 00 00 00 00 00 00   ................
0040  09 02 2e 00 01 01 38 80 96 09 04 00 00 04 ff ff   ......8.........
0050  ff 00 07 05 81 02 40 00 00 07 05 02 02 40 00 00   ......@......@..
0060  07 05 83 02 40 00 00 07 05 04 02 40 00 00         ....@......@..
No.     Time           Source                Destination           Protocol Length Info
     33 17.569785000   host                  23.0                  USB      64     GET DESCRIPTOR Request STRING

Frame 33: 64 bytes on wire (512 bits), 64 bytes captured (512 bits) on interface 0
    Interface id: 0
    Encapsulation type: USB packets with Linux header and padding (115)
    Arrival Time: Dec 10, 2016 00:09:46.220555000 CET
    [Time shift for this packet: 0.000000000 seconds]
    Epoch Time: 1481324986.220555000 seconds
    [Time delta from previous captured frame: 0.002902000 seconds]
    [Time delta from previous displayed frame: 0.002902000 seconds]
    [Time since reference or first frame: 17.569785000 seconds]
    Frame Number: 33
    Frame Length: 64 bytes (512 bits)
    Capture Length: 64 bytes (512 bits)
    [Frame is marked: False]
    [Frame is ignored: False]
    [Protocols in frame: usb]
USB URB
    URB id: 0x00000000ee964300
    URB type: URB_SUBMIT ('S')
    URB transfer type: URB_CONTROL (0x02)
    Endpoint: 0x80, Direction: IN
        1... .... = Direction: IN (1)
        .000 0000 = Endpoint value: 0
    Device: 23
    URB bus id: 4
    Device setup request: relevant (0)
    Data: not present ('<')
    URB sec: 1481324986
    URB usec: 220555
    URB status: Operation now in progress (-EINPROGRESS) (-115)
    URB length [bytes]: 46
    Data length [bytes]: 0
    [Response in: 34]
URB setup
    bmRequestType: 0x80
        1... .... = Direction: Device-to-host
        .00. .... = Type: Standard (0x00)
        ...0 0000 = Recipient: Device (0x00)
    bRequest: GET DESCRIPTOR (6)
    Descriptor Index: 0x38
    bDescriptorType: STRING (3)
    Language Id: no language specified (0x0000)
    wLength: 46

0000  00 43 96 ee 00 00 00 00 53 02 80 17 04 00 00 3c   .C......S......<
0010  ba 39 4b 58 00 00 00 00 8b 5d 03 00 8d ff ff ff   .9KX.....]......
0020  2e 00 00 00 00 00 00 00 80 06 38 03 00 00 2e 00   ..........8.....
0030  00 00 00 00 00 00 00 00 00 02 00 00 00 00 00 00   ................
No.     Time           Source                Destination           Protocol Length Info
     34 17.570886000   23.0                  host                  USB      110    GET DESCRIPTOR Response STRING

Frame 34: 110 bytes on wire (880 bits), 110 bytes captured (880 bits) on interface 0
    Interface id: 0
    Encapsulation type: USB packets with Linux header and padding (115)
    Arrival Time: Dec 10, 2016 00:09:46.221656000 CET
    [Time shift for this packet: 0.000000000 seconds]
    Epoch Time: 1481324986.221656000 seconds
    [Time delta from previous captured frame: 0.001101000 seconds]
    [Time delta from previous displayed frame: 0.001101000 seconds]
    [Time since reference or first frame: 17.570886000 seconds]
    Frame Number: 34
    Frame Length: 110 bytes (880 bits)
    Capture Length: 110 bytes (880 bits)
    [Frame is marked: False]
    [Frame is ignored: False]
    [Protocols in frame: usb]
USB URB
    URB id: 0x00000000ee964300
    URB type: URB_COMPLETE ('C')
    URB transfer type: URB_CONTROL (0x02)
    Endpoint: 0x80, Direction: IN
        1... .... = Direction: IN (1)
        .000 0000 = Endpoint value: 0
    Device: 23
    URB bus id: 4
    Device setup request: not relevant ('-')
    Data: present (0)
    URB sec: 1481324986
    URB usec: 221656
    URB status: Success (0)
    URB length [bytes]: 46
    Data length [bytes]: 46
    [Request in: 33]
    [Time from request: 0.001101000 seconds]
    [bInterfaceClass: Unknown (0xffff)]
STRING DESCRIPTOR
    bLength: 46
    bDescriptorType: STRING (3)
    bString: C000006EAD008 @XTAXETA

0000  00 43 96 ee 00 00 00 00 43 02 80 17 04 00 2d 00   .C......C.....-.
0010  ba 39 4b 58 00 00 00 00 d8 61 03 00 00 00 00 00   .9KX.....a......
0020  2e 00 00 00 2e 00 00 00 00 00 00 00 00 00 00 00   ................
0030  00 00 00 00 00 00 00 00 00 02 00 00 00 00 00 00   ................
0040  2e 03 43 00 30 00 30 00 30 00 30 00 30 00 36 00   ..C.0.0.0.0.0.6.
0050  45 00 41 00 44 00 30 00 30 00 38 00 20 00 40 00   E.A.D.0.0.8. .@.
0060  58 00 54 00 41 00 58 00 45 00 54 00 41 00         X.T.A.X.E.T.A.
No.     Time           Source                Destination           Protocol Length Info
     35 17.668002000   host                  23.2                  USB      79     URB_BULK out

Frame 35: 79 bytes on wire (632 bits), 79 bytes captured (632 bits) on interface 0
    Interface id: 0
    Encapsulation type: USB packets with Linux header and padding (115)
    Arrival Time: Dec 10, 2016 00:09:46.318772000 CET
    [Time shift for this packet: 0.000000000 seconds]
    Epoch Time: 1481324986.318772000 seconds
    [Time delta from previous captured frame: 0.097116000 seconds]
    [Time delta from previous displayed frame: 0.097116000 seconds]
    [Time since reference or first frame: 17.668002000 seconds]
    Frame Number: 35
    Frame Length: 79 bytes (632 bits)
    Capture Length: 79 bytes (632 bits)
    [Frame is marked: False]
    [Frame is ignored: False]
    [Protocols in frame: usb]
USB URB
    URB id: 0x00000000e2fef900
    URB type: URB_SUBMIT ('S')
    URB transfer type: URB_BULK (0x03)
    Endpoint: 0x02, Direction: OUT
        0... .... = Direction: OUT (0)
        .000 0010 = Endpoint value: 2
    Device: 23
    URB bus id: 4
    Device setup request: not relevant ('-')
    Data: present (0)
    URB sec: 1481324986
    URB usec: 318772
    URB status: Operation now in progress (-EINPROGRESS) (-115)
    URB length [bytes]: 15
    Data length [bytes]: 15
    [bInterfaceClass: Vendor Specific (0xff)]
Leftover Capture Data: 4d4d120200000404000000a7ee3509

0000  00 f9 fe e2 00 00 00 00 53 03 02 17 04 00 2d 00   ........S.....-.
0010  ba 39 4b 58 00 00 00 00 34 dd 04 00 8d ff ff ff   .9KX....4.......
0020  0f 00 00 00 0f 00 00 00 00 00 00 00 00 00 00 00   ................
0030  00 00 00 00 00 00 00 00 00 00 00 00 00 00 00 00   ................
0040  4d 4d 12 02 00 00 04 04 00 00 00 a7 ee 35 09      MM...........5.
No.     Time           Source                Destination           Protocol Length Info
     36 17.668031000   host                  23.1                  USB      64     URB_BULK in

Frame 36: 64 bytes on wire (512 bits), 64 bytes captured (512 bits) on interface 0
    Interface id: 0
    Encapsulation type: USB packets with Linux header and padding (115)
    Arrival Time: Dec 10, 2016 00:09:46.318801000 CET
    [Time shift for this packet: 0.000000000 seconds]
    Epoch Time: 1481324986.318801000 seconds
    [Time delta from previous captured frame: 0.000029000 seconds]
    [Time delta from previous displayed frame: 0.000029000 seconds]
    [Time since reference or first frame: 17.668031000 seconds]
    Frame Number: 36
    Frame Length: 64 bytes (512 bits)
    Capture Length: 64 bytes (512 bits)
    [Frame is marked: False]
    [Frame is ignored: False]
    [Protocols in frame: usb]
USB URB
    URB id: 0x00000000e2fef0c0
    URB type: URB_SUBMIT ('S')
    URB transfer type: URB_BULK (0x03)
    Endpoint: 0x81, Direction: IN
        1... .... = Direction: IN (1)
        .000 0001 = Endpoint value: 1
    Device: 23
    URB bus id: 4
    Device setup request: not relevant ('-')
    Data: not present ('<')
    URB sec: 1481324986
    URB usec: 318801
    URB status: Operation now in progress (-EINPROGRESS) (-115)
    URB length [bytes]: 1000
    Data length [bytes]: 0
    [Response in: 37]
    [bInterfaceClass: Vendor Specific (0xff)]

0000  c0 f0 fe e2 00 00 00 00 53 03 81 17 04 00 2d 3c   ........S.....-<
0010  ba 39 4b 58 00 00 00 00 51 dd 04 00 8d ff ff ff   .9KX....Q.......
0020  e8 03 00 00 00 00 00 00 00 00 00 00 00 00 00 00   ................
0030  00 00 00 00 00 00 00 00 00 02 00 00 00 00 00 00   ................
No.     Time           Source                Destination           Protocol Length Info
     37 17.668886000   23.2                  host                  USB      64     URB_BULK out

Frame 37: 64 bytes on wire (512 bits), 64 bytes captured (512 bits) on interface 0
    Interface id: 0
    Encapsulation type: USB packets with Linux header and padding (115)
    Arrival Time: Dec 10, 2016 00:09:46.319656000 CET
    [Time shift for this packet: 0.000000000 seconds]
    Epoch Time: 1481324986.319656000 seconds
    [Time delta from previous captured frame: 0.000855000 seconds]
    [Time delta from previous displayed frame: 0.000855000 seconds]
    [Time since reference or first frame: 17.668886000 seconds]
    Frame Number: 37
    Frame Length: 64 bytes (512 bits)
    Capture Length: 64 bytes (512 bits)
    [Frame is marked: False]
    [Frame is ignored: False]
    [Protocols in frame: usb]
USB URB
    URB id: 0x00000000e2fef900
    URB type: URB_COMPLETE ('C')
    URB transfer type: URB_BULK (0x03)
    Endpoint: 0x02, Direction: OUT
        0... .... = Direction: OUT (0)
        .000 0010 = Endpoint value: 2
    Device: 23
    URB bus id: 4
    Device setup request: not relevant ('-')
    Data: not present ('>')
    URB sec: 1481324986
    URB usec: 319656
    URB status: Success (0)
    URB length [bytes]: 15
    Data length [bytes]: 0
    [Request in: 36]
    [Time from request: 0.000855000 seconds]
    [bInterfaceClass: Vendor Specific (0xff)]

0000  00 f9 fe e2 00 00 00 00 43 03 02 17 04 00 2d 3e   ........C.....->
0010  ba 39 4b 58 00 00 00 00 a8 e0 04 00 00 00 00 00   .9KX............
0020  0f 00 00 00 00 00 00 00 00 00 00 00 00 00 00 00   ................
0030  00 00 00 00 00 00 00 00 00 00 00 00 00 00 00 00   ................
No.     Time           Source                Destination           Protocol Length Info
     38 17.745903000   host                  23.2                  USB      79     URB_BULK out

Frame 38: 79 bytes on wire (632 bits), 79 bytes captured (632 bits) on interface 0
    Interface id: 0
    Encapsulation type: USB packets with Linux header and padding (115)
    Arrival Time: Dec 10, 2016 00:09:46.396673000 CET
    [Time shift for this packet: 0.000000000 seconds]
    Epoch Time: 1481324986.396673000 seconds
    [Time delta from previous captured frame: 0.077017000 seconds]
    [Time delta from previous displayed frame: 0.077017000 seconds]
    [Time since reference or first frame: 17.745903000 seconds]
    Frame Number: 38
    Frame Length: 79 bytes (632 bits)
    Capture Length: 79 bytes (632 bits)
    [Frame is marked: False]
    [Frame is ignored: False]
    [Protocols in frame: usb]
USB URB
    URB id: 0x00000000e2fef9c0
    URB type: URB_SUBMIT ('S')
    URB transfer type: URB_BULK (0x03)
    Endpoint: 0x02, Direction: OUT
        0... .... = Direction: OUT (0)
        .000 0010 = Endpoint value: 2
    Device: 23
    URB bus id: 4
    Device setup request: not relevant ('-')
    Data: present (0)
    URB sec: 1481324986
    URB usec: 396673
    URB status: Operation now in progress (-EINPROGRESS) (-115)
    URB length [bytes]: 15
    Data length [bytes]: 15
    [Response in: 39]
    [bInterfaceClass: Vendor Specific (0xff)]
Leftover Capture Data: 4d4d120100000404000000296132ea

0000  c0 f9 fe e2 00 00 00 00 53 03 02 17 04 00 2d 00   ........S.....-.
0010  ba 39 4b 58 00 00 00 00 81 0d 06 00 8d ff ff ff   .9KX............
0020  0f 00 00 00 0f 00 00 00 00 00 00 00 00 00 00 00   ................
0030  00 00 00 00 00 00 00 00 00 00 00 00 00 00 00 00   ................
0040  4d 4d 12 01 00 00 04 04 00 00 00 29 61 32 ea      MM.........)a2.
No.     Time           Source                Destination           Protocol Length Info
     39 17.746880000   23.2                  host                  USB      64     URB_BULK out

Frame 39: 64 bytes on wire (512 bits), 64 bytes captured (512 bits) on interface 0
    Interface id: 0
    Encapsulation type: USB packets with Linux header and padding (115)
    Arrival Time: Dec 10, 2016 00:09:46.397650000 CET
    [Time shift for this packet: 0.000000000 seconds]
    Epoch Time: 1481324986.397650000 seconds
    [Time delta from previous captured frame: 0.000977000 seconds]
    [Time delta from previous displayed frame: 0.000977000 seconds]
    [Time since reference or first frame: 17.746880000 seconds]
    Frame Number: 39
    Frame Length: 64 bytes (512 bits)
    Capture Length: 64 bytes (512 bits)
    [Frame is marked: False]
    [Frame is ignored: False]
    [Protocols in frame: usb]
USB URB
    URB id: 0x00000000e2fef9c0
    URB type: URB_COMPLETE ('C')
    URB transfer type: URB_BULK (0x03)
    Endpoint: 0x02, Direction: OUT
        0... .... = Direction: OUT (0)
        .000 0010 = Endpoint value: 2
    Device: 23
    URB bus id: 4
    Device setup request: not relevant ('-')
    Data: not present ('>')
    URB sec: 1481324986
    URB usec: 397650
    URB status: Success (0)
    URB length [bytes]: 15
    Data length [bytes]: 0
    [Request in: 38]
    [Time from request: 0.000977000 seconds]
    [bInterfaceClass: Vendor Specific (0xff)]

0000  c0 f9 fe e2 00 00 00 00 43 03 02 17 04 00 2d 3e   ........C.....->
0010  ba 39 4b 58 00 00 00 00 52 11 06 00 00 00 00 00   .9KX....R.......
0020  0f 00 00 00 00 00 00 00 00 00 00 00 00 00 00 00   ................
0030  00 00 00 00 00 00 00 00 00 00 00 00 00 00 00 00   ................
No.     Time           Source                Destination           Protocol Length Info
     40 17.757597000   host                  23.2                  USB      79     URB_BULK out

Frame 40: 79 bytes on wire (632 bits), 79 bytes captured (632 bits) on interface 0
    Interface id: 0
    Encapsulation type: USB packets with Linux header and padding (115)
    Arrival Time: Dec 10, 2016 00:09:46.408367000 CET
    [Time shift for this packet: 0.000000000 seconds]
    Epoch Time: 1481324986.408367000 seconds
    [Time delta from previous captured frame: 0.010717000 seconds]
    [Time delta from previous displayed frame: 0.010717000 seconds]
    [Time since reference or first frame: 17.757597000 seconds]
    Frame Number: 40
    Frame Length: 79 bytes (632 bits)
    Capture Length: 79 bytes (632 bits)
    [Frame is marked: False]
    [Frame is ignored: False]
    [Protocols in frame: usb]
USB URB
    URB id: 0x00000000e2fef9c0
    URB type: URB_SUBMIT ('S')
    URB transfer type: URB_BULK (0x03)
    Endpoint: 0x02, Direction: OUT
        0... .... = Direction: OUT (0)
        .000 0010 = Endpoint value: 2
    Device: 23
    URB bus id: 4
    Device setup request: not relevant ('-')
    Data: present (0)
    URB sec: 1481324986
    URB usec: 408367
    URB status: Operation now in progress (-EINPROGRESS) (-115)
    URB length [bytes]: 15
    Data length [bytes]: 15
    [Response in: 41]
    [bInterfaceClass: Vendor Specific (0xff)]
Leftover Capture Data: 4d4d12020000040200000082856ad5

0000  c0 f9 fe e2 00 00 00 00 53 03 02 17 04 00 2d 00   ........S.....-.
0010  ba 39 4b 58 00 00 00 00 2f 3b 06 00 8d ff ff ff   .9KX..../;......
0020  0f 00 00 00 0f 00 00 00 00 00 00 00 00 00 00 00   ................
0030  00 00 00 00 00 00 00 00 00 00 00 00 00 00 00 00   ................
0040  4d 4d 12 02 00 00 04 02 00 00 00 82 85 6a d5      MM...........j.
No.     Time           Source                Destination           Protocol Length Info
     41 17.757891000   23.2                  host                  USB      64     URB_BULK out

Frame 41: 64 bytes on wire (512 bits), 64 bytes captured (512 bits) on interface 0
    Interface id: 0
    Encapsulation type: USB packets with Linux header and padding (115)
    Arrival Time: Dec 10, 2016 00:09:46.408661000 CET
    [Time shift for this packet: 0.000000000 seconds]
    Epoch Time: 1481324986.408661000 seconds
    [Time delta from previous captured frame: 0.000294000 seconds]
    [Time delta from previous displayed frame: 0.000294000 seconds]
    [Time since reference or first frame: 17.757891000 seconds]
    Frame Number: 41
    Frame Length: 64 bytes (512 bits)
    Capture Length: 64 bytes (512 bits)
    [Frame is marked: False]
    [Frame is ignored: False]
    [Protocols in frame: usb]
USB URB
    URB id: 0x00000000e2fef9c0
    URB type: URB_COMPLETE ('C')
    URB transfer type: URB_BULK (0x03)
    Endpoint: 0x02, Direction: OUT
        0... .... = Direction: OUT (0)
        .000 0010 = Endpoint value: 2
    Device: 23
    URB bus id: 4
    Device setup request: not relevant ('-')
    Data: not present ('>')
    URB sec: 1481324986
    URB usec: 408661
    URB status: Success (0)
    URB length [bytes]: 15
    Data length [bytes]: 0
    [Request in: 40]
    [Time from request: 0.000294000 seconds]
    [bInterfaceClass: Vendor Specific (0xff)]

0000  c0 f9 fe e2 00 00 00 00 43 03 02 17 04 00 2d 3e   ........C.....->
0010  ba 39 4b 58 00 00 00 00 55 3c 06 00 00 00 00 00   .9KX....U<......
0020  0f 00 00 00 00 00 00 00 00 00 00 00 00 00 00 00   ................
0030  00 00 00 00 00 00 00 00 00 00 00 00 00 00 00 00   ................
No.     Time           Source                Destination           Protocol Length Info
     42 17.835673000   host                  23.2                  USB      79     URB_BULK out

Frame 42: 79 bytes on wire (632 bits), 79 bytes captured (632 bits) on interface 0
    Interface id: 0
    Encapsulation type: USB packets with Linux header and padding (115)
    Arrival Time: Dec 10, 2016 00:09:46.486443000 CET
    [Time shift for this packet: 0.000000000 seconds]
    Epoch Time: 1481324986.486443000 seconds
    [Time delta from previous captured frame: 0.077782000 seconds]
    [Time delta from previous displayed frame: 0.077782000 seconds]
    [Time since reference or first frame: 17.835673000 seconds]
    Frame Number: 42
    Frame Length: 79 bytes (632 bits)
    Capture Length: 79 bytes (632 bits)
    [Frame is marked: False]
    [Frame is ignored: False]
    [Protocols in frame: usb]
USB URB
    URB id: 0x00000000e2fef300
    URB type: URB_SUBMIT ('S')
    URB transfer type: URB_BULK (0x03)
    Endpoint: 0x02, Direction: OUT
        0... .... = Direction: OUT (0)
        .000 0010 = Endpoint value: 2
    Device: 23
    URB bus id: 4
    Device setup request: not relevant ('-')
    Data: present (0)
    URB sec: 1481324986
    URB usec: 486443
    URB status: Operation now in progress (-EINPROGRESS) (-115)
    URB length [bytes]: 15
    Data length [bytes]: 15
    [Response in: 43]
    [bInterfaceClass: Vendor Specific (0xff)]
Leftover Capture Data: 4d4d12020000040200000082856ad5

0000  00 f3 fe e2 00 00 00 00 53 03 02 17 04 00 2d 00   ........S.....-.
0010  ba 39 4b 58 00 00 00 00 2b 6c 07 00 8d ff ff ff   .9KX....+l......
0020  0f 00 00 00 0f 00 00 00 00 00 00 00 00 00 00 00   ................
0030  00 00 00 00 00 00 00 00 00 00 00 00 00 00 00 00   ................
0040  4d 4d 12 02 00 00 04 02 00 00 00 82 85 6a d5      MM...........j.
No.     Time           Source                Destination           Protocol Length Info
     43 17.835901000   23.2                  host                  USB      64     URB_BULK out

Frame 43: 64 bytes on wire (512 bits), 64 bytes captured (512 bits) on interface 0
    Interface id: 0
    Encapsulation type: USB packets with Linux header and padding (115)
    Arrival Time: Dec 10, 2016 00:09:46.486671000 CET
    [Time shift for this packet: 0.000000000 seconds]
    Epoch Time: 1481324986.486671000 seconds
    [Time delta from previous captured frame: 0.000228000 seconds]
    [Time delta from previous displayed frame: 0.000228000 seconds]
    [Time since reference or first frame: 17.835901000 seconds]
    Frame Number: 43
    Frame Length: 64 bytes (512 bits)
    Capture Length: 64 bytes (512 bits)
    [Frame is marked: False]
    [Frame is ignored: False]
    [Protocols in frame: usb]
USB URB
    URB id: 0x00000000e2fef300
    URB type: URB_COMPLETE ('C')
    URB transfer type: URB_BULK (0x03)
    Endpoint: 0x02, Direction: OUT
        0... .... = Direction: OUT (0)
        .000 0010 = Endpoint value: 2
    Device: 23
    URB bus id: 4
    Device setup request: not relevant ('-')
    Data: not present ('>')
    URB sec: 1481324986
    URB usec: 486671
    URB status: Success (0)
    URB length [bytes]: 15
    Data length [bytes]: 0
    [Request in: 42]
    [Time from request: 0.000228000 seconds]
    [bInterfaceClass: Vendor Specific (0xff)]

0000  00 f3 fe e2 00 00 00 00 43 03 02 17 04 00 2d 3e   ........C.....->
0010  ba 39 4b 58 00 00 00 00 0f 6d 07 00 00 00 00 00   .9KX.....m......
0020  0f 00 00 00 00 00 00 00 00 00 00 00 00 00 00 00   ................
0030  00 00 00 00 00 00 00 00 00 00 00 00 00 00 00 00   ................
No.     Time           Source                Destination           Protocol Length Info
     44 17.929904000   host                  23.2                  USB      79     URB_BULK out

Frame 44: 79 bytes on wire (632 bits), 79 bytes captured (632 bits) on interface 0
    Interface id: 0
    Encapsulation type: USB packets with Linux header and padding (115)
    Arrival Time: Dec 10, 2016 00:09:46.580674000 CET
    [Time shift for this packet: 0.000000000 seconds]
    Epoch Time: 1481324986.580674000 seconds
    [Time delta from previous captured frame: 0.094003000 seconds]
    [Time delta from previous displayed frame: 0.094003000 seconds]
    [Time since reference or first frame: 17.929904000 seconds]
    Frame Number: 44
    Frame Length: 79 bytes (632 bits)
    Capture Length: 79 bytes (632 bits)
    [Frame is marked: False]
    [Frame is ignored: False]
    [Protocols in frame: usb]
USB URB
    URB id: 0x00000000f0552d80
    URB type: URB_SUBMIT ('S')
    URB transfer type: URB_BULK (0x03)
    Endpoint: 0x02, Direction: OUT
        0... .... = Direction: OUT (0)
        .000 0010 = Endpoint value: 2
    Device: 23
    URB bus id: 4
    Device setup request: not relevant ('-')
    Data: present (0)
    URB sec: 1481324986
    URB usec: 580674
    URB status: Operation now in progress (-EINPROGRESS) (-115)
    URB length [bytes]: 15
    Data length [bytes]: 15
    [Response in: 46]
    [bInterfaceClass: Vendor Specific (0xff)]
Leftover Capture Data: 4d4d12020000040200000082856ad5

0000  80 2d 55 f0 00 00 00 00 53 03 02 17 04 00 2d 00   .-U.....S.....-.
0010  ba 39 4b 58 00 00 00 00 42 dc 08 00 8d ff ff ff   .9KX....B.......
0020  0f 00 00 00 0f 00 00 00 00 00 00 00 00 00 00 00   ................
0030  00 00 00 00 00 00 00 00 00 00 00 00 00 00 00 00   ................
0040  4d 4d 12 02 00 00 04 02 00 00 00 82 85 6a d5      MM...........j.
No.     Time           Source                Destination           Protocol Length Info
     45 17.930888000   23.2                  host                  USB      64     URB_BULK out

Frame 45: 64 bytes on wire (512 bits), 64 bytes captured (512 bits) on interface 0
    Interface id: 0
    Encapsulation type: USB packets with Linux header and padding (115)
    Arrival Time: Dec 10, 2016 00:09:46.581658000 CET
    [Time shift for this packet: 0.000000000 seconds]
    Epoch Time: 1481324986.581658000 seconds
    [Time delta from previous captured frame: 0.000984000 seconds]
    [Time delta from previous displayed frame: 0.000984000 seconds]
    [Time since reference or first frame: 17.930888000 seconds]
    Frame Number: 45
    Frame Length: 64 bytes (512 bits)
    Capture Length: 64 bytes (512 bits)
    [Frame is marked: False]
    [Frame is ignored: False]
    [Protocols in frame: usb]
USB URB
    URB id: 0x00000000f0552d80
    URB type: URB_COMPLETE ('C')
    URB transfer type: URB_BULK (0x03)
    Endpoint: 0x02, Direction: OUT
        0... .... = Direction: OUT (0)
        .000 0010 = Endpoint value: 2
    Device: 23
    URB bus id: 4
    Device setup request: not relevant ('-')
    Data: not present ('>')
    URB sec: 1481324986
    URB usec: 581658
    URB status: Success (0)
    URB length [bytes]: 15
    Data length [bytes]: 0
    [Request in: 44]
    [Time from request: 0.000984000 seconds]
    [bInterfaceClass: Vendor Specific (0xff)]

0000  80 2d 55 f0 00 00 00 00 43 03 02 17 04 00 2d 3e   .-U.....C.....->
0010  ba 39 4b 58 00 00 00 00 1a e0 08 00 00 00 00 00   .9KX............
0020  0f 00 00 00 00 00 00 00 00 00 00 00 00 00 00 00   ................
0030  00 00 00 00 00 00 00 00 00 00 00 00 00 00 00 00   ................
No.     Time           Source                Destination           Protocol Length Info
     46 17.970893000   23.1                  host                  USB      79     URB_BULK in

Frame 46: 79 bytes on wire (632 bits), 79 bytes captured (632 bits) on interface 0
    Interface id: 0
    Encapsulation type: USB packets with Linux header and padding (115)
    Arrival Time: Dec 10, 2016 00:09:46.621663000 CET
    [Time shift for this packet: 0.000000000 seconds]
    Epoch Time: 1481324986.621663000 seconds
    [Time delta from previous captured frame: 0.040005000 seconds]
    [Time delta from previous displayed frame: 0.040005000 seconds]
    [Time since reference or first frame: 17.970893000 seconds]
    Frame Number: 46
    Frame Length: 79 bytes (632 bits)
    Capture Length: 79 bytes (632 bits)
    [Frame is marked: False]
    [Frame is ignored: False]
    [Protocols in frame: usb]
USB URB
    URB id: 0x00000000e2fef0c0
    URB type: URB_COMPLETE ('C')
    URB transfer type: URB_BULK (0x03)
    Endpoint: 0x81, Direction: IN
        1... .... = Direction: IN (1)
        .000 0001 = Endpoint value: 1
    Device: 23
    URB bus id: 4
    Device setup request: not relevant ('-')
    Data: present (0)
    URB sec: 1481324986
    URB usec: 621663
    URB status: Success (0)
    URB length [bytes]: 15
    Data length [bytes]: 15
    [Request in: 44]
    [Time from request: 0.040989000 seconds]
    [bInterfaceClass: Vendor Specific (0xff)]
Leftover Capture Data: 4d4d12010000040200b448f4a4cf28

0000  c0 f0 fe e2 00 00 00 00 43 03 81 17 04 00 2d 00   ........C.....-.
0010  ba 39 4b 58 00 00 00 00 5f 7c 09 00 00 00 00 00   .9KX...._|......
0020  0f 00 00 00 0f 00 00 00 00 00 00 00 00 00 00 00   ................
0030  00 00 00 00 00 00 00 00 00 02 00 00 00 00 00 00   ................
0040  4d 4d 12 01 00 00 04 02 00 b4 48 f4 a4 cf 28      MM........H...(
No.     Time           Source                Destination           Protocol Length Info
     47 17.972071000   host                  23.1                  USB      64     URB_BULK in

Frame 47: 64 bytes on wire (512 bits), 64 bytes captured (512 bits) on interface 0
    Interface id: 0
    Encapsulation type: USB packets with Linux header and padding (115)
    Arrival Time: Dec 10, 2016 00:09:46.622841000 CET
    [Time shift for this packet: 0.000000000 seconds]
    Epoch Time: 1481324986.622841000 seconds
    [Time delta from previous captured frame: 0.001178000 seconds]
    [Time delta from previous displayed frame: 0.001178000 seconds]
    [Time since reference or first frame: 17.972071000 seconds]
    Frame Number: 47
    Frame Length: 64 bytes (512 bits)
    Capture Length: 64 bytes (512 bits)
    [Frame is marked: False]
    [Frame is ignored: False]
    [Protocols in frame: usb]
USB URB
    URB id: 0x00000000e2fefcc0
    URB type: URB_SUBMIT ('S')
    URB transfer type: URB_BULK (0x03)
    Endpoint: 0x81, Direction: IN
        1... .... = Direction: IN (1)
        .000 0001 = Endpoint value: 1
    Device: 23
    URB bus id: 4
    Device setup request: not relevant ('-')
    Data: not present ('<')
    URB sec: 1481324986
    URB usec: 622841
    URB status: Operation now in progress (-EINPROGRESS) (-115)
    URB length [bytes]: 1000
    Data length [bytes]: 0
    [bInterfaceClass: Vendor Specific (0xff)]

0000  c0 fc fe e2 00 00 00 00 53 03 81 17 04 00 2d 3c   ........S.....-<
0010  ba 39 4b 58 00 00 00 00 f9 80 09 00 8d ff ff ff   .9KX............
0020  e8 03 00 00 00 00 00 00 00 00 00 00 00 00 00 00   ................
0030  00 00 00 00 00 00 00 00 00 02 00 00 00 00 00 00   ................
No.     Time           Source                Destination           Protocol Length Info
     48 18.034034000   host                  23.2                  USB      79     URB_BULK out

Frame 48: 79 bytes on wire (632 bits), 79 bytes captured (632 bits) on interface 0
    Interface id: 0
    Encapsulation type: USB packets with Linux header and padding (115)
    Arrival Time: Dec 10, 2016 00:09:46.684804000 CET
    [Time shift for this packet: 0.000000000 seconds]
    Epoch Time: 1481324986.684804000 seconds
    [Time delta from previous captured frame: 0.061963000 seconds]
    [Time delta from previous displayed frame: 0.061963000 seconds]
    [Time since reference or first frame: 18.034034000 seconds]
    Frame Number: 48
    Frame Length: 79 bytes (632 bits)
    Capture Length: 79 bytes (632 bits)
    [Frame is marked: False]
    [Frame is ignored: False]
    [Protocols in frame: usb]
USB URB
    URB id: 0x00000000e2fefc00
    URB type: URB_SUBMIT ('S')
    URB transfer type: URB_BULK (0x03)
    Endpoint: 0x02, Direction: OUT
        0... .... = Direction: OUT (0)
        .000 0010 = Endpoint value: 2
    Device: 23
    URB bus id: 4
    Device setup request: not relevant ('-')
    Data: present (0)
    URB sec: 1481324986
