No.     Time           Source                Destination           Protocol Length Info
      1 0.000000000    host                  35.0                  USB      64     GET DESCRIPTOR Request DEVICE

Frame 1: 64 bytes on wire (512 bits), 64 bytes captured (512 bits) on interface 0
    Interface id: 0
    Encapsulation type: USB packets with Linux header and padding (115)
    Arrival Time: Dec 10, 2016 01:24:11.409345000 CET
    [Time shift for this packet: 0.000000000 seconds]
    Epoch Time: 1481329451.409345000 seconds
    [Time delta from previous captured frame: 0.000000000 seconds]
    [Time delta from previous displayed frame: 0.000000000 seconds]
    [Time since reference or first frame: 0.000000000 seconds]
    Frame Number: 1
    Frame Length: 64 bytes (512 bits)
    Capture Length: 64 bytes (512 bits)
    [Frame is marked: False]
    [Frame is ignored: False]
    [Protocols in frame: usb]
USB URB
    URB id: 0x00000000f2251780
    URB type: URB_SUBMIT ('S')
    URB transfer type: URB_CONTROL (0x02)
    Endpoint: 0x80, Direction: IN
        1... .... = Direction: IN (1)
        .000 0000 = Endpoint value: 0
    Device: 35
    URB bus id: 4
    Device setup request: relevant (0)
    Data: not present ('<')
    URB sec: 1481329451
    URB usec: 409345
    URB status: Operation now in progress (-EINPROGRESS) (-115)
    URB length [bytes]: 40
    Data length [bytes]: 0
    [Response in: 2]
URB setup
    bmRequestType: 0x80
        1... .... = Direction: Device-to-host
        .00. .... = Type: Standard (0x00)
        ...0 0000 = Recipient: Device (0x00)
    bRequest: GET DESCRIPTOR (6)
    Descriptor Index: 0x00
    bDescriptorType: DEVICE (1)
    Language Id: no language specified (0x0000)
    wLength: 40

0000  80 17 25 f2 00 00 00 00 53 02 80 23 04 00 00 3c   ..%.....S..#...<
0010  2b 4b 4b 58 00 00 00 00 01 3f 06 00 8d ff ff ff   +KKX.....?......
0020  28 00 00 00 00 00 00 00 80 06 00 01 00 00 28 00   (.............(.
0030  00 00 00 00 00 00 00 00 00 02 00 00 00 00 00 00   ................
No.     Time           Source                Destination           Protocol Length Info
      2 0.000880000    35.0                  host                  USB      82     GET DESCRIPTOR Response DEVICE

Frame 2: 82 bytes on wire (656 bits), 82 bytes captured (656 bits) on interface 0
    Interface id: 0
    Encapsulation type: USB packets with Linux header and padding (115)
    Arrival Time: Dec 10, 2016 01:24:11.410225000 CET
    [Time shift for this packet: 0.000000000 seconds]
    Epoch Time: 1481329451.410225000 seconds
    [Time delta from previous captured frame: 0.000880000 seconds]
    [Time delta from previous displayed frame: 0.000880000 seconds]
    [Time since reference or first frame: 0.000880000 seconds]
    Frame Number: 2
    Frame Length: 82 bytes (656 bits)
    Capture Length: 82 bytes (656 bits)
    [Frame is marked: False]
    [Frame is ignored: False]
    [Protocols in frame: usb]
USB URB
    URB id: 0x00000000f2251780
    URB type: URB_COMPLETE ('C')
    URB transfer type: URB_CONTROL (0x02)
    Endpoint: 0x80, Direction: IN
        1... .... = Direction: IN (1)
        .000 0000 = Endpoint value: 0
    Device: 35
    URB bus id: 4
    Device setup request: not relevant ('-')
    Data: present (0)
    URB sec: 1481329451
    URB usec: 410225
    URB status: Success (0)
    URB length [bytes]: 18
    Data length [bytes]: 18
    [Request in: 1]
    [Time from request: 0.000880000 seconds]
    [bInterfaceClass: Unknown (0xffff)]
DEVICE DESCRIPTOR
    bLength: 18
    bDescriptorType: DEVICE (1)
    bcdUSB: 0x0110
    bDeviceClass: Vendor Specific (0xff)
    bDeviceSubClass: 255
    bDeviceProtocol: 255
    bMaxPacketSize0: 8
    idVendor: Cybiko Inc. (0x0b66)
    idProduct: Xtreme (0x0041)
    bcdDevice: 0x0001
    iManufacturer: 4
    iProduct: 28
    iSerialNumber: 0
    bNumConfigurations: 1

0000  80 17 25 f2 00 00 00 00 43 02 80 23 04 00 2d 00   ..%.....C..#..-.
0010  2b 4b 4b 58 00 00 00 00 71 42 06 00 00 00 00 00   +KKX....qB......
0020  12 00 00 00 12 00 00 00 00 00 00 00 00 00 00 00   ................
0030  00 00 00 00 00 00 00 00 00 02 00 00 00 00 00 00   ................
0040  12 01 10 01 ff ff ff 08 66 0b 41 00 01 00 04 1c   ........f.A.....
0050  00 01                                             ..
No.     Time           Source                Destination           Protocol Length Info
      5 21.291537000   host                  35.0                  USB      64     GET DESCRIPTOR Request DEVICE

Frame 5: 64 bytes on wire (512 bits), 64 bytes captured (512 bits) on interface 0
    Interface id: 0
    Encapsulation type: USB packets with Linux header and padding (115)
    Arrival Time: Dec 10, 2016 01:24:32.700882000 CET
    [Time shift for this packet: 0.000000000 seconds]
    Epoch Time: 1481329472.700882000 seconds
    [Time delta from previous captured frame: 21.290329000 seconds]
    [Time delta from previous displayed frame: 21.290657000 seconds]
    [Time since reference or first frame: 21.291537000 seconds]
    Frame Number: 5
    Frame Length: 64 bytes (512 bits)
    Capture Length: 64 bytes (512 bits)
    [Frame is marked: False]
    [Frame is ignored: False]
    [Protocols in frame: usb]
USB URB
    URB id: 0x00000000e2fef300
    URB type: URB_SUBMIT ('S')
    URB transfer type: URB_CONTROL (0x02)
    Endpoint: 0x80, Direction: IN
        1... .... = Direction: IN (1)
        .000 0000 = Endpoint value: 0
    Device: 35
    URB bus id: 4
    Device setup request: relevant (0)
    Data: not present ('<')
    URB sec: 1481329472
    URB usec: 700882
    URB status: Operation now in progress (-EINPROGRESS) (-115)
    URB length [bytes]: 18
    Data length [bytes]: 0
    [Response in: 6]
URB setup
    bmRequestType: 0x80
        1... .... = Direction: Device-to-host
        .00. .... = Type: Standard (0x00)
        ...0 0000 = Recipient: Device (0x00)
    bRequest: GET DESCRIPTOR (6)
    Descriptor Index: 0x00
    bDescriptorType: DEVICE (1)
    Language Id: no language specified (0x0000)
    wLength: 18

0000  00 f3 fe e2 00 00 00 00 53 02 80 23 04 00 00 3c   ........S..#...<
0010  40 4b 4b 58 00 00 00 00 d2 b1 0a 00 8d ff ff ff   @KKX............
0020  12 00 00 00 00 00 00 00 80 06 00 01 00 00 12 00   ................
0030  00 00 00 00 00 00 00 00 00 02 00 00 00 00 00 00   ................
No.     Time           Source                Destination           Protocol Length Info
      6 21.292897000   35.0                  host                  USB      82     GET DESCRIPTOR Response DEVICE

Frame 6: 82 bytes on wire (656 bits), 82 bytes captured (656 bits) on interface 0
    Interface id: 0
    Encapsulation type: USB packets with Linux header and padding (115)
    Arrival Time: Dec 10, 2016 01:24:32.702242000 CET
    [Time shift for this packet: 0.000000000 seconds]
    Epoch Time: 1481329472.702242000 seconds
    [Time delta from previous captured frame: 0.001360000 seconds]
    [Time delta from previous displayed frame: 0.001360000 seconds]
    [Time since reference or first frame: 21.292897000 seconds]
    Frame Number: 6
    Frame Length: 82 bytes (656 bits)
    Capture Length: 82 bytes (656 bits)
    [Frame is marked: False]
    [Frame is ignored: False]
    [Protocols in frame: usb]
USB URB
    URB id: 0x00000000e2fef300
    URB type: URB_COMPLETE ('C')
    URB transfer type: URB_CONTROL (0x02)
    Endpoint: 0x80, Direction: IN
        1... .... = Direction: IN (1)
        .000 0000 = Endpoint value: 0
    Device: 35
    URB bus id: 4
    Device setup request: not relevant ('-')
    Data: present (0)
    URB sec: 1481329472
    URB usec: 702242
    URB status: Success (0)
    URB length [bytes]: 18
    Data length [bytes]: 18
    [Request in: 5]
    [Time from request: 0.001360000 seconds]
    [bInterfaceClass: Unknown (0xffff)]
DEVICE DESCRIPTOR
    bLength: 18
    bDescriptorType: DEVICE (1)
    bcdUSB: 0x0110
    bDeviceClass: Vendor Specific (0xff)
    bDeviceSubClass: 255
    bDeviceProtocol: 255
    bMaxPacketSize0: 8
    idVendor: Cybiko Inc. (0x0b66)
    idProduct: Xtreme (0x0041)
    bcdDevice: 0x0001
    iManufacturer: 4
    iProduct: 28
    iSerialNumber: 0
    bNumConfigurations: 1

0000  00 f3 fe e2 00 00 00 00 43 02 80 23 04 00 2d 00   ........C..#..-.
0010  40 4b 4b 58 00 00 00 00 22 b7 0a 00 00 00 00 00   @KKX....".......
0020  12 00 00 00 12 00 00 00 00 00 00 00 00 00 00 00   ................
0030  00 00 00 00 00 00 00 00 00 02 00 00 00 00 00 00   ................
0040  12 01 10 01 ff ff ff 08 66 0b 41 00 01 00 04 1c   ........f.A.....
0050  00 01                                             ..
No.     Time           Source                Destination           Protocol Length Info
      7 21.292936000   host                  35.0                  USB      64     GET DESCRIPTOR Request CONFIGURATION

Frame 7: 64 bytes on wire (512 bits), 64 bytes captured (512 bits) on interface 0
    Interface id: 0
    Encapsulation type: USB packets with Linux header and padding (115)
    Arrival Time: Dec 10, 2016 01:24:32.702281000 CET
    [Time shift for this packet: 0.000000000 seconds]
    Epoch Time: 1481329472.702281000 seconds
    [Time delta from previous captured frame: 0.000039000 seconds]
    [Time delta from previous displayed frame: 0.000039000 seconds]
    [Time since reference or first frame: 21.292936000 seconds]
    Frame Number: 7
    Frame Length: 64 bytes (512 bits)
    Capture Length: 64 bytes (512 bits)
    [Frame is marked: False]
    [Frame is ignored: False]
    [Protocols in frame: usb]
USB URB
    URB id: 0x00000000e2fef300
    URB type: URB_SUBMIT ('S')
    URB transfer type: URB_CONTROL (0x02)
    Endpoint: 0x80, Direction: IN
        1... .... = Direction: IN (1)
        .000 0000 = Endpoint value: 0
    Device: 35
    URB bus id: 4
    Device setup request: relevant (0)
    Data: not present ('<')
    URB sec: 1481329472
    URB usec: 702281
    URB status: Operation now in progress (-EINPROGRESS) (-115)
    URB length [bytes]: 9
    Data length [bytes]: 0
    [Response in: 8]
URB setup
    bmRequestType: 0x80
        1... .... = Direction: Device-to-host
        .00. .... = Type: Standard (0x00)
        ...0 0000 = Recipient: Device (0x00)
    bRequest: GET DESCRIPTOR (6)
    Descriptor Index: 0x00
    bDescriptorType: CONFIGURATION (2)
    Language Id: no language specified (0x0000)
    wLength: 9

0000  00 f3 fe e2 00 00 00 00 53 02 80 23 04 00 00 3c   ........S..#...<
0010  40 4b 4b 58 00 00 00 00 49 b7 0a 00 8d ff ff ff   @KKX....I.......
0020  09 00 00 00 00 00 00 00 80 06 00 02 00 00 09 00   ................
0030  00 00 00 00 00 00 00 00 00 02 00 00 00 00 00 00   ................
No.     Time           Source                Destination           Protocol Length Info
      8 21.294893000   35.0                  host                  USB      73     GET DESCRIPTOR Response CONFIGURATION

Frame 8: 73 bytes on wire (584 bits), 73 bytes captured (584 bits) on interface 0
    Interface id: 0
    Encapsulation type: USB packets with Linux header and padding (115)
    Arrival Time: Dec 10, 2016 01:24:32.704238000 CET
    [Time shift for this packet: 0.000000000 seconds]
    Epoch Time: 1481329472.704238000 seconds
    [Time delta from previous captured frame: 0.001957000 seconds]
    [Time delta from previous displayed frame: 0.001957000 seconds]
    [Time since reference or first frame: 21.294893000 seconds]
    Frame Number: 8
    Frame Length: 73 bytes (584 bits)
    Capture Length: 73 bytes (584 bits)
    [Frame is marked: False]
    [Frame is ignored: False]
    [Protocols in frame: usb]
USB URB
    URB id: 0x00000000e2fef300
    URB type: URB_COMPLETE ('C')
    URB transfer type: URB_CONTROL (0x02)
    Endpoint: 0x80, Direction: IN
        1... .... = Direction: IN (1)
        .000 0000 = Endpoint value: 0
    Device: 35
    URB bus id: 4
    Device setup request: not relevant ('-')
    Data: present (0)
    URB sec: 1481329472
    URB usec: 704238
    URB status: Success (0)
    URB length [bytes]: 9
    Data length [bytes]: 9
    [Request in: 7]
    [Time from request: 0.001957000 seconds]
    [bInterfaceClass: Unknown (0xffff)]
CONFIGURATION DESCRIPTOR
    bLength: 9
    bDescriptorType: CONFIGURATION (2)
    wTotalLength: 46
    bNumInterfaces: 1
    bConfigurationValue: 1
    iConfiguration: 56
    Configuration bmAttributes: 0x80  NOT SELF-POWERED  NO REMOTE-WAKEUP
        1... .... = Must be 1: Must be 1 for USB 1.1 and higher
        .0.. .... = Self-Powered: This device is powered from the USB bus
        ..0. .... = Remote Wakeup: This device does NOT support remote wakeup
    bMaxPower: 150  (300mA)

0000  00 f3 fe e2 00 00 00 00 43 02 80 23 04 00 2d 00   ........C..#..-.
0010  40 4b 4b 58 00 00 00 00 ee be 0a 00 00 00 00 00   @KKX............
0020  09 00 00 00 09 00 00 00 00 00 00 00 00 00 00 00   ................
0030  00 00 00 00 00 00 00 00 00 02 00 00 00 00 00 00   ................
0040  09 02 2e 00 01 01 38 80 96                        ......8..
No.     Time           Source                Destination           Protocol Length Info
      9 21.294927000   host                  35.0                  USB      64     GET DESCRIPTOR Request CONFIGURATION

Frame 9: 64 bytes on wire (512 bits), 64 bytes captured (512 bits) on interface 0
    Interface id: 0
    Encapsulation type: USB packets with Linux header and padding (115)
    Arrival Time: Dec 10, 2016 01:24:32.704272000 CET
    [Time shift for this packet: 0.000000000 seconds]
    Epoch Time: 1481329472.704272000 seconds
    [Time delta from previous captured frame: 0.000034000 seconds]
    [Time delta from previous displayed frame: 0.000034000 seconds]
    [Time since reference or first frame: 21.294927000 seconds]
    Frame Number: 9
    Frame Length: 64 bytes (512 bits)
    Capture Length: 64 bytes (512 bits)
    [Frame is marked: False]
    [Frame is ignored: False]
    [Protocols in frame: usb]
USB URB
    URB id: 0x00000000e2fef300
    URB type: URB_SUBMIT ('S')
    URB transfer type: URB_CONTROL (0x02)
    Endpoint: 0x80, Direction: IN
        1... .... = Direction: IN (1)
        .000 0000 = Endpoint value: 0
    Device: 35
    URB bus id: 4
    Device setup request: relevant (0)
    Data: not present ('<')
    URB sec: 1481329472
    URB usec: 704272
    URB status: Operation now in progress (-EINPROGRESS) (-115)
    URB length [bytes]: 46
    Data length [bytes]: 0
    [Response in: 10]
URB setup
    bmRequestType: 0x80
        1... .... = Direction: Device-to-host
        .00. .... = Type: Standard (0x00)
        ...0 0000 = Recipient: Device (0x00)
    bRequest: GET DESCRIPTOR (6)
    Descriptor Index: 0x00
    bDescriptorType: CONFIGURATION (2)
    Language Id: no language specified (0x0000)
    wLength: 46

0000  00 f3 fe e2 00 00 00 00 53 02 80 23 04 00 00 3c   ........S..#...<
0010  40 4b 4b 58 00 00 00 00 10 bf 0a 00 8d ff ff ff   @KKX............
0020  2e 00 00 00 00 00 00 00 80 06 00 02 00 00 2e 00   ................
0030  00 00 00 00 00 00 00 00 00 02 00 00 00 00 00 00   ................
No.     Time           Source                Destination           Protocol Length Info
     10 21.297887000   35.0                  host                  USB      110    GET DESCRIPTOR Response CONFIGURATION

Frame 10: 110 bytes on wire (880 bits), 110 bytes captured (880 bits) on interface 0
    Interface id: 0
    Encapsulation type: USB packets with Linux header and padding (115)
    Arrival Time: Dec 10, 2016 01:24:32.707232000 CET
    [Time shift for this packet: 0.000000000 seconds]
    Epoch Time: 1481329472.707232000 seconds
    [Time delta from previous captured frame: 0.002960000 seconds]
    [Time delta from previous displayed frame: 0.002960000 seconds]
    [Time since reference or first frame: 21.297887000 seconds]
    Frame Number: 10
    Frame Length: 110 bytes (880 bits)
    Capture Length: 110 bytes (880 bits)
    [Frame is marked: False]
    [Frame is ignored: False]
    [Protocols in frame: usb]
USB URB
    URB id: 0x00000000e2fef300
    URB type: URB_COMPLETE ('C')
    URB transfer type: URB_CONTROL (0x02)
    Endpoint: 0x80, Direction: IN
        1... .... = Direction: IN (1)
        .000 0000 = Endpoint value: 0
    Device: 35
    URB bus id: 4
    Device setup request: not relevant ('-')
    Data: present (0)
    URB sec: 1481329472
    URB usec: 707232
    URB status: Success (0)
    URB length [bytes]: 46
    Data length [bytes]: 46
    [Request in: 9]
    [Time from request: 0.002960000 seconds]
    [bInterfaceClass: Unknown (0xffff)]
CONFIGURATION DESCRIPTOR
    bLength: 9
    bDescriptorType: CONFIGURATION (2)
    wTotalLength: 46
    bNumInterfaces: 1
    bConfigurationValue: 1
    iConfiguration: 56
    Configuration bmAttributes: 0x80  NOT SELF-POWERED  NO REMOTE-WAKEUP
        1... .... = Must be 1: Must be 1 for USB 1.1 and higher
        .0.. .... = Self-Powered: This device is powered from the USB bus
        ..0. .... = Remote Wakeup: This device does NOT support remote wakeup
    bMaxPower: 150  (300mA)
INTERFACE DESCRIPTOR (0.0): class Vendor Specific
    bLength: 9
    bDescriptorType: INTERFACE (4)
    bInterfaceNumber: 0
    bAlternateSetting: 0
    bNumEndpoints: 4
    bInterfaceClass: Vendor Specific (0xff)
    bInterfaceSubClass: 0xff
    bInterfaceProtocol: 0xff
    iInterface: 0
ENDPOINT DESCRIPTOR
    bLength: 7
    bDescriptorType: ENDPOINT (5)
    bEndpointAddress: 0x81  IN  Endpoint:1
        1... .... = Direction: IN Endpoint
        .... 0001 = Endpoint Number: 0x01
    bmAttributes: 0x02
        .... ..10 = Transfertype: Bulk-Transfer (0x02)
        .... 00.. = Synchronisationtype: No Sync (0x00)
        ..00 .... = Behaviourtype: Data-Endpoint (0x00)
    wMaxPacketSize: 64
        .... ..00 0100 0000 = Maximum Packet Size: 64
    bInterval: 0
ENDPOINT DESCRIPTOR
    bLength: 7
    bDescriptorType: ENDPOINT (5)
    bEndpointAddress: 0x02  OUT  Endpoint:2
        0... .... = Direction: OUT Endpoint
        .... 0010 = Endpoint Number: 0x02
    bmAttributes: 0x02
        .... ..10 = Transfertype: Bulk-Transfer (0x02)
        .... 00.. = Synchronisationtype: No Sync (0x00)
        ..00 .... = Behaviourtype: Data-Endpoint (0x00)
    wMaxPacketSize: 64
        .... ..00 0100 0000 = Maximum Packet Size: 64
    bInterval: 0
ENDPOINT DESCRIPTOR
    bLength: 7
    bDescriptorType: ENDPOINT (5)
    bEndpointAddress: 0x83  IN  Endpoint:3
        1... .... = Direction: IN Endpoint
        .... 0011 = Endpoint Number: 0x03
    bmAttributes: 0x02
        .... ..10 = Transfertype: Bulk-Transfer (0x02)
        .... 00.. = Synchronisationtype: No Sync (0x00)
        ..00 .... = Behaviourtype: Data-Endpoint (0x00)
    wMaxPacketSize: 64
        .... ..00 0100 0000 = Maximum Packet Size: 64
    bInterval: 0
ENDPOINT DESCRIPTOR
    bLength: 7
    bDescriptorType: ENDPOINT (5)
    bEndpointAddress: 0x04  OUT  Endpoint:4
        0... .... = Direction: OUT Endpoint
        .... 0100 = Endpoint Number: 0x04
    bmAttributes: 0x02
        .... ..10 = Transfertype: Bulk-Transfer (0x02)
        .... 00.. = Synchronisationtype: No Sync (0x00)
        ..00 .... = Behaviourtype: Data-Endpoint (0x00)
    wMaxPacketSize: 64
        .... ..00 0100 0000 = Maximum Packet Size: 64
    bInterval: 0

0000  00 f3 fe e2 00 00 00 00 43 02 80 23 04 00 2d 00   ........C..#..-.
0010  40 4b 4b 58 00 00 00 00 a0 ca 0a 00 00 00 00 00   @KKX............
0020  2e 00 00 00 2e 00 00 00 00 00 00 00 00 00 00 00   ................
0030  00 00 00 00 00 00 00 00 00 02 00 00 00 00 00 00   ................
0040  09 02 2e 00 01 01 38 80 96 09 04 00 00 04 ff ff   ......8.........
0050  ff 00 07 05 81 02 40 00 00 07 05 02 02 40 00 00   ......@......@..
0060  07 05 83 02 40 00 00 07 05 04 02 40 00 00         ....@......@..
No.     Time           Source                Destination           Protocol Length Info
     11 21.444287000   host                  35.0                  USB      64     GET DESCRIPTOR Request DEVICE

Frame 11: 64 bytes on wire (512 bits), 64 bytes captured (512 bits) on interface 0
    Interface id: 0
    Encapsulation type: USB packets with Linux header and padding (115)
    Arrival Time: Dec 10, 2016 01:24:32.853632000 CET
    [Time shift for this packet: 0.000000000 seconds]
    Epoch Time: 1481329472.853632000 seconds
    [Time delta from previous captured frame: 0.146400000 seconds]
    [Time delta from previous displayed frame: 0.146400000 seconds]
    [Time since reference or first frame: 21.444287000 seconds]
    Frame Number: 11
    Frame Length: 64 bytes (512 bits)
    Capture Length: 64 bytes (512 bits)
    [Frame is marked: False]
    [Frame is ignored: False]
    [Protocols in frame: usb]
USB URB
    URB id: 0x00000000cffe4f00
    URB type: URB_SUBMIT ('S')
    URB transfer type: URB_CONTROL (0x02)
    Endpoint: 0x80, Direction: IN
        1... .... = Direction: IN (1)
        .000 0000 = Endpoint value: 0
    Device: 35
    URB bus id: 4
    Device setup request: relevant (0)
    Data: not present ('<')
    URB sec: 1481329472
    URB usec: 853632
    URB status: Operation now in progress (-EINPROGRESS) (-115)
    URB length [bytes]: 64
    Data length [bytes]: 0
    [Response in: 12]
URB setup
    bmRequestType: 0x80
        1... .... = Direction: Device-to-host
        .00. .... = Type: Standard (0x00)
        ...0 0000 = Recipient: Device (0x00)
    bRequest: GET DESCRIPTOR (6)
    Descriptor Index: 0x00
    bDescriptorType: DEVICE (1)
    Language Id: no language specified (0x0000)
    wLength: 64

0000  00 4f fe cf 00 00 00 00 53 02 80 23 04 00 00 3c   .O......S..#...<
0010  40 4b 4b 58 00 00 00 00 80 06 0d 00 8d ff ff ff   @KKX............
0020  40 00 00 00 00 00 00 00 80 06 00 01 00 00 40 00   @.............@.
0030  00 00 00 00 00 00 00 00 00 02 00 00 00 00 00 00   ................
No.     Time           Source                Destination           Protocol Length Info
     12 21.445875000   35.0                  host                  USB      82     GET DESCRIPTOR Response DEVICE

Frame 12: 82 bytes on wire (656 bits), 82 bytes captured (656 bits) on interface 0
    Interface id: 0
    Encapsulation type: USB packets with Linux header and padding (115)
    Arrival Time: Dec 10, 2016 01:24:32.855220000 CET
    [Time shift for this packet: 0.000000000 seconds]
    Epoch Time: 1481329472.855220000 seconds
    [Time delta from previous captured frame: 0.001588000 seconds]
    [Time delta from previous displayed frame: 0.001588000 seconds]
    [Time since reference or first frame: 21.445875000 seconds]
    Frame Number: 12
    Frame Length: 82 bytes (656 bits)
    Capture Length: 82 bytes (656 bits)
    [Frame is marked: False]
    [Frame is ignored: False]
    [Protocols in frame: usb]
USB URB
    URB id: 0x00000000cffe4f00
    URB type: URB_COMPLETE ('C')
    URB transfer type: URB_CONTROL (0x02)
    Endpoint: 0x80, Direction: IN
        1... .... = Direction: IN (1)
        .000 0000 = Endpoint value: 0
    Device: 35
    URB bus id: 4
    Device setup request: not relevant ('-')
    Data: present (0)
    URB sec: 1481329472
    URB usec: 855220
    URB status: Success (0)
    URB length [bytes]: 18
    Data length [bytes]: 18
    [Request in: 11]
    [Time from request: 0.001588000 seconds]
    [bInterfaceClass: Unknown (0xffff)]
DEVICE DESCRIPTOR
    bLength: 18
    bDescriptorType: DEVICE (1)
    bcdUSB: 0x0110
    bDeviceClass: Vendor Specific (0xff)
    bDeviceSubClass: 255
    bDeviceProtocol: 255
    bMaxPacketSize0: 8
    idVendor: Cybiko Inc. (0x0b66)
    idProduct: Xtreme (0x0041)
    bcdDevice: 0x0001
    iManufacturer: 4
    iProduct: 28
    iSerialNumber: 0
    bNumConfigurations: 1

0000  00 4f fe cf 00 00 00 00 43 02 80 23 04 00 2d 00   .O......C..#..-.
0010  40 4b 4b 58 00 00 00 00 b4 0c 0d 00 00 00 00 00   @KKX............
0020  12 00 00 00 12 00 00 00 00 00 00 00 00 00 00 00   ................
0030  00 00 00 00 00 00 00 00 00 02 00 00 00 00 00 00   ................
0040  12 01 10 01 ff ff ff 08 66 0b 41 00 01 00 04 1c   ........f.A.....
0050  00 01                                             ..
No.     Time           Source                Destination           Protocol Length Info
     13 21.495479000   host                  35.0                  USB      64     GET DESCRIPTOR Request DEVICE

Frame 13: 64 bytes on wire (512 bits), 64 bytes captured (512 bits) on interface 0
    Interface id: 0
    Encapsulation type: USB packets with Linux header and padding (115)
    Arrival Time: Dec 10, 2016 01:24:32.904824000 CET
    [Time shift for this packet: 0.000000000 seconds]
    Epoch Time: 1481329472.904824000 seconds
    [Time delta from previous captured frame: 0.049604000 seconds]
    [Time delta from previous displayed frame: 0.049604000 seconds]
    [Time since reference or first frame: 21.495479000 seconds]
    Frame Number: 13
    Frame Length: 64 bytes (512 bits)
    Capture Length: 64 bytes (512 bits)
    [Frame is marked: False]
    [Frame is ignored: False]
    [Protocols in frame: usb]
USB URB
    URB id: 0x00000000cffe4f00
    URB type: URB_SUBMIT ('S')
    URB transfer type: URB_CONTROL (0x02)
    Endpoint: 0x80, Direction: IN
        1... .... = Direction: IN (1)
        .000 0000 = Endpoint value: 0
    Device: 35
    URB bus id: 4
    Device setup request: relevant (0)
    Data: not present ('<')
    URB sec: 1481329472
    URB usec: 904824
    URB status: Operation now in progress (-EINPROGRESS) (-115)
    URB length [bytes]: 18
    Data length [bytes]: 0
    [Response in: 14]
URB setup
    bmRequestType: 0x80
        1... .... = Direction: Device-to-host
        .00. .... = Type: Standard (0x00)
        ...0 0000 = Recipient: Device (0x00)
    bRequest: GET DESCRIPTOR (6)
    Descriptor Index: 0x00
    bDescriptorType: DEVICE (1)
    Language Id: no language specified (0x0000)
    wLength: 18

0000  00 4f fe cf 00 00 00 00 53 02 80 23 04 00 00 3c   .O......S..#...<
0010  40 4b 4b 58 00 00 00 00 78 ce 0d 00 8d ff ff ff   @KKX....x.......
0020  12 00 00 00 00 00 00 00 80 06 00 01 00 00 12 00   ................
0030  00 00 00 00 00 00 00 00 00 02 00 00 00 00 00 00   ................
No.     Time           Source                Destination           Protocol Length Info
     14 21.496896000   35.0                  host                  USB      82     GET DESCRIPTOR Response DEVICE

Frame 14: 82 bytes on wire (656 bits), 82 bytes captured (656 bits) on interface 0
    Interface id: 0
    Encapsulation type: USB packets with Linux header and padding (115)
    Arrival Time: Dec 10, 2016 01:24:32.906241000 CET
    [Time shift for this packet: 0.000000000 seconds]
    Epoch Time: 1481329472.906241000 seconds
    [Time delta from previous captured frame: 0.001417000 seconds]
    [Time delta from previous displayed frame: 0.001417000 seconds]
    [Time since reference or first frame: 21.496896000 seconds]
    Frame Number: 14
    Frame Length: 82 bytes (656 bits)
    Capture Length: 82 bytes (656 bits)
    [Frame is marked: False]
    [Frame is ignored: False]
    [Protocols in frame: usb]
USB URB
    URB id: 0x00000000cffe4f00
    URB type: URB_COMPLETE ('C')
    URB transfer type: URB_CONTROL (0x02)
    Endpoint: 0x80, Direction: IN
        1... .... = Direction: IN (1)
        .000 0000 = Endpoint value: 0
    Device: 35
    URB bus id: 4
    Device setup request: not relevant ('-')
    Data: present (0)
    URB sec: 1481329472
    URB usec: 906241
    URB status: Success (0)
    URB length [bytes]: 18
    Data length [bytes]: 18
    [Request in: 13]
    [Time from request: 0.001417000 seconds]
    [bInterfaceClass: Unknown (0xffff)]
DEVICE DESCRIPTOR
    bLength: 18
    bDescriptorType: DEVICE (1)
    bcdUSB: 0x0110
    bDeviceClass: Vendor Specific (0xff)
    bDeviceSubClass: 255
    bDeviceProtocol: 255
    bMaxPacketSize0: 8
    idVendor: Cybiko Inc. (0x0b66)
    idProduct: Xtreme (0x0041)
    bcdDevice: 0x0001
    iManufacturer: 4
    iProduct: 28
    iSerialNumber: 0
    bNumConfigurations: 1

0000  00 4f fe cf 00 00 00 00 43 02 80 23 04 00 2d 00   .O......C..#..-.
0010  40 4b 4b 58 00 00 00 00 01 d4 0d 00 00 00 00 00   @KKX............
0020  12 00 00 00 12 00 00 00 00 00 00 00 00 00 00 00   ................
0030  00 00 00 00 00 00 00 00 00 02 00 00 00 00 00 00   ................
0040  12 01 10 01 ff ff ff 08 66 0b 41 00 01 00 04 1c   ........f.A.....
0050  00 01                                             ..
No.     Time           Source                Destination           Protocol Length Info
     15 21.499628000   host                  35.0                  USB      64     GET DESCRIPTOR Request CONFIGURATION

Frame 15: 64 bytes on wire (512 bits), 64 bytes captured (512 bits) on interface 0
    Interface id: 0
    Encapsulation type: USB packets with Linux header and padding (115)
    Arrival Time: Dec 10, 2016 01:24:32.908973000 CET
    [Time shift for this packet: 0.000000000 seconds]
    Epoch Time: 1481329472.908973000 seconds
    [Time delta from previous captured frame: 0.002732000 seconds]
    [Time delta from previous displayed frame: 0.002732000 seconds]
    [Time since reference or first frame: 21.499628000 seconds]
    Frame Number: 15
    Frame Length: 64 bytes (512 bits)
    Capture Length: 64 bytes (512 bits)
    [Frame is marked: False]
    [Frame is ignored: False]
    [Protocols in frame: usb]
USB URB
    URB id: 0x00000000cffe4f00
    URB type: URB_SUBMIT ('S')
    URB transfer type: URB_CONTROL (0x02)
    Endpoint: 0x80, Direction: IN
        1... .... = Direction: IN (1)
        .000 0000 = Endpoint value: 0
    Device: 35
    URB bus id: 4
    Device setup request: relevant (0)
    Data: not present ('<')
    URB sec: 1481329472
    URB usec: 908973
    URB status: Operation now in progress (-EINPROGRESS) (-115)
    URB length [bytes]: 9
    Data length [bytes]: 0
    [Response in: 16]
URB setup
    bmRequestType: 0x80
        1... .... = Direction: Device-to-host
        .00. .... = Type: Standard (0x00)
        ...0 0000 = Recipient: Device (0x00)
    bRequest: GET DESCRIPTOR (6)
    Descriptor Index: 0x00
    bDescriptorType: CONFIGURATION (2)
    Language Id: no language specified (0x0000)
    wLength: 9

0000  00 4f fe cf 00 00 00 00 53 02 80 23 04 00 00 3c   .O......S..#...<
0010  40 4b 4b 58 00 00 00 00 ad de 0d 00 8d ff ff ff   @KKX............
0020  09 00 00 00 00 00 00 00 80 06 00 02 00 00 09 00   ................
0030  00 00 00 00 00 00 00 00 00 02 00 00 00 00 00 00   ................
No.     Time           Source                Destination           Protocol Length Info
     16 21.500894000   35.0                  host                  USB      73     GET DESCRIPTOR Response CONFIGURATION

Frame 16: 73 bytes on wire (584 bits), 73 bytes captured (584 bits) on interface 0
    Interface id: 0
    Encapsulation type: USB packets with Linux header and padding (115)
    Arrival Time: Dec 10, 2016 01:24:32.910239000 CET
    [Time shift for this packet: 0.000000000 seconds]
    Epoch Time: 1481329472.910239000 seconds
    [Time delta from previous captured frame: 0.001266000 seconds]
    [Time delta from previous displayed frame: 0.001266000 seconds]
    [Time since reference or first frame: 21.500894000 seconds]
    Frame Number: 16
    Frame Length: 73 bytes (584 bits)
    Capture Length: 73 bytes (584 bits)
    [Frame is marked: False]
    [Frame is ignored: False]
    [Protocols in frame: usb]
USB URB
    URB id: 0x00000000cffe4f00
    URB type: URB_COMPLETE ('C')
    URB transfer type: URB_CONTROL (0x02)
    Endpoint: 0x80, Direction: IN
        1... .... = Direction: IN (1)
        .000 0000 = Endpoint value: 0
    Device: 35
    URB bus id: 4
    Device setup request: not relevant ('-')
    Data: present (0)
    URB sec: 1481329472
    URB usec: 910239
    URB status: Success (0)
    URB length [bytes]: 9
    Data length [bytes]: 9
    [Request in: 15]
    [Time from request: 0.001266000 seconds]
    [bInterfaceClass: Unknown (0xffff)]
CONFIGURATION DESCRIPTOR
    bLength: 9
    bDescriptorType: CONFIGURATION (2)
    wTotalLength: 46
    bNumInterfaces: 1
    bConfigurationValue: 1
    iConfiguration: 56
    Configuration bmAttributes: 0x80  NOT SELF-POWERED  NO REMOTE-WAKEUP
        1... .... = Must be 1: Must be 1 for USB 1.1 and higher
        .0.. .... = Self-Powered: This device is powered from the USB bus
        ..0. .... = Remote Wakeup: This device does NOT support remote wakeup
    bMaxPower: 150  (300mA)

0000  00 4f fe cf 00 00 00 00 43 02 80 23 04 00 2d 00   .O......C..#..-.
0010  40 4b 4b 58 00 00 00 00 9f e3 0d 00 00 00 00 00   @KKX............
0020  09 00 00 00 09 00 00 00 00 00 00 00 00 00 00 00   ................
0030  00 00 00 00 00 00 00 00 00 02 00 00 00 00 00 00   ................
0040  09 02 2e 00 01 01 38 80 96                        ......8..
No.     Time           Source                Destination           Protocol Length Info
     17 21.503826000   host                  35.0                  USB      64     GET DESCRIPTOR Request CONFIGURATION

Frame 17: 64 bytes on wire (512 bits), 64 bytes captured (512 bits) on interface 0
    Interface id: 0
    Encapsulation type: USB packets with Linux header and padding (115)
    Arrival Time: Dec 10, 2016 01:24:32.913171000 CET
    [Time shift for this packet: 0.000000000 seconds]
    Epoch Time: 1481329472.913171000 seconds
    [Time delta from previous captured frame: 0.002932000 seconds]
    [Time delta from previous displayed frame: 0.002932000 seconds]
    [Time since reference or first frame: 21.503826000 seconds]
    Frame Number: 17
    Frame Length: 64 bytes (512 bits)
    Capture Length: 64 bytes (512 bits)
    [Frame is marked: False]
    [Frame is ignored: False]
    [Protocols in frame: usb]
USB URB
    URB id: 0x00000000cffe4f00
    URB type: URB_SUBMIT ('S')
    URB transfer type: URB_CONTROL (0x02)
    Endpoint: 0x80, Direction: IN
        1... .... = Direction: IN (1)
        .000 0000 = Endpoint value: 0
    Device: 35
    URB bus id: 4
    Device setup request: relevant (0)
    Data: not present ('<')
    URB sec: 1481329472
    URB usec: 913171
    URB status: Operation now in progress (-EINPROGRESS) (-115)
    URB length [bytes]: 255
    Data length [bytes]: 0
    [Response in: 18]
URB setup
    bmRequestType: 0x80
        1... .... = Direction: Device-to-host
        .00. .... = Type: Standard (0x00)
        ...0 0000 = Recipient: Device (0x00)
    bRequest: GET DESCRIPTOR (6)
    Descriptor Index: 0x00
    bDescriptorType: CONFIGURATION (2)
    Language Id: no language specified (0x0000)
    wLength: 255

0000  00 4f fe cf 00 00 00 00 53 02 80 23 04 00 00 3c   .O......S..#...<
0010  40 4b 4b 58 00 00 00 00 13 ef 0d 00 8d ff ff ff   @KKX............
0020  ff 00 00 00 00 00 00 00 80 06 00 02 00 00 ff 00   ................
0030  00 00 00 00 00 00 00 00 00 02 00 00 00 00 00 00   ................
No.     Time           Source                Destination           Protocol Length Info
     18 21.505891000   35.0                  host                  USB      110    GET DESCRIPTOR Response CONFIGURATION

Frame 18: 110 bytes on wire (880 bits), 110 bytes captured (880 bits) on interface 0
    Interface id: 0
    Encapsulation type: USB packets with Linux header and padding (115)
    Arrival Time: Dec 10, 2016 01:24:32.915236000 CET
    [Time shift for this packet: 0.000000000 seconds]
    Epoch Time: 1481329472.915236000 seconds
    [Time delta from previous captured frame: 0.002065000 seconds]
    [Time delta from previous displayed frame: 0.002065000 seconds]
    [Time since reference or first frame: 21.505891000 seconds]
    Frame Number: 18
    Frame Length: 110 bytes (880 bits)
    Capture Length: 110 bytes (880 bits)
    [Frame is marked: False]
    [Frame is ignored: False]
    [Protocols in frame: usb]
USB URB
    URB id: 0x00000000cffe4f00
    URB type: URB_COMPLETE ('C')
    URB transfer type: URB_CONTROL (0x02)
    Endpoint: 0x80, Direction: IN
        1... .... = Direction: IN (1)
        .000 0000 = Endpoint value: 0
    Device: 35
    URB bus id: 4
    Device setup request: not relevant ('-')
    Data: present (0)
    URB sec: 1481329472
    URB usec: 915236
    URB status: Success (0)
    URB length [bytes]: 46
    Data length [bytes]: 46
    [Request in: 17]
    [Time from request: 0.002065000 seconds]
    [bInterfaceClass: Unknown (0xffff)]
CONFIGURATION DESCRIPTOR
    bLength: 9
    bDescriptorType: CONFIGURATION (2)
    wTotalLength: 46
    bNumInterfaces: 1
    bConfigurationValue: 1
    iConfiguration: 56
    Configuration bmAttributes: 0x80  NOT SELF-POWERED  NO REMOTE-WAKEUP
        1... .... = Must be 1: Must be 1 for USB 1.1 and higher
        .0.. .... = Self-Powered: This device is powered from the USB bus
        ..0. .... = Remote Wakeup: This device does NOT support remote wakeup
    bMaxPower: 150  (300mA)
INTERFACE DESCRIPTOR (0.0): class Vendor Specific
    bLength: 9
    bDescriptorType: INTERFACE (4)
    bInterfaceNumber: 0
    bAlternateSetting: 0
    bNumEndpoints: 4
    bInterfaceClass: Vendor Specific (0xff)
    bInterfaceSubClass: 0xff
    bInterfaceProtocol: 0xff
    iInterface: 0
ENDPOINT DESCRIPTOR
    bLength: 7
    bDescriptorType: ENDPOINT (5)
    bEndpointAddress: 0x81  IN  Endpoint:1
        1... .... = Direction: IN Endpoint
        .... 0001 = Endpoint Number: 0x01
    bmAttributes: 0x02
        .... ..10 = Transfertype: Bulk-Transfer (0x02)
        .... 00.. = Synchronisationtype: No Sync (0x00)
        ..00 .... = Behaviourtype: Data-Endpoint (0x00)
    wMaxPacketSize: 64
        .... ..00 0100 0000 = Maximum Packet Size: 64
    bInterval: 0
ENDPOINT DESCRIPTOR
    bLength: 7
    bDescriptorType: ENDPOINT (5)
    bEndpointAddress: 0x02  OUT  Endpoint:2
        0... .... = Direction: OUT Endpoint
        .... 0010 = Endpoint Number: 0x02
    bmAttributes: 0x02
        .... ..10 = Transfertype: Bulk-Transfer (0x02)
        .... 00.. = Synchronisationtype: No Sync (0x00)
        ..00 .... = Behaviourtype: Data-Endpoint (0x00)
    wMaxPacketSize: 64
        .... ..00 0100 0000 = Maximum Packet Size: 64
    bInterval: 0
ENDPOINT DESCRIPTOR
    bLength: 7
    bDescriptorType: ENDPOINT (5)
    bEndpointAddress: 0x83  IN  Endpoint:3
        1... .... = Direction: IN Endpoint
        .... 0011 = Endpoint Number: 0x03
    bmAttributes: 0x02
        .... ..10 = Transfertype: Bulk-Transfer (0x02)
        .... 00.. = Synchronisationtype: No Sync (0x00)
        ..00 .... = Behaviourtype: Data-Endpoint (0x00)
    wMaxPacketSize: 64
        .... ..00 0100 0000 = Maximum Packet Size: 64
    bInterval: 0
ENDPOINT DESCRIPTOR
    bLength: 7
    bDescriptorType: ENDPOINT (5)
    bEndpointAddress: 0x04  OUT  Endpoint:4
        0... .... = Direction: OUT Endpoint
        .... 0100 = Endpoint Number: 0x04
    bmAttributes: 0x02
        .... ..10 = Transfertype: Bulk-Transfer (0x02)
        .... 00.. = Synchronisationtype: No Sync (0x00)
        ..00 .... = Behaviourtype: Data-Endpoint (0x00)
    wMaxPacketSize: 64
        .... ..00 0100 0000 = Maximum Packet Size: 64
    bInterval: 0

0000  00 4f fe cf 00 00 00 00 43 02 80 23 04 00 2d 00   .O......C..#..-.
0010  40 4b 4b 58 00 00 00 00 24 f7 0d 00 00 00 00 00   @KKX....$.......
0020  2e 00 00 00 2e 00 00 00 00 00 00 00 00 00 00 00   ................
0030  00 00 00 00 00 00 00 00 00 02 00 00 00 00 00 00   ................
0040  09 02 2e 00 01 01 38 80 96 09 04 00 00 04 ff ff   ......8.........
0050  ff 00 07 05 81 02 40 00 00 07 05 02 02 40 00 00   ......@......@..
0060  07 05 83 02 40 00 00 07 05 04 02 40 00 00         ....@......@..
No.     Time           Source                Destination           Protocol Length Info
     19 21.509289000   host                  35.0                  USB      64     GET DESCRIPTOR Request STRING

Frame 19: 64 bytes on wire (512 bits), 64 bytes captured (512 bits) on interface 0
    Interface id: 0
    Encapsulation type: USB packets with Linux header and padding (115)
    Arrival Time: Dec 10, 2016 01:24:32.918634000 CET
    [Time shift for this packet: 0.000000000 seconds]
    Epoch Time: 1481329472.918634000 seconds
    [Time delta from previous captured frame: 0.003398000 seconds]
    [Time delta from previous displayed frame: 0.003398000 seconds]
    [Time since reference or first frame: 21.509289000 seconds]
    Frame Number: 19
    Frame Length: 64 bytes (512 bits)
    Capture Length: 64 bytes (512 bits)
    [Frame is marked: False]
    [Frame is ignored: False]
    [Protocols in frame: usb]
USB URB
    URB id: 0x00000000cffe4180
    URB type: URB_SUBMIT ('S')
    URB transfer type: URB_CONTROL (0x02)
    Endpoint: 0x80, Direction: IN
        1... .... = Direction: IN (1)
        .000 0000 = Endpoint value: 0
    Device: 35
    URB bus id: 4
    Device setup request: relevant (0)
    Data: not present ('<')
    URB sec: 1481329472
    URB usec: 918634
    URB status: Operation now in progress (-EINPROGRESS) (-115)
    URB length [bytes]: 255
    Data length [bytes]: 0
    [Response in: 20]
URB setup
    bmRequestType: 0x80
        1... .... = Direction: Device-to-host
        .00. .... = Type: Standard (0x00)
        ...0 0000 = Recipient: Device (0x00)
    bRequest: GET DESCRIPTOR (6)
    Descriptor Index: 0x00
    bDescriptorType: STRING (3)
    Language Id: no language specified (0x0000)
    wLength: 255

0000  80 41 fe cf 00 00 00 00 53 02 80 23 04 00 00 3c   .A......S..#...<
0010  40 4b 4b 58 00 00 00 00 6a 04 0e 00 8d ff ff ff   @KKX....j.......
0020  ff 00 00 00 00 00 00 00 80 06 00 03 00 00 ff 00   ................
0030  00 00 00 00 00 00 00 00 00 02 00 00 00 00 00 00   ................
No.     Time           Source                Destination           Protocol Length Info
     20 21.509890000   35.0                  host                  USB      68     GET DESCRIPTOR Response STRING

Frame 20: 68 bytes on wire (544 bits), 68 bytes captured (544 bits) on interface 0
    Interface id: 0
    Encapsulation type: USB packets with Linux header and padding (115)
    Arrival Time: Dec 10, 2016 01:24:32.919235000 CET
    [Time shift for this packet: 0.000000000 seconds]
    Epoch Time: 1481329472.919235000 seconds
    [Time delta from previous captured frame: 0.000601000 seconds]
    [Time delta from previous displayed frame: 0.000601000 seconds]
    [Time since reference or first frame: 21.509890000 seconds]
    Frame Number: 20
    Frame Length: 68 bytes (544 bits)
    Capture Length: 68 bytes (544 bits)
    [Frame is marked: False]
    [Frame is ignored: False]
    [Protocols in frame: usb]
USB URB
    URB id: 0x00000000cffe4180
    URB type: URB_COMPLETE ('C')
    URB transfer type: URB_CONTROL (0x02)
    Endpoint: 0x80, Direction: IN
        1... .... = Direction: IN (1)
        .000 0000 = Endpoint value: 0
    Device: 35
    URB bus id: 4
    Device setup request: not relevant ('-')
    Data: present (0)
    URB sec: 1481329472
    URB usec: 919235
    URB status: Success (0)
    URB length [bytes]: 4
    Data length [bytes]: 4
    [Request in: 19]
    [Time from request: 0.000601000 seconds]
    [bInterfaceClass: Unknown (0xffff)]
STRING DESCRIPTOR
    bLength: 4
    bDescriptorType: STRING (3)
    wLANGID: English (United States) (0x0409)

0000  80 41 fe cf 00 00 00 00 43 02 80 23 04 00 2d 00   .A......C..#..-.
0010  40 4b 4b 58 00 00 00 00 c3 06 0e 00 00 00 00 00   @KKX............
0020  04 00 00 00 04 00 00 00 00 00 00 00 00 00 00 00   ................
0030  00 00 00 00 00 00 00 00 00 02 00 00 00 00 00 00   ................
0040  04 03 09 04                                       ....
No.     Time           Source                Destination           Protocol Length Info
     21 21.512548000   host                  35.0                  USB      64     GET DESCRIPTOR Request STRING

Frame 21: 64 bytes on wire (512 bits), 64 bytes captured (512 bits) on interface 0
    Interface id: 0
    Encapsulation type: USB packets with Linux header and padding (115)
    Arrival Time: Dec 10, 2016 01:24:32.921893000 CET
    [Time shift for this packet: 0.000000000 seconds]
    Epoch Time: 1481329472.921893000 seconds
    [Time delta from previous captured frame: 0.002658000 seconds]
    [Time delta from previous displayed frame: 0.002658000 seconds]
    [Time since reference or first frame: 21.512548000 seconds]
    Frame Number: 21
    Frame Length: 64 bytes (512 bits)
    Capture Length: 64 bytes (512 bits)
    [Frame is marked: False]
    [Frame is ignored: False]
    [Protocols in frame: usb]
USB URB
    URB id: 0x00000000cffe4180
    URB type: URB_SUBMIT ('S')
    URB transfer type: URB_CONTROL (0x02)
    Endpoint: 0x80, Direction: IN
        1... .... = Direction: IN (1)
        .000 0000 = Endpoint value: 0
    Device: 35
    URB bus id: 4
    Device setup request: relevant (0)
    Data: not present ('<')
    URB sec: 1481329472
    URB usec: 921893
    URB status: Operation now in progress (-EINPROGRESS) (-115)
    URB length [bytes]: 255
    Data length [bytes]: 0
    [Response in: 22]
URB setup
    bmRequestType: 0x80
        1... .... = Direction: Device-to-host
        .00. .... = Type: Standard (0x00)
        ...0 0000 = Recipient: Device (0x00)
    bRequest: GET DESCRIPTOR (6)
    Descriptor Index: 0x1c
    bDescriptorType: STRING (3)
    Language Id: English (United States) (0x0409)
    wLength: 255

0000  80 41 fe cf 00 00 00 00 53 02 80 23 04 00 00 3c   .A......S..#...<
0010  40 4b 4b 58 00 00 00 00 25 11 0e 00 8d ff ff ff   @KKX....%.......
0020  ff 00 00 00 00 00 00 00 80 06 1c 03 09 04 ff 00   ................
0030  00 00 00 00 00 00 00 00 00 02 00 00 00 00 00 00   ................
No.     Time           Source                Destination           Protocol Length Info
     22 21.513894000   35.0                  host                  USB      92     GET DESCRIPTOR Response STRING

Frame 22: 92 bytes on wire (736 bits), 92 bytes captured (736 bits) on interface 0
    Interface id: 0
    Encapsulation type: USB packets with Linux header and padding (115)
    Arrival Time: Dec 10, 2016 01:24:32.923239000 CET
    [Time shift for this packet: 0.000000000 seconds]
    Epoch Time: 1481329472.923239000 seconds
    [Time delta from previous captured frame: 0.001346000 seconds]
    [Time delta from previous displayed frame: 0.001346000 seconds]
    [Time since reference or first frame: 21.513894000 seconds]
    Frame Number: 22
    Frame Length: 92 bytes (736 bits)
    Capture Length: 92 bytes (736 bits)
    [Frame is marked: False]
    [Frame is ignored: False]
    [Protocols in frame: usb]
USB URB
    URB id: 0x00000000cffe4180
    URB type: URB_COMPLETE ('C')
    URB transfer type: URB_CONTROL (0x02)
    Endpoint: 0x80, Direction: IN
        1... .... = Direction: IN (1)
        .000 0000 = Endpoint value: 0
    Device: 35
    URB bus id: 4
    Device setup request: not relevant ('-')
    Data: present (0)
    URB sec: 1481329472
    URB usec: 923239
    URB status: Success (0)
    URB length [bytes]: 28
    Data length [bytes]: 28
    [Request in: 21]
    [Time from request: 0.001346000 seconds]
    [bInterfaceClass: Unknown (0xffff)]
STRING DESCRIPTOR
    bLength: 28
    bDescriptorType: STRING (3)
    bString: Cybiko Xtreme

0000  80 41 fe cf 00 00 00 00 43 02 80 23 04 00 2d 00   .A......C..#..-.
0010  40 4b 4b 58 00 00 00 00 67 16 0e 00 00 00 00 00   @KKX....g.......
0020  1c 00 00 00 1c 00 00 00 00 00 00 00 00 00 00 00   ................
0030  00 00 00 00 00 00 00 00 00 02 00 00 00 00 00 00   ................
0040  1c 03 43 00 79 00 62 00 69 00 6b 00 6f 00 20 00   ..C.y.b.i.k.o. .
0050  58 00 74 00 72 00 65 00 6d 00 65 00               X.t.r.e.m.e.
No.     Time           Source                Destination           Protocol Length Info
     23 21.516930000   host                  35.0                  USB      64     GET DESCRIPTOR Request STRING

Frame 23: 64 bytes on wire (512 bits), 64 bytes captured (512 bits) on interface 0
    Interface id: 0
    Encapsulation type: USB packets with Linux header and padding (115)
    Arrival Time: Dec 10, 2016 01:24:32.926275000 CET
    [Time shift for this packet: 0.000000000 seconds]
    Epoch Time: 1481329472.926275000 seconds
    [Time delta from previous captured frame: 0.003036000 seconds]
    [Time delta from previous displayed frame: 0.003036000 seconds]
    [Time since reference or first frame: 21.516930000 seconds]
    Frame Number: 23
    Frame Length: 64 bytes (512 bits)
    Capture Length: 64 bytes (512 bits)
    [Frame is marked: False]
    [Frame is ignored: False]
    [Protocols in frame: usb]
USB URB
    URB id: 0x00000000cffe4180
    URB type: URB_SUBMIT ('S')
    URB transfer type: URB_CONTROL (0x02)
    Endpoint: 0x80, Direction: IN
        1... .... = Direction: IN (1)
        .000 0000 = Endpoint value: 0
    Device: 35
    URB bus id: 4
    Device setup request: relevant (0)
    Data: not present ('<')
    URB sec: 1481329472
    URB usec: 926275
    URB status: Operation now in progress (-EINPROGRESS) (-115)
    URB length [bytes]: 255
    Data length [bytes]: 0
    [Response in: 24]
URB setup
    bmRequestType: 0x80
        1... .... = Direction: Device-to-host
        .00. .... = Type: Standard (0x00)
        ...0 0000 = Recipient: Device (0x00)
    bRequest: GET DESCRIPTOR (6)
    Descriptor Index: 0x00
    bDescriptorType: STRING (3)
    Language Id: no language specified (0x0000)
    wLength: 255

0000  80 41 fe cf 00 00 00 00 53 02 80 23 04 00 00 3c   .A......S..#...<
0010  40 4b 4b 58 00 00 00 00 43 22 0e 00 8d ff ff ff   @KKX....C"......
0020  ff 00 00 00 00 00 00 00 80 06 00 03 00 00 ff 00   ................
0030  00 00 00 00 00 00 00 00 00 02 00 00 00 00 00 00   ................
No.     Time           Source                Destination           Protocol Length Info
     24 21.517891000   35.0                  host                  USB      68     GET DESCRIPTOR Response STRING

Frame 24: 68 bytes on wire (544 bits), 68 bytes captured (544 bits) on interface 0
    Interface id: 0
    Encapsulation type: USB packets with Linux header and padding (115)
    Arrival Time: Dec 10, 2016 01:24:32.927236000 CET
    [Time shift for this packet: 0.000000000 seconds]
    Epoch Time: 1481329472.927236000 seconds
    [Time delta from previous captured frame: 0.000961000 seconds]
    [Time delta from previous displayed frame: 0.000961000 seconds]
    [Time since reference or first frame: 21.517891000 seconds]
    Frame Number: 24
    Frame Length: 68 bytes (544 bits)
    Capture Length: 68 bytes (544 bits)
    [Frame is marked: False]
    [Frame is ignored: False]
    [Protocols in frame: usb]
USB URB
    URB id: 0x00000000cffe4180
    URB type: URB_COMPLETE ('C')
    URB transfer type: URB_CONTROL (0x02)
    Endpoint: 0x80, Direction: IN
        1... .... = Direction: IN (1)
        .000 0000 = Endpoint value: 0
    Device: 35
    URB bus id: 4
    Device setup request: not relevant ('-')
    Data: present (0)
    URB sec: 1481329472
    URB usec: 927236
    URB status: Success (0)
    URB length [bytes]: 4
    Data length [bytes]: 4
    [Request in: 23]
    [Time from request: 0.000961000 seconds]
    [bInterfaceClass: Unknown (0xffff)]
STRING DESCRIPTOR
    bLength: 4
    bDescriptorType: STRING (3)
    wLANGID: English (United States) (0x0409)

0000  80 41 fe cf 00 00 00 00 43 02 80 23 04 00 2d 00   .A......C..#..-.
0010  40 4b 4b 58 00 00 00 00 04 26 0e 00 00 00 00 00   @KKX.....&......
0020  04 00 00 00 04 00 00 00 00 00 00 00 00 00 00 00   ................
0030  00 00 00 00 00 00 00 00 00 02 00 00 00 00 00 00   ................
0040  04 03 09 04                                       ....
No.     Time           Source                Destination           Protocol Length Info
     25 21.520204000   host                  35.0                  USB      64     GET DESCRIPTOR Request STRING

Frame 25: 64 bytes on wire (512 bits), 64 bytes captured (512 bits) on interface 0
    Interface id: 0
    Encapsulation type: USB packets with Linux header and padding (115)
    Arrival Time: Dec 10, 2016 01:24:32.929549000 CET
    [Time shift for this packet: 0.000000000 seconds]
    Epoch Time: 1481329472.929549000 seconds
    [Time delta from previous captured frame: 0.002313000 seconds]
    [Time delta from previous displayed frame: 0.002313000 seconds]
    [Time since reference or first frame: 21.520204000 seconds]
    Frame Number: 25
    Frame Length: 64 bytes (512 bits)
    Capture Length: 64 bytes (512 bits)
    [Frame is marked: False]
    [Frame is ignored: False]
    [Protocols in frame: usb]
USB URB
    URB id: 0x00000000cffe4180
    URB type: URB_SUBMIT ('S')
    URB transfer type: URB_CONTROL (0x02)
    Endpoint: 0x80, Direction: IN
        1... .... = Direction: IN (1)
        .000 0000 = Endpoint value: 0
    Device: 35
    URB bus id: 4
    Device setup request: relevant (0)
    Data: not present ('<')
    URB sec: 1481329472
    URB usec: 929549
    URB status: Operation now in progress (-EINPROGRESS) (-115)
    URB length [bytes]: 255
    Data length [bytes]: 0
    [Response in: 26]
URB setup
    bmRequestType: 0x80
        1... .... = Direction: Device-to-host
        .00. .... = Type: Standard (0x00)
        ...0 0000 = Recipient: Device (0x00)
    bRequest: GET DESCRIPTOR (6)
    Descriptor Index: 0x1c
    bDescriptorType: STRING (3)
    Language Id: English (United States) (0x0409)
    wLength: 255

0000  80 41 fe cf 00 00 00 00 53 02 80 23 04 00 00 3c   .A......S..#...<
0010  40 4b 4b 58 00 00 00 00 0d 2f 0e 00 8d ff ff ff   @KKX...../......
0020  ff 00 00 00 00 00 00 00 80 06 1c 03 09 04 ff 00   ................
0030  00 00 00 00 00 00 00 00 00 02 00 00 00 00 00 00   ................
No.     Time           Source                Destination           Protocol Length Info
     26 21.521897000   35.0                  host                  USB      92     GET DESCRIPTOR Response STRING

Frame 26: 92 bytes on wire (736 bits), 92 bytes captured (736 bits) on interface 0
    Interface id: 0
    Encapsulation type: USB packets with Linux header and padding (115)
    Arrival Time: Dec 10, 2016 01:24:32.931242000 CET
    [Time shift for this packet: 0.000000000 seconds]
    Epoch Time: 1481329472.931242000 seconds
    [Time delta from previous captured frame: 0.001693000 seconds]
    [Time delta from previous displayed frame: 0.001693000 seconds]
    [Time since reference or first frame: 21.521897000 seconds]
    Frame Number: 26
    Frame Length: 92 bytes (736 bits)
    Capture Length: 92 bytes (736 bits)
    [Frame is marked: False]
    [Frame is ignored: False]
    [Protocols in frame: usb]
USB URB
    URB id: 0x00000000cffe4180
    URB type: URB_COMPLETE ('C')
    URB transfer type: URB_CONTROL (0x02)
    Endpoint: 0x80, Direction: IN
        1... .... = Direction: IN (1)
        .000 0000 = Endpoint value: 0
    Device: 35
    URB bus id: 4
    Device setup request: not relevant ('-')
    Data: present (0)
    URB sec: 1481329472
    URB usec: 931242
    URB status: Success (0)
    URB length [bytes]: 28
    Data length [bytes]: 28
    [Request in: 25]
    [Time from request: 0.001693000 seconds]
    [bInterfaceClass: Unknown (0xffff)]
STRING DESCRIPTOR
    bLength: 28
    bDescriptorType: STRING (3)
    bString: Cybiko Xtreme

0000  80 41 fe cf 00 00 00 00 43 02 80 23 04 00 2d 00   .A......C..#..-.
0010  40 4b 4b 58 00 00 00 00 aa 35 0e 00 00 00 00 00   @KKX.....5......
0020  1c 00 00 00 1c 00 00 00 00 00 00 00 00 00 00 00   ................
0030  00 00 00 00 00 00 00 00 00 02 00 00 00 00 00 00   ................
0040  1c 03 43 00 79 00 62 00 69 00 6b 00 6f 00 20 00   ..C.y.b.i.k.o. .
0050  58 00 74 00 72 00 65 00 6d 00 65 00               X.t.r.e.m.e.
No.     Time           Source                Destination           Protocol Length Info
     27 21.528575000   host                  35.0                  USB      64     GET DESCRIPTOR Request DEVICE

Frame 27: 64 bytes on wire (512 bits), 64 bytes captured (512 bits) on interface 0
    Interface id: 0
    Encapsulation type: USB packets with Linux header and padding (115)
    Arrival Time: Dec 10, 2016 01:24:32.937920000 CET
    [Time shift for this packet: 0.000000000 seconds]
    Epoch Time: 1481329472.937920000 seconds
    [Time delta from previous captured frame: 0.006678000 seconds]
    [Time delta from previous displayed frame: 0.006678000 seconds]
    [Time since reference or first frame: 21.528575000 seconds]
    Frame Number: 27
    Frame Length: 64 bytes (512 bits)
    Capture Length: 64 bytes (512 bits)
    [Frame is marked: False]
    [Frame is ignored: False]
    [Protocols in frame: usb]
USB URB
    URB id: 0x00000000cffe4180
    URB type: URB_SUBMIT ('S')
    URB transfer type: URB_CONTROL (0x02)
    Endpoint: 0x80, Direction: IN
        1... .... = Direction: IN (1)
        .000 0000 = Endpoint value: 0
    Device: 35
    URB bus id: 4
    Device setup request: relevant (0)
    Data: not present ('<')
    URB sec: 1481329472
    URB usec: 937920
    URB status: Operation now in progress (-EINPROGRESS) (-115)
    URB length [bytes]: 18
    Data length [bytes]: 0
    [Response in: 28]
URB setup
    bmRequestType: 0x80
        1... .... = Direction: Device-to-host
        .00. .... = Type: Standard (0x00)
        ...0 0000 = Recipient: Device (0x00)
    bRequest: GET DESCRIPTOR (6)
    Descriptor Index: 0x00
    bDescriptorType: DEVICE (1)
    Language Id: no language specified (0x0000)
    wLength: 18

0000  80 41 fe cf 00 00 00 00 53 02 80 23 04 00 00 3c   .A......S..#...<
0010  40 4b 4b 58 00 00 00 00 c0 4f 0e 00 8d ff ff ff   @KKX.....O......
0020  12 00 00 00 00 00 00 00 80 06 00 01 00 00 12 00   ................
0030  00 00 00 00 00 00 00 00 00 02 00 00 00 00 00 00   ................
No.     Time           Source                Destination           Protocol Length Info
     28 21.534876000   35.0                  host                  USB      82     GET DESCRIPTOR Response DEVICE

Frame 28: 82 bytes on wire (656 bits), 82 bytes captured (656 bits) on interface 0
    Interface id: 0
    Encapsulation type: USB packets with Linux header and padding (115)
    Arrival Time: Dec 10, 2016 01:24:32.944221000 CET
    [Time shift for this packet: 0.000000000 seconds]
    Epoch Time: 1481329472.944221000 seconds
    [Time delta from previous captured frame: 0.006301000 seconds]
    [Time delta from previous displayed frame: 0.006301000 seconds]
    [Time since reference or first frame: 21.534876000 seconds]
    Frame Number: 28
    Frame Length: 82 bytes (656 bits)
    Capture Length: 82 bytes (656 bits)
    [Frame is marked: False]
    [Frame is ignored: False]
    [Protocols in frame: usb]
USB URB
    URB id: 0x00000000cffe4180
    URB type: URB_COMPLETE ('C')
    URB transfer type: URB_CONTROL (0x02)
    Endpoint: 0x80, Direction: IN
        1... .... = Direction: IN (1)
        .000 0000 = Endpoint value: 0
    Device: 35
    URB bus id: 4
    Device setup request: not relevant ('-')
    Data: present (0)
    URB sec: 1481329472
    URB usec: 944221
    URB status: Success (0)
    URB length [bytes]: 18
    Data length [bytes]: 18
    [Request in: 27]
    [Time from request: 0.006301000 seconds]
    [bInterfaceClass: Unknown (0xffff)]
DEVICE DESCRIPTOR
    bLength: 18
    bDescriptorType: DEVICE (1)
    bcdUSB: 0x0110
    bDeviceClass: Vendor Specific (0xff)
    bDeviceSubClass: 255
    bDeviceProtocol: 255
    bMaxPacketSize0: 8
    idVendor: Cybiko Inc. (0x0b66)
    idProduct: Xtreme (0x0041)
    bcdDevice: 0x0001
    iManufacturer: 4
    iProduct: 28
    iSerialNumber: 0
    bNumConfigurations: 1

0000  80 41 fe cf 00 00 00 00 43 02 80 23 04 00 2d 00   .A......C..#..-.
0010  40 4b 4b 58 00 00 00 00 5d 68 0e 00 00 00 00 00   @KKX....]h......
0020  12 00 00 00 12 00 00 00 00 00 00 00 00 00 00 00   ................
0030  00 00 00 00 00 00 00 00 00 02 00 00 00 00 00 00   ................
0040  12 01 10 01 ff ff ff 08 66 0b 41 00 01 00 04 1c   ........f.A.....
0050  00 01                                             ..
No.     Time           Source                Destination           Protocol Length Info
     29 21.537351000   host                  35.0                  USB      64     GET DESCRIPTOR Request CONFIGURATION

Frame 29: 64 bytes on wire (512 bits), 64 bytes captured (512 bits) on interface 0
    Interface id: 0
    Encapsulation type: USB packets with Linux header and padding (115)
    Arrival Time: Dec 10, 2016 01:24:32.946696000 CET
    [Time shift for this packet: 0.000000000 seconds]
    Epoch Time: 1481329472.946696000 seconds
    [Time delta from previous captured frame: 0.002475000 seconds]
    [Time delta from previous displayed frame: 0.002475000 seconds]
    [Time since reference or first frame: 21.537351000 seconds]
    Frame Number: 29
    Frame Length: 64 bytes (512 bits)
    Capture Length: 64 bytes (512 bits)
    [Frame is marked: False]
    [Frame is ignored: False]
    [Protocols in frame: usb]
USB URB
    URB id: 0x00000000cffe46c0
    URB type: URB_SUBMIT ('S')
    URB transfer type: URB_CONTROL (0x02)
    Endpoint: 0x80, Direction: IN
        1... .... = Direction: IN (1)
        .000 0000 = Endpoint value: 0
    Device: 35
    URB bus id: 4
    Device setup request: relevant (0)
    Data: not present ('<')
    URB sec: 1481329472
    URB usec: 946696
    URB status: Operation now in progress (-EINPROGRESS) (-115)
    URB length [bytes]: 14
    Data length [bytes]: 0
    [Response in: 30]
URB setup
    bmRequestType: 0x80
        1... .... = Direction: Device-to-host
        .00. .... = Type: Standard (0x00)
        ...0 0000 = Recipient: Device (0x00)
    bRequest: GET DESCRIPTOR (6)
    Descriptor Index: 0x00
    bDescriptorType: CONFIGURATION (2)
    Language Id: no language specified (0x0000)
    wLength: 14

0000  c0 46 fe cf 00 00 00 00 53 02 80 23 04 00 00 3c   .F......S..#...<
0010  40 4b 4b 58 00 00 00 00 08 72 0e 00 8d ff ff ff   @KKX.....r......
0020  0e 00 00 00 00 00 00 00 80 06 00 02 00 00 0e 00   ................
0030  00 00 00 00 00 00 00 00 00 02 00 00 00 00 00 00   ................
No.     Time           Source                Destination           Protocol Length Info
     30 21.537876000   35.0                  host                  USB      78     GET DESCRIPTOR Response CONFIGURATION

Frame 30: 78 bytes on wire (624 bits), 78 bytes captured (624 bits) on interface 0
    Interface id: 0
    Encapsulation type: USB packets with Linux header and padding (115)
    Arrival Time: Dec 10, 2016 01:24:32.947221000 CET
    [Time shift for this packet: 0.000000000 seconds]
    Epoch Time: 1481329472.947221000 seconds
    [Time delta from previous captured frame: 0.000525000 seconds]
    [Time delta from previous displayed frame: 0.000525000 seconds]
    [Time since reference or first frame: 21.537876000 seconds]
    Frame Number: 30
    Frame Length: 78 bytes (624 bits)
    Capture Length: 78 bytes (624 bits)
    [Frame is marked: False]
    [Frame is ignored: False]
    [Protocols in frame: usb]
USB URB
    URB id: 0x00000000cffe46c0
    URB type: URB_COMPLETE ('C')
    URB transfer type: URB_CONTROL (0x02)
    Endpoint: 0x80, Direction: IN
        1... .... = Direction: IN (1)
        .000 0000 = Endpoint value: 0
    Device: 35
    URB bus id: 4
    Device setup request: not relevant ('-')
    Data: present (0)
    URB sec: 1481329472
    URB usec: 947221
    URB status: Success (0)
    URB length [bytes]: 14
    Data length [bytes]: 14
    [Request in: 29]
    [Time from request: 0.000525000 seconds]
    [bInterfaceClass: Unknown (0xffff)]
CONFIGURATION DESCRIPTOR
    bLength: 9
    bDescriptorType: CONFIGURATION (2)
    wTotalLength: 46
    bNumInterfaces: 1
    bConfigurationValue: 1
    iConfiguration: 56
    Configuration bmAttributes: 0x80  NOT SELF-POWERED  NO REMOTE-WAKEUP
        1... .... = Must be 1: Must be 1 for USB 1.1 and higher
        .0.. .... = Self-Powered: This device is powered from the USB bus
        ..0. .... = Remote Wakeup: This device does NOT support remote wakeup
    bMaxPower: 150  (300mA)
Leftover Capture Data: 0904000004

0000  c0 46 fe cf 00 00 00 00 43 02 80 23 04 00 2d 00   .F......C..#..-.
0010  40 4b 4b 58 00 00 00 00 15 74 0e 00 00 00 00 00   @KKX.....t......
0020  0e 00 00 00 0e 00 00 00 00 00 00 00 00 00 00 00   ................
0030  00 00 00 00 00 00 00 00 00 02 00 00 00 00 00 00   ................
0040  09 02 2e 00 01 01 38 80 96 09 04 00 00 04         ......8.......
No.     Time           Source                Destination           Protocol Length Info
     31 21.540472000   host                  35.0                  USB      64     GET DESCRIPTOR Request CONFIGURATION

Frame 31: 64 bytes on wire (512 bits), 64 bytes captured (512 bits) on interface 0
    Interface id: 0
    Encapsulation type: USB packets with Linux header and padding (115)
    Arrival Time: Dec 10, 2016 01:24:32.949817000 CET
    [Time shift for this packet: 0.000000000 seconds]
    Epoch Time: 1481329472.949817000 seconds
    [Time delta from previous captured frame: 0.002596000 seconds]
    [Time delta from previous displayed frame: 0.002596000 seconds]
    [Time since reference or first frame: 21.540472000 seconds]
    Frame Number: 31
    Frame Length: 64 bytes (512 bits)
    Capture Length: 64 bytes (512 bits)
    [Frame is marked: False]
    [Frame is ignored: False]
    [Protocols in frame: usb]
USB URB
    URB id: 0x00000000e2fefe40
    URB type: URB_SUBMIT ('S')
    URB transfer type: URB_CONTROL (0x02)
    Endpoint: 0x80, Direction: IN
        1... .... = Direction: IN (1)
        .000 0000 = Endpoint value: 0
    Device: 35
    URB bus id: 4
    Device setup request: relevant (0)
    Data: not present ('<')
    URB sec: 1481329472
    URB usec: 949817
    URB status: Operation now in progress (-EINPROGRESS) (-115)
    URB length [bytes]: 46
    Data length [bytes]: 0
    [Response in: 32]
URB setup
    bmRequestType: 0x80
        1... .... = Direction: Device-to-host
        .00. .... = Type: Standard (0x00)
        ...0 0000 = Recipient: Device (0x00)
    bRequest: GET DESCRIPTOR (6)
    Descriptor Index: 0x00
    bDescriptorType: CONFIGURATION (2)
    Language Id: no language specified (0x0000)
    wLength: 46

0000  40 fe fe e2 00 00 00 00 53 02 80 23 04 00 00 3c   @.......S..#...<
0010  40 4b 4b 58 00 00 00 00 39 7e 0e 00 8d ff ff ff   @KKX....9~......
0020  2e 00 00 00 00 00 00 00 80 06 00 02 00 00 2e 00   ................
0030  00 00 00 00 00 00 00 00 00 02 00 00 00 00 00 00   ................
No.     Time           Source                Destination           Protocol Length Info
     32 21.541887000   35.0                  host                  USB      110    GET DESCRIPTOR Response CONFIGURATION

Frame 32: 110 bytes on wire (880 bits), 110 bytes captured (880 bits) on interface 0
    Interface id: 0
    Encapsulation type: USB packets with Linux header and padding (115)
    Arrival Time: Dec 10, 2016 01:24:32.951232000 CET
    [Time shift for this packet: 0.000000000 seconds]
    Epoch Time: 1481329472.951232000 seconds
    [Time delta from previous captured frame: 0.001415000 seconds]
    [Time delta from previous displayed frame: 0.001415000 seconds]
    [Time since reference or first frame: 21.541887000 seconds]
    Frame Number: 32
    Frame Length: 110 bytes (880 bits)
    Capture Length: 110 bytes (880 bits)
    [Frame is marked: False]
    [Frame is ignored: False]
    [Protocols in frame: usb]
USB URB
    URB id: 0x00000000e2fefe40
    URB type: URB_COMPLETE ('C')
    URB transfer type: URB_CONTROL (0x02)
    Endpoint: 0x80, Direction: IN
        1... .... = Direction: IN (1)
        .000 0000 = Endpoint value: 0
    Device: 35
    URB bus id: 4
    Device setup request: not relevant ('-')
    Data: present (0)
    URB sec: 1481329472
    URB usec: 951232
    URB status: Success (0)
    URB length [bytes]: 46
    Data length [bytes]: 46
    [Request in: 31]
    [Time from request: 0.001415000 seconds]
    [bInterfaceClass: Unknown (0xffff)]
CONFIGURATION DESCRIPTOR
    bLength: 9
    bDescriptorType: CONFIGURATION (2)
    wTotalLength: 46
    bNumInterfaces: 1
    bConfigurationValue: 1
    iConfiguration: 56
    Configuration bmAttributes: 0x80  NOT SELF-POWERED  NO REMOTE-WAKEUP
        1... .... = Must be 1: Must be 1 for USB 1.1 and higher
        .0.. .... = Self-Powered: This device is powered from the USB bus
        ..0. .... = Remote Wakeup: This device does NOT support remote wakeup
    bMaxPower: 150  (300mA)
INTERFACE DESCRIPTOR (0.0): class Vendor Specific
    bLength: 9
    bDescriptorType: INTERFACE (4)
    bInterfaceNumber: 0
    bAlternateSetting: 0
    bNumEndpoints: 4
    bInterfaceClass: Vendor Specific (0xff)
    bInterfaceSubClass: 0xff
    bInterfaceProtocol: 0xff
    iInterface: 0
ENDPOINT DESCRIPTOR
    bLength: 7
    bDescriptorType: ENDPOINT (5)
    bEndpointAddress: 0x81  IN  Endpoint:1
        1... .... = Direction: IN Endpoint
        .... 0001 = Endpoint Number: 0x01
    bmAttributes: 0x02
        .... ..10 = Transfertype: Bulk-Transfer (0x02)
        .... 00.. = Synchronisationtype: No Sync (0x00)
        ..00 .... = Behaviourtype: Data-Endpoint (0x00)
    wMaxPacketSize: 64
        .... ..00 0100 0000 = Maximum Packet Size: 64
    bInterval: 0
ENDPOINT DESCRIPTOR
    bLength: 7
    bDescriptorType: ENDPOINT (5)
    bEndpointAddress: 0x02  OUT  Endpoint:2
        0... .... = Direction: OUT Endpoint
        .... 0010 = Endpoint Number: 0x02
    bmAttributes: 0x02
        .... ..10 = Transfertype: Bulk-Transfer (0x02)
        .... 00.. = Synchronisationtype: No Sync (0x00)
        ..00 .... = Behaviourtype: Data-Endpoint (0x00)
    wMaxPacketSize: 64
        .... ..00 0100 0000 = Maximum Packet Size: 64
    bInterval: 0
ENDPOINT DESCRIPTOR
    bLength: 7
    bDescriptorType: ENDPOINT (5)
    bEndpointAddress: 0x83  IN  Endpoint:3
        1... .... = Direction: IN Endpoint
        .... 0011 = Endpoint Number: 0x03
    bmAttributes: 0x02
        .... ..10 = Transfertype: Bulk-Transfer (0x02)
        .... 00.. = Synchronisationtype: No Sync (0x00)
        ..00 .... = Behaviourtype: Data-Endpoint (0x00)
    wMaxPacketSize: 64
        .... ..00 0100 0000 = Maximum Packet Size: 64
    bInterval: 0
ENDPOINT DESCRIPTOR
    bLength: 7
    bDescriptorType: ENDPOINT (5)
    bEndpointAddress: 0x04  OUT  Endpoint:4
        0... .... = Direction: OUT Endpoint
        .... 0100 = Endpoint Number: 0x04
    bmAttributes: 0x02
        .... ..10 = Transfertype: Bulk-Transfer (0x02)
        .... 00.. = Synchronisationtype: No Sync (0x00)
        ..00 .... = Behaviourtype: Data-Endpoint (0x00)
    wMaxPacketSize: 64
        .... ..00 0100 0000 = Maximum Packet Size: 64
    bInterval: 0

0000  40 fe fe e2 00 00 00 00 43 02 80 23 04 00 2d 00   @.......C..#..-.
0010  40 4b 4b 58 00 00 00 00 c0 83 0e 00 00 00 00 00   @KKX............
0020  2e 00 00 00 2e 00 00 00 00 00 00 00 00 00 00 00   ................
0030  00 00 00 00 00 00 00 00 00 02 00 00 00 00 00 00   ................
0040  09 02 2e 00 01 01 38 80 96 09 04 00 00 04 ff ff   ......8.........
0050  ff 00 07 05 81 02 40 00 00 07 05 02 02 40 00 00   ......@......@..
0060  07 05 83 02 40 00 00 07 05 04 02 40 00 00         ....@......@..
No.     Time           Source                Destination           Protocol Length Info
     33 21.544578000   host                  35.0                  USB      64     GET DESCRIPTOR Request STRING

Frame 33: 64 bytes on wire (512 bits), 64 bytes captured (512 bits) on interface 0
    Interface id: 0
    Encapsulation type: USB packets with Linux header and padding (115)
    Arrival Time: Dec 10, 2016 01:24:32.953923000 CET
    [Time shift for this packet: 0.000000000 seconds]
    Epoch Time: 1481329472.953923000 seconds
    [Time delta from previous captured frame: 0.002691000 seconds]
    [Time delta from previous displayed frame: 0.002691000 seconds]
    [Time since reference or first frame: 21.544578000 seconds]
    Frame Number: 33
    Frame Length: 64 bytes (512 bits)
    Capture Length: 64 bytes (512 bits)
    [Frame is marked: False]
    [Frame is ignored: False]
    [Protocols in frame: usb]
USB URB
    URB id: 0x00000000cffe4f00
    URB type: URB_SUBMIT ('S')
    URB transfer type: URB_CONTROL (0x02)
    Endpoint: 0x80, Direction: IN
        1... .... = Direction: IN (1)
        .000 0000 = Endpoint value: 0
    Device: 35
    URB bus id: 4
    Device setup request: relevant (0)
    Data: not present ('<')
    URB sec: 1481329472
    URB usec: 953923
    URB status: Operation now in progress (-EINPROGRESS) (-115)
    URB length [bytes]: 46
    Data length [bytes]: 0
    [Response in: 34]
URB setup
    bmRequestType: 0x80
        1... .... = Direction: Device-to-host
        .00. .... = Type: Standard (0x00)
        ...0 0000 = Recipient: Device (0x00)
    bRequest: GET DESCRIPTOR (6)
    Descriptor Index: 0x38
    bDescriptorType: STRING (3)
    Language Id: no language specified (0x0000)
    wLength: 46

0000  00 4f fe cf 00 00 00 00 53 02 80 23 04 00 00 3c   .O......S..#...<
0010  40 4b 4b 58 00 00 00 00 43 8e 0e 00 8d ff ff ff   @KKX....C.......
0020  2e 00 00 00 00 00 00 00 80 06 38 03 00 00 2e 00   ..........8.....
0030  00 00 00 00 00 00 00 00 00 02 00 00 00 00 00 00   ................
No.     Time           Source                Destination           Protocol Length Info
     34 21.545884000   35.0                  host                  USB      110    GET DESCRIPTOR Response STRING

Frame 34: 110 bytes on wire (880 bits), 110 bytes captured (880 bits) on interface 0
    Interface id: 0
    Encapsulation type: USB packets with Linux header and padding (115)
    Arrival Time: Dec 10, 2016 01:24:32.955229000 CET
    [Time shift for this packet: 0.000000000 seconds]
    Epoch Time: 1481329472.955229000 seconds
    [Time delta from previous captured frame: 0.001306000 seconds]
    [Time delta from previous displayed frame: 0.001306000 seconds]
    [Time since reference or first frame: 21.545884000 seconds]
    Frame Number: 34
    Frame Length: 110 bytes (880 bits)
    Capture Length: 110 bytes (880 bits)
    [Frame is marked: False]
    [Frame is ignored: False]
    [Protocols in frame: usb]
USB URB
    URB id: 0x00000000cffe4f00
    URB type: URB_COMPLETE ('C')
    URB transfer type: URB_CONTROL (0x02)
    Endpoint: 0x80, Direction: IN
        1... .... = Direction: IN (1)
        .000 0000 = Endpoint value: 0
    Device: 35
    URB bus id: 4
    Device setup request: not relevant ('-')
    Data: present (0)
    URB sec: 1481329472
    URB usec: 955229
    URB status: Success (0)
    URB length [bytes]: 46
    Data length [bytes]: 46
    [Request in: 33]
    [Time from request: 0.001306000 seconds]
    [bInterfaceClass: Unknown (0xffff)]
STRING DESCRIPTOR
    bLength: 46
    bDescriptorType: STRING (3)
    bString: C000006EAD008 @XTAXETA

0000  00 4f fe cf 00 00 00 00 43 02 80 23 04 00 2d 00   .O......C..#..-.
0010  40 4b 4b 58 00 00 00 00 5d 93 0e 00 00 00 00 00   @KKX....].......
0020  2e 00 00 00 2e 00 00 00 00 00 00 00 00 00 00 00   ................
0030  00 00 00 00 00 00 00 00 00 02 00 00 00 00 00 00   ................
0040  2e 03 43 00 30 00 30 00 30 00 30 00 30 00 36 00   ..C.0.0.0.0.0.6.
0050  45 00 41 00 44 00 30 00 30 00 38 00 20 00 40 00   E.A.D.0.0.8. .@.
0060  58 00 54 00 41 00 58 00 45 00 54 00 41 00         X.T.A.X.E.T.A.
No.     Time           Source                Destination           Protocol Length Info
     35 21.626519000   host                  35.2                  USB      79     URB_BULK out

Frame 35: 79 bytes on wire (632 bits), 79 bytes captured (632 bits) on interface 0
    Interface id: 0
    Encapsulation type: USB packets with Linux header and padding (115)
    Arrival Time: Dec 10, 2016 01:24:33.035864000 CET
    [Time shift for this packet: 0.000000000 seconds]
    Epoch Time: 1481329473.035864000 seconds
    [Time delta from previous captured frame: 0.080635000 seconds]
    [Time delta from previous displayed frame: 0.080635000 seconds]
    [Time since reference or first frame: 21.626519000 seconds]
    Frame Number: 35
    Frame Length: 79 bytes (632 bits)
    Capture Length: 79 bytes (632 bits)
    [Frame is marked: False]
    [Frame is ignored: False]
    [Protocols in frame: usb]
USB URB
    URB id: 0x00000000e4760d80
    URB type: URB_SUBMIT ('S')
    URB transfer type: URB_BULK (0x03)
    Endpoint: 0x02, Direction: OUT
        0... .... = Direction: OUT (0)
        .000 0010 = Endpoint value: 2
    Device: 35
    URB bus id: 4
    Device setup request: not relevant ('-')
    Data: present (0)
    URB sec: 1481329473
    URB usec: 35864
    URB status: Operation now in progress (-EINPROGRESS) (-115)
    URB length [bytes]: 15
    Data length [bytes]: 15
    [bInterfaceClass: Vendor Specific (0xff)]
Leftover Capture Data: 4d4d120200000404000000a7ee3509

0000  80 0d 76 e4 00 00 00 00 53 03 02 23 04 00 2d 00   ..v.....S..#..-.
0010  41 4b 4b 58 00 00 00 00 18 8c 00 00 8d ff ff ff   AKKX............
0020  0f 00 00 00 0f 00 00 00 00 00 00 00 00 00 00 00   ................
0030  00 00 00 00 00 00 00 00 00 00 00 00 00 00 00 00   ................
0040  4d 4d 12 02 00 00 04 04 00 00 00 a7 ee 35 09      MM...........5.
No.     Time           Source                Destination           Protocol Length Info
     36 21.626633000   host                  35.1                  USB      64     URB_BULK in

Frame 36: 64 bytes on wire (512 bits), 64 bytes captured (512 bits) on interface 0
    Interface id: 0
    Encapsulation type: USB packets with Linux header and padding (115)
    Arrival Time: Dec 10, 2016 01:24:33.035978000 CET
    [Time shift for this packet: 0.000000000 seconds]
    Epoch Time: 1481329473.035978000 seconds
    [Time delta from previous captured frame: 0.000114000 seconds]
    [Time delta from previous displayed frame: 0.000114000 seconds]
    [Time since reference or first frame: 21.626633000 seconds]
    Frame Number: 36
    Frame Length: 64 bytes (512 bits)
    Capture Length: 64 bytes (512 bits)
    [Frame is marked: False]
    [Frame is ignored: False]
    [Protocols in frame: usb]
USB URB
    URB id: 0x00000000e47600c0
    URB type: URB_SUBMIT ('S')
    URB transfer type: URB_BULK (0x03)
    Endpoint: 0x81, Direction: IN
        1... .... = Direction: IN (1)
        .000 0001 = Endpoint value: 1
    Device: 35
    URB bus id: 4
    Device setup request: not relevant ('-')
    Data: not present ('<')
    URB sec: 1481329473
    URB usec: 35978
    URB status: Operation now in progress (-EINPROGRESS) (-115)
    URB length [bytes]: 1000
    Data length [bytes]: 0
    [Response in: 37]
    [bInterfaceClass: Vendor Specific (0xff)]

0000  c0 00 76 e4 00 00 00 00 53 03 81 23 04 00 2d 3c   ..v.....S..#..-<
0010  41 4b 4b 58 00 00 00 00 8a 8c 00 00 8d ff ff ff   AKKX............
0020  e8 03 00 00 00 00 00 00 00 00 00 00 00 00 00 00   ................
0030  00 00 00 00 00 00 00 00 00 02 00 00 00 00 00 00   ................
No.     Time           Source                Destination           Protocol Length Info
     37 21.626878000   35.2                  host                  USB      64     URB_BULK out

Frame 37: 64 bytes on wire (512 bits), 64 bytes captured (512 bits) on interface 0
    Interface id: 0
    Encapsulation type: USB packets with Linux header and padding (115)
    Arrival Time: Dec 10, 2016 01:24:33.036223000 CET
    [Time shift for this packet: 0.000000000 seconds]
    Epoch Time: 1481329473.036223000 seconds
    [Time delta from previous captured frame: 0.000245000 seconds]
    [Time delta from previous displayed frame: 0.000245000 seconds]
    [Time since reference or first frame: 21.626878000 seconds]
    Frame Number: 37
    Frame Length: 64 bytes (512 bits)
    Capture Length: 64 bytes (512 bits)
    [Frame is marked: False]
    [Frame is ignored: False]
    [Protocols in frame: usb]
USB URB
    URB id: 0x00000000e4760d80
    URB type: URB_COMPLETE ('C')
    URB transfer type: URB_BULK (0x03)
    Endpoint: 0x02, Direction: OUT
        0... .... = Direction: OUT (0)
        .000 0010 = Endpoint value: 2
    Device: 35
    URB bus id: 4
    Device setup request: not relevant ('-')
    Data: not present ('>')
    URB sec: 1481329473
    URB usec: 36223
    URB status: Success (0)
    URB length [bytes]: 15
    Data length [bytes]: 0
    [Request in: 36]
    [Time from request: 0.000245000 seconds]
    [bInterfaceClass: Vendor Specific (0xff)]

0000  80 0d 76 e4 00 00 00 00 43 03 02 23 04 00 2d 3e   ..v.....C..#..->
0010  41 4b 4b 58 00 00 00 00 7f 8d 00 00 00 00 00 00   AKKX............
0020  0f 00 00 00 00 00 00 00 00 00 00 00 00 00 00 00   ................
0030  00 00 00 00 00 00 00 00 00 00 00 00 00 00 00 00   ................
No.     Time           Source                Destination           Protocol Length Info
     38 21.704099000   host                  35.2                  USB      79     URB_BULK out

Frame 38: 79 bytes on wire (632 bits), 79 bytes captured (632 bits) on interface 0
    Interface id: 0
    Encapsulation type: USB packets with Linux header and padding (115)
    Arrival Time: Dec 10, 2016 01:24:33.113444000 CET
    [Time shift for this packet: 0.000000000 seconds]
    Epoch Time: 1481329473.113444000 seconds
    [Time delta from previous captured frame: 0.077221000 seconds]
    [Time delta from previous displayed frame: 0.077221000 seconds]
    [Time since reference or first frame: 21.704099000 seconds]
    Frame Number: 38
    Frame Length: 79 bytes (632 bits)
    Capture Length: 79 bytes (632 bits)
    [Frame is marked: False]
    [Frame is ignored: False]
    [Protocols in frame: usb]
USB URB
    URB id: 0x00000000f52c3000
    URB type: URB_SUBMIT ('S')
    URB transfer type: URB_BULK (0x03)
    Endpoint: 0x02, Direction: OUT
        0... .... = Direction: OUT (0)
        .000 0010 = Endpoint value: 2
    Device: 35
    URB bus id: 4
    Device setup request: not relevant ('-')
    Data: present (0)
    URB sec: 1481329473
    URB usec: 113444
    URB status: Operation now in progress (-EINPROGRESS) (-115)
    URB length [bytes]: 15
    Data length [bytes]: 15
    [Response in: 39]
    [bInterfaceClass: Vendor Specific (0xff)]
Leftover Capture Data: 4d4d120100000404000000296132ea

0000  00 30 2c f5 00 00 00 00 53 03 02 23 04 00 2d 00   .0,.....S..#..-.
0010  41 4b 4b 58 00 00 00 00 24 bb 01 00 8d ff ff ff   AKKX....$.......
0020  0f 00 00 00 0f 00 00 00 00 00 00 00 00 00 00 00   ................
0030  00 00 00 00 00 00 00 00 00 00 00 00 00 00 00 00   ................
0040  4d 4d 12 01 00 00 04 04 00 00 00 29 61 32 ea      MM.........)a2.
No.     Time           Source                Destination           Protocol Length Info
     39 21.704895000   35.2                  host                  USB      64     URB_BULK out

Frame 39: 64 bytes on wire (512 bits), 64 bytes captured (512 bits) on interface 0
    Interface id: 0
    Encapsulation type: USB packets with Linux header and padding (115)
    Arrival Time: Dec 10, 2016 01:24:33.114240000 CET
    [Time shift for this packet: 0.000000000 seconds]
    Epoch Time: 1481329473.114240000 seconds
    [Time delta from previous captured frame: 0.000796000 seconds]
    [Time delta from previous displayed frame: 0.000796000 seconds]
    [Time since reference or first frame: 21.704895000 seconds]
    Frame Number: 39
    Frame Length: 64 bytes (512 bits)
    Capture Length: 64 bytes (512 bits)
    [Frame is marked: False]
    [Frame is ignored: False]
    [Protocols in frame: usb]
USB URB
    URB id: 0x00000000f52c3000
    URB type: URB_COMPLETE ('C')
    URB transfer type: URB_BULK (0x03)
    Endpoint: 0x02, Direction: OUT
        0... .... = Direction: OUT (0)
        .000 0010 = Endpoint value: 2
    Device: 35
    URB bus id: 4
    Device setup request: not relevant ('-')
    Data: not present ('>')
    URB sec: 1481329473
    URB usec: 114240
    URB status: Success (0)
    URB length [bytes]: 15
    Data length [bytes]: 0
    [Request in: 38]
    [Time from request: 0.000796000 seconds]
    [bInterfaceClass: Vendor Specific (0xff)]

0000  00 30 2c f5 00 00 00 00 43 03 02 23 04 00 2d 3e   .0,.....C..#..->
0010  41 4b 4b 58 00 00 00 00 40 be 01 00 00 00 00 00   AKKX....@.......
0020  0f 00 00 00 00 00 00 00 00 00 00 00 00 00 00 00   ................
0030  00 00 00 00 00 00 00 00 00 00 00 00 00 00 00 00   ................
No.     Time           Source                Destination           Protocol Length Info
     40 21.714685000   host                  35.2                  USB      79     URB_BULK out

Frame 40: 79 bytes on wire (632 bits), 79 bytes captured (632 bits) on interface 0
    Interface id: 0
    Encapsulation type: USB packets with Linux header and padding (115)
    Arrival Time: Dec 10, 2016 01:24:33.124030000 CET
    [Time shift for this packet: 0.000000000 seconds]
    Epoch Time: 1481329473.124030000 seconds
    [Time delta from previous captured frame: 0.009790000 seconds]
    [Time delta from previous displayed frame: 0.009790000 seconds]
    [Time since reference or first frame: 21.714685000 seconds]
    Frame Number: 40
    Frame Length: 79 bytes (632 bits)
    Capture Length: 79 bytes (632 bits)
    [Frame is marked: False]
    [Frame is ignored: False]
    [Protocols in frame: usb]
USB URB
    URB id: 0x00000000f57b1480
    URB type: URB_SUBMIT ('S')
    URB transfer type: URB_BULK (0x03)
    Endpoint: 0x02, Direction: OUT
        0... .... = Direction: OUT (0)
        .000 0010 = Endpoint value: 2
    Device: 35
    URB bus id: 4
    Device setup request: not relevant ('-')
    Data: present (0)
    URB sec: 1481329473
    URB usec: 124030
    URB status: Operation now in progress (-EINPROGRESS) (-115)
    URB length [bytes]: 15
    Data length [bytes]: 15
    [Response in: 41]
    [bInterfaceClass: Vendor Specific (0xff)]
Leftover Capture Data: 4d4d12020000040200000082856ad5

0000  80 14 7b f5 00 00 00 00 53 03 02 23 04 00 2d 00   ..{.....S..#..-.
0010  41 4b 4b 58 00 00 00 00 7e e4 01 00 8d ff ff ff   AKKX....~.......
0020  0f 00 00 00 0f 00 00 00 00 00 00 00 00 00 00 00   ................
0030  00 00 00 00 00 00 00 00 00 00 00 00 00 00 00 00   ................
0040  4d 4d 12 02 00 00 04 02 00 00 00 82 85 6a d5      MM...........j.
No.     Time           Source                Destination           Protocol Length Info
     41 21.714882000   35.2                  host                  USB      64     URB_BULK out

Frame 41: 64 bytes on wire (512 bits), 64 bytes captured (512 bits) on interface 0
    Interface id: 0
    Encapsulation type: USB packets with Linux header and padding (115)
    Arrival Time: Dec 10, 2016 01:24:33.124227000 CET
    [Time shift for this packet: 0.000000000 seconds]
    Epoch Time: 1481329473.124227000 seconds
    [Time delta from previous captured frame: 0.000197000 seconds]
    [Time delta from previous displayed frame: 0.000197000 seconds]
    [Time since reference or first frame: 21.714882000 seconds]
    Frame Number: 41
    Frame Length: 64 bytes (512 bits)
    Capture Length: 64 bytes (512 bits)
    [Frame is marked: False]
    [Frame is ignored: False]
    [Protocols in frame: usb]
USB URB
    URB id: 0x00000000f57b1480
    URB type: URB_COMPLETE ('C')
    URB transfer type: URB_BULK (0x03)
    Endpoint: 0x02, Direction: OUT
        0... .... = Direction: OUT (0)
        .000 0010 = Endpoint value: 2
    Device: 35
    URB bus id: 4
    Device setup request: not relevant ('-')
    Data: not present ('>')
    URB sec: 1481329473
    URB usec: 124227
    URB status: Success (0)
    URB length [bytes]: 15
    Data length [bytes]: 0
    [Request in: 40]
    [Time from request: 0.000197000 seconds]
    [bInterfaceClass: Vendor Specific (0xff)]

0000  80 14 7b f5 00 00 00 00 43 03 02 23 04 00 2d 3e   ..{.....C..#..->
0010  41 4b 4b 58 00 00 00 00 43 e5 01 00 00 00 00 00   AKKX....C.......
0020  0f 00 00 00 00 00 00 00 00 00 00 00 00 00 00 00   ................
0030  00 00 00 00 00 00 00 00 00 00 00 00 00 00 00 00   ................
No.     Time           Source                Destination           Protocol Length Info
     42 21.792642000   host                  35.2                  USB      79     URB_BULK out

Frame 42: 79 bytes on wire (632 bits), 79 bytes captured (632 bits) on interface 0
    Interface id: 0
    Encapsulation type: USB packets with Linux header and padding (115)
    Arrival Time: Dec 10, 2016 01:24:33.201987000 CET
    [Time shift for this packet: 0.000000000 seconds]
    Epoch Time: 1481329473.201987000 seconds
    [Time delta from previous captured frame: 0.077760000 seconds]
    [Time delta from previous displayed frame: 0.077760000 seconds]
    [Time since reference or first frame: 21.792642000 seconds]
    Frame Number: 42
    Frame Length: 79 bytes (632 bits)
    Capture Length: 79 bytes (632 bits)
    [Frame is marked: False]
    [Frame is ignored: False]
    [Protocols in frame: usb]
USB URB
    URB id: 0x00000000f22513c0
    URB type: URB_SUBMIT ('S')
    URB transfer type: URB_BULK (0x03)
    Endpoint: 0x02, Direction: OUT
        0... .... = Direction: OUT (0)
        .000 0010 = Endpoint value: 2
    Device: 35
    URB bus id: 4
    Device setup request: not relevant ('-')
    Data: present (0)
    URB sec: 1481329473
    URB usec: 201987
    URB status: Operation now in progress (-EINPROGRESS) (-115)
    URB length [bytes]: 15
    Data length [bytes]: 15
    [Response in: 43]
    [bInterfaceClass: Vendor Specific (0xff)]
Leftover Capture Data: 4d4d12020000040200000082856ad5

0000  c0 13 25 f2 00 00 00 00 53 03 02 23 04 00 2d 00   ..%.....S..#..-.
0010  41 4b 4b 58 00 00 00 00 03 15 03 00 8d ff ff ff   AKKX............
0020  0f 00 00 00 0f 00 00 00 00 00 00 00 00 00 00 00   ................
0030  00 00 00 00 00 00 00 00 00 00 00 00 00 00 00 00   ................
0040  4d 4d 12 02 00 00 04 02 00 00 00 82 85 6a d5      MM...........j.
No.     Time           Source                Destination           Protocol Length Info
     43 21.792891000   35.2                  host                  USB      64     URB_BULK out

Frame 43: 64 bytes on wire (512 bits), 64 bytes captured (512 bits) on interface 0
    Interface id: 0
    Encapsulation type: USB packets with Linux header and padding (115)
    Arrival Time: Dec 10, 2016 01:24:33.202236000 CET
    [Time shift for this packet: 0.000000000 seconds]
    Epoch Time: 1481329473.202236000 seconds
    [Time delta from previous captured frame: 0.000249000 seconds]
    [Time delta from previous displayed frame: 0.000249000 seconds]
    [Time since reference or first frame: 21.792891000 seconds]
    Frame Number: 43
    Frame Length: 64 bytes (512 bits)
    Capture Length: 64 bytes (512 bits)
    [Frame is marked: False]
    [Frame is ignored: False]
    [Protocols in frame: usb]
USB URB
    URB id: 0x00000000f22513c0
    URB type: URB_COMPLETE ('C')
    URB transfer type: URB_BULK (0x03)
    Endpoint: 0x02, Direction: OUT
        0... .... = Direction: OUT (0)
        .000 0010 = Endpoint value: 2
    Device: 35
    URB bus id: 4
    Device setup request: not relevant ('-')
    Data: not present ('>')
    URB sec: 1481329473
    URB usec: 202236
    URB status: Success (0)
    URB length [bytes]: 15
    Data length [bytes]: 0
    [Request in: 42]
    [Time from request: 0.000249000 seconds]
    [bInterfaceClass: Vendor Specific (0xff)]

0000  c0 13 25 f2 00 00 00 00 43 03 02 23 04 00 2d 3e   ..%.....C..#..->
0010  41 4b 4b 58 00 00 00 00 fc 15 03 00 00 00 00 00   AKKX............
0020  0f 00 00 00 00 00 00 00 00 00 00 00 00 00 00 00   ................
0030  00 00 00 00 00 00 00 00 00 00 00 00 00 00 00 00   ................
No.     Time           Source                Destination           Protocol Length Info
     44 21.907243000   host                  35.2                  USB      79     URB_BULK out

Frame 44: 79 bytes on wire (632 bits), 79 bytes captured (632 bits) on interface 0
    Interface id: 0
    Encapsulation type: USB packets with Linux header and padding (115)
    Arrival Time: Dec 10, 2016 01:24:33.316588000 CET
    [Time shift for this packet: 0.000000000 seconds]
    Epoch Time: 1481329473.316588000 seconds
    [Time delta from previous captured frame: 0.114352000 seconds]
    [Time delta from previous displayed frame: 0.114352000 seconds]
    [Time since reference or first frame: 21.907243000 seconds]
    Frame Number: 44
    Frame Length: 79 bytes (632 bits)
    Capture Length: 79 bytes (632 bits)
    [Frame is marked: False]
    [Frame is ignored: False]
    [Protocols in frame: usb]
USB URB
    URB id: 0x00000000f2251b40
    URB type: URB_SUBMIT ('S')
    URB transfer type: URB_BULK (0x03)
    Endpoint: 0x02, Direction: OUT
        0... .... = Direction: OUT (0)
        .000 0010 = Endpoint value: 2
    Device: 35
    URB bus id: 4
    Device setup request: not relevant ('-')
    Data: present (0)
    URB sec: 1481329473
    URB usec: 316588
    URB status: Operation now in progress (-EINPROGRESS) (-115)
    URB length [bytes]: 15
    Data length [bytes]: 15
    [Response in: 45]
    [bInterfaceClass: Vendor Specific (0xff)]
Leftover Capture Data: 4d4d12020000040200000082856ad5

0000  40 1b 25 f2 00 00 00 00 53 03 02 23 04 00 2d 00   @.%.....S..#..-.
0010  41 4b 4b 58 00 00 00 00 ac d4 04 00 8d ff ff ff   AKKX............
0020  0f 00 00 00 0f 00 00 00 00 00 00 00 00 00 00 00   ................
0030  00 00 00 00 00 00 00 00 00 00 00 00 00 00 00 00   ................
0040  4d 4d 12 02 00 00 04 02 00 00 00 82 85 6a d5      MM...........j.
No.     Time           Source                Destination           Protocol Length Info
     45 21.907890000   35.2                  host                  USB      64     URB_BULK out

Frame 45: 64 bytes on wire (512 bits), 64 bytes captured (512 bits) on interface 0
    Interface id: 0
    Encapsulation type: USB packets with Linux header and padding (115)
    Arrival Time: Dec 10, 2016 01:24:33.317235000 CET
    [Time shift for this packet: 0.000000000 seconds]
    Epoch Time: 1481329473.317235000 seconds
    [Time delta from previous captured frame: 0.000647000 seconds]
    [Time delta from previous displayed frame: 0.000647000 seconds]
    [Time since reference or first frame: 21.907890000 seconds]
    Frame Number: 45
    Frame Length: 64 bytes (512 bits)
    Capture Length: 64 bytes (512 bits)
    [Frame is marked: False]
    [Frame is ignored: False]
    [Protocols in frame: usb]
USB URB
    URB id: 0x00000000f2251b40
    URB type: URB_COMPLETE ('C')
    URB transfer type: URB_BULK (0x03)
    Endpoint: 0x02, Direction: OUT
        0... .... = Direction: OUT (0)
        .000 0010 = Endpoint value: 2
    Device: 35
    URB bus id: 4
    Device setup request: not relevant ('-')
    Data: not present ('>')
    URB sec: 1481329473
    URB usec: 317235
    URB status: Success (0)
    URB length [bytes]: 15
    Data length [bytes]: 0
    [Request in: 44]
    [Time from request: 0.000647000 seconds]
    [bInterfaceClass: Vendor Specific (0xff)]

0000  40 1b 25 f2 00 00 00 00 43 03 02 23 04 00 2d 3e   @.%.....C..#..->
0010  41 4b 4b 58 00 00 00 00 33 d7 04 00 00 00 00 00   AKKX....3.......
0020  0f 00 00 00 00 00 00 00 00 00 00 00 00 00 00 00   ................
0030  00 00 00 00 00 00 00 00 00 00 00 00 00 00 00 00   ................
No.     Time           Source                Destination           Protocol Length Info
     46 22.021574000   host                  35.2                  USB      79     URB_BULK out

Frame 46: 79 bytes on wire (632 bits), 79 bytes captured (632 bits) on interface 0
    Interface id: 0
    Encapsulation type: USB packets with Linux header and padding (115)
    Arrival Time: Dec 10, 2016 01:24:33.430919000 CET
    [Time shift for this packet: 0.000000000 seconds]
    Epoch Time: 1481329473.430919000 seconds
    [Time delta from previous captured frame: 0.113684000 seconds]
    [Time delta from previous displayed frame: 0.113684000 seconds]
    [Time since reference or first frame: 22.021574000 seconds]
    Frame Number: 46
    Frame Length: 79 bytes (632 bits)
    Capture Length: 79 bytes (632 bits)
    [Frame is marked: False]
    [Frame is ignored: False]
    [Protocols in frame: usb]
USB URB
    URB id: 0x00000000f2251300
    URB type: URB_SUBMIT ('S')
    URB transfer type: URB_BULK (0x03)
    Endpoint: 0x02, Direction: OUT
        0... .... = Direction: OUT (0)
        .000 0010 = Endpoint value: 2
    Device: 35
    URB bus id: 4
    Device setup request: not relevant ('-')
    Data: present (0)
    URB sec: 1481329473
    URB usec: 430919
    URB status: Operation now in progress (-EINPROGRESS) (-115)
    URB length [bytes]: 15
    Data length [bytes]: 15
    [Response in: 47]
    [bInterfaceClass: Vendor Specific (0xff)]
Leftover Capture Data: 4d4d12020000040200000082856ad5

0000  00 13 25 f2 00 00 00 00 53 03 02 23 04 00 2d 00   ..%.....S..#..-.
0010  41 4b 4b 58 00 00 00 00 47 93 06 00 8d ff ff ff   AKKX....G.......
0020  0f 00 00 00 0f 00 00 00 00 00 00 00 00 00 00 00   ................
0030  00 00 00 00 00 00 00 00 00 00 00 00 00 00 00 00   ................
0040  4d 4d 12 02 00 00 04 02 00 00 00 82 85 6a d5      MM...........j.
No.     Time           Source                Destination           Protocol Length Info
     47 22.021893000   35.2                  host                  USB      64     URB_BULK out

Frame 47: 64 bytes on wire (512 bits), 64 bytes captured (512 bits) on interface 0
    Interface id: 0
    Encapsulation type: USB packets with Linux header and padding (115)
    Arrival Time: Dec 10, 2016 01:24:33.431238000 CET
    [Time shift for this packet: 0.000000000 seconds]
    Epoch Time: 1481329473.431238000 seconds
    [Time delta from previous captured frame: 0.000319000 seconds]
    [Time delta from previous displayed frame: 0.000319000 seconds]
    [Time since reference or first frame: 22.021893000 seconds]
    Frame Number: 47
    Frame Length: 64 bytes (512 bits)
    Capture Length: 64 bytes (512 bits)
    [Frame is marked: False]
    [Frame is ignored: False]
    [Protocols in frame: usb]
USB URB
    URB id: 0x00000000f2251300
    URB type: URB_COMPLETE ('C')
    URB transfer type: URB_BULK (0x03)
    Endpoint: 0x02, Direction: OUT
        0... .... = Direction: OUT (0)
        .000 0010 = Endpoint value: 2
    Device: 35
    URB bus id: 4
    Device setup request: not relevant ('-')
    Data: not present ('>')
    URB sec: 1481329473
    URB usec: 431238
    URB status: Success (0)
    URB length [bytes]: 15
    Data length [bytes]: 0
    [Request in: 46]
    [Time from request: 0.000319000 seconds]
    [bInterfaceClass: Vendor Specific (0xff)]

0000  00 13 25 f2 00 00 00 00 43 03 02 23 04 00 2d 3e   ..%.....C..#..->
0010  41 4b 4b 58 00 00 00 00 86 94 06 00 00 00 00 00   AKKX............
0020  0f 00 00 00 00 00 00 00 00 00 00 00 00 00 00 00   ................
0030  00 00 00 00 00 00 00 00 00 00 00 00 00 00 00 00   ................
No.     Time           Source                Destination           Protocol Length Info
     48 22.135629000   host                  35.2                  USB      79     URB_BULK out

Frame 48: 79 bytes on wire (632 bits), 79 bytes captured (632 bits) on interface 0
    Interface id: 0
    Encapsulation type: USB packets with Linux header and padding (115)
    Arrival Time: Dec 10, 2016 01:24:33.544974000 CET
    [Time shift for this packet: 0.000000000 seconds]
    Epoch Time: 1481329473.544974000 seconds
    [Time delta from previous captured frame: 0.113736000 seconds]
    [Time delta from previous displayed frame: 0.113736000 seconds]
    [Time since reference or first frame: 22.135629000 seconds]
    Frame Number: 48
    Frame Length: 79 bytes (632 bits)
    Capture Length: 79 bytes (632 bits)
    [Frame is marked: False]
    [Frame is ignored: False]
    [Protocols in frame: usb]
USB URB
    URB id: 0x00000000d10476c0
    URB type: URB_SUBMIT ('S')
    URB transfer type: URB_BULK (0x03)
    Endpoint: 0x02, Direction: OUT
        0... .... = Direction: OUT (0)
        .000 0010 = Endpoint value: 2
    Device: 35
    URB bus id: 4
    Device setup request: not relevant ('-')
    Data: present (0)
